{
  "_format": "hh-sol-artifact-1",
  "contractName": "CrystalLend",
  "sourceName": "contracts/ave.sol",
  "abi": [
    {
      "inputs": [
        {
          "internalType": "address",
          "name": "token",
          "type": "address"
        },
        {
          "internalType": "uint256",
          "name": "amount",
          "type": "uint256"
        },
        {
          "internalType": "uint256",
          "name": "accountId",
          "type": "uint256"
        }
      ],
      "name": "borrow",
      "outputs": [],
      "stateMutability": "nonpayable",
      "type": "function"
    },
    {
      "inputs": [
        {
          "internalType": "address",
          "name": "supplyToken",
          "type": "address"
        },
        {
          "internalType": "uint256",
          "name": "supplyCollateral",
          "type": "uint256"
        },
        {
          "internalType": "address",
          "name": "borrowToken",
          "type": "address"
        },
        {
          "internalType": "uint256",
          "name": "borrowAmount",
          "type": "uint256"
        }
      ],
      "name": "flash",
      "outputs": [],
      "stateMutability": "nonpayable",
      "type": "function"
    },
    {
      "inputs": [
        {
          "internalType": "bool",
          "name": "isIncrease",
          "type": "bool"
        },
        {
          "internalType": "address",
          "name": "owner",
          "type": "address"
        },
        {
          "internalType": "uint256",
          "name": "id",
          "type": "uint256"
        }
      ],
      "name": "getAccountHealth",
      "outputs": [
        {
          "internalType": "uint256",
          "name": "solvency",
          "type": "uint256"
        }
      ],
      "stateMutability": "view",
      "type": "function"
    },
    {
      "inputs": [
        {
          "internalType": "address",
          "name": "token",
          "type": "address"
        }
      ],
      "name": "getInterestRate",
      "outputs": [
        {
          "internalType": "uint256",
          "name": "supplyRate",
          "type": "uint256"
        },
        {
          "internalType": "uint256",
          "name": "borrowRate",
          "type": "uint256"
        }
      ],
      "stateMutability": "view",
      "type": "function"
    },
    {
      "inputs": [],
      "name": "gov",
      "outputs": [
        {
          "internalType": "address",
          "name": "",
          "type": "address"
        }
      ],
      "stateMutability": "view",
      "type": "function"
    },
    {
      "inputs": [
        {
          "internalType": "address",
          "name": "user",
          "type": "address"
        },
        {
          "internalType": "uint256",
          "name": "accountId",
          "type": "uint256"
        },
        {
          "internalType": "address[]",
          "name": "repaymentTokens",
          "type": "address[]"
        },
        {
          "internalType": "uint256[]",
          "name": "repaymentAmounts",
          "type": "uint256[]"
        },
        {
          "internalType": "address[]",
          "name": "collateralToClaim",
          "type": "address[]"
        }
      ],
      "name": "liquidate",
      "outputs": [],
      "stateMutability": "nonpayable",
      "type": "function"
    },
    {
      "inputs": [
        {
          "internalType": "address",
          "name": "token",
          "type": "address"
        },
        {
          "internalType": "address",
          "name": "oracle",
          "type": "address"
        },
        {
          "internalType": "address",
          "name": "CrystalMarket",
          "type": "address"
        },
        {
          "internalType": "bool",
          "name": "isQuoteToken",
          "type": "bool"
        },
        {
          "internalType": "uint256",
          "name": "oraclePriceFactor",
          "type": "uint256"
        },
        {
          "internalType": "uint256",
          "name": "maxBorrowLTV",
          "type": "uint256"
        },
        {
          "internalType": "uint256",
          "name": "liquidationLTV",
          "type": "uint256"
        },
        {
          "internalType": "uint256",
          "name": "liquidationBonus",
          "type": "uint256"
        }
      ],
      "name": "listToken",
      "outputs": [],
      "stateMutability": "nonpayable",
      "type": "function"
    },
    {
      "inputs": [
        {
          "internalType": "address",
          "name": "token",
          "type": "address"
        },
        {
          "internalType": "uint256",
          "name": "amount",
          "type": "uint256"
        },
        {
          "internalType": "uint256",
          "name": "accountId",
          "type": "uint256"
        }
      ],
      "name": "repay",
      "outputs": [],
      "stateMutability": "nonpayable",
      "type": "function"
    },
    {
      "inputs": [
        {
          "internalType": "address",
          "name": "token",
          "type": "address"
        },
        {
          "internalType": "uint256",
          "name": "amount",
          "type": "uint256"
        },
        {
          "internalType": "uint256",
          "name": "accountId",
          "type": "uint256"
        }
      ],
      "name": "supply",
      "outputs": [],
      "stateMutability": "nonpayable",
      "type": "function"
    },
    {
      "inputs": [
        {
          "internalType": "address",
          "name": "",
          "type": "address"
        }
      ],
      "name": "tokens",
      "outputs": [
        {
          "internalType": "address",
          "name": "oracle",
          "type": "address"
        },
        {
          "internalType": "address",
          "name": "CrystalMarket",
          "type": "address"
        },
        {
          "internalType": "bool",
          "name": "isQuoteToken",
          "type": "bool"
        },
        {
          "internalType": "uint256",
          "name": "scaleFactor",
          "type": "uint256"
        },
        {
          "internalType": "uint256",
          "name": "maxBorrowLTV",
          "type": "uint256"
        },
        {
          "internalType": "uint256",
          "name": "liquidationLTV",
          "type": "uint256"
        },
        {
          "internalType": "uint256",
          "name": "liquidationBonus",
          "type": "uint256"
        },
        {
          "internalType": "uint256",
          "name": "currentRate",
          "type": "uint256"
        },
        {
          "internalType": "uint256",
          "name": "totalSupplied",
          "type": "uint256"
        },
        {
          "internalType": "uint256",
          "name": "totalBorrowed",
          "type": "uint256"
        },
        {
          "internalType": "uint256",
          "name": "supplyIndex",
          "type": "uint256"
        },
        {
          "internalType": "uint256",
          "name": "borrowIndex",
          "type": "uint256"
        }
      ],
      "stateMutability": "view",
      "type": "function"
    },
    {
      "inputs": [
        {
          "internalType": "address",
          "name": "token",
          "type": "address"
        },
        {
          "internalType": "address",
          "name": "oracle",
          "type": "address"
        },
        {
          "internalType": "address",
          "name": "CrystalMarket",
          "type": "address"
        },
        {
          "internalType": "bool",
          "name": "isQuoteToken",
          "type": "bool"
        },
        {
          "internalType": "uint256",
          "name": "oraclePriceFactor",
          "type": "uint256"
        },
        {
          "internalType": "uint256",
          "name": "maxBorrowLTV",
          "type": "uint256"
        },
        {
          "internalType": "uint256",
          "name": "liquidationLTV",
          "type": "uint256"
        },
        {
          "internalType": "uint256",
          "name": "liquidationBonus",
          "type": "uint256"
        }
      ],
      "name": "updateParams",
      "outputs": [],
      "stateMutability": "nonpayable",
      "type": "function"
    },
    {
      "inputs": [
        {
          "internalType": "address",
          "name": "token",
          "type": "address"
        },
        {
          "internalType": "uint256",
          "name": "amount",
          "type": "uint256"
        },
        {
          "internalType": "uint256",
          "name": "accountId",
          "type": "uint256"
        }
      ],
      "name": "withdraw",
      "outputs": [],
      "stateMutability": "nonpayable",
      "type": "function"
    }
  ],
  "bytecode": "0x6080604052348015600e575f5ffd5b50611d2f8061001c5f395ff3fe608060405234801561000f575f5ffd5b50600436106100cf575f3560e01c80638cd2e0c71161007d578063c1bce0b711610058578063c1bce0b7146101ca578063d3ea0f89146101dd578063e486033914610207575f5ffd5b80638cd2e0c714610191578063a3c19e60146101a4578063b5c5f672146101b7575f5ffd5b806360b96308116100ad57806360b96308146101455780637dbca35314610166578063892572d814610179575f5ffd5b806312d43a51146100d3578063213b76841461011d5780635d40da2414610132575b5f5ffd5b6002546100f39073ffffffffffffffffffffffffffffffffffffffff1681565b60405173ffffffffffffffffffffffffffffffffffffffff90911681526020015b60405180910390f35b61013061012b366004611836565b61030d565b005b610130610140366004611836565b610553565b6101586101533660046118ab565b6108a5565b604051908152602001610114565b6101306101743660046118e7565b610e5b565b61013061018736600461195f565b5050505050505050565b61013061019f3660046118e7565b611052565b6101306101b2366004611a17565b611224565b6101306101c53660046118e7565b6113cf565b6101306101d83660046118e7565b61156d565b6101f26101eb366004611a58565b5f5f915091565b60408051928352602083019190915201610114565b610296610215366004611a58565b600160208190525f918252604090912080549181015460028201546003830154600484015460058501546006860154600787015460088801546009890154600a9099015473ffffffffffffffffffffffffffffffffffffffff9a8b169a8916997401000000000000000000000000000000000000000090990460ff1698908c565b6040805173ffffffffffffffffffffffffffffffffffffffff9d8e1681529c909b1660208d0152981515998b019990995260608a0196909652608089019490945260a088019290925260c087015260e086015261010085015261012084015261014083019190915261016082015261018001610114565b60025473ffffffffffffffffffffffffffffffffffffffff163314610330575f5ffd5b73ffffffffffffffffffffffffffffffffffffffff8881165f8181526001602081815260409283902080547fffffffffffffffffffffffff0000000000000000000000000000000000000000168d87161781559182018054958c167fffffffffffffffffffffff00000000000000000000000000000000000000000090961695909517740100000000000000000000000000000000000000008b1515021790945581517f313ce5670000000000000000000000000000000000000000000000000000000081529151909363313ce56792600480820193918290030181865afa15801561041e573d5f5f3e3d5ffd5b505050506040513d601f19601f820116820180604052508101906104429190611a71565b61044d90600a611be1565b61045886600a611bef565b61046a90670de0b6b3a7640000611bfa565b6104749190611bfa565b6002820155600381018490556004808201849055600582018390556040517f095ea7b300000000000000000000000000000000000000000000000000000000815273ffffffffffffffffffffffffffffffffffffffff898116928201929092527fffffffffffffffffffffffffffffffffffffffffffffffffffffffffffffffff6024820152908a169063095ea7b3906044016020604051808303815f875af1158015610523573d5f5f3e3d5ffd5b505050506040513d601f19601f820116820180604052508101906105479190611c32565b50505050505050505050565b60025473ffffffffffffffffffffffffffffffffffffffff163314610576575f5ffd5b6040518061018001604052808873ffffffffffffffffffffffffffffffffffffffff1681526020018773ffffffffffffffffffffffffffffffffffffffff16815260200186151581526020018973ffffffffffffffffffffffffffffffffffffffff1663313ce5676040518163ffffffff1660e01b8152600401602060405180830381865afa15801561060b573d5f5f3e3d5ffd5b505050506040513d601f19601f8201168201806040525081019061062f9190611a71565b61063a90600a611be1565b61064587600a611bef565b61065790670de0b6b3a7640000611bfa565b6106619190611bfa565b81526020018481526020018381526020018281526020015f81526020015f81526020015f815260200160018152602001600181525060015f8a73ffffffffffffffffffffffffffffffffffffffff1673ffffffffffffffffffffffffffffffffffffffff1681526020019081526020015f205f820151815f015f6101000a81548173ffffffffffffffffffffffffffffffffffffffff021916908373ffffffffffffffffffffffffffffffffffffffff1602179055506020820151816001015f6101000a81548173ffffffffffffffffffffffffffffffffffffffff021916908373ffffffffffffffffffffffffffffffffffffffff16021790555060408201518160010160146101000a81548160ff021916908315150217905550606082015181600201556080820151816003015560a0820151816004015560c0820151816005015560e0820151816006015561010082015181600701556101208201518160080155610140820151816009015561016082015181600a01559050508773ffffffffffffffffffffffffffffffffffffffff1663095ea7b3877fffffffffffffffffffffffffffffffffffffffffffffffffffffffffffffffff6040518363ffffffff1660e01b815260040161085a92919073ffffffffffffffffffffffffffffffffffffffff929092168252602082015260400190565b6020604051808303815f875af1158015610876573d5f5f3e3d5ffd5b505050506040513d601f19601f8201168201806040525081019061089a9190611c32565b505050505050505050565b5f5f5f5f60a085901b8673ffffffffffffffffffffffffffffffffffffffff161781526020019081526020015f206040518060800160405290815f820180548060200260200160405190810160405280929190818152602001828054801561094157602002820191905f5260205f20905b815473ffffffffffffffffffffffffffffffffffffffff168152600190910190602001808311610916575b505050505081526020016001820180548060200260200160405190810160405280929190818152602001828054801561099757602002820191905f5260205f20905b815481526020019060010190808311610983575b5050505050815260200160028201805480602002602001604051908101604052809291908181526020018280548015610a0457602002820191905f5260205f20905b815473ffffffffffffffffffffffffffffffffffffffff1681526001909101906020018083116109d9575b5050505050815260200160038201805480602002602001604051908101604052809291908181526020018280548015610a5a57602002820191905f5260205f20905b815481526020019060010190808311610a46575b50505050508152505090508060400151515f03610a9a577fffffffffffffffffffffffffffffffffffffffffffffffffffffffffffffffff915050610e54565b5f808080805b855151811015610c78575f60015f885f01518481518110610ac357610ac3611c4d565b60209081029190910181015173ffffffffffffffffffffffffffffffffffffffff90811683528282019390935260409182015f208251610180810184528154851681526001820154948516818401527401000000000000000000000000000000000000000090940460ff161515928401929092526002820154606084015260038201546080840152600482015460a0840152600582015460c0840152600682015460e0840152600782015461010084015260088201546101208401526009820154610140840152600a9091015461016083015288015180519192509083908110610baf57610baf611c4d565b60200260200101519350805f015173ffffffffffffffffffffffffffffffffffffffff166398d5fdca6040518163ffffffff1660e01b8152600401602060405180830381865afa158015610c05573d5f5f3e3d5ffd5b505050506040513d601f19601f82011682018060405250810190610c299190611c7a565b92508a610c3a578060a00151610c40565b80608001515b6060820151610c4f8587611c91565b610c599190611c91565b610c639190611c91565b610c6d9087611ca8565b955050600101610aa0565b505f5b856040015151811015610e41575f60015f88604001518481518110610ca257610ca2611c4d565b60209081029190910181015173ffffffffffffffffffffffffffffffffffffffff90811683528282019390935260409182015f208251610180810184528154851681526001820154948516928101929092527401000000000000000000000000000000000000000090930460ff16151591810191909152600282015460608083019190915260038301546080830152600483015460a0830152600583015460c0830152600683015460e0830152600783015461010083015260088301546101208301526009830154610140830152600a909201546101608201529088015180519192509083908110610d9657610d96611c4d565b60200260200101519350805f015173ffffffffffffffffffffffffffffffffffffffff166398d5fdca6040518163ffffffff1660e01b8152600401602060405180830381865afa158015610dec573d5f5f3e3d5ffd5b505050506040513d601f19601f82011682018060405250810190610e109190611c7a565b6060820151909350610e228486611c91565b610e2c9190611c91565b610e369086611ca8565b945050600101610c7b565b50610e4c8385611bfa565b955050505050505b9392505050565b73ffffffffffffffffffffffffffffffffffffffff83165f9081526001602052604081206007018054849290610e92908490611ca8565b90915550506040517f23b872dd0000000000000000000000000000000000000000000000000000000081523360048201523060248201526044810183905273ffffffffffffffffffffffffffffffffffffffff8416906323b872dd906064016020604051808303815f875af1158015610f0d573d5f5f3e3d5ffd5b505050506040513d601f19601f82011682018060405250810190610f319190611c32565b503360a082901b175f908152602081905260408120905b8154811015610fe2578473ffffffffffffffffffffffffffffffffffffffff16825f018281548110610f7c57610f7c611c4d565b5f9182526020909120015473ffffffffffffffffffffffffffffffffffffffff1603610fda5783826001018281548110610fb857610fb8611c4d565b905f5260205f20015f828254610fce9190611ca8565b90915550505050505050565b600101610f48565b508054600180820183555f838152602080822090930180547fffffffffffffffffffffffff00000000000000000000000000000000000000001673ffffffffffffffffffffffffffffffffffffffff98909816979097179096559182018054928301815585529093209092015550565b3360a082901b175f908152602081905260408120905b60028201548110156100cf578473ffffffffffffffffffffffffffffffffffffffff168260020182815481106110a0576110a0611c4d565b5f9182526020909120015473ffffffffffffffffffffffffffffffffffffffff160361121c578160030181815481106110db576110db611c4d565b905f5260205f20015484111561110c5781600301818154811061110057611100611c4d565b905f5260205f20015493505b8382600301828154811061112257611122611c4d565b905f5260205f20015f8282546111389190611cbb565b909155505073ffffffffffffffffffffffffffffffffffffffff85165f9081526001602052604081206008018054869290611174908490611cbb565b90915550506040517f23b872dd0000000000000000000000000000000000000000000000000000000081523360048201523060248201526044810185905273ffffffffffffffffffffffffffffffffffffffff8616906323b872dd906064015b6020604051808303815f875af11580156111f0573d5f5f3e3d5ffd5b505050506040513d601f19601f820116820180604052508101906112149190611c32565b505050505050565b600101611068565b73ffffffffffffffffffffffffffffffffffffffff8281165f908152600160208181526040808420815161018081018352815487168152818501549687169381018490527401000000000000000000000000000000000000000090960460ff1615159186018290526002810154606087015260038101546080870152600481015460a0870152600581015460c0870152600681015460e0870152600781015461010087015260088101546101208701526009810154610140870152600a01546101608601528392634a83794b91908480808a85611301575f611323565b7fffffffffffffffffffffffffffffffffffffffffffffffffffffffffffffffff5b6040517fffffffff0000000000000000000000000000000000000000000000000000000060e08a901b1681529615156004880152941515602487015292151560448601529015156064850152608484015260a483015260c48201523360e48201525f610104820152610124016060604051808303815f875af11580156113ab573d5f5f3e3d5ffd5b505050506040513d601f19601f820116820180604052508101906105479190611cce565b3360a082901b175f908152602081905260408120905b81548110156100cf578473ffffffffffffffffffffffffffffffffffffffff16825f01828154811061141957611419611c4d565b5f9182526020909120015473ffffffffffffffffffffffffffffffffffffffff16036115655781600101818154811061145457611454611c4d565b905f5260205f2001548411156114855781600101818154811061147957611479611c4d565b905f5260205f20015493505b8382600101828154811061149b5761149b611c4d565b905f5260205f20015f8282546114b19190611cbb565b909155505073ffffffffffffffffffffffffffffffffffffffff85165f90815260016020526040812060070180548692906114ed908490611cbb565b90915550620186a09050611503600133866108a5565b1161150c575f5ffd5b6040517fa9059cbb0000000000000000000000000000000000000000000000000000000081523360048201526024810185905273ffffffffffffffffffffffffffffffffffffffff86169063a9059cbb906044016111d4565b6001016113e5565b73ffffffffffffffffffffffffffffffffffffffff83165f908152600160205260409020600801546115a0908390611ca8565b73ffffffffffffffffffffffffffffffffffffffff84165f9081526001602052604090206007015410156115d2575f5ffd5b73ffffffffffffffffffffffffffffffffffffffff83165f9081526001602052604081206008018054849290611609908490611ca8565b90915550506040517fa9059cbb0000000000000000000000000000000000000000000000000000000081523360048201526024810183905273ffffffffffffffffffffffffffffffffffffffff84169063a9059cbb906044016020604051808303815f875af115801561167e573d5f5f3e3d5ffd5b505050506040513d601f19601f820116820180604052508101906116a29190611c32565b503360a082901b175f908152602081905260408120905b6002820154811015611771578473ffffffffffffffffffffffffffffffffffffffff168260020182815481106116f1576116f1611c4d565b5f9182526020909120015473ffffffffffffffffffffffffffffffffffffffff1603611769578382600301828154811061172d5761172d611c4d565b905f5260205f20015f8282546117439190611ca8565b90915550620186a09050611759600133866108a5565b11611762575f5ffd5b5050505050565b6001016116b9565b50600281018054600180820183555f928352602080842090920180547fffffffffffffffffffffffff00000000000000000000000000000000000000001673ffffffffffffffffffffffffffffffffffffffff891617905560038401805480830182559084529190922001849055620186a0906117ef9033856108a5565b116117f8575f5ffd5b50505050565b803573ffffffffffffffffffffffffffffffffffffffff81168114611821575f5ffd5b919050565b8015158114611833575f5ffd5b50565b5f5f5f5f5f5f5f5f610100898b03121561184e575f5ffd5b611857896117fe565b975061186560208a016117fe565b965061187360408a016117fe565b9550606089013561188381611826565b979a969950949760808101359660a0820135965060c0820135955060e0909101359350915050565b5f5f5f606084860312156118bd575f5ffd5b83356118c881611826565b92506118d6602085016117fe565b929592945050506040919091013590565b5f5f5f606084860312156118f9575f5ffd5b611902846117fe565b95602085013595506040909401359392505050565b5f5f83601f840112611927575f5ffd5b50813567ffffffffffffffff81111561193e575f5ffd5b6020830191508360208260051b8501011115611958575f5ffd5b9250929050565b5f5f5f5f5f5f5f5f60a0898b031215611976575f5ffd5b61197f896117fe565b975060208901359650604089013567ffffffffffffffff8111156119a1575f5ffd5b6119ad8b828c01611917565b909750955050606089013567ffffffffffffffff8111156119cc575f5ffd5b6119d88b828c01611917565b909550935050608089013567ffffffffffffffff8111156119f7575f5ffd5b611a038b828c01611917565b999c989b5096995094979396929594505050565b5f5f5f5f60808587031215611a2a575f5ffd5b611a33856117fe565b935060208501359250611a48604086016117fe565b9396929550929360600135925050565b5f60208284031215611a68575f5ffd5b610e54826117fe565b5f60208284031215611a81575f5ffd5b815160ff81168114610e54575f5ffd5b7f4e487b71000000000000000000000000000000000000000000000000000000005f52601160045260245ffd5b6001815b6001841115611af957808504811115611add57611add611a91565b6001841615611aeb57908102905b60019390931c928002611ac2565b935093915050565b5f82611b0f57506001611bdb565b81611b1b57505f611bdb565b8160018114611b315760028114611b3b57611b57565b6001915050611bdb565b60ff841115611b4c57611b4c611a91565b50506001821b611bdb565b5060208310610133831016604e8410600b8410161715611b7a575081810a611bdb565b611ba57fffffffffffffffffffffffffffffffffffffffffffffffffffffffffffffffff8484611abe565b807fffffffffffffffffffffffffffffffffffffffffffffffffffffffffffffffff04821115611bd757611bd7611a91565b0290505b92915050565b5f610e5460ff841683611b01565b5f610e548383611b01565b5f82611c2d577f4e487b71000000000000000000000000000000000000000000000000000000005f52601260045260245ffd5b500490565b5f60208284031215611c42575f5ffd5b8151610e5481611826565b7f4e487b71000000000000000000000000000000000000000000000000000000005f52603260045260245ffd5b5f60208284031215611c8a575f5ffd5b5051919050565b8082028115828204841417611bdb57611bdb611a91565b80820180821115611bdb57611bdb611a91565b81810381811115611bdb57611bdb611a91565b5f5f5f60608486031215611ce0575f5ffd5b505081516020830151604090930151909492935091905056fea2646970667358221220afb8132125ba86a86a9bab635a2279beb9906e3d19dafbbcfae88f0d64e1f66b64736f6c634300081c0033",
  "linkReferences": {},
  "deployedLinkReferences": {}
}