{
  "_format": "hh-sol-artifact-1",
  "contractName": "CrystalPriceAdapter",
  "sourceName": "contracts/ave.sol",
  "abi": [
    {
      "inputs": [
        {
          "internalType": "address",
          "name": "_oracle",
          "type": "address"
        }
      ],
      "stateMutability": "nonpayable",
      "type": "constructor"
    },
    {
      "inputs": [],
      "name": "getPrice",
      "outputs": [
        {
          "internalType": "uint256",
          "name": "price",
          "type": "uint256"
        }
      ],
      "stateMutability": "view",
      "type": "function"
    },
    {
      "inputs": [],
      "name": "oracle",
      "outputs": [
        {
          "internalType": "address",
          "name": "",
          "type": "address"
        }
      ],
      "stateMutability": "view",
      "type": "function"
    }
  ],
  "bytecode": "0x60a0604052348015600e575f5ffd5b50604051610219380380610219833981016040819052602b91603b565b6001600160a01b03166080526066565b5f60208284031215604a575f5ffd5b81516001600160a01b0381168114605f575f5ffd5b9392505050565b6080516101966100835f395f8181603d015260a201526101965ff3fe608060405234801561000f575f5ffd5b5060043610610034575f3560e01c80637dc0d1d01461003857806398d5fdca14610089575b5f5ffd5b61005f7f000000000000000000000000000000000000000000000000000000000000000081565b60405173ffffffffffffffffffffffffffffffffffffffff90911681526020015b60405180910390f35b61009161009f565b604051908152602001610080565b5f7f000000000000000000000000000000000000000000000000000000000000000073ffffffffffffffffffffffffffffffffffffffff166398d5fdca6040518163ffffffff1660e01b8152600401606060405180830381865afa158015610109573d5f5f3e3d5ffd5b505050506040513d601f19601f8201168201806040525081019061012d9190610135565b509092915050565b5f5f5f60608486031215610147575f5ffd5b505081516020830151604090930151909492935091905056fea26469706673582212202384d6a0a0596197d395f99ce19b9351b7a70f23b6b12d9f822c54e254b00e0164736f6c634300081c0033",
  "linkReferences": {},
  "deployedLinkReferences": {}
}