{
  "_format": "hh-sol-artifact-1",
  "contractName": "CrystalPriceAdapterUSD",
  "sourceName": "contracts/ave.sol",
  "abi": [
    {
      "inputs": [],
      "name": "getPrice",
      "outputs": [
        {
          "internalType": "uint256",
          "name": "price",
          "type": "uint256"
        }
      ],
      "stateMutability": "pure",
      "type": "function"
    }
  ],
  "bytecode": "0x6080604052348015600e575f5ffd5b50607480601a5f395ff3fe6080604052348015600e575f5ffd5b50600436106026575f3560e01c806398d5fdca14602a575b5f5ffd5b600160405190815260200160405180910390f3fea2646970667358221220710e7e2efe1a99263ae08192e8187799f203485028e0bff6558d1ee07633df7064736f6c634300081c0033",
  "linkReferences": {},
  "deployedLinkReferences": {}
}