{
  "_format": "hh-sol-artifact-1",
  "contractName": "CrystalVault",
  "sourceName": "contracts/Vaults.sol",
  "abi": [
    {
      "inputs": [
        {
          "internalType": "address",
          "name": "crystal_",
          "type": "address"
        },
        {
          "internalType": "address",
          "name": "quoteAsset_",
          "type": "address"
        },
        {
          "internalType": "address",
          "name": "baseAsset_",
          "type": "address"
        },
        {
          "internalType": "address",
          "name": "owner_",
          "type": "address"
        },
        {
          "internalType": "string",
          "name": "name_",
          "type": "string"
        },
        {
          "internalType": "string",
          "name": "symbol_",
          "type": "string"
        },
        {
          "internalType": "string",
          "name": "description_",
          "type": "string"
        },
        {
          "internalType": "string",
          "name": "social1_",
          "type": "string"
        },
        {
          "internalType": "string",
          "name": "social2_",
          "type": "string"
        }
      ],
      "stateMutability": "nonpayable",
      "type": "constructor"
    },
    {
      "anonymous": false,
      "inputs": [
        {
          "indexed": true,
          "internalType": "address",
          "name": "owner",
          "type": "address"
        },
        {
          "indexed": true,
          "internalType": "address",
          "name": "spender",
          "type": "address"
        },
        {
          "indexed": false,
          "internalType": "uint256",
          "name": "value",
          "type": "uint256"
        }
      ],
      "name": "Approval",
      "type": "event"
    },
    {
      "anonymous": false,
      "inputs": [
        {
          "indexed": true,
          "internalType": "address",
          "name": "from",
          "type": "address"
        },
        {
          "indexed": true,
          "internalType": "address",
          "name": "to",
          "type": "address"
        },
        {
          "indexed": false,
          "internalType": "uint256",
          "name": "value",
          "type": "uint256"
        }
      ],
      "name": "Transfer",
      "type": "event"
    },
    {
      "inputs": [],
      "name": "DOMAIN_SEPARATOR",
      "outputs": [
        {
          "internalType": "bytes32",
          "name": "",
          "type": "bytes32"
        }
      ],
      "stateMutability": "view",
      "type": "function"
    },
    {
      "inputs": [],
      "name": "PERMIT_TYPEHASH",
      "outputs": [
        {
          "internalType": "bytes32",
          "name": "",
          "type": "bytes32"
        }
      ],
      "stateMutability": "view",
      "type": "function"
    },
    {
      "inputs": [
        {
          "internalType": "address",
          "name": "",
          "type": "address"
        },
        {
          "internalType": "address",
          "name": "",
          "type": "address"
        }
      ],
      "name": "allowance",
      "outputs": [
        {
          "internalType": "uint256",
          "name": "",
          "type": "uint256"
        }
      ],
      "stateMutability": "view",
      "type": "function"
    },
    {
      "inputs": [
        {
          "internalType": "address",
          "name": "spender",
          "type": "address"
        },
        {
          "internalType": "uint256",
          "name": "value",
          "type": "uint256"
        }
      ],
      "name": "approve",
      "outputs": [
        {
          "internalType": "bool",
          "name": "",
          "type": "bool"
        }
      ],
      "stateMutability": "nonpayable",
      "type": "function"
    },
    {
      "inputs": [
        {
          "internalType": "address",
          "name": "",
          "type": "address"
        }
      ],
      "name": "balanceOf",
      "outputs": [
        {
          "internalType": "uint256",
          "name": "",
          "type": "uint256"
        }
      ],
      "stateMutability": "view",
      "type": "function"
    },
    {
      "inputs": [],
      "name": "baseAsset",
      "outputs": [
        {
          "internalType": "address",
          "name": "",
          "type": "address"
        }
      ],
      "stateMutability": "view",
      "type": "function"
    },
    {
      "inputs": [
        {
          "internalType": "uint40",
          "name": "newLockup",
          "type": "uint40"
        }
      ],
      "name": "changeLockup",
      "outputs": [],
      "stateMutability": "nonpayable",
      "type": "function"
    },
    {
      "inputs": [
        {
          "internalType": "address",
          "name": "newMarket",
          "type": "address"
        }
      ],
      "name": "changeMarket",
      "outputs": [],
      "stateMutability": "nonpayable",
      "type": "function"
    },
    {
      "inputs": [
        {
          "internalType": "uint256",
          "name": "_maxShares",
          "type": "uint256"
        }
      ],
      "name": "changeMaxShares",
      "outputs": [],
      "stateMutability": "nonpayable",
      "type": "function"
    },
    {
      "inputs": [
        {
          "internalType": "uint16",
          "name": "newCap",
          "type": "uint16"
        }
      ],
      "name": "changeOrderCap",
      "outputs": [],
      "stateMutability": "nonpayable",
      "type": "function"
    },
    {
      "inputs": [],
      "name": "claimFees",
      "outputs": [],
      "stateMutability": "nonpayable",
      "type": "function"
    },
    {
      "inputs": [
        {
          "internalType": "uint256",
          "name": "userId",
          "type": "uint256"
        },
        {
          "internalType": "uint256[]",
          "name": "ids",
          "type": "uint256[]"
        }
      ],
      "name": "clearCloidSlots",
      "outputs": [],
      "stateMutability": "nonpayable",
      "type": "function"
    },
    {
      "inputs": [],
      "name": "close",
      "outputs": [],
      "stateMutability": "nonpayable",
      "type": "function"
    },
    {
      "inputs": [],
      "name": "closed",
      "outputs": [
        {
          "internalType": "bool",
          "name": "",
          "type": "bool"
        }
      ],
      "stateMutability": "view",
      "type": "function"
    },
    {
      "inputs": [],
      "name": "crystal",
      "outputs": [
        {
          "internalType": "address",
          "name": "",
          "type": "address"
        }
      ],
      "stateMutability": "view",
      "type": "function"
    },
    {
      "inputs": [],
      "name": "decimals",
      "outputs": [
        {
          "internalType": "uint8",
          "name": "",
          "type": "uint8"
        }
      ],
      "stateMutability": "view",
      "type": "function"
    },
    {
      "inputs": [
        {
          "internalType": "address",
          "name": "user",
          "type": "address"
        },
        {
          "internalType": "uint256",
          "name": "amountQuoteDesired",
          "type": "uint256"
        },
        {
          "internalType": "uint256",
          "name": "amountBaseDesired",
          "type": "uint256"
        },
        {
          "internalType": "uint256",
          "name": "amountQuoteMin",
          "type": "uint256"
        },
        {
          "internalType": "uint256",
          "name": "amountBaseMin",
          "type": "uint256"
        }
      ],
      "name": "deposit",
      "outputs": [
        {
          "internalType": "uint256",
          "name": "shares",
          "type": "uint256"
        },
        {
          "internalType": "uint256",
          "name": "amountQuote",
          "type": "uint256"
        },
        {
          "internalType": "uint256",
          "name": "amountBase",
          "type": "uint256"
        }
      ],
      "stateMutability": "nonpayable",
      "type": "function"
    },
    {
      "inputs": [],
      "name": "description",
      "outputs": [
        {
          "internalType": "string",
          "name": "",
          "type": "string"
        }
      ],
      "stateMutability": "view",
      "type": "function"
    },
    {
      "inputs": [
        {
          "components": [
            {
              "internalType": "bool",
              "name": "requireSuccess",
              "type": "bool"
            },
            {
              "internalType": "uint256",
              "name": "action",
              "type": "uint256"
            },
            {
              "internalType": "uint256",
              "name": "param1",
              "type": "uint256"
            },
            {
              "internalType": "uint256",
              "name": "param2",
              "type": "uint256"
            },
            {
              "internalType": "uint256",
              "name": "cloid",
              "type": "uint256"
            }
          ],
          "internalType": "struct CrystalVault.Action[]",
          "name": "actions",
          "type": "tuple[]"
        }
      ],
      "name": "execute",
      "outputs": [
        {
          "internalType": "bytes",
          "name": "",
          "type": "bytes"
        }
      ],
      "stateMutability": "nonpayable",
      "type": "function"
    },
    {
      "inputs": [],
      "name": "factory",
      "outputs": [
        {
          "internalType": "address",
          "name": "",
          "type": "address"
        }
      ],
      "stateMutability": "view",
      "type": "function"
    },
    {
      "inputs": [
        {
          "internalType": "address",
          "name": "",
          "type": "address"
        }
      ],
      "name": "lastDepositTimestamp",
      "outputs": [
        {
          "internalType": "uint256",
          "name": "",
          "type": "uint256"
        }
      ],
      "stateMutability": "view",
      "type": "function"
    },
    {
      "inputs": [],
      "name": "lock",
      "outputs": [],
      "stateMutability": "nonpayable",
      "type": "function"
    },
    {
      "inputs": [],
      "name": "locked",
      "outputs": [
        {
          "internalType": "bool",
          "name": "",
          "type": "bool"
        }
      ],
      "stateMutability": "view",
      "type": "function"
    },
    {
      "inputs": [],
      "name": "lockup",
      "outputs": [
        {
          "internalType": "uint40",
          "name": "",
          "type": "uint40"
        }
      ],
      "stateMutability": "view",
      "type": "function"
    },
    {
      "inputs": [],
      "name": "market",
      "outputs": [
        {
          "internalType": "address",
          "name": "",
          "type": "address"
        }
      ],
      "stateMutability": "view",
      "type": "function"
    },
    {
      "inputs": [],
      "name": "maxShares",
      "outputs": [
        {
          "internalType": "uint256",
          "name": "",
          "type": "uint256"
        }
      ],
      "stateMutability": "view",
      "type": "function"
    },
    {
      "inputs": [],
      "name": "name",
      "outputs": [
        {
          "internalType": "string",
          "name": "",
          "type": "string"
        }
      ],
      "stateMutability": "view",
      "type": "function"
    },
    {
      "inputs": [
        {
          "internalType": "address",
          "name": "",
          "type": "address"
        }
      ],
      "name": "nonces",
      "outputs": [
        {
          "internalType": "uint256",
          "name": "",
          "type": "uint256"
        }
      ],
      "stateMutability": "view",
      "type": "function"
    },
    {
      "inputs": [],
      "name": "orderCap",
      "outputs": [
        {
          "internalType": "uint16",
          "name": "",
          "type": "uint16"
        }
      ],
      "stateMutability": "view",
      "type": "function"
    },
    {
      "inputs": [],
      "name": "owner",
      "outputs": [
        {
          "internalType": "address",
          "name": "",
          "type": "address"
        }
      ],
      "stateMutability": "view",
      "type": "function"
    },
    {
      "inputs": [
        {
          "internalType": "address",
          "name": "owner",
          "type": "address"
        },
        {
          "internalType": "address",
          "name": "spender",
          "type": "address"
        },
        {
          "internalType": "uint256",
          "name": "value",
          "type": "uint256"
        },
        {
          "internalType": "uint256",
          "name": "deadline",
          "type": "uint256"
        },
        {
          "internalType": "uint8",
          "name": "v",
          "type": "uint8"
        },
        {
          "internalType": "bytes32",
          "name": "r",
          "type": "bytes32"
        },
        {
          "internalType": "bytes32",
          "name": "s",
          "type": "bytes32"
        }
      ],
      "name": "permit",
      "outputs": [],
      "stateMutability": "nonpayable",
      "type": "function"
    },
    {
      "inputs": [
        {
          "internalType": "uint256",
          "name": "amountQuoteDesired",
          "type": "uint256"
        },
        {
          "internalType": "uint256",
          "name": "amountBaseDesired",
          "type": "uint256"
        }
      ],
      "name": "previewDeposit",
      "outputs": [
        {
          "internalType": "uint256",
          "name": "shares",
          "type": "uint256"
        },
        {
          "internalType": "uint256",
          "name": "amountQuote",
          "type": "uint256"
        },
        {
          "internalType": "uint256",
          "name": "amountBase",
          "type": "uint256"
        }
      ],
      "stateMutability": "view",
      "type": "function"
    },
    {
      "inputs": [
        {
          "internalType": "uint256",
          "name": "shares",
          "type": "uint256"
        }
      ],
      "name": "previewWithdrawal",
      "outputs": [
        {
          "internalType": "uint256",
          "name": "amountQuote",
          "type": "uint256"
        },
        {
          "internalType": "uint256",
          "name": "amountBase",
          "type": "uint256"
        }
      ],
      "stateMutability": "view",
      "type": "function"
    },
    {
      "inputs": [],
      "name": "quoteAsset",
      "outputs": [
        {
          "internalType": "address",
          "name": "",
          "type": "address"
        }
      ],
      "stateMutability": "view",
      "type": "function"
    },
    {
      "inputs": [],
      "name": "social1",
      "outputs": [
        {
          "internalType": "string",
          "name": "",
          "type": "string"
        }
      ],
      "stateMutability": "view",
      "type": "function"
    },
    {
      "inputs": [],
      "name": "social2",
      "outputs": [
        {
          "internalType": "string",
          "name": "",
          "type": "string"
        }
      ],
      "stateMutability": "view",
      "type": "function"
    },
    {
      "inputs": [],
      "name": "symbol",
      "outputs": [
        {
          "internalType": "string",
          "name": "",
          "type": "string"
        }
      ],
      "stateMutability": "view",
      "type": "function"
    },
    {
      "inputs": [],
      "name": "totalShares",
      "outputs": [
        {
          "internalType": "uint256",
          "name": "",
          "type": "uint256"
        }
      ],
      "stateMutability": "view",
      "type": "function"
    },
    {
      "inputs": [],
      "name": "totalSupply",
      "outputs": [
        {
          "internalType": "uint256",
          "name": "",
          "type": "uint256"
        }
      ],
      "stateMutability": "view",
      "type": "function"
    },
    {
      "inputs": [
        {
          "internalType": "address",
          "name": "to",
          "type": "address"
        },
        {
          "internalType": "uint256",
          "name": "value",
          "type": "uint256"
        }
      ],
      "name": "transfer",
      "outputs": [
        {
          "internalType": "bool",
          "name": "",
          "type": "bool"
        }
      ],
      "stateMutability": "pure",
      "type": "function"
    },
    {
      "inputs": [
        {
          "internalType": "address",
          "name": "from",
          "type": "address"
        },
        {
          "internalType": "address",
          "name": "to",
          "type": "address"
        },
        {
          "internalType": "uint256",
          "name": "value",
          "type": "uint256"
        }
      ],
      "name": "transferFrom",
      "outputs": [
        {
          "internalType": "bool",
          "name": "",
          "type": "bool"
        }
      ],
      "stateMutability": "pure",
      "type": "function"
    },
    {
      "inputs": [],
      "name": "unlock",
      "outputs": [],
      "stateMutability": "nonpayable",
      "type": "function"
    },
    {
      "inputs": [
        {
          "internalType": "address",
          "name": "user",
          "type": "address"
        },
        {
          "internalType": "uint256",
          "name": "shares",
          "type": "uint256"
        },
        {
          "internalType": "uint256",
          "name": "amountQuoteMin",
          "type": "uint256"
        },
        {
          "internalType": "uint256",
          "name": "amountBaseMin",
          "type": "uint256"
        }
      ],
      "name": "withdraw",
      "outputs": [
        {
          "internalType": "uint256",
          "name": "amountQuote",
          "type": "uint256"
        },
        {
          "internalType": "uint256",
          "name": "amountBase",
          "type": "uint256"
        }
      ],
      "stateMutability": "nonpayable",
      "type": "function"
    }
  ],
  "bytecode": "0x610120604052348015610010575f5ffd5b5060405161416b38038061416b83398101604081905261002f91610591565b84845f61003c838261073d565b506001610049828261073d565b50815160208084019190912060408051808201825260018152603160f81b9084015280517f8b73c3c69bb8fe3d512ecc4cf759cc79239f7b179b0ffacaa9a75d522b39400f938101939093528201527fc89efdaa54c0f20c7adf612882df0950f5a951637e0307cdcb4c672f298b8bc6606082015246608082018190523060a08301529060c00160408051601f1981840301815291905280516020909101206005555050506001600160a01b0389166080526007610107848261073d565b506008610114838261073d565b506009610121828261073d565b50608051604051630e3a809360e31b81526001600160a01b038a811660048301528981166024830152909116906371d4049890604401602060405180830381865afa158015610172573d5f5f3e3d5ffd5b505050506040513d601f19601f8201168201806040525081019061019691906107f7565b600d80546001600160a01b0319166001600160a01b0392831690811790915560805160405163d4dfadbf60e01b815260048101929092528a831692169063d4dfadbf906024016101a060405180830381865afa1580156101f8573d5f5f3e3d5ffd5b505050506040513d601f19601f8201168201806040525081019061021c9190610862565b60e001516001600160a01b031614610232575f5ffd5b6001600160a01b0380891660a05287811660c052861660e052336101008190526040805163720f8c4b60e11b8152905163e41f1896916004808201926020929091908290030181865afa15801561028b573d5f5f3e3d5ffd5b505050506040513d601f19601f820116820180604052508101906102af9190610947565b600d60196101000a81548161ffff021916908361ffff160217905550610100516001600160a01b031663408e09716040518163ffffffff1660e01b8152600401602060405180830381865afa15801561030a573d5f5f3e3d5ffd5b505050506040513d601f19601f8201168201806040525081019061032e9190610968565b600d60146101000a81548164ffffffffff021916908364ffffffffff1602179055506080516001600160a01b0316634d3820eb6040518163ffffffff1660e01b81526004016020604051808303815f875af115801561038f573d5f5f3e3d5ffd5b505050506040513d601f19601f820116820180604052508101906103b3919061098c565b5060a05160805160405163095ea7b360e01b81526001600160a01b0391821660048201525f19602482015291169063095ea7b3906044016020604051808303815f875af1158015610406573d5f5f3e3d5ffd5b505050506040513d601f19601f8201168201806040525081019061042a91906109a3565b5060c05160805160405163095ea7b360e01b81526001600160a01b0391821660048201525f19602482015291169063095ea7b3906044016020604051808303815f875af115801561047d573d5f5f3e3d5ffd5b505050506040513d601f19601f820116820180604052508101906104a191906109a3565b505050505050505050506109c2565b80516001600160a01b03811681146104c6575f5ffd5b919050565b634e487b7160e01b5f52604160045260245ffd5b6040516101a081016001600160401b0381118282101715610502576105026104cb565b60405290565b5f82601f830112610517575f5ffd5b81516001600160401b03811115610530576105306104cb565b604051601f8201601f19908116603f011681016001600160401b038111828210171561055e5761055e6104cb565b604052818152838201602001851015610575575f5ffd5b8160208501602083015e5f918101602001919091529392505050565b5f5f5f5f5f5f5f5f5f6101208a8c0312156105aa575f5ffd5b6105b38a6104b0565b98506105c160208b016104b0565b97506105cf60408b016104b0565b96506105dd60608b016104b0565b60808b01519096506001600160401b038111156105f8575f5ffd5b6106048c828d01610508565b60a08c015190965090506001600160401b03811115610621575f5ffd5b61062d8c828d01610508565b60c08c015190955090506001600160401b0381111561064a575f5ffd5b6106568c828d01610508565b60e08c015190945090506001600160401b03811115610673575f5ffd5b61067f8c828d01610508565b6101008c015190935090506001600160401b0381111561069d575f5ffd5b6106a98c828d01610508565b9150509295985092959850929598565b600181811c908216806106cd57607f821691505b6020821081036106eb57634e487b7160e01b5f52602260045260245ffd5b50919050565b601f82111561073857805f5260205f20601f840160051c810160208510156107165750805b601f840160051c820191505b81811015610735575f8155600101610722565b50505b505050565b81516001600160401b03811115610756576107566104cb565b61076a8161076484546106b9565b846106f1565b6020601f82116001811461079c575f83156107855750848201515b5f19600385901b1c1916600184901b178455610735565b5f84815260208120601f198516915b828110156107cb57878501518255602094850194600190920191016107ab565b50848210156107e857868401515f19600387901b60f8161c191681555b50505050600190811b01905550565b5f60208284031215610807575f5ffd5b610810826104b0565b9392505050565b80516001600160501b03811681146104c6575f5ffd5b805163ffffffff811681146104c6575f5ffd5b805162ffffff811681146104c6575f5ffd5b805160ff811681146104c6575f5ffd5b5f6101a0828403128015610874575f5ffd5b5061087d6104df565b61088683610817565b815261089460208401610817565b60208201526108a56040840161082d565b60408201526108b660608401610840565b60608201526108c760808401610840565b60808201526108d860a08401610852565b60a08201526108e960c08401610852565b60c08201526108fa60e084016104b0565b60e082015261090c61010084016104b0565b610100820152610120838101519082015261014080840151908201526101608084015190820152610180928301519281019290925250919050565b5f60208284031215610957575f5ffd5b815161ffff81168114610810575f5ffd5b5f60208284031215610978575f5ffd5b815164ffffffffff81168114610810575f5ffd5b5f6020828403121561099c575f5ffd5b5051919050565b5f602082840312156109b3575f5ffd5b81518015158114610810575f5ffd5b60805160a05160c05160e05161010051613638610b335f395f818161065d01528181610752015281816107e501528181610a3a01528181610de101528181610fa2015281816115630152818161164c0152818161192d01528181611f3c01528181611fd2015281816120860152818161215f015261265501525f81816105c301528181610a98015281816114770152818161151201528181611de901526122d901525f818161068d01528181611272015281816113e40152818161179c01528181611b6a01528181611cfe0152818161222d015261289701525f818161072d015281816111b10152818161132d0152818161174201528181611aaf01528181611c27015281816121c001526127ba01525f81816106180152818161088e01528181610d42015281816110d1015281816111e0015281816112a1015281816115df015281816116d201528181611c5601528181611d2d015281816122aa015281816127ea01526128c501526136385ff3fe608060405234801561000f575f5ffd5b50600436106102d7575f3560e01c806370a0823111610187578063a9059cbb116100dd578063cf30901211610093578063dd62ed3e1161006e578063dd62ed3e146106f6578063f83d08ba14610720578063fdf262b714610728575f5ffd5b8063cf309012146106af578063d294f093146106db578063d505accf146106e3575f5ffd5b8063c45a0155116100c3578063c45a015514610658578063c65b61ca1461067f578063cdf456e114610688575f5ffd5b8063a9059cbb14610642578063b7d3b28e14610650575f5ffd5b80638da5cb5b1161013d57806395d89b411161011857806395d89b411461060b578063971a909114610613578063a69df4b51461063a575f5ffd5b80638da5cb5b146105be5780638e3a889e146105e5578063933b3b61146105f8575f5ffd5b80637a7af70d1161016d5780637a7af70d146105475780637ecebe001461055a57806380f5560514610579575f5ffd5b806370a08231146105205780637284e4161461053f575f5ffd5b80633644e5151161023c578063501e3ec0116101f2578063655d8dec116101cd578063655d8dec146104cb57806366a645eb146104ea57806368936809146104f2575f5ffd5b8063501e3ec014610478578063597e1fb51461048b5780635c3ef427146104b8575f5ffd5b80634314c2c5116102225780634314c2c51461040a57806343d726d6146104485780634532d77614610450575f5ffd5b80633644e515146103f85780633a98ef3914610401575f5ffd5b806318160ddd116102915780632ba55f9d116102775780632ba55f9d146103a457806330adf81f146103b7578063313ce567146103de575f5ffd5b806318160ddd1461037f57806323b872dd14610396575f5ffd5b806306fdde03116102c157806306fdde0314610334578063095ea7b3146103495780630af14fff1461036c575f5ffd5b806253fe76146102db57806306490f47146102f0575b5f5ffd5b6102ee6102e9366004612af1565b61074f565b005b600d546103199074010000000000000000000000000000000000000000900464ffffffffff1681565b60405164ffffffffff90911681526020015b60405180910390f35b61033c610993565b60405161032b9190612b58565b61035c610357366004612b8b565b610a22565b604051901515815260200161032b565b6102ee61037a366004612bb5565b610a38565b61038860025481565b60405190815260200161032b565b61035c6102d7366004612bcc565b61033c6103b2366004612c0a565b610a7e565b6103887f6e71edae12b1b97f4d1f60370fef10105fa2faae0126114a169c64845d6126c981565b6103e6601281565b60405160ff909116815260200161032b565b61038860055481565b610388600b5481565b600d5461043590790100000000000000000000000000000000000000000000000000900461ffff1681565b60405161ffff909116815260200161032b565b6102ee610ddf565b61046361045e366004612c7b565b610f07565b6040805192835260208301919091520161032b565b6102ee610486366004612cb3565b611561565b600d5461035c907c0100000000000000000000000000000000000000000000000000000000900460ff1681565b6102ee6104c6366004612d2d565b61164a565b6103886104d9366004612d2d565b600a6020525f908152604090205481565b61033c61186e565b610505610500366004612d48565b6118fa565b6040805193845260208401929092529082015260600161032b565b61038861052e366004612d2d565b60036020525f908152604090205481565b61033c611e36565b610505610555366004612d88565b611e43565b610388610568366004612d2d565b60066020525f908152604090205481565b600d546105999073ffffffffffffffffffffffffffffffffffffffff1681565b60405173ffffffffffffffffffffffffffffffffffffffff909116815260200161032b565b6105997f000000000000000000000000000000000000000000000000000000000000000081565b6104636105f3366004612bb5565b611eec565b6102ee610606366004612dba565b611f39565b61033c612075565b6105997f000000000000000000000000000000000000000000000000000000000000000081565b6102ee612084565b61035c6102d7366004612b8b565b61033c612150565b6105997f000000000000000000000000000000000000000000000000000000000000000081565b610388600c5481565b6105997f000000000000000000000000000000000000000000000000000000000000000081565b600d5461035c907b01000000000000000000000000000000000000000000000000000000900460ff1681565b6102ee61215d565b6102ee6106f1366004612de3565b612367565b610388610704366004612e4f565b600460209081525f928352604080842090915290825290205481565b6102ee612653565b6105997f000000000000000000000000000000000000000000000000000000000000000081565b5f7f000000000000000000000000000000000000000000000000000000000000000073ffffffffffffffffffffffffffffffffffffffff1663e41f18966040518163ffffffff1660e01b8152600401602060405180830381865afa1580156107b9573d5f5f3e3d5ffd5b505050506040513d601f19601f820116820180604052508101906107dd9190612e86565b61ffff1690507f000000000000000000000000000000000000000000000000000000000000000073ffffffffffffffffffffffffffffffffffffffff163314801561082c5750808261ffff1611155b610834575f5ffd5b600d546040517f6b25032a00000000000000000000000000000000000000000000000000000000815230600482015279010000000000000000000000000000000000000000000000000090910461ffff1660248201525f907f000000000000000000000000000000000000000000000000000000000000000073ffffffffffffffffffffffffffffffffffffffff1690636b25032a906044015f60405180830381865afa1580156108e7573d5f5f3e3d5ffd5b505050506040513d5f823e601f3d9081017fffffffffffffffffffffffffffffffffffffffffffffffffffffffffffffffe016820160405261092c9190810190612ff7565b50905080518361ffff161161093f575f5ffd5b5050600d805461ffff909216790100000000000000000000000000000000000000000000000000027fffffffffff0000ffffffffffffffffffffffffffffffffffffffffffffffffff909216919091179055565b60605f80546109a19061310c565b80601f01602080910402602001604051908101604052809291908181526020018280546109cd9061310c565b8015610a185780601f106109ef57610100808354040283529160200191610a18565b820191905f5260205f20905b8154815290600101906020018083116109fb57829003601f168201915b5050505050905090565b5f610a2e33848461270a565b5060015b92915050565b7f000000000000000000000000000000000000000000000000000000000000000073ffffffffffffffffffffffffffffffffffffffff163314610a79575f5ffd5b600c55565b60603373ffffffffffffffffffffffffffffffffffffffff7f000000000000000000000000000000000000000000000000000000000000000016148015610ac6575061271082105b8015610af55750600d547c0100000000000000000000000000000000000000000000000000000000900460ff16155b610afd575f5ffd5b6060610b2e6040518060a001604052805f151581526020015f81526020015f81526020015f81526020015f81525090565b600d54604051610b8691849160a088901b73ffffffffffffffffffffffffffffffffffffffff909216919091177f1000000000000000000000000000000000000000000000000000000000000000179060200161316e565b60405160208183030381529060405291505f5b84811015610d3d57858582818110610bb357610bb3613186565b905060a00201803603810190610bc991906131c0565b9150816020015160021480610be2575081602001516003145b80610bf1575081602001516006145b80610c00575081602001516007145b80610c0f57508160200151600a145b15610c5657608082015115801590610c4e5750600d54608083015179010000000000000000000000000000000000000000000000000090910461ffff16115b610c56575f5ffd5b5f82606001516f7fffffffffffffffffffffffffffffff166080846040015169ffffffffffffffffffff16901b60d085608001516103ff16901b855f0151610c9e575f610cbf565b7e400000000000000000000000000000000000000000000000000000000000005b7effffffffffffffffffffffffffffffffffffffffffffffffffffffffffffff1660fc8760200151901b17171717905083815f1b604051602001610d0492919061316e565b604080517fffffffffffffffffffffffffffffffffffffffffffffffffffffffffffffffe0818403018152919052935050600101610b99565b505f5f7f000000000000000000000000000000000000000000000000000000000000000073ffffffffffffffffffffffffffffffffffffffff1684604051610d859190613236565b5f604051808303815f865af19150503d805f8114610dbe576040519150601f19603f3d011682016040523d82523d5f602084013e610dc3565b606091505b509150915081610dd557805160208201fd5b9695505050505050565b7f000000000000000000000000000000000000000000000000000000000000000073ffffffffffffffffffffffffffffffffffffffff1633148015610e475750600d547c0100000000000000000000000000000000000000000000000000000000900460ff16155b610e4f575f5ffd5b600d80547fffffff00ffffffffffffffffffffffffffffffffffffffffffffffffffffffff167c010000000000000000000000000000000000000000000000000000000017908190557b01000000000000000000000000000000000000000000000000000000900460ff16610f0557600d80547fffffffff00ffffffffffffffffffffffffffffffffffffffffffffffffffffff167b010000000000000000000000000000000000000000000000000000001790555b565b5f5f5f85118015610f3c575073ffffffffffffffffffffffffffffffffffffffff86165f908152600360205260409020548511155b8015610f995750600d5473ffffffffffffffffffffffffffffffffffffffff87165f908152600a60205260409020544291610f97917401000000000000000000000000000000000000000090910464ffffffffff169061326e565b105b8015610fda57507f000000000000000000000000000000000000000000000000000000000000000073ffffffffffffffffffffffffffffffffffffffff1633145b610fe2575f5ffd5b5f5f5f5f610fee612777565b9350935093509350600b5489856110059190613281565b61100f91906132c5565b600b5490965061101f8a85613281565b61102991906132c5565b945087861015801561103b5750868510155b611043575f5ffd5b61104d8a8a61293c565b88600b5f82825461105e91906132fd565b90915550508186118061107057508085115b1561117457600d546040517f6b25032a00000000000000000000000000000000000000000000000000000000815230600482015279010000000000000000000000000000000000000000000000000090910461ffff1660248201525f9081907f000000000000000000000000000000000000000000000000000000000000000073ffffffffffffffffffffffffffffffffffffffff1690636b25032a906044015f60405180830381865afa15801561112a573d5f5f3e3d5ffd5b505050506040513d5f823e601f3d9081017fffffffffffffffffffffffffffffffffffffffffffffffffffffffffffffffe016820160405261116f9190810190612ff7565b505050505b6040517ff3fef3a300000000000000000000000000000000000000000000000000000000815273ffffffffffffffffffffffffffffffffffffffff7f000000000000000000000000000000000000000000000000000000000000000081166004830152602482018890527f0000000000000000000000000000000000000000000000000000000000000000169063f3fef3a3906044015f604051808303815f87803b158015611221575f5ffd5b505af1158015611233573d5f5f3e3d5ffd5b50506040517ff3fef3a300000000000000000000000000000000000000000000000000000000815273ffffffffffffffffffffffffffffffffffffffff7f000000000000000000000000000000000000000000000000000000000000000081166004830152602482018990527f000000000000000000000000000000000000000000000000000000000000000016925063f3fef3a391506044015f604051808303815f87803b1580156112e4575f5ffd5b505af11580156112f6573d5f5f3e3d5ffd5b50506040517fa9059cbb000000000000000000000000000000000000000000000000000000008152336004820152602481018990527f000000000000000000000000000000000000000000000000000000000000000073ffffffffffffffffffffffffffffffffffffffff16925063a9059cbb91506044016020604051808303815f875af115801561138a573d5f5f3e3d5ffd5b505050506040513d601f19601f820116820180604052508101906113ae9190613310565b506040517fa9059cbb000000000000000000000000000000000000000000000000000000008152336004820152602481018690527f000000000000000000000000000000000000000000000000000000000000000073ffffffffffffffffffffffffffffffffffffffff169063a9059cbb906044016020604051808303815f875af115801561143f573d5f5f3e3d5ffd5b505050506040513d601f19601f820116820180604052508101906114639190613310565b50600b545f0361147557611475610ddf565b7f000000000000000000000000000000000000000000000000000000000000000073ffffffffffffffffffffffffffffffffffffffff168a73ffffffffffffffffffffffffffffffffffffffff161480156114f35750600d547c0100000000000000000000000000000000000000000000000000000000900460ff16155b1561155457600b5473ffffffffffffffffffffffffffffffffffffffff7f0000000000000000000000000000000000000000000000000000000000000000165f9081526003602052604090205461154b906014613281565b11611554575f5ffd5b5050505094509492505050565b7f000000000000000000000000000000000000000000000000000000000000000073ffffffffffffffffffffffffffffffffffffffff1633146115a2575f5ffd5b6040517f501e3ec000000000000000000000000000000000000000000000000000000000815273ffffffffffffffffffffffffffffffffffffffff7f0000000000000000000000000000000000000000000000000000000000000000169063501e3ec0906116189086908690869060040161332b565b5f604051808303815f87803b15801561162f575f5ffd5b505af1158015611641573d5f5f3e3d5ffd5b50505050505050565b7f000000000000000000000000000000000000000000000000000000000000000073ffffffffffffffffffffffffffffffffffffffff16331461168b575f5ffd5b6040517fd4dfadbf00000000000000000000000000000000000000000000000000000000815273ffffffffffffffffffffffffffffffffffffffff82811660048301525f917f00000000000000000000000000000000000000000000000000000000000000009091169063d4dfadbf906024016101a060405180830381865afa15801561171a573d5f5f3e3d5ffd5b505050506040513d601f19601f8201168201806040525081019061173e91906133d6565b90507f000000000000000000000000000000000000000000000000000000000000000073ffffffffffffffffffffffffffffffffffffffff168160e0015173ffffffffffffffffffffffffffffffffffffffff161480156117ef57507f000000000000000000000000000000000000000000000000000000000000000073ffffffffffffffffffffffffffffffffffffffff1681610100015173ffffffffffffffffffffffffffffffffffffffff16145b6117f7575f5ffd5b5f5f5f5f611803612777565b9350935093509350818414801561181957508083145b611821575f5ffd5b5050600d80547fffffffffffffffffffffffff00000000000000000000000000000000000000001673ffffffffffffffffffffffffffffffffffffffff9590951694909417909355505050565b6008805461187b9061310c565b80601f01602080910402602001604051908101604052809291908181526020018280546118a79061310c565b80156118f25780601f106118c9576101008083540402835291602001916118f2565b820191905f5260205f20905b8154815290600101906020018083116118d557829003601f168201915b505050505081565b5f5f5f600d601b9054906101000a900460ff1615801561191957505f87115b801561192457505f86115b801561196557507f000000000000000000000000000000000000000000000000000000000000000073ffffffffffffffffffffffffffffffffffffffff1633145b61196d575f5ffd5b5f5f611977612777565b505091509150600b545f036119a55788935087925061199e6119998486613281565b6129df565b9450611a37565b5f826119b1838c613281565b6119bb91906132c5565b90508881116119cf578994508093506119f9565b5f826119db858c613281565b6119e591906132c5565b90508a8111156119f3575f5ffd5b94508893505b611a3383600b5487611a0b9190613281565b611a1591906132c5565b83600b5487611a249190613281565b611a2e91906132c5565b612a2f565b9550505b868410158015611a475750858310155b8015611a6c5750600c541580611a6c5750600c5485600b54611a69919061326e565b11155b611a74575f5ffd5b6040517f23b872dd000000000000000000000000000000000000000000000000000000008152336004820152306024820152604481018590527f000000000000000000000000000000000000000000000000000000000000000073ffffffffffffffffffffffffffffffffffffffff16906323b872dd906064016020604051808303815f875af1158015611b0a573d5f5f3e3d5ffd5b505050506040513d601f19601f82011682018060405250810190611b2e9190613310565b506040517f23b872dd000000000000000000000000000000000000000000000000000000008152336004820152306024820152604481018490527f000000000000000000000000000000000000000000000000000000000000000073ffffffffffffffffffffffffffffffffffffffff16906323b872dd906064016020604051808303815f875af1158015611bc5573d5f5f3e3d5ffd5b505050506040513d601f19601f82011682018060405250810190611be99190613310565b506040517f47e7ef2400000000000000000000000000000000000000000000000000000000815273ffffffffffffffffffffffffffffffffffffffff7f000000000000000000000000000000000000000000000000000000000000000081166004830152602482018690527f000000000000000000000000000000000000000000000000000000000000000016906347e7ef24906044016020604051808303815f875af1158015611c9c573d5f5f3e3d5ffd5b505050506040513d601f19601f82011682018060405250810190611cc091906134bb565b506040517f47e7ef2400000000000000000000000000000000000000000000000000000000815273ffffffffffffffffffffffffffffffffffffffff7f000000000000000000000000000000000000000000000000000000000000000081166004830152602482018590527f000000000000000000000000000000000000000000000000000000000000000016906347e7ef24906044016020604051808303815f875af1158015611d73573d5f5f3e3d5ffd5b505050506040513d601f19601f82011682018060405250810190611d9791906134bb565b5084600b5f828254611da9919061326e565b90915550611db990508a86612a46565b73ffffffffffffffffffffffffffffffffffffffff808b165f908152600a60209081526040808320429055600b547f000000000000000000000000000000000000000000000000000000000000000090941683526003909152902054611e20906014613281565b11611e29575f5ffd5b5050955095509592505050565b6007805461187b9061310c565b5f5f5f5f5f611e50612777565b505091509150600b545f03611e7957869350859250611e726119998486613281565b9450611ee3565b5f82611e85838a613281565b611e8f91906132c5565b9050868111611ea357879450809350611ecd565b5f82611eaf858a613281565b611eb991906132c5565b905088811115611ec7575f5ffd5b94508693505b611edf83600b5487611a0b9190613281565b9550505b50509250925092565b5f5f5f5f611ef8612777565b5050600b549193509150611f0c8684613281565b611f1691906132c5565b600b54909450611f268683613281565b611f3091906132c5565b92505050915091565b5f7f000000000000000000000000000000000000000000000000000000000000000073ffffffffffffffffffffffffffffffffffffffff1663408e09716040518163ffffffff1660e01b8152600401602060405180830381865afa158015611fa3573d5f5f3e3d5ffd5b505050506040513d601f19601f82011682018060405250810190611fc791906134d2565b64ffffffffff1690507f000000000000000000000000000000000000000000000000000000000000000073ffffffffffffffffffffffffffffffffffffffff163314801561201c5750808264ffffffffff1611155b612024575f5ffd5b50600d805464ffffffffff90921674010000000000000000000000000000000000000000027fffffffffffffff0000000000ffffffffffffffffffffffffffffffffffffffff909216919091179055565b6060600180546109a19061310c565b7f000000000000000000000000000000000000000000000000000000000000000073ffffffffffffffffffffffffffffffffffffffff16331480156120ef5750600d547b01000000000000000000000000000000000000000000000000000000900460ff1615156001145b801561211e5750600d547c0100000000000000000000000000000000000000000000000000000000900460ff16155b612126575f5ffd5b600d80547fffffffff00ffffffffffffffffffffffffffffffffffffffffffffffffffffff169055565b6009805461187b9061310c565b7f000000000000000000000000000000000000000000000000000000000000000073ffffffffffffffffffffffffffffffffffffffff16331461219e575f5ffd5b6040805160028082526060820183525f926020830190803683370190505090507f0000000000000000000000000000000000000000000000000000000000000000815f815181106121f1576121f1613186565b602002602001019073ffffffffffffffffffffffffffffffffffffffff16908173ffffffffffffffffffffffffffffffffffffffff16815250507f00000000000000000000000000000000000000000000000000000000000000008160018151811061225f5761225f613186565b73ffffffffffffffffffffffffffffffffffffffff92831660209182029290920101526040517fa81d2f470000000000000000000000000000000000000000000000000000000081527f00000000000000000000000000000000000000000000000000000000000000009091169063a81d2f4790612303907f00000000000000000000000000000000000000000000000000000000000000009085906004016134ed565b5f604051808303815f875af115801561231e573d5f5f3e3d5ffd5b505050506040513d5f823e601f3d9081017fffffffffffffffffffffffffffffffffffffffffffffffffffffffffffffffe01682016040526123639190810190613566565b5050565b428410156123d6576040517f08c379a000000000000000000000000000000000000000000000000000000000815260206004820152601260248201527f556e697377617056323a2045585049524544000000000000000000000000000060448201526064015b60405180910390fd5b60055473ffffffffffffffffffffffffffffffffffffffff88165f90815260066020526040812080549192917f6e71edae12b1b97f4d1f60370fef10105fa2faae0126114a169c64845d6126c9918b918b918b919087612435836135a0565b9091555060408051602081019690965273ffffffffffffffffffffffffffffffffffffffff94851690860152929091166060840152608083015260a082015260c0810187905260e001604051602081830303815290604052805190602001206040516020016124d69291907f190100000000000000000000000000000000000000000000000000000000000081526002810192909252602282015260420190565b604080517fffffffffffffffffffffffffffffffffffffffffffffffffffffffffffffffe081840301815282825280516020918201205f80855291840180845281905260ff88169284019290925260608301869052608083018590529092509060019060a0016020604051602081039080840390855afa15801561255c573d5f5f3e3d5ffd5b50506040517fffffffffffffffffffffffffffffffffffffffffffffffffffffffffffffffe0015191505073ffffffffffffffffffffffffffffffffffffffff8116158015906125d757508873ffffffffffffffffffffffffffffffffffffffff168173ffffffffffffffffffffffffffffffffffffffff16145b61263d576040517f08c379a000000000000000000000000000000000000000000000000000000000815260206004820152601c60248201527f556e697377617056323a20494e56414c49445f5349474e41545552450000000060448201526064016123cd565b61264889898961270a565b505050505050505050565b7f000000000000000000000000000000000000000000000000000000000000000073ffffffffffffffffffffffffffffffffffffffff16331480156126ba5750600d547b01000000000000000000000000000000000000000000000000000000900460ff16155b6126c2575f5ffd5b600d80547fffffffff00ffffffffffffffffffffffffffffffffffffffffffffffffffffff167b01000000000000000000000000000000000000000000000000000000179055565b73ffffffffffffffffffffffffffffffffffffffff8381165f8181526004602090815260408083209487168084529482529182902085905590518481527f8c5be1e5ebec7d5bd14f71427d1e84f3dd0314c0f7b2291e5b200ac8c7c3b925910160405180910390a3505050565b6040517ff75b98ce00000000000000000000000000000000000000000000000000000000815230600482015273ffffffffffffffffffffffffffffffffffffffff7f0000000000000000000000000000000000000000000000000000000000000000811660248301525f918291829182917f0000000000000000000000000000000000000000000000000000000000000000169063f75b98ce90604401606060405180830381865afa15801561282f573d5f5f3e3d5ffd5b505050506040513d601f19601f8201168201806040525081019061285391906135d7565b506040517ff75b98ce00000000000000000000000000000000000000000000000000000000815230600482015273ffffffffffffffffffffffffffffffffffffffff7f0000000000000000000000000000000000000000000000000000000000000000811660248301529296509093507f00000000000000000000000000000000000000000000000000000000000000009091169063f75b98ce90604401606060405180830381865afa15801561290c573d5f5f3e3d5ffd5b505050506040513d601f19601f8201168201806040525081019061293091906135d7565b50949590949293509050565b73ffffffffffffffffffffffffffffffffffffffff82165f90815260036020526040812080548392906129709084906132fd565b925050819055508060025f82825461298891906132fd565b90915550506040518181525f9073ffffffffffffffffffffffffffffffffffffffff8416907fddf252ad1be2c89b69c2b068fc378daa952ba7f163c4a11628f55a4df523b3ef906020015b60405180910390a35050565b5f6003821115612a20575080600181811c015b81811015612a1a57809150600181828581612a0f57612a0f613298565b0401901c90506129f2565b50919050565b8115612a2a575060015b919050565b5f818310612a3d5781612a3f565b825b9392505050565b8060025f828254612a57919061326e565b909155505073ffffffffffffffffffffffffffffffffffffffff82165f9081526003602052604081208054839290612a9090849061326e565b909155505060405181815273ffffffffffffffffffffffffffffffffffffffff8316905f907fddf252ad1be2c89b69c2b068fc378daa952ba7f163c4a11628f55a4df523b3ef906020016129d3565b61ffff81168114612aee575f5ffd5b50565b5f60208284031215612b01575f5ffd5b8135612a3f81612adf565b5f81518084528060208401602086015e5f6020828601015260207fffffffffffffffffffffffffffffffffffffffffffffffffffffffffffffffe0601f83011685010191505092915050565b602081525f612a3f6020830184612b0c565b73ffffffffffffffffffffffffffffffffffffffff81168114612aee575f5ffd5b5f5f60408385031215612b9c575f5ffd5b8235612ba781612b6a565b946020939093013593505050565b5f60208284031215612bc5575f5ffd5b5035919050565b5f5f5f60608486031215612bde575f5ffd5b8335612be981612b6a565b92506020840135612bf981612b6a565b929592945050506040919091013590565b5f5f60208385031215612c1b575f5ffd5b823567ffffffffffffffff811115612c31575f5ffd5b8301601f81018513612c41575f5ffd5b803567ffffffffffffffff811115612c57575f5ffd5b85602060a083028401011115612c6b575f5ffd5b6020919091019590945092505050565b5f5f5f5f60808587031215612c8e575f5ffd5b8435612c9981612b6a565b966020860135965060408601359560600135945092505050565b5f5f5f60408486031215612cc5575f5ffd5b83359250602084013567ffffffffffffffff811115612ce2575f5ffd5b8401601f81018613612cf2575f5ffd5b803567ffffffffffffffff811115612d08575f5ffd5b8660208260051b8401011115612d1c575f5ffd5b939660209190910195509293505050565b5f60208284031215612d3d575f5ffd5b8135612a3f81612b6a565b5f5f5f5f5f60a08688031215612d5c575f5ffd5b8535612d6781612b6a565b97602087013597506040870135966060810135965060800135945092505050565b5f5f60408385031215612d99575f5ffd5b50508035926020909101359150565b64ffffffffff81168114612aee575f5ffd5b5f60208284031215612dca575f5ffd5b8135612a3f81612da8565b60ff81168114612aee575f5ffd5b5f5f5f5f5f5f5f60e0888a031215612df9575f5ffd5b8735612e0481612b6a565b96506020880135612e1481612b6a565b955060408801359450606088013593506080880135612e3281612dd5565b9699959850939692959460a0840135945060c09093013592915050565b5f5f60408385031215612e60575f5ffd5b8235612e6b81612b6a565b91506020830135612e7b81612b6a565b809150509250929050565b5f60208284031215612e96575f5ffd5b8151612a3f81612adf565b7f4e487b71000000000000000000000000000000000000000000000000000000005f52604160045260245ffd5b60405160e0810167ffffffffffffffff81118282101715612ef157612ef1612ea1565b60405290565b6040516101a0810167ffffffffffffffff81118282101715612ef157612ef1612ea1565b604051601f82017fffffffffffffffffffffffffffffffffffffffffffffffffffffffffffffffe016810167ffffffffffffffff81118282101715612f6257612f62612ea1565b604052919050565b5f67ffffffffffffffff821115612f8357612f83612ea1565b5060051b60200190565b5f82601f830112612f9c575f5ffd5b8151612faf612faa82612f6a565b612f1b565b8082825260208201915060208360051b860101925085831115612fd0575f5ffd5b602085015b83811015612fed578051835260209283019201612fd5565b5095945050505050565b5f5f60408385031215613008575f5ffd5b825167ffffffffffffffff81111561301e575f5ffd5b61302a85828601612f8d565b925050602083015167ffffffffffffffff811115613046575f5ffd5b8301601f81018513613056575f5ffd5b8051613064612faa82612f6a565b80828252602082019150602060e08402850101925087831115613085575f5ffd5b6020840193505b828410156130fe5760e084890312156130a3575f5ffd5b6130ab612ece565b845181526020808601518183015260408087015190830152606080870151908301526080808701519083015260a0808701519083015260c0808701519083015290835260e090940193919091019061308c565b809450505050509250929050565b600181811c9082168061312057607f821691505b602082108103612a1a577f4e487b71000000000000000000000000000000000000000000000000000000005f52602260045260245ffd5b5f81518060208401855e5f93019283525090919050565b5f6131798285613157565b9283525050602001919050565b7f4e487b71000000000000000000000000000000000000000000000000000000005f52603260045260245ffd5b8015158114612aee575f5ffd5b5f60a08284031280156131d1575f5ffd5b5060405160a0810167ffffffffffffffff811182821017156131f5576131f5612ea1565b6040528235613203816131b3565b81526020838101359082015260408084013590820152606080840135908201526080928301359281019290925250919050565b5f612a3f8284613157565b7f4e487b71000000000000000000000000000000000000000000000000000000005f52601160045260245ffd5b80820180821115610a3257610a32613241565b8082028115828204841417610a3257610a32613241565b7f4e487b71000000000000000000000000000000000000000000000000000000005f52601260045260245ffd5b5f826132f8577f4e487b71000000000000000000000000000000000000000000000000000000005f52601260045260245ffd5b500490565b81810381811115610a3257610a32613241565b5f60208284031215613320575f5ffd5b8151612a3f816131b3565b838152604060208201528160408201525f7f07ffffffffffffffffffffffffffffffffffffffffffffffffffffffffffffff831115613368575f5ffd5b8260051b8085606085013791909101606001949350505050565b805169ffffffffffffffffffff81168114612a2a575f5ffd5b805163ffffffff81168114612a2a575f5ffd5b805162ffffff81168114612a2a575f5ffd5b8051612a2a81612dd5565b8051612a2a81612b6a565b5f6101a08284031280156133e8575f5ffd5b506133f1612ef7565b6133fa83613382565b815261340860208401613382565b60208201526134196040840161339b565b604082015261342a606084016133ae565b606082015261343b608084016133ae565b608082015261344c60a084016133c0565b60a082015261345d60c084016133c0565b60c082015261346e60e084016133cb565b60e082015261348061010084016133cb565b610100820152610120838101519082015261014080840151908201526101608084015190820152610180928301519281019290925250919050565b5f602082840312156134cb575f5ffd5b5051919050565b5f602082840312156134e2575f5ffd5b8151612a3f81612da8565b5f6040820173ffffffffffffffffffffffffffffffffffffffff85168352604060208401528084518083526060850191506020860192505f5b8181101561355a57835173ffffffffffffffffffffffffffffffffffffffff16835260209384019390920191600101613526565b50909695505050505050565b5f60208284031215613576575f5ffd5b815167ffffffffffffffff81111561358c575f5ffd5b61359884828501612f8d565b949350505050565b5f7fffffffffffffffffffffffffffffffffffffffffffffffffffffffffffffffff82036135d0576135d0613241565b5060010190565b5f5f5f606084860312156135e9575f5ffd5b505081516020830151604090930151909492935091905056fea264697066735822122030cb3defe6f9085681b5e3792abed0770dd39c6b74c3b434d1cdea4260edb86664736f6c634300081c0033",
  "linkReferences": {},
  "deployedLinkReferences": {}
}