{"contracts/Fees.sol":{"TestMarket":{"abi":[{"inputs":[{"internalType":"address","name":"_quoteAsset","type":"address"},{"internalType":"address","name":"_baseAsset","type":"address"}],"stateMutability":"nonpayable","type":"constructor"},{"inputs":[{"internalType":"address","name":"","type":"address"}],"name":"addressToUserId","outputs":[{"internalType":"uint256","name":"","type":"uint256"}],"stateMutability":"view","type":"function"},{"inputs":[],"name":"baseAsset","outputs":[{"internalType":"contract TestToken","name":"","type":"address"}],"stateMutability":"view","type":"function"},{"inputs":[],"name":"highestBid","outputs":[{"internalType":"uint80","name":"","type":"uint80"}],"stateMutability":"view","type":"function"},{"inputs":[],"name":"latestUserId","outputs":[{"internalType":"uint40","name":"","type":"uint40"}],"stateMutability":"view","type":"function"},{"inputs":[{"internalType":"bool","name":"isBuy","type":"bool"},{"internalType":"uint80","name":"price","type":"uint80"},{"internalType":"uint256","name":"size","type":"uint256"},{"internalType":"uint40","name":"userId","type":"uint40"}],"name":"limitOrder","outputs":[{"internalType":"uint40","name":"id","type":"uint40"}],"stateMutability":"nonpayable","type":"function"},{"inputs":[],"name":"lowestAsk","outputs":[{"internalType":"uint80","name":"","type":"uint80"}],"stateMutability":"view","type":"function"},{"inputs":[{"internalType":"uint8","name":"orderType","type":"uint8"},{"internalType":"uint128","name":"size","type":"uint128"}],"name":"marketOrder","outputs":[{"internalType":"uint256","name":"amountIn","type":"uint256"},{"internalType":"uint256","name":"amountOut","type":"uint256"},{"internalType":"uint256","name":"rebate","type":"uint256"},{"internalType":"uint256","name":"feeTaken","type":"uint256"}],"stateMutability":"nonpayable","type":"function"},{"inputs":[],"name":"maxPrice","outputs":[{"internalType":"uint80","name":"","type":"uint80"}],"stateMutability":"view","type":"function"},{"inputs":[],"name":"minSize","outputs":[{"internalType":"uint128","name":"","type":"uint128"}],"stateMutability":"view","type":"function"},{"inputs":[{"internalType":"uint256","name":"","type":"uint256"},{"internalType":"uint256","name":"","type":"uint256"}],"name":"orders","outputs":[{"internalType":"uint128","name":"size","type":"uint128"},{"internalType":"uint40","name":"owner","type":"uint40"},{"internalType":"uint40","name":"fillBefore","type":"uint40"},{"internalType":"uint40","name":"fillAfter","type":"uint40"}],"stateMutability":"view","type":"function"},{"inputs":[{"internalType":"uint256","name":"","type":"uint256"}],"name":"priceLevels","outputs":[{"internalType":"uint128","name":"size","type":"uint128"},{"internalType":"uint40","name":"fillNext","type":"uint40"},{"internalType":"uint40","name":"latest","type":"uint40"}],"stateMutability":"view","type":"function"},{"inputs":[],"name":"quoteAsset","outputs":[{"internalType":"contract TestToken","name":"","type":"address"}],"stateMutability":"view","type":"function"},{"inputs":[{"internalType":"address","name":"caller","type":"address"}],"name":"registerUser","outputs":[{"internalType":"uint256","name":"id","type":"uint256"}],"stateMutability":"nonpayable","type":"function"},{"inputs":[{"internalType":"uint256","name":"","type":"uint256"}],"name":"userIdToAddress","outputs":[{"internalType":"address","name":"","type":"address"}],"stateMutability":"view","type":"function"}],"evm":{"bytecode":{"linkReferences":{},"object":"6101006040526298968060c052662386f26fc1000060e0525f80546001600160a01b0319166001600160501b0317905534801561003a575f5ffd5b50604051611cba380380611cba8339810160408190526100599161008b565b6001600160a01b039182166080521660a0526100bc565b80516001600160a01b0381168114610086575f5ffd5b919050565b5f5f6040838503121561009c575f5ffd5b6100a583610070565b91506100b360208401610070565b90509250929050565b60805160a05160c05160e051611b7061014a5f395f81816103930152818161053f01528181610e25015281816116d6015261175c01525f818161011a015281816105ca015261078c01525f818161034901528181610837015281816111c1015261155701525f818161045a015281816106a501528181610ce6015281816110df01526114730152611b705ff3fe608060405234801561000f575f5ffd5b50600436106100e5575f3560e01c8063b94a000f11610088578063d57bde7911610063578063d57bde791461036b578063e38d6b5c1461038e578063ebfb4f4a146103b5578063fdf262b714610455575f5ffd5b8063b94a000f1461023a578063bb85600f14610311578063cdf456e114610344575f5ffd5b8063ae87820a116100c3578063ae87820a1461017e578063b1695201146101ae578063b5ffbbcc14610208578063b8fb2d3f14610227575f5ffd5b80630facece5146100e9578063114b0d95146101155780632199d5cd1461015d575b5f5ffd5b6003546100fa9064ffffffffff1681565b60405164ffffffffff90911681526020015b60405180910390f35b61013c7f000000000000000000000000000000000000000000000000000000000000000081565b6040516fffffffffffffffffffffffffffffffff909116815260200161010c565b61017061016b3660046117ff565b61047c565b60405190815260200161010c565b5f546101939069ffffffffffffffffffff1681565b60405169ffffffffffffffffffff909116815260200161010c565b6101e36101bc366004611839565b60056020525f908152604090205473ffffffffffffffffffffffffffffffffffffffff1681565b60405173ffffffffffffffffffffffffffffffffffffffff909116815260200161010c565b6101706102163660046117ff565b60046020525f908152604090205481565b6100fa610235366004611860565b610514565b6102d16102483660046118c7565b600260209081525f92835260408084209091529082529020546fffffffffffffffffffffffffffffffff81169064ffffffffff7001000000000000000000000000000000008204811691750100000000000000000000000000000000000000000081048216917a0100000000000000000000000000000000000000000000000000009091041684565b604080516fffffffffffffffffffffffffffffffff909516855264ffffffffff93841660208601529183169184019190915216606082015260800161010c565b61032461031f3660046118e7565b610c67565b60408051948552602085019390935291830152606082015260800161010c565b6101e37f000000000000000000000000000000000000000000000000000000000000000081565b5f54610193906a0100000000000000000000900469ffffffffffffffffffff1681565b6101937f000000000000000000000000000000000000000000000000000000000000000081565b61041f6103c3366004611839565b60016020525f90815260409020546fffffffffffffffffffffffffffffffff81169064ffffffffff7001000000000000000000000000000000008204811691750100000000000000000000000000000000000000000090041683565b604080516fffffffffffffffffffffffffffffffff909416845264ffffffffff928316602085015291169082015260600161010c565b6101e37f000000000000000000000000000000000000000000000000000000000000000081565b600380545f919082906104959064ffffffffff16611964565b825464ffffffffff9182166101009390930a838102920219161790915573ffffffffffffffffffffffffffffffffffffffff9092165f8181526004602090815260408083208690558583526005909152902080547fffffffffffffffffffffffff00000000000000000000000000000000000000001690911790555090565b5f64ffffffffff82161580159061053657505f8469ffffffffffffffffffff16115b801561057957507f000000000000000000000000000000000000000000000000000000000000000069ffffffffffffffffffff168469ffffffffffffffffffff16105b610581575f5ffd5b5f5469ffffffffffffffffffff6a0100000000000000000000820481169116861561073f578069ffffffffffffffffffff168669ffffffffffffffffffff161080156105ff57507f00000000000000000000000000000000000000000000000000000000000000006fffffffffffffffffffffffffffffffff168510155b610607575f5ffd5b8169ffffffffffffffffffff168669ffffffffffffffffffff16111561066a575f80547fffffffffffffffffffffffff00000000000000000000ffffffffffffffffffff166a010000000000000000000069ffffffffffffffffffff8916021790555b6040517f23b872dd000000000000000000000000000000000000000000000000000000008152336004820152306024820152604481018690527f000000000000000000000000000000000000000000000000000000000000000073ffffffffffffffffffffffffffffffffffffffff16906323b872dd906064016020604051808303815f875af1158015610700573d5f5f3e3d5ffd5b505050506040513d601f19601f82011682018060405250810190610724919061198a565b50610738683635c9adc5dea00000866119a5565b9450610910565b61075569ffffffffffffffffffff8716866119a5565b94508169ffffffffffffffffffff168669ffffffffffffffffffff161180156107c257506fffffffffffffffffffffffffffffffff7f0000000000000000000000000000000000000000000000000000000000000000166107bf683635c9adc5dea00000876119ef565b10155b6107ca575f5ffd5b8069ffffffffffffffffffff168669ffffffffffffffffffff161015610820575f80547fffffffffffffffffffffffffffffffffffffffffffff000000000000000000001669ffffffffffffffffffff88161790555b73ffffffffffffffffffffffffffffffffffffffff7f0000000000000000000000000000000000000000000000000000000000000000166323b872dd333061087469ffffffffffffffffffff8b168a6119ef565b6040517fffffffff0000000000000000000000000000000000000000000000000000000060e086901b16815273ffffffffffffffffffffffffffffffffffffffff938416600482015292909116602483015260448201526064016020604051808303815f875af11580156108ea573d5f5f3e3d5ffd5b505050506040513d601f19601f8201168201806040525081019061090e919061198a565b505b69ffffffffffffffffffff86165f908152600160209081526040808320815160608101835290546fffffffffffffffffffffffffffffffff8116825264ffffffffff7001000000000000000000000000000000008204811694830185905275010000000000000000000000000000000000000000009091041691810191909152910361099e57600160208201525b6fffffffffffffffffffffffffffffffff8611156109ba575f5ffd5b80516109c7908790611a02565b6fffffffffffffffffffffffffffffffff1681526040810180516109ea90611964565b64ffffffffff90811690915269ffffffffffffffffffff88165f9081526001602090815260408083208551815487850151888501516fffffffffffffffffffffffffffffffff9093167fffffffffffffffffffffff0000000000000000000000000000000000000000009092169190911770010000000000000000000000000000000091881691909102177fffffffffffff0000000000ffffffffffffffffffffffffffffffffffffffffff167501000000000000000000000000000000000000000000828816818102929092179093556002855283862090865290935292205490965004168015610adc5780610ae7565b610ae7600186611a2a565b90506040518060800160405280886fffffffffffffffffffffffffffffffff1681526020018764ffffffffff1681526020018264ffffffffff168152602001866001610b339190611a47565b64ffffffffff90811690915269ffffffffffffffffffff8a165f9081526002602090815260408083208a8516845282529182902084518154928601519386015160609096015185167a010000000000000000000000000000000000000000000000000000027fff0000000000ffffffffffffffffffffffffffffffffffffffffffffffffffff968616750100000000000000000000000000000000000000000002969096167fff00000000000000000000ffffffffffffffffffffffffffffffffffffffffff94909516700100000000000000000000000000000000027fffffffffffffffffffffff0000000000000000000000000000000000000000009093166fffffffffffffffffffffffffffffffff9091161791909117919091169190911791909117905550505050949350505050565b5f808080600f8087161590600488901c1615818015610c835750805b610c9a575f5f5f5f955095509550955050506117f6565b6040517f23b872dd0000000000000000000000000000000000000000000000000000000081523360048201523060248201526fffffffffffffffffffffffffffffffff881660448201527f000000000000000000000000000000000000000000000000000000000000000073ffffffffffffffffffffffffffffffffffffffff16906323b872dd906064016020604051808303815f875af1158015610d41573d5f5f3e3d5ffd5b505050506040513d601f19601f82011682018060405250810190610d65919061198a565b506fffffffffffffffffffffffffffffffff871695505f610d8f683635c9adc5dea00000886119a5565b9050683635c9adc5dea00000620f4240610dab61012c846119a5565b610db591906119ef565b610dbf91906119ef565b9350620f4240610dd161012c82611a64565b610ddb90836119a5565b610de591906119ef565b5f5490915069ffffffffffffffffffff168015801590610e11575069ffffffffffffffffffff81811614155b610e19575f5ffd5b5f82118015610e5f57507f000000000000000000000000000000000000000000000000000000000000000069ffffffffffffffffffff168169ffffffffffffffffffff16105b156116845769ffffffffffffffffffff81165f908152600160205260408120805490916fffffffffffffffffffffffffffffffff9091169003610ead57610ea582611a77565b915050610e19565b8054700100000000000000000000000000000000900464ffffffffff165b64ffffffffff811615801590610ee057505f84115b156116575769ffffffffffffffffffff83165f90815260026020908152604080832064ffffffffff85168452909152812090610f206032620f4240611a64565b8254610f4290620f4240906fffffffffffffffffffffffffffffffff166119a5565b610f4c91906119ef565b905085811115611299575f620f4240610f66603282611a64565b610f7090896119a5565b610f7a91906119ef565b8354909150819084905f90610fa29084906fffffffffffffffffffffffffffffffff16611a9e565b92506101000a8154816fffffffffffffffffffffffffffffffff02191690836fffffffffffffffffffffffffffffffff16021790555080855f015f8282829054906101000a90046fffffffffffffffffffffffffffffffff166110059190611a9e565b92506101000a8154816fffffffffffffffffffffffffffffffff02191690836fffffffffffffffffffffffffffffffff160217905550683635c9adc5dea00000620f424060328961105691906119a5565b61106091906119ef565b61106a91906119ef565b611074908c611ac6565b9a5061108c69ffffffffffffffffffff8716826119ef565b611096908d611ac6565b8354700100000000000000000000000000000000900464ffffffffff165f90815260056020526040902054909c5073ffffffffffffffffffffffffffffffffffffffff908116907f00000000000000000000000000000000000000000000000000000000000000001663a9059cbb82611118683635c9adc5dea000008c6119ef565b6040517fffffffff0000000000000000000000000000000000000000000000000000000060e085901b16815273ffffffffffffffffffffffffffffffffffffffff909216600483015260248201526044016020604051808303815f875af1158015611185573d5f5f3e3d5ffd5b505050506040513d601f19601f820116820180604052508101906111a9919061198a565b5073ffffffffffffffffffffffffffffffffffffffff7f00000000000000000000000000000000000000000000000000000000000000001663a9059cbb336111fd69ffffffffffffffffffff8b16866119ef565b6040517fffffffff0000000000000000000000000000000000000000000000000000000060e085901b16815273ffffffffffffffffffffffffffffffffffffffff909216600483015260248201526044016020604051808303815f875af115801561126a573d5f5f3e3d5ffd5b505050506040513d601f19601f8201168201806040525081019061128e919061198a565b505f97505050611650565b6112a38187611a64565b825485549197506fffffffffffffffffffffffffffffffff9081169186915f916112cf91859116611a9e565b92506101000a8154816fffffffffffffffffffffffffffffffff02191690836fffffffffffffffffffffffffffffffff160217905550683635c9adc5dea00000620f424060328361132091906119a5565b61132a91906119ef565b61133491906119ef565b61133e908b611ac6565b8254909a5061136c9069ffffffffffffffffffff8716906fffffffffffffffffffffffffffffffff16611ad9565b611388906fffffffffffffffffffffffffffffffff168c611ac6565b8254855470010000000000000000000000000000000064ffffffffff7a01000000000000000000000000000000000000000000000000000090930483168181027fffffffffffffffffffffff0000000000ffffffffffffffffffffffffffffffff90931692909217885569ffffffffffffffffffff89165f908152600260209081526040808320998616835298815288822080547fff0000000000000000000000000000000000000000000000000000000000000016905587549290920490931683526005905294902054909b50839073ffffffffffffffffffffffffffffffffffffffff908116907f00000000000000000000000000000000000000000000000000000000000000001663a9059cbb826114ac683635c9adc5dea00000876119ef565b6040517fffffffff0000000000000000000000000000000000000000000000000000000060e085901b16815273ffffffffffffffffffffffffffffffffffffffff909216600483015260248201526044016020604051808303815f875af1158015611519573d5f5f3e3d5ffd5b505050506040513d601f19601f8201168201806040525081019061153d919061198a565b50835473ffffffffffffffffffffffffffffffffffffffff7f0000000000000000000000000000000000000000000000000000000000000000169063a9059cbb9033906115a99069ffffffffffffffffffff8c16906fffffffffffffffffffffffffffffffff16611ad9565b6040517fffffffff0000000000000000000000000000000000000000000000000000000060e085901b16815273ffffffffffffffffffffffffffffffffffffffff90921660048301526fffffffffffffffffffffffffffffffff1660248201526044016020604051808303815f875af1158015611628573d5f5f3e3d5ffd5b505050506040513d601f19601f8201168201806040525081019061164c919061198a565b5050505b5050610ecb565b81546fffffffffffffffffffffffffffffffff165f0361167d5761167a83611a77565b92505b5050610e19565b5f805469ffffffffffffffffffff168152600160205260408120546fffffffffffffffffffffffffffffffff1690036117e7575f80546116d19069ffffffffffffffffffff166001611b18565b90505b7f000000000000000000000000000000000000000000000000000000000000000069ffffffffffffffffffff168169ffffffffffffffffffff16108015611745575069ffffffffffffffffffff81165f908152600160205260409020546fffffffffffffffffffffffffffffffff16155b1561175a5761175381611a77565b90506116d4565b7f000000000000000000000000000000000000000000000000000000000000000069ffffffffffffffffffff168169ffffffffffffffffffff16106117a95769ffffffffffffffffffff6117ab565b805b5f80547fffffffffffffffffffffffffffffffffffffffffffff000000000000000000001669ffffffffffffffffffff92909216919091179055505b81156117f1575f5ffd5b505050505b92959194509250565b5f6020828403121561180f575f5ffd5b813573ffffffffffffffffffffffffffffffffffffffff81168114611832575f5ffd5b9392505050565b5f60208284031215611849575f5ffd5b5035919050565b801515811461185d575f5ffd5b50565b5f5f5f5f60808587031215611873575f5ffd5b843561187e81611850565b9350602085013569ffffffffffffffffffff8116811461189c575f5ffd5b925060408501359150606085013564ffffffffff811681146118bc575f5ffd5b939692955090935050565b5f5f604083850312156118d8575f5ffd5b50508035926020909101359150565b5f5f604083850312156118f8575f5ffd5b823560ff81168114611908575f5ffd5b915060208301356fffffffffffffffffffffffffffffffff8116811461192c575f5ffd5b809150509250929050565b7f4e487b71000000000000000000000000000000000000000000000000000000005f52601160045260245ffd5b5f64ffffffffff821664ffffffffff810361198157611981611937565b60010192915050565b5f6020828403121561199a575f5ffd5b815161183281611850565b80820281158282048414176119bc576119bc611937565b92915050565b7f4e487b71000000000000000000000000000000000000000000000000000000005f52601260045260245ffd5b5f826119fd576119fd6119c2565b500490565b6fffffffffffffffffffffffffffffffff81811683821601908111156119bc576119bc611937565b64ffffffffff82811682821603908111156119bc576119bc611937565b64ffffffffff81811683821601908111156119bc576119bc611937565b818103818111156119bc576119bc611937565b5f69ffffffffffffffffffff821669ffffffffffffffffffff810361198157611981611937565b6fffffffffffffffffffffffffffffffff82811682821603908111156119bc576119bc611937565b808201808211156119bc576119bc611937565b5f6fffffffffffffffffffffffffffffffff831680611afa57611afa6119c2565b806fffffffffffffffffffffffffffffffff84160491505092915050565b69ffffffffffffffffffff81811683821601908111156119bc576119bc61193756fea264697066735822122067a9b17a54bc4ca86e2f74898b89abeae4cbd38b141dc8096d621ef9a4483e9a64736f6c634300081c0033","opcodes":"PUSH2 0x100 PUSH1 0x40 MSTORE PUSH3 0x989680 PUSH1 0xC0 MSTORE PUSH7 0x2386F26FC10000 PUSH1 0xE0 MSTORE PUSH0 DUP1 SLOAD PUSH1 0x1 PUSH1 0x1 PUSH1 0xA0 SHL SUB NOT AND PUSH1 0x1 PUSH1 0x1 PUSH1 0x50 SHL SUB OR SWAP1 SSTORE CALLVALUE DUP1 ISZERO PUSH2 0x3A JUMPI PUSH0 PUSH0 REVERT JUMPDEST POP PUSH1 0x40 MLOAD PUSH2 0x1CBA CODESIZE SUB DUP1 PUSH2 0x1CBA DUP4 CODECOPY DUP2 ADD PUSH1 0x40 DUP2 SWAP1 MSTORE PUSH2 0x59 SWAP2 PUSH2 0x8B JUMP JUMPDEST PUSH1 0x1 PUSH1 0x1 PUSH1 0xA0 SHL SUB SWAP2 DUP3 AND PUSH1 0x80 MSTORE AND PUSH1 0xA0 MSTORE PUSH2 0xBC JUMP JUMPDEST DUP1 MLOAD PUSH1 0x1 PUSH1 0x1 PUSH1 0xA0 SHL SUB DUP2 AND DUP2 EQ PUSH2 0x86 JUMPI PUSH0 PUSH0 REVERT JUMPDEST SWAP2 SWAP1 POP JUMP JUMPDEST PUSH0 PUSH0 PUSH1 0x40 DUP4 DUP6 SUB SLT ISZERO PUSH2 0x9C JUMPI PUSH0 PUSH0 REVERT JUMPDEST PUSH2 0xA5 DUP4 PUSH2 0x70 JUMP JUMPDEST SWAP2 POP PUSH2 0xB3 PUSH1 0x20 DUP5 ADD PUSH2 0x70 JUMP JUMPDEST SWAP1 POP SWAP3 POP SWAP3 SWAP1 POP JUMP JUMPDEST PUSH1 0x80 MLOAD PUSH1 0xA0 MLOAD PUSH1 0xC0 MLOAD PUSH1 0xE0 MLOAD PUSH2 0x1B70 PUSH2 0x14A PUSH0 CODECOPY PUSH0 DUP2 DUP2 PUSH2 0x393 ADD MSTORE DUP2 DUP2 PUSH2 0x53F ADD MSTORE DUP2 DUP2 PUSH2 0xE25 ADD MSTORE DUP2 DUP2 PUSH2 0x16D6 ADD MSTORE PUSH2 0x175C ADD MSTORE PUSH0 DUP2 DUP2 PUSH2 0x11A ADD MSTORE DUP2 DUP2 PUSH2 0x5CA ADD MSTORE PUSH2 0x78C ADD MSTORE PUSH0 DUP2 DUP2 PUSH2 0x349 ADD MSTORE DUP2 DUP2 PUSH2 0x837 ADD MSTORE DUP2 DUP2 PUSH2 0x11C1 ADD MSTORE PUSH2 0x1557 ADD MSTORE PUSH0 DUP2 DUP2 PUSH2 0x45A ADD MSTORE DUP2 DUP2 PUSH2 0x6A5 ADD MSTORE DUP2 DUP2 PUSH2 0xCE6 ADD MSTORE DUP2 DUP2 PUSH2 0x10DF ADD MSTORE PUSH2 0x1473 ADD MSTORE PUSH2 0x1B70 PUSH0 RETURN INVALID PUSH1 0x80 PUSH1 0x40 MSTORE CALLVALUE DUP1 ISZERO PUSH2 0xF JUMPI PUSH0 PUSH0 REVERT JUMPDEST POP PUSH1 0x4 CALLDATASIZE LT PUSH2 0xE5 JUMPI PUSH0 CALLDATALOAD PUSH1 0xE0 SHR DUP1 PUSH4 0xB94A000F GT PUSH2 0x88 JUMPI DUP1 PUSH4 0xD57BDE79 GT PUSH2 0x63 JUMPI DUP1 PUSH4 0xD57BDE79 EQ PUSH2 0x36B JUMPI DUP1 PUSH4 0xE38D6B5C EQ PUSH2 0x38E JUMPI DUP1 PUSH4 0xEBFB4F4A EQ PUSH2 0x3B5 JUMPI DUP1 PUSH4 0xFDF262B7 EQ PUSH2 0x455 JUMPI PUSH0 PUSH0 REVERT JUMPDEST DUP1 PUSH4 0xB94A000F EQ PUSH2 0x23A JUMPI DUP1 PUSH4 0xBB85600F EQ PUSH2 0x311 JUMPI DUP1 PUSH4 0xCDF456E1 EQ PUSH2 0x344 JUMPI PUSH0 PUSH0 REVERT JUMPDEST DUP1 PUSH4 0xAE87820A GT PUSH2 0xC3 JUMPI DUP1 PUSH4 0xAE87820A EQ PUSH2 0x17E JUMPI DUP1 PUSH4 0xB1695201 EQ PUSH2 0x1AE JUMPI DUP1 PUSH4 0xB5FFBBCC EQ PUSH2 0x208 JUMPI DUP1 PUSH4 0xB8FB2D3F EQ PUSH2 0x227 JUMPI PUSH0 PUSH0 REVERT JUMPDEST DUP1 PUSH4 0xFACECE5 EQ PUSH2 0xE9 JUMPI DUP1 PUSH4 0x114B0D95 EQ PUSH2 0x115 JUMPI DUP1 PUSH4 0x2199D5CD EQ PUSH2 0x15D JUMPI JUMPDEST PUSH0 PUSH0 REVERT JUMPDEST PUSH1 0x3 SLOAD PUSH2 0xFA SWAP1 PUSH5 0xFFFFFFFFFF AND DUP2 JUMP JUMPDEST PUSH1 0x40 MLOAD PUSH5 0xFFFFFFFFFF SWAP1 SWAP2 AND DUP2 MSTORE PUSH1 0x20 ADD JUMPDEST PUSH1 0x40 MLOAD DUP1 SWAP2 SUB SWAP1 RETURN JUMPDEST PUSH2 0x13C PUSH32 0x0 DUP2 JUMP JUMPDEST PUSH1 0x40 MLOAD PUSH16 0xFFFFFFFFFFFFFFFFFFFFFFFFFFFFFFFF SWAP1 SWAP2 AND DUP2 MSTORE PUSH1 0x20 ADD PUSH2 0x10C JUMP JUMPDEST PUSH2 0x170 PUSH2 0x16B CALLDATASIZE PUSH1 0x4 PUSH2 0x17FF JUMP JUMPDEST PUSH2 0x47C JUMP JUMPDEST PUSH1 0x40 MLOAD SWAP1 DUP2 MSTORE PUSH1 0x20 ADD PUSH2 0x10C JUMP JUMPDEST PUSH0 SLOAD PUSH2 0x193 SWAP1 PUSH10 0xFFFFFFFFFFFFFFFFFFFF AND DUP2 JUMP JUMPDEST PUSH1 0x40 MLOAD PUSH10 0xFFFFFFFFFFFFFFFFFFFF SWAP1 SWAP2 AND DUP2 MSTORE PUSH1 0x20 ADD PUSH2 0x10C JUMP JUMPDEST PUSH2 0x1E3 PUSH2 0x1BC CALLDATASIZE PUSH1 0x4 PUSH2 0x1839 JUMP JUMPDEST PUSH1 0x5 PUSH1 0x20 MSTORE PUSH0 SWAP1 DUP2 MSTORE PUSH1 0x40 SWAP1 KECCAK256 SLOAD PUSH20 0xFFFFFFFFFFFFFFFFFFFFFFFFFFFFFFFFFFFFFFFF AND DUP2 JUMP JUMPDEST PUSH1 0x40 MLOAD PUSH20 0xFFFFFFFFFFFFFFFFFFFFFFFFFFFFFFFFFFFFFFFF SWAP1 SWAP2 AND DUP2 MSTORE PUSH1 0x20 ADD PUSH2 0x10C JUMP JUMPDEST PUSH2 0x170 PUSH2 0x216 CALLDATASIZE PUSH1 0x4 PUSH2 0x17FF JUMP JUMPDEST PUSH1 0x4 PUSH1 0x20 MSTORE PUSH0 SWAP1 DUP2 MSTORE PUSH1 0x40 SWAP1 KECCAK256 SLOAD DUP2 JUMP JUMPDEST PUSH2 0xFA PUSH2 0x235 CALLDATASIZE PUSH1 0x4 PUSH2 0x1860 JUMP JUMPDEST PUSH2 0x514 JUMP JUMPDEST PUSH2 0x2D1 PUSH2 0x248 CALLDATASIZE PUSH1 0x4 PUSH2 0x18C7 JUMP JUMPDEST PUSH1 0x2 PUSH1 0x20 SWAP1 DUP2 MSTORE PUSH0 SWAP3 DUP4 MSTORE PUSH1 0x40 DUP1 DUP5 KECCAK256 SWAP1 SWAP2 MSTORE SWAP1 DUP3 MSTORE SWAP1 KECCAK256 SLOAD PUSH16 0xFFFFFFFFFFFFFFFFFFFFFFFFFFFFFFFF DUP2 AND SWAP1 PUSH5 0xFFFFFFFFFF PUSH17 0x100000000000000000000000000000000 DUP3 DIV DUP2 AND SWAP2 PUSH22 0x1000000000000000000000000000000000000000000 DUP2 DIV DUP3 AND SWAP2 PUSH27 0x10000000000000000000000000000000000000000000000000000 SWAP1 SWAP2 DIV AND DUP5 JUMP JUMPDEST PUSH1 0x40 DUP1 MLOAD PUSH16 0xFFFFFFFFFFFFFFFFFFFFFFFFFFFFFFFF SWAP1 SWAP6 AND DUP6 MSTORE PUSH5 0xFFFFFFFFFF SWAP4 DUP5 AND PUSH1 0x20 DUP7 ADD MSTORE SWAP2 DUP4 AND SWAP2 DUP5 ADD SWAP2 SWAP1 SWAP2 MSTORE AND PUSH1 0x60 DUP3 ADD MSTORE PUSH1 0x80 ADD PUSH2 0x10C JUMP JUMPDEST PUSH2 0x324 PUSH2 0x31F CALLDATASIZE PUSH1 0x4 PUSH2 0x18E7 JUMP JUMPDEST PUSH2 0xC67 JUMP JUMPDEST PUSH1 0x40 DUP1 MLOAD SWAP5 DUP6 MSTORE PUSH1 0x20 DUP6 ADD SWAP4 SWAP1 SWAP4 MSTORE SWAP2 DUP4 ADD MSTORE PUSH1 0x60 DUP3 ADD MSTORE PUSH1 0x80 ADD PUSH2 0x10C JUMP JUMPDEST PUSH2 0x1E3 PUSH32 0x0 DUP2 JUMP JUMPDEST PUSH0 SLOAD PUSH2 0x193 SWAP1 PUSH11 0x100000000000000000000 SWAP1 DIV PUSH10 0xFFFFFFFFFFFFFFFFFFFF AND DUP2 JUMP JUMPDEST PUSH2 0x193 PUSH32 0x0 DUP2 JUMP JUMPDEST PUSH2 0x41F PUSH2 0x3C3 CALLDATASIZE PUSH1 0x4 PUSH2 0x1839 JUMP JUMPDEST PUSH1 0x1 PUSH1 0x20 MSTORE PUSH0 SWAP1 DUP2 MSTORE PUSH1 0x40 SWAP1 KECCAK256 SLOAD PUSH16 0xFFFFFFFFFFFFFFFFFFFFFFFFFFFFFFFF DUP2 AND SWAP1 PUSH5 0xFFFFFFFFFF PUSH17 0x100000000000000000000000000000000 DUP3 DIV DUP2 AND SWAP2 PUSH22 0x1000000000000000000000000000000000000000000 SWAP1 DIV AND DUP4 JUMP JUMPDEST PUSH1 0x40 DUP1 MLOAD PUSH16 0xFFFFFFFFFFFFFFFFFFFFFFFFFFFFFFFF SWAP1 SWAP5 AND DUP5 MSTORE PUSH5 0xFFFFFFFFFF SWAP3 DUP4 AND PUSH1 0x20 DUP6 ADD MSTORE SWAP2 AND SWAP1 DUP3 ADD MSTORE PUSH1 0x60 ADD PUSH2 0x10C JUMP JUMPDEST PUSH2 0x1E3 PUSH32 0x0 DUP2 JUMP JUMPDEST PUSH1 0x3 DUP1 SLOAD PUSH0 SWAP2 SWAP1 DUP3 SWAP1 PUSH2 0x495 SWAP1 PUSH5 0xFFFFFFFFFF AND PUSH2 0x1964 JUMP JUMPDEST DUP3 SLOAD PUSH5 0xFFFFFFFFFF SWAP2 DUP3 AND PUSH2 0x100 SWAP4 SWAP1 SWAP4 EXP DUP4 DUP2 MUL SWAP3 MUL NOT AND OR SWAP1 SWAP2 SSTORE PUSH20 0xFFFFFFFFFFFFFFFFFFFFFFFFFFFFFFFFFFFFFFFF SWAP1 SWAP3 AND PUSH0 DUP2 DUP2 MSTORE PUSH1 0x4 PUSH1 0x20 SWAP1 DUP2 MSTORE PUSH1 0x40 DUP1 DUP4 KECCAK256 DUP7 SWAP1 SSTORE DUP6 DUP4 MSTORE PUSH1 0x5 SWAP1 SWAP2 MSTORE SWAP1 KECCAK256 DUP1 SLOAD PUSH32 0xFFFFFFFFFFFFFFFFFFFFFFFF0000000000000000000000000000000000000000 AND SWAP1 SWAP2 OR SWAP1 SSTORE POP SWAP1 JUMP JUMPDEST PUSH0 PUSH5 0xFFFFFFFFFF DUP3 AND ISZERO DUP1 ISZERO SWAP1 PUSH2 0x536 JUMPI POP PUSH0 DUP5 PUSH10 0xFFFFFFFFFFFFFFFFFFFF AND GT JUMPDEST DUP1 ISZERO PUSH2 0x579 JUMPI POP PUSH32 0x0 PUSH10 0xFFFFFFFFFFFFFFFFFFFF AND DUP5 PUSH10 0xFFFFFFFFFFFFFFFFFFFF AND LT JUMPDEST PUSH2 0x581 JUMPI PUSH0 PUSH0 REVERT JUMPDEST PUSH0 SLOAD PUSH10 0xFFFFFFFFFFFFFFFFFFFF PUSH11 0x100000000000000000000 DUP3 DIV DUP2 AND SWAP2 AND DUP7 ISZERO PUSH2 0x73F JUMPI DUP1 PUSH10 0xFFFFFFFFFFFFFFFFFFFF AND DUP7 PUSH10 0xFFFFFFFFFFFFFFFFFFFF AND LT DUP1 ISZERO PUSH2 0x5FF JUMPI POP PUSH32 0x0 PUSH16 0xFFFFFFFFFFFFFFFFFFFFFFFFFFFFFFFF AND DUP6 LT ISZERO JUMPDEST PUSH2 0x607 JUMPI PUSH0 PUSH0 REVERT JUMPDEST DUP2 PUSH10 0xFFFFFFFFFFFFFFFFFFFF AND DUP7 PUSH10 0xFFFFFFFFFFFFFFFFFFFF AND GT ISZERO PUSH2 0x66A JUMPI PUSH0 DUP1 SLOAD PUSH32 0xFFFFFFFFFFFFFFFFFFFFFFFF00000000000000000000FFFFFFFFFFFFFFFFFFFF AND PUSH11 0x100000000000000000000 PUSH10 0xFFFFFFFFFFFFFFFFFFFF DUP10 AND MUL OR SWAP1 SSTORE JUMPDEST PUSH1 0x40 MLOAD PUSH32 0x23B872DD00000000000000000000000000000000000000000000000000000000 DUP2 MSTORE CALLER PUSH1 0x4 DUP3 ADD MSTORE ADDRESS PUSH1 0x24 DUP3 ADD MSTORE PUSH1 0x44 DUP2 ADD DUP7 SWAP1 MSTORE PUSH32 0x0 PUSH20 0xFFFFFFFFFFFFFFFFFFFFFFFFFFFFFFFFFFFFFFFF AND SWAP1 PUSH4 0x23B872DD SWAP1 PUSH1 0x64 ADD PUSH1 0x20 PUSH1 0x40 MLOAD DUP1 DUP4 SUB DUP2 PUSH0 DUP8 GAS CALL ISZERO DUP1 ISZERO PUSH2 0x700 JUMPI RETURNDATASIZE PUSH0 PUSH0 RETURNDATACOPY RETURNDATASIZE PUSH0 REVERT JUMPDEST POP POP POP POP PUSH1 0x40 MLOAD RETURNDATASIZE PUSH1 0x1F NOT PUSH1 0x1F DUP3 ADD AND DUP3 ADD DUP1 PUSH1 0x40 MSTORE POP DUP2 ADD SWAP1 PUSH2 0x724 SWAP2 SWAP1 PUSH2 0x198A JUMP JUMPDEST POP PUSH2 0x738 PUSH9 0x3635C9ADC5DEA00000 DUP7 PUSH2 0x19A5 JUMP JUMPDEST SWAP5 POP PUSH2 0x910 JUMP JUMPDEST PUSH2 0x755 PUSH10 0xFFFFFFFFFFFFFFFFFFFF DUP8 AND DUP7 PUSH2 0x19A5 JUMP JUMPDEST SWAP5 POP DUP2 PUSH10 0xFFFFFFFFFFFFFFFFFFFF AND DUP7 PUSH10 0xFFFFFFFFFFFFFFFFFFFF AND GT DUP1 ISZERO PUSH2 0x7C2 JUMPI POP PUSH16 0xFFFFFFFFFFFFFFFFFFFFFFFFFFFFFFFF PUSH32 0x0 AND PUSH2 0x7BF PUSH9 0x3635C9ADC5DEA00000 DUP8 PUSH2 0x19EF JUMP JUMPDEST LT ISZERO JUMPDEST PUSH2 0x7CA JUMPI PUSH0 PUSH0 REVERT JUMPDEST DUP1 PUSH10 0xFFFFFFFFFFFFFFFFFFFF AND DUP7 PUSH10 0xFFFFFFFFFFFFFFFFFFFF AND LT ISZERO PUSH2 0x820 JUMPI PUSH0 DUP1 SLOAD PUSH32 0xFFFFFFFFFFFFFFFFFFFFFFFFFFFFFFFFFFFFFFFFFFFF00000000000000000000 AND PUSH10 0xFFFFFFFFFFFFFFFFFFFF DUP9 AND OR SWAP1 SSTORE JUMPDEST PUSH20 0xFFFFFFFFFFFFFFFFFFFFFFFFFFFFFFFFFFFFFFFF PUSH32 0x0 AND PUSH4 0x23B872DD CALLER ADDRESS PUSH2 0x874 PUSH10 0xFFFFFFFFFFFFFFFFFFFF DUP12 AND DUP11 PUSH2 0x19EF JUMP JUMPDEST PUSH1 0x40 MLOAD PUSH32 0xFFFFFFFF00000000000000000000000000000000000000000000000000000000 PUSH1 0xE0 DUP7 SWAP1 SHL AND DUP2 MSTORE PUSH20 0xFFFFFFFFFFFFFFFFFFFFFFFFFFFFFFFFFFFFFFFF SWAP4 DUP5 AND PUSH1 0x4 DUP3 ADD MSTORE SWAP3 SWAP1 SWAP2 AND PUSH1 0x24 DUP4 ADD MSTORE PUSH1 0x44 DUP3 ADD MSTORE PUSH1 0x64 ADD PUSH1 0x20 PUSH1 0x40 MLOAD DUP1 DUP4 SUB DUP2 PUSH0 DUP8 GAS CALL ISZERO DUP1 ISZERO PUSH2 0x8EA JUMPI RETURNDATASIZE PUSH0 PUSH0 RETURNDATACOPY RETURNDATASIZE PUSH0 REVERT JUMPDEST POP POP POP POP PUSH1 0x40 MLOAD RETURNDATASIZE PUSH1 0x1F NOT PUSH1 0x1F DUP3 ADD AND DUP3 ADD DUP1 PUSH1 0x40 MSTORE POP DUP2 ADD SWAP1 PUSH2 0x90E SWAP2 SWAP1 PUSH2 0x198A JUMP JUMPDEST POP JUMPDEST PUSH10 0xFFFFFFFFFFFFFFFFFFFF DUP7 AND PUSH0 SWAP1 DUP2 MSTORE PUSH1 0x1 PUSH1 0x20 SWAP1 DUP2 MSTORE PUSH1 0x40 DUP1 DUP4 KECCAK256 DUP2 MLOAD PUSH1 0x60 DUP2 ADD DUP4 MSTORE SWAP1 SLOAD PUSH16 0xFFFFFFFFFFFFFFFFFFFFFFFFFFFFFFFF DUP2 AND DUP3 MSTORE PUSH5 0xFFFFFFFFFF PUSH17 0x100000000000000000000000000000000 DUP3 DIV DUP2 AND SWAP5 DUP4 ADD DUP6 SWAP1 MSTORE PUSH22 0x1000000000000000000000000000000000000000000 SWAP1 SWAP2 DIV AND SWAP2 DUP2 ADD SWAP2 SWAP1 SWAP2 MSTORE SWAP2 SUB PUSH2 0x99E JUMPI PUSH1 0x1 PUSH1 0x20 DUP3 ADD MSTORE JUMPDEST PUSH16 0xFFFFFFFFFFFFFFFFFFFFFFFFFFFFFFFF DUP7 GT ISZERO PUSH2 0x9BA JUMPI PUSH0 PUSH0 REVERT JUMPDEST DUP1 MLOAD PUSH2 0x9C7 SWAP1 DUP8 SWAP1 PUSH2 0x1A02 JUMP JUMPDEST PUSH16 0xFFFFFFFFFFFFFFFFFFFFFFFFFFFFFFFF AND DUP2 MSTORE PUSH1 0x40 DUP2 ADD DUP1 MLOAD PUSH2 0x9EA SWAP1 PUSH2 0x1964 JUMP JUMPDEST PUSH5 0xFFFFFFFFFF SWAP1 DUP2 AND SWAP1 SWAP2 MSTORE PUSH10 0xFFFFFFFFFFFFFFFFFFFF DUP9 AND PUSH0 SWAP1 DUP2 MSTORE PUSH1 0x1 PUSH1 0x20 SWAP1 DUP2 MSTORE PUSH1 0x40 DUP1 DUP4 KECCAK256 DUP6 MLOAD DUP2 SLOAD DUP8 DUP6 ADD MLOAD DUP9 DUP6 ADD MLOAD PUSH16 0xFFFFFFFFFFFFFFFFFFFFFFFFFFFFFFFF SWAP1 SWAP4 AND PUSH32 0xFFFFFFFFFFFFFFFFFFFFFF000000000000000000000000000000000000000000 SWAP1 SWAP3 AND SWAP2 SWAP1 SWAP2 OR PUSH17 0x100000000000000000000000000000000 SWAP2 DUP9 AND SWAP2 SWAP1 SWAP2 MUL OR PUSH32 0xFFFFFFFFFFFF0000000000FFFFFFFFFFFFFFFFFFFFFFFFFFFFFFFFFFFFFFFFFF AND PUSH22 0x1000000000000000000000000000000000000000000 DUP3 DUP9 AND DUP2 DUP2 MUL SWAP3 SWAP1 SWAP3 OR SWAP1 SWAP4 SSTORE PUSH1 0x2 DUP6 MSTORE DUP4 DUP7 KECCAK256 SWAP1 DUP7 MSTORE SWAP1 SWAP4 MSTORE SWAP3 KECCAK256 SLOAD SWAP1 SWAP7 POP DIV AND DUP1 ISZERO PUSH2 0xADC JUMPI DUP1 PUSH2 0xAE7 JUMP JUMPDEST PUSH2 0xAE7 PUSH1 0x1 DUP7 PUSH2 0x1A2A JUMP JUMPDEST SWAP1 POP PUSH1 0x40 MLOAD DUP1 PUSH1 0x80 ADD PUSH1 0x40 MSTORE DUP1 DUP9 PUSH16 0xFFFFFFFFFFFFFFFFFFFFFFFFFFFFFFFF AND DUP2 MSTORE PUSH1 0x20 ADD DUP8 PUSH5 0xFFFFFFFFFF AND DUP2 MSTORE PUSH1 0x20 ADD DUP3 PUSH5 0xFFFFFFFFFF AND DUP2 MSTORE PUSH1 0x20 ADD DUP7 PUSH1 0x1 PUSH2 0xB33 SWAP2 SWAP1 PUSH2 0x1A47 JUMP JUMPDEST PUSH5 0xFFFFFFFFFF SWAP1 DUP2 AND SWAP1 SWAP2 MSTORE PUSH10 0xFFFFFFFFFFFFFFFFFFFF DUP11 AND PUSH0 SWAP1 DUP2 MSTORE PUSH1 0x2 PUSH1 0x20 SWAP1 DUP2 MSTORE PUSH1 0x40 DUP1 DUP4 KECCAK256 DUP11 DUP6 AND DUP5 MSTORE DUP3 MSTORE SWAP2 DUP3 SWAP1 KECCAK256 DUP5 MLOAD DUP2 SLOAD SWAP3 DUP7 ADD MLOAD SWAP4 DUP7 ADD MLOAD PUSH1 0x60 SWAP1 SWAP7 ADD MLOAD DUP6 AND PUSH27 0x10000000000000000000000000000000000000000000000000000 MUL PUSH32 0xFF0000000000FFFFFFFFFFFFFFFFFFFFFFFFFFFFFFFFFFFFFFFFFFFFFFFFFFFF SWAP7 DUP7 AND PUSH22 0x1000000000000000000000000000000000000000000 MUL SWAP7 SWAP1 SWAP7 AND PUSH32 0xFF00000000000000000000FFFFFFFFFFFFFFFFFFFFFFFFFFFFFFFFFFFFFFFFFF SWAP5 SWAP1 SWAP6 AND PUSH17 0x100000000000000000000000000000000 MUL PUSH32 0xFFFFFFFFFFFFFFFFFFFFFF000000000000000000000000000000000000000000 SWAP1 SWAP4 AND PUSH16 0xFFFFFFFFFFFFFFFFFFFFFFFFFFFFFFFF SWAP1 SWAP2 AND OR SWAP2 SWAP1 SWAP2 OR SWAP2 SWAP1 SWAP2 AND SWAP2 SWAP1 SWAP2 OR SWAP2 SWAP1 SWAP2 OR SWAP1 SSTORE POP POP POP POP SWAP5 SWAP4 POP POP POP POP JUMP JUMPDEST PUSH0 DUP1 DUP1 DUP1 PUSH1 0xF DUP1 DUP8 AND ISZERO SWAP1 PUSH1 0x4 DUP9 SWAP1 SHR AND ISZERO DUP2 DUP1 ISZERO PUSH2 0xC83 JUMPI POP DUP1 JUMPDEST PUSH2 0xC9A JUMPI PUSH0 PUSH0 PUSH0 PUSH0 SWAP6 POP SWAP6 POP SWAP6 POP SWAP6 POP POP POP PUSH2 0x17F6 JUMP JUMPDEST PUSH1 0x40 MLOAD PUSH32 0x23B872DD00000000000000000000000000000000000000000000000000000000 DUP2 MSTORE CALLER PUSH1 0x4 DUP3 ADD MSTORE ADDRESS PUSH1 0x24 DUP3 ADD MSTORE PUSH16 0xFFFFFFFFFFFFFFFFFFFFFFFFFFFFFFFF DUP9 AND PUSH1 0x44 DUP3 ADD MSTORE PUSH32 0x0 PUSH20 0xFFFFFFFFFFFFFFFFFFFFFFFFFFFFFFFFFFFFFFFF AND SWAP1 PUSH4 0x23B872DD SWAP1 PUSH1 0x64 ADD PUSH1 0x20 PUSH1 0x40 MLOAD DUP1 DUP4 SUB DUP2 PUSH0 DUP8 GAS CALL ISZERO DUP1 ISZERO PUSH2 0xD41 JUMPI RETURNDATASIZE PUSH0 PUSH0 RETURNDATACOPY RETURNDATASIZE PUSH0 REVERT JUMPDEST POP POP POP POP PUSH1 0x40 MLOAD RETURNDATASIZE PUSH1 0x1F NOT PUSH1 0x1F DUP3 ADD AND DUP3 ADD DUP1 PUSH1 0x40 MSTORE POP DUP2 ADD SWAP1 PUSH2 0xD65 SWAP2 SWAP1 PUSH2 0x198A JUMP JUMPDEST POP PUSH16 0xFFFFFFFFFFFFFFFFFFFFFFFFFFFFFFFF DUP8 AND SWAP6 POP PUSH0 PUSH2 0xD8F PUSH9 0x3635C9ADC5DEA00000 DUP9 PUSH2 0x19A5 JUMP JUMPDEST SWAP1 POP PUSH9 0x3635C9ADC5DEA00000 PUSH3 0xF4240 PUSH2 0xDAB PUSH2 0x12C DUP5 PUSH2 0x19A5 JUMP JUMPDEST PUSH2 0xDB5 SWAP2 SWAP1 PUSH2 0x19EF JUMP JUMPDEST PUSH2 0xDBF SWAP2 SWAP1 PUSH2 0x19EF JUMP JUMPDEST SWAP4 POP PUSH3 0xF4240 PUSH2 0xDD1 PUSH2 0x12C DUP3 PUSH2 0x1A64 JUMP JUMPDEST PUSH2 0xDDB SWAP1 DUP4 PUSH2 0x19A5 JUMP JUMPDEST PUSH2 0xDE5 SWAP2 SWAP1 PUSH2 0x19EF JUMP JUMPDEST PUSH0 SLOAD SWAP1 SWAP2 POP PUSH10 0xFFFFFFFFFFFFFFFFFFFF AND DUP1 ISZERO DUP1 ISZERO SWAP1 PUSH2 0xE11 JUMPI POP PUSH10 0xFFFFFFFFFFFFFFFFFFFF DUP2 DUP2 AND EQ ISZERO JUMPDEST PUSH2 0xE19 JUMPI PUSH0 PUSH0 REVERT JUMPDEST PUSH0 DUP3 GT DUP1 ISZERO PUSH2 0xE5F JUMPI POP PUSH32 0x0 PUSH10 0xFFFFFFFFFFFFFFFFFFFF AND DUP2 PUSH10 0xFFFFFFFFFFFFFFFFFFFF AND LT JUMPDEST ISZERO PUSH2 0x1684 JUMPI PUSH10 0xFFFFFFFFFFFFFFFFFFFF DUP2 AND PUSH0 SWAP1 DUP2 MSTORE PUSH1 0x1 PUSH1 0x20 MSTORE PUSH1 0x40 DUP2 KECCAK256 DUP1 SLOAD SWAP1 SWAP2 PUSH16 0xFFFFFFFFFFFFFFFFFFFFFFFFFFFFFFFF SWAP1 SWAP2 AND SWAP1 SUB PUSH2 0xEAD JUMPI PUSH2 0xEA5 DUP3 PUSH2 0x1A77 JUMP JUMPDEST SWAP2 POP POP PUSH2 0xE19 JUMP JUMPDEST DUP1 SLOAD PUSH17 0x100000000000000000000000000000000 SWAP1 DIV PUSH5 0xFFFFFFFFFF AND JUMPDEST PUSH5 0xFFFFFFFFFF DUP2 AND ISZERO DUP1 ISZERO SWAP1 PUSH2 0xEE0 JUMPI POP PUSH0 DUP5 GT JUMPDEST ISZERO PUSH2 0x1657 JUMPI PUSH10 0xFFFFFFFFFFFFFFFFFFFF DUP4 AND PUSH0 SWAP1 DUP2 MSTORE PUSH1 0x2 PUSH1 0x20 SWAP1 DUP2 MSTORE PUSH1 0x40 DUP1 DUP4 KECCAK256 PUSH5 0xFFFFFFFFFF DUP6 AND DUP5 MSTORE SWAP1 SWAP2 MSTORE DUP2 KECCAK256 SWAP1 PUSH2 0xF20 PUSH1 0x32 PUSH3 0xF4240 PUSH2 0x1A64 JUMP JUMPDEST DUP3 SLOAD PUSH2 0xF42 SWAP1 PUSH3 0xF4240 SWAP1 PUSH16 0xFFFFFFFFFFFFFFFFFFFFFFFFFFFFFFFF AND PUSH2 0x19A5 JUMP JUMPDEST PUSH2 0xF4C SWAP2 SWAP1 PUSH2 0x19EF JUMP JUMPDEST SWAP1 POP DUP6 DUP2 GT ISZERO PUSH2 0x1299 JUMPI PUSH0 PUSH3 0xF4240 PUSH2 0xF66 PUSH1 0x32 DUP3 PUSH2 0x1A64 JUMP JUMPDEST PUSH2 0xF70 SWAP1 DUP10 PUSH2 0x19A5 JUMP JUMPDEST PUSH2 0xF7A SWAP2 SWAP1 PUSH2 0x19EF JUMP JUMPDEST DUP4 SLOAD SWAP1 SWAP2 POP DUP2 SWAP1 DUP5 SWAP1 PUSH0 SWAP1 PUSH2 0xFA2 SWAP1 DUP5 SWAP1 PUSH16 0xFFFFFFFFFFFFFFFFFFFFFFFFFFFFFFFF AND PUSH2 0x1A9E JUMP JUMPDEST SWAP3 POP PUSH2 0x100 EXP DUP2 SLOAD DUP2 PUSH16 0xFFFFFFFFFFFFFFFFFFFFFFFFFFFFFFFF MUL NOT AND SWAP1 DUP4 PUSH16 0xFFFFFFFFFFFFFFFFFFFFFFFFFFFFFFFF AND MUL OR SWAP1 SSTORE POP DUP1 DUP6 PUSH0 ADD PUSH0 DUP3 DUP3 DUP3 SWAP1 SLOAD SWAP1 PUSH2 0x100 EXP SWAP1 DIV PUSH16 0xFFFFFFFFFFFFFFFFFFFFFFFFFFFFFFFF AND PUSH2 0x1005 SWAP2 SWAP1 PUSH2 0x1A9E JUMP JUMPDEST SWAP3 POP PUSH2 0x100 EXP DUP2 SLOAD DUP2 PUSH16 0xFFFFFFFFFFFFFFFFFFFFFFFFFFFFFFFF MUL NOT AND SWAP1 DUP4 PUSH16 0xFFFFFFFFFFFFFFFFFFFFFFFFFFFFFFFF AND MUL OR SWAP1 SSTORE POP PUSH9 0x3635C9ADC5DEA00000 PUSH3 0xF4240 PUSH1 0x32 DUP10 PUSH2 0x1056 SWAP2 SWAP1 PUSH2 0x19A5 JUMP JUMPDEST PUSH2 0x1060 SWAP2 SWAP1 PUSH2 0x19EF JUMP JUMPDEST PUSH2 0x106A SWAP2 SWAP1 PUSH2 0x19EF JUMP JUMPDEST PUSH2 0x1074 SWAP1 DUP13 PUSH2 0x1AC6 JUMP JUMPDEST SWAP11 POP PUSH2 0x108C PUSH10 0xFFFFFFFFFFFFFFFFFFFF DUP8 AND DUP3 PUSH2 0x19EF JUMP JUMPDEST PUSH2 0x1096 SWAP1 DUP14 PUSH2 0x1AC6 JUMP JUMPDEST DUP4 SLOAD PUSH17 0x100000000000000000000000000000000 SWAP1 DIV PUSH5 0xFFFFFFFFFF AND PUSH0 SWAP1 DUP2 MSTORE PUSH1 0x5 PUSH1 0x20 MSTORE PUSH1 0x40 SWAP1 KECCAK256 SLOAD SWAP1 SWAP13 POP PUSH20 0xFFFFFFFFFFFFFFFFFFFFFFFFFFFFFFFFFFFFFFFF SWAP1 DUP2 AND SWAP1 PUSH32 0x0 AND PUSH4 0xA9059CBB DUP3 PUSH2 0x1118 PUSH9 0x3635C9ADC5DEA00000 DUP13 PUSH2 0x19EF JUMP JUMPDEST PUSH1 0x40 MLOAD PUSH32 0xFFFFFFFF00000000000000000000000000000000000000000000000000000000 PUSH1 0xE0 DUP6 SWAP1 SHL AND DUP2 MSTORE PUSH20 0xFFFFFFFFFFFFFFFFFFFFFFFFFFFFFFFFFFFFFFFF SWAP1 SWAP3 AND PUSH1 0x4 DUP4 ADD MSTORE PUSH1 0x24 DUP3 ADD MSTORE PUSH1 0x44 ADD PUSH1 0x20 PUSH1 0x40 MLOAD DUP1 DUP4 SUB DUP2 PUSH0 DUP8 GAS CALL ISZERO DUP1 ISZERO PUSH2 0x1185 JUMPI RETURNDATASIZE PUSH0 PUSH0 RETURNDATACOPY RETURNDATASIZE PUSH0 REVERT JUMPDEST POP POP POP POP PUSH1 0x40 MLOAD RETURNDATASIZE PUSH1 0x1F NOT PUSH1 0x1F DUP3 ADD AND DUP3 ADD DUP1 PUSH1 0x40 MSTORE POP DUP2 ADD SWAP1 PUSH2 0x11A9 SWAP2 SWAP1 PUSH2 0x198A JUMP JUMPDEST POP PUSH20 0xFFFFFFFFFFFFFFFFFFFFFFFFFFFFFFFFFFFFFFFF PUSH32 0x0 AND PUSH4 0xA9059CBB CALLER PUSH2 0x11FD PUSH10 0xFFFFFFFFFFFFFFFFFFFF DUP12 AND DUP7 PUSH2 0x19EF JUMP JUMPDEST PUSH1 0x40 MLOAD PUSH32 0xFFFFFFFF00000000000000000000000000000000000000000000000000000000 PUSH1 0xE0 DUP6 SWAP1 SHL AND DUP2 MSTORE PUSH20 0xFFFFFFFFFFFFFFFFFFFFFFFFFFFFFFFFFFFFFFFF SWAP1 SWAP3 AND PUSH1 0x4 DUP4 ADD MSTORE PUSH1 0x24 DUP3 ADD MSTORE PUSH1 0x44 ADD PUSH1 0x20 PUSH1 0x40 MLOAD DUP1 DUP4 SUB DUP2 PUSH0 DUP8 GAS CALL ISZERO DUP1 ISZERO PUSH2 0x126A JUMPI RETURNDATASIZE PUSH0 PUSH0 RETURNDATACOPY RETURNDATASIZE PUSH0 REVERT JUMPDEST POP POP POP POP PUSH1 0x40 MLOAD RETURNDATASIZE PUSH1 0x1F NOT PUSH1 0x1F DUP3 ADD AND DUP3 ADD DUP1 PUSH1 0x40 MSTORE POP DUP2 ADD SWAP1 PUSH2 0x128E SWAP2 SWAP1 PUSH2 0x198A JUMP JUMPDEST POP PUSH0 SWAP8 POP POP POP PUSH2 0x1650 JUMP JUMPDEST PUSH2 0x12A3 DUP2 DUP8 PUSH2 0x1A64 JUMP JUMPDEST DUP3 SLOAD DUP6 SLOAD SWAP2 SWAP8 POP PUSH16 0xFFFFFFFFFFFFFFFFFFFFFFFFFFFFFFFF SWAP1 DUP2 AND SWAP2 DUP7 SWAP2 PUSH0 SWAP2 PUSH2 0x12CF SWAP2 DUP6 SWAP2 AND PUSH2 0x1A9E JUMP JUMPDEST SWAP3 POP PUSH2 0x100 EXP DUP2 SLOAD DUP2 PUSH16 0xFFFFFFFFFFFFFFFFFFFFFFFFFFFFFFFF MUL NOT AND SWAP1 DUP4 PUSH16 0xFFFFFFFFFFFFFFFFFFFFFFFFFFFFFFFF AND MUL OR SWAP1 SSTORE POP PUSH9 0x3635C9ADC5DEA00000 PUSH3 0xF4240 PUSH1 0x32 DUP4 PUSH2 0x1320 SWAP2 SWAP1 PUSH2 0x19A5 JUMP JUMPDEST PUSH2 0x132A SWAP2 SWAP1 PUSH2 0x19EF JUMP JUMPDEST PUSH2 0x1334 SWAP2 SWAP1 PUSH2 0x19EF JUMP JUMPDEST PUSH2 0x133E SWAP1 DUP12 PUSH2 0x1AC6 JUMP JUMPDEST DUP3 SLOAD SWAP1 SWAP11 POP PUSH2 0x136C SWAP1 PUSH10 0xFFFFFFFFFFFFFFFFFFFF DUP8 AND SWAP1 PUSH16 0xFFFFFFFFFFFFFFFFFFFFFFFFFFFFFFFF AND PUSH2 0x1AD9 JUMP JUMPDEST PUSH2 0x1388 SWAP1 PUSH16 0xFFFFFFFFFFFFFFFFFFFFFFFFFFFFFFFF AND DUP13 PUSH2 0x1AC6 JUMP JUMPDEST DUP3 SLOAD DUP6 SLOAD PUSH17 0x100000000000000000000000000000000 PUSH5 0xFFFFFFFFFF PUSH27 0x10000000000000000000000000000000000000000000000000000 SWAP1 SWAP4 DIV DUP4 AND DUP2 DUP2 MUL PUSH32 0xFFFFFFFFFFFFFFFFFFFFFF0000000000FFFFFFFFFFFFFFFFFFFFFFFFFFFFFFFF SWAP1 SWAP4 AND SWAP3 SWAP1 SWAP3 OR DUP9 SSTORE PUSH10 0xFFFFFFFFFFFFFFFFFFFF DUP10 AND PUSH0 SWAP1 DUP2 MSTORE PUSH1 0x2 PUSH1 0x20 SWAP1 DUP2 MSTORE PUSH1 0x40 DUP1 DUP4 KECCAK256 SWAP10 DUP7 AND DUP4 MSTORE SWAP9 DUP2 MSTORE DUP9 DUP3 KECCAK256 DUP1 SLOAD PUSH32 0xFF00000000000000000000000000000000000000000000000000000000000000 AND SWAP1 SSTORE DUP8 SLOAD SWAP3 SWAP1 SWAP3 DIV SWAP1 SWAP4 AND DUP4 MSTORE PUSH1 0x5 SWAP1 MSTORE SWAP5 SWAP1 KECCAK256 SLOAD SWAP1 SWAP12 POP DUP4 SWAP1 PUSH20 0xFFFFFFFFFFFFFFFFFFFFFFFFFFFFFFFFFFFFFFFF SWAP1 DUP2 AND SWAP1 PUSH32 0x0 AND PUSH4 0xA9059CBB DUP3 PUSH2 0x14AC PUSH9 0x3635C9ADC5DEA00000 DUP8 PUSH2 0x19EF JUMP JUMPDEST PUSH1 0x40 MLOAD PUSH32 0xFFFFFFFF00000000000000000000000000000000000000000000000000000000 PUSH1 0xE0 DUP6 SWAP1 SHL AND DUP2 MSTORE PUSH20 0xFFFFFFFFFFFFFFFFFFFFFFFFFFFFFFFFFFFFFFFF SWAP1 SWAP3 AND PUSH1 0x4 DUP4 ADD MSTORE PUSH1 0x24 DUP3 ADD MSTORE PUSH1 0x44 ADD PUSH1 0x20 PUSH1 0x40 MLOAD DUP1 DUP4 SUB DUP2 PUSH0 DUP8 GAS CALL ISZERO DUP1 ISZERO PUSH2 0x1519 JUMPI RETURNDATASIZE PUSH0 PUSH0 RETURNDATACOPY RETURNDATASIZE PUSH0 REVERT JUMPDEST POP POP POP POP PUSH1 0x40 MLOAD RETURNDATASIZE PUSH1 0x1F NOT PUSH1 0x1F DUP3 ADD AND DUP3 ADD DUP1 PUSH1 0x40 MSTORE POP DUP2 ADD SWAP1 PUSH2 0x153D SWAP2 SWAP1 PUSH2 0x198A JUMP JUMPDEST POP DUP4 SLOAD PUSH20 0xFFFFFFFFFFFFFFFFFFFFFFFFFFFFFFFFFFFFFFFF PUSH32 0x0 AND SWAP1 PUSH4 0xA9059CBB SWAP1 CALLER SWAP1 PUSH2 0x15A9 SWAP1 PUSH10 0xFFFFFFFFFFFFFFFFFFFF DUP13 AND SWAP1 PUSH16 0xFFFFFFFFFFFFFFFFFFFFFFFFFFFFFFFF AND PUSH2 0x1AD9 JUMP JUMPDEST PUSH1 0x40 MLOAD PUSH32 0xFFFFFFFF00000000000000000000000000000000000000000000000000000000 PUSH1 0xE0 DUP6 SWAP1 SHL AND DUP2 MSTORE PUSH20 0xFFFFFFFFFFFFFFFFFFFFFFFFFFFFFFFFFFFFFFFF SWAP1 SWAP3 AND PUSH1 0x4 DUP4 ADD MSTORE PUSH16 0xFFFFFFFFFFFFFFFFFFFFFFFFFFFFFFFF AND PUSH1 0x24 DUP3 ADD MSTORE PUSH1 0x44 ADD PUSH1 0x20 PUSH1 0x40 MLOAD DUP1 DUP4 SUB DUP2 PUSH0 DUP8 GAS CALL ISZERO DUP1 ISZERO PUSH2 0x1628 JUMPI RETURNDATASIZE PUSH0 PUSH0 RETURNDATACOPY RETURNDATASIZE PUSH0 REVERT JUMPDEST POP POP POP POP PUSH1 0x40 MLOAD RETURNDATASIZE PUSH1 0x1F NOT PUSH1 0x1F DUP3 ADD AND DUP3 ADD DUP1 PUSH1 0x40 MSTORE POP DUP2 ADD SWAP1 PUSH2 0x164C SWAP2 SWAP1 PUSH2 0x198A JUMP JUMPDEST POP POP POP JUMPDEST POP POP PUSH2 0xECB JUMP JUMPDEST DUP2 SLOAD PUSH16 0xFFFFFFFFFFFFFFFFFFFFFFFFFFFFFFFF AND PUSH0 SUB PUSH2 0x167D JUMPI PUSH2 0x167A DUP4 PUSH2 0x1A77 JUMP JUMPDEST SWAP3 POP JUMPDEST POP POP PUSH2 0xE19 JUMP JUMPDEST PUSH0 DUP1 SLOAD PUSH10 0xFFFFFFFFFFFFFFFFFFFF AND DUP2 MSTORE PUSH1 0x1 PUSH1 0x20 MSTORE PUSH1 0x40 DUP2 KECCAK256 SLOAD PUSH16 0xFFFFFFFFFFFFFFFFFFFFFFFFFFFFFFFF AND SWAP1 SUB PUSH2 0x17E7 JUMPI PUSH0 DUP1 SLOAD PUSH2 0x16D1 SWAP1 PUSH10 0xFFFFFFFFFFFFFFFFFFFF AND PUSH1 0x1 PUSH2 0x1B18 JUMP JUMPDEST SWAP1 POP JUMPDEST PUSH32 0x0 PUSH10 0xFFFFFFFFFFFFFFFFFFFF AND DUP2 PUSH10 0xFFFFFFFFFFFFFFFFFFFF AND LT DUP1 ISZERO PUSH2 0x1745 JUMPI POP PUSH10 0xFFFFFFFFFFFFFFFFFFFF DUP2 AND PUSH0 SWAP1 DUP2 MSTORE PUSH1 0x1 PUSH1 0x20 MSTORE PUSH1 0x40 SWAP1 KECCAK256 SLOAD PUSH16 0xFFFFFFFFFFFFFFFFFFFFFFFFFFFFFFFF AND ISZERO JUMPDEST ISZERO PUSH2 0x175A JUMPI PUSH2 0x1753 DUP2 PUSH2 0x1A77 JUMP JUMPDEST SWAP1 POP PUSH2 0x16D4 JUMP JUMPDEST PUSH32 0x0 PUSH10 0xFFFFFFFFFFFFFFFFFFFF AND DUP2 PUSH10 0xFFFFFFFFFFFFFFFFFFFF AND LT PUSH2 0x17A9 JUMPI PUSH10 0xFFFFFFFFFFFFFFFFFFFF PUSH2 0x17AB JUMP JUMPDEST DUP1 JUMPDEST PUSH0 DUP1 SLOAD PUSH32 0xFFFFFFFFFFFFFFFFFFFFFFFFFFFFFFFFFFFFFFFFFFFF00000000000000000000 AND PUSH10 0xFFFFFFFFFFFFFFFFFFFF SWAP3 SWAP1 SWAP3 AND SWAP2 SWAP1 SWAP2 OR SWAP1 SSTORE POP JUMPDEST DUP2 ISZERO PUSH2 0x17F1 JUMPI PUSH0 PUSH0 REVERT JUMPDEST POP POP POP POP JUMPDEST SWAP3 SWAP6 SWAP2 SWAP5 POP SWAP3 POP JUMP JUMPDEST PUSH0 PUSH1 0x20 DUP3 DUP5 SUB SLT ISZERO PUSH2 0x180F JUMPI PUSH0 PUSH0 REVERT JUMPDEST DUP2 CALLDATALOAD PUSH20 0xFFFFFFFFFFFFFFFFFFFFFFFFFFFFFFFFFFFFFFFF DUP2 AND DUP2 EQ PUSH2 0x1832 JUMPI PUSH0 PUSH0 REVERT JUMPDEST SWAP4 SWAP3 POP POP POP JUMP JUMPDEST PUSH0 PUSH1 0x20 DUP3 DUP5 SUB SLT ISZERO PUSH2 0x1849 JUMPI PUSH0 PUSH0 REVERT JUMPDEST POP CALLDATALOAD SWAP2 SWAP1 POP JUMP JUMPDEST DUP1 ISZERO ISZERO DUP2 EQ PUSH2 0x185D JUMPI PUSH0 PUSH0 REVERT JUMPDEST POP JUMP JUMPDEST PUSH0 PUSH0 PUSH0 PUSH0 PUSH1 0x80 DUP6 DUP8 SUB SLT ISZERO PUSH2 0x1873 JUMPI PUSH0 PUSH0 REVERT JUMPDEST DUP5 CALLDATALOAD PUSH2 0x187E DUP2 PUSH2 0x1850 JUMP JUMPDEST SWAP4 POP PUSH1 0x20 DUP6 ADD CALLDATALOAD PUSH10 0xFFFFFFFFFFFFFFFFFFFF DUP2 AND DUP2 EQ PUSH2 0x189C JUMPI PUSH0 PUSH0 REVERT JUMPDEST SWAP3 POP PUSH1 0x40 DUP6 ADD CALLDATALOAD SWAP2 POP PUSH1 0x60 DUP6 ADD CALLDATALOAD PUSH5 0xFFFFFFFFFF DUP2 AND DUP2 EQ PUSH2 0x18BC JUMPI PUSH0 PUSH0 REVERT JUMPDEST SWAP4 SWAP7 SWAP3 SWAP6 POP SWAP1 SWAP4 POP POP JUMP JUMPDEST PUSH0 PUSH0 PUSH1 0x40 DUP4 DUP6 SUB SLT ISZERO PUSH2 0x18D8 JUMPI PUSH0 PUSH0 REVERT JUMPDEST POP POP DUP1 CALLDATALOAD SWAP3 PUSH1 0x20 SWAP1 SWAP2 ADD CALLDATALOAD SWAP2 POP JUMP JUMPDEST PUSH0 PUSH0 PUSH1 0x40 DUP4 DUP6 SUB SLT ISZERO PUSH2 0x18F8 JUMPI PUSH0 PUSH0 REVERT JUMPDEST DUP3 CALLDATALOAD PUSH1 0xFF DUP2 AND DUP2 EQ PUSH2 0x1908 JUMPI PUSH0 PUSH0 REVERT JUMPDEST SWAP2 POP PUSH1 0x20 DUP4 ADD CALLDATALOAD PUSH16 0xFFFFFFFFFFFFFFFFFFFFFFFFFFFFFFFF DUP2 AND DUP2 EQ PUSH2 0x192C JUMPI PUSH0 PUSH0 REVERT JUMPDEST DUP1 SWAP2 POP POP SWAP3 POP SWAP3 SWAP1 POP JUMP JUMPDEST PUSH32 0x4E487B7100000000000000000000000000000000000000000000000000000000 PUSH0 MSTORE PUSH1 0x11 PUSH1 0x4 MSTORE PUSH1 0x24 PUSH0 REVERT JUMPDEST PUSH0 PUSH5 0xFFFFFFFFFF DUP3 AND PUSH5 0xFFFFFFFFFF DUP2 SUB PUSH2 0x1981 JUMPI PUSH2 0x1981 PUSH2 0x1937 JUMP JUMPDEST PUSH1 0x1 ADD SWAP3 SWAP2 POP POP JUMP JUMPDEST PUSH0 PUSH1 0x20 DUP3 DUP5 SUB SLT ISZERO PUSH2 0x199A JUMPI PUSH0 PUSH0 REVERT JUMPDEST DUP2 MLOAD PUSH2 0x1832 DUP2 PUSH2 0x1850 JUMP JUMPDEST DUP1 DUP3 MUL DUP2 ISZERO DUP3 DUP3 DIV DUP5 EQ OR PUSH2 0x19BC JUMPI PUSH2 0x19BC PUSH2 0x1937 JUMP JUMPDEST SWAP3 SWAP2 POP POP JUMP JUMPDEST PUSH32 0x4E487B7100000000000000000000000000000000000000000000000000000000 PUSH0 MSTORE PUSH1 0x12 PUSH1 0x4 MSTORE PUSH1 0x24 PUSH0 REVERT JUMPDEST PUSH0 DUP3 PUSH2 0x19FD JUMPI PUSH2 0x19FD PUSH2 0x19C2 JUMP JUMPDEST POP DIV SWAP1 JUMP JUMPDEST PUSH16 0xFFFFFFFFFFFFFFFFFFFFFFFFFFFFFFFF DUP2 DUP2 AND DUP4 DUP3 AND ADD SWAP1 DUP2 GT ISZERO PUSH2 0x19BC JUMPI PUSH2 0x19BC PUSH2 0x1937 JUMP JUMPDEST PUSH5 0xFFFFFFFFFF DUP3 DUP2 AND DUP3 DUP3 AND SUB SWAP1 DUP2 GT ISZERO PUSH2 0x19BC JUMPI PUSH2 0x19BC PUSH2 0x1937 JUMP JUMPDEST PUSH5 0xFFFFFFFFFF DUP2 DUP2 AND DUP4 DUP3 AND ADD SWAP1 DUP2 GT ISZERO PUSH2 0x19BC JUMPI PUSH2 0x19BC PUSH2 0x1937 JUMP JUMPDEST DUP2 DUP2 SUB DUP2 DUP2 GT ISZERO PUSH2 0x19BC JUMPI PUSH2 0x19BC PUSH2 0x1937 JUMP JUMPDEST PUSH0 PUSH10 0xFFFFFFFFFFFFFFFFFFFF DUP3 AND PUSH10 0xFFFFFFFFFFFFFFFFFFFF DUP2 SUB PUSH2 0x1981 JUMPI PUSH2 0x1981 PUSH2 0x1937 JUMP JUMPDEST PUSH16 0xFFFFFFFFFFFFFFFFFFFFFFFFFFFFFFFF DUP3 DUP2 AND DUP3 DUP3 AND SUB SWAP1 DUP2 GT ISZERO PUSH2 0x19BC JUMPI PUSH2 0x19BC PUSH2 0x1937 JUMP JUMPDEST DUP1 DUP3 ADD DUP1 DUP3 GT ISZERO PUSH2 0x19BC JUMPI PUSH2 0x19BC PUSH2 0x1937 JUMP JUMPDEST PUSH0 PUSH16 0xFFFFFFFFFFFFFFFFFFFFFFFFFFFFFFFF DUP4 AND DUP1 PUSH2 0x1AFA JUMPI PUSH2 0x1AFA PUSH2 0x19C2 JUMP JUMPDEST DUP1 PUSH16 0xFFFFFFFFFFFFFFFFFFFFFFFFFFFFFFFF DUP5 AND DIV SWAP2 POP POP SWAP3 SWAP2 POP POP JUMP JUMPDEST PUSH10 0xFFFFFFFFFFFFFFFFFFFF DUP2 DUP2 AND DUP4 DUP3 AND ADD SWAP1 DUP2 GT ISZERO PUSH2 0x19BC JUMPI PUSH2 0x19BC PUSH2 0x1937 JUMP INVALID LOG2 PUSH5 0x6970667358 0x22 SLT KECCAK256 PUSH8 0xA9B17A54BC4CA86E 0x2F PUSH21 0x898B89ABEAE4CBD38B141DC8096D621EF9A4483E9A PUSH5 0x736F6C6343 STOP ADDMOD SHR STOP CALLER "},"methodIdentifiers":{"addressToUserId(address)":"b5ffbbcc","baseAsset()":"cdf456e1","highestBid()":"d57bde79","latestUserId()":"0facece5","limitOrder(bool,uint80,uint256,uint40)":"b8fb2d3f","lowestAsk()":"ae87820a","marketOrder(uint8,uint128)":"bb85600f","maxPrice()":"e38d6b5c","minSize()":"114b0d95","orders(uint256,uint256)":"b94a000f","priceLevels(uint256)":"ebfb4f4a","quoteAsset()":"fdf262b7","registerUser(address)":"2199d5cd","userIdToAddress(uint256)":"b1695201"}}}}}