{"contracts/Fees.sol":{"MinimalSpotMarket":{"abi":[{"inputs":[{"internalType":"contract IERC20","name":"_quote","type":"address"},{"internalType":"contract IERC20","name":"_base","type":"address"},{"internalType":"address","name":"_feeRecipient","type":"address"}],"stateMutability":"nonpayable","type":"constructor"},{"inputs":[{"internalType":"address","name":"token","type":"address"}],"name":"SafeERC20FailedOperation","type":"error"},{"inputs":[],"name":"base","outputs":[{"internalType":"contract IERC20","name":"","type":"address"}],"stateMutability":"view","type":"function"},{"inputs":[{"internalType":"uint256","name":"quoteAmountExternal","type":"uint256"}],"name":"buyOrder","outputs":[],"stateMutability":"nonpayable","type":"function"},{"inputs":[],"name":"feeRecipient","outputs":[{"internalType":"address","name":"","type":"address"}],"stateMutability":"view","type":"function"},{"inputs":[{"internalType":"uint256","name":"idx","type":"uint256"}],"name":"getOrder","outputs":[{"components":[{"internalType":"uint256","name":"internalSize","type":"uint256"},{"internalType":"uint256","name":"priceInternal","type":"uint256"},{"internalType":"address","name":"maker","type":"address"}],"internalType":"struct MinimalSpotMarket.Order","name":"","type":"tuple"}],"stateMutability":"view","type":"function"},{"inputs":[{"internalType":"uint256","name":"baseAmountExternal","type":"uint256"},{"internalType":"uint256","name":"priceInternal","type":"uint256"}],"name":"limitOrder","outputs":[],"stateMutability":"nonpayable","type":"function"},{"inputs":[{"internalType":"uint256","name":"","type":"uint256"}],"name":"orderBook","outputs":[{"internalType":"uint256","name":"internalSize","type":"uint256"},{"internalType":"uint256","name":"priceInternal","type":"uint256"},{"internalType":"address","name":"maker","type":"address"}],"stateMutability":"view","type":"function"},{"inputs":[],"name":"orderCount","outputs":[{"internalType":"uint256","name":"","type":"uint256"}],"stateMutability":"view","type":"function"},{"inputs":[],"name":"quote","outputs":[{"internalType":"contract IERC20","name":"","type":"address"}],"stateMutability":"view","type":"function"}],"evm":{"bytecode":{"linkReferences":{},"object":"60e060405234801561000f575f5ffd5b50604051610d5d380380610d5d83398101604081905261002e91610062565b6001600160a01b0392831660805290821660a0521660c0526100ac565b6001600160a01b038116811461005f575f5ffd5b50565b5f5f5f60608486031215610074575f5ffd5b835161007f8161004b565b60208501519093506100908161004b565b60408501519092506100a18161004b565b809150509250925092565b60805160a05160c051610c576101065f395f818160b801526105a001525f8181610104015281816107b101526109d701525f818161012b015281816102090152818161057e0152818161061301526109960152610c575ff3fe608060405234801561000f575f5ffd5b5060043610610085575f3560e01c8063999b93af11610058578063999b93af14610126578063a20b6e341461014d578063d09ef24114610191578063f506492a146101dc575f5ffd5b806322f85eaa146100895780632453ffa81461009e57806346904840146100b35780635001f3b5146100ff575b5f5ffd5b61009c610097366004610ae8565b6101ef565b005b5f546040519081526020015b60405180910390f35b6100da7f000000000000000000000000000000000000000000000000000000000000000081565b60405173ffffffffffffffffffffffffffffffffffffffff90911681526020016100aa565b6100da7f000000000000000000000000000000000000000000000000000000000000000081565b6100da7f000000000000000000000000000000000000000000000000000000000000000081565b61016061015b366004610ae8565b610645565b60408051938452602084019290925273ffffffffffffffffffffffffffffffffffffffff16908201526060016100aa565b6101a461019f366004610ae8565b61068b565b6040805182518152602080840151908201529181015173ffffffffffffffffffffffffffffffffffffffff16908201526060016100aa565b61009c6101ea366004610aff565b610729565b61023173ffffffffffffffffffffffffffffffffffffffff7f0000000000000000000000000000000000000000000000000000000000000000163330846108ca565b5f610245683635c9adc5dea0000083610b4c565b90505f620f424061025861012c84610b4c565b6102629190610b69565b90505f61026f8284610ba1565b90505f805b5f548110801561028357505f83115b15610548575f5f828154811061029b5761029b610bb4565b5f9182526020822060039091020191506102b96032620f4240610ba1565b6102c861012c620f4240610ba1565b6102d29190610b4c565b6102df620f424080610b4c565b83546102eb9190610b4c565b6102f59190610b69565b9050848111156103a657845f620f4240610310603284610b4c565b61031a9190610b69565b90505f620f424061032c603282610ba1565b6103369085610b4c565b6103409190610b69565b905080855f015f8282546103549190610ba1565b909155505f985061036790508388610be1565b965061039c856002015f9054906101000a900473ffffffffffffffffffffffffffffffffffffffff1684838860010154610959565b5050505050610548565b815481905f90620f4240906103bd90603290610b4c565b6103c79190610b69565b5f8054919250906103da90600190610ba1565b905080861461047c575f81815481106103f5576103f5610bb4565b905f5260205f2090600302015f878154811061041357610413610bb4565b5f9182526020909120825460039092020190815560018083015490820155600291820154910180547fffffffffffffffffffffffff00000000000000000000000000000000000000001673ffffffffffffffffffffffffffffffffffffffff9092169190911790555b5f80548061048c5761048c610bf4565b5f8281526020812060037fffffffffffffffffffffffffffffffffffffffffffffffffffffffffffffffff90930192830201818155600181019190915560020180547fffffffffffffffffffffffff000000000000000000000000000000000000000016905590556104fe8389610ba1565b975061050a8388610be1565b60028601548654600188015492995061053e9273ffffffffffffffffffffffffffffffffffffffff90921691869190610959565b5050505050610274565b5f61055c683635c9adc5dea0000086610b69565b905080156105c5576105c573ffffffffffffffffffffffffffffffffffffffff7f0000000000000000000000000000000000000000000000000000000000000000167f000000000000000000000000000000000000000000000000000000000000000083610a06565b5f6105d9683635c9adc5dea0000085610b69565b90505f816105e7848b610ba1565b6105f19190610ba1565b9050801561063a5761063a73ffffffffffffffffffffffffffffffffffffffff7f0000000000000000000000000000000000000000000000000000000000000000163383610a06565b505050505050505050565b5f8181548110610653575f80fd5b5f91825260209091206003909102018054600182015460029092015490925073ffffffffffffffffffffffffffffffffffffffff1683565b6106c260405180606001604052805f81526020015f81526020015f73ffffffffffffffffffffffffffffffffffffffff1681525090565b5f82815481106106d4576106d4610bb4565b5f9182526020918290206040805160608101825260039093029091018054835260018101549383019390935260029092015473ffffffffffffffffffffffffffffffffffffffff169181019190915292915050565b5f8111610797576040517f08c379a000000000000000000000000000000000000000000000000000000000815260206004820152600760248201527f707269636520300000000000000000000000000000000000000000000000000060448201526064015b60405180910390fd5b6107d973ffffffffffffffffffffffffffffffffffffffff7f0000000000000000000000000000000000000000000000000000000000000000163330856108ca565b5f6107e48284610b4c565b6040805160608101825291825260208201938452339082019081525f805460018101825590805291517f290decd9548b62a8d60345a988386fc84ba6bc95484008f6362f93160ef3e56360039093029283015592517f290decd9548b62a8d60345a988386fc84ba6bc95484008f6362f93160ef3e56482015591517f290decd9548b62a8d60345a988386fc84ba6bc95484008f6362f93160ef3e56590920180547fffffffffffffffffffffffff00000000000000000000000000000000000000001673ffffffffffffffffffffffffffffffffffffffff909316929092179091555050565b60405173ffffffffffffffffffffffffffffffffffffffff84811660248301528381166044830152606482018390526109539186918216906323b872dd906084015b604051602081830303815290604052915060e01b6020820180517bffffffffffffffffffffffffffffffffffffffffffffffffffffffff8381831617835250505050610a49565b50505050565b5f61096d683635c9adc5dea0000085610b69565b90505f61097a8385610b69565b90506109bd73ffffffffffffffffffffffffffffffffffffffff7f0000000000000000000000000000000000000000000000000000000000000000168784610a06565b6109fe73ffffffffffffffffffffffffffffffffffffffff7f0000000000000000000000000000000000000000000000000000000000000000163383610a06565b505050505050565b60405173ffffffffffffffffffffffffffffffffffffffff838116602483015260448201839052610a4491859182169063a9059cbb9060640161090c565b505050565b5f5f60205f8451602086015f885af180610a68576040513d5f823e3d81fd5b50505f513d91508115610a7f578060011415610a99565b73ffffffffffffffffffffffffffffffffffffffff84163b155b15610953576040517f5274afe700000000000000000000000000000000000000000000000000000000815273ffffffffffffffffffffffffffffffffffffffff8516600482015260240161078e565b5f60208284031215610af8575f5ffd5b5035919050565b5f5f60408385031215610b10575f5ffd5b50508035926020909101359150565b7f4e487b71000000000000000000000000000000000000000000000000000000005f52601160045260245ffd5b8082028115828204841417610b6357610b63610b1f565b92915050565b5f82610b9c577f4e487b71000000000000000000000000000000000000000000000000000000005f52601260045260245ffd5b500490565b81810381811115610b6357610b63610b1f565b7f4e487b71000000000000000000000000000000000000000000000000000000005f52603260045260245ffd5b80820180821115610b6357610b63610b1f565b7f4e487b71000000000000000000000000000000000000000000000000000000005f52603160045260245ffdfea264697066735822122092cddd62633530b7f40e5e2294a5e733fc2205448425c8ab124c841d91a5c38164736f6c634300081c0033","opcodes":"PUSH1 0xE0 PUSH1 0x40 MSTORE CALLVALUE DUP1 ISZERO PUSH2 0xF JUMPI PUSH0 PUSH0 REVERT JUMPDEST POP PUSH1 0x40 MLOAD PUSH2 0xD5D CODESIZE SUB DUP1 PUSH2 0xD5D DUP4 CODECOPY DUP2 ADD PUSH1 0x40 DUP2 SWAP1 MSTORE PUSH2 0x2E SWAP2 PUSH2 0x62 JUMP JUMPDEST PUSH1 0x1 PUSH1 0x1 PUSH1 0xA0 SHL SUB SWAP3 DUP4 AND PUSH1 0x80 MSTORE SWAP1 DUP3 AND PUSH1 0xA0 MSTORE AND PUSH1 0xC0 MSTORE PUSH2 0xAC JUMP JUMPDEST PUSH1 0x1 PUSH1 0x1 PUSH1 0xA0 SHL SUB DUP2 AND DUP2 EQ PUSH2 0x5F JUMPI PUSH0 PUSH0 REVERT JUMPDEST POP JUMP JUMPDEST PUSH0 PUSH0 PUSH0 PUSH1 0x60 DUP5 DUP7 SUB SLT ISZERO PUSH2 0x74 JUMPI PUSH0 PUSH0 REVERT JUMPDEST DUP4 MLOAD PUSH2 0x7F DUP2 PUSH2 0x4B JUMP JUMPDEST PUSH1 0x20 DUP6 ADD MLOAD SWAP1 SWAP4 POP PUSH2 0x90 DUP2 PUSH2 0x4B JUMP JUMPDEST PUSH1 0x40 DUP6 ADD MLOAD SWAP1 SWAP3 POP PUSH2 0xA1 DUP2 PUSH2 0x4B JUMP JUMPDEST DUP1 SWAP2 POP POP SWAP3 POP SWAP3 POP SWAP3 JUMP JUMPDEST PUSH1 0x80 MLOAD PUSH1 0xA0 MLOAD PUSH1 0xC0 MLOAD PUSH2 0xC57 PUSH2 0x106 PUSH0 CODECOPY PUSH0 DUP2 DUP2 PUSH1 0xB8 ADD MSTORE PUSH2 0x5A0 ADD MSTORE PUSH0 DUP2 DUP2 PUSH2 0x104 ADD MSTORE DUP2 DUP2 PUSH2 0x7B1 ADD MSTORE PUSH2 0x9D7 ADD MSTORE PUSH0 DUP2 DUP2 PUSH2 0x12B ADD MSTORE DUP2 DUP2 PUSH2 0x209 ADD MSTORE DUP2 DUP2 PUSH2 0x57E ADD MSTORE DUP2 DUP2 PUSH2 0x613 ADD MSTORE PUSH2 0x996 ADD MSTORE PUSH2 0xC57 PUSH0 RETURN INVALID PUSH1 0x80 PUSH1 0x40 MSTORE CALLVALUE DUP1 ISZERO PUSH2 0xF JUMPI PUSH0 PUSH0 REVERT JUMPDEST POP PUSH1 0x4 CALLDATASIZE LT PUSH2 0x85 JUMPI PUSH0 CALLDATALOAD PUSH1 0xE0 SHR DUP1 PUSH4 0x999B93AF GT PUSH2 0x58 JUMPI DUP1 PUSH4 0x999B93AF EQ PUSH2 0x126 JUMPI DUP1 PUSH4 0xA20B6E34 EQ PUSH2 0x14D JUMPI DUP1 PUSH4 0xD09EF241 EQ PUSH2 0x191 JUMPI DUP1 PUSH4 0xF506492A EQ PUSH2 0x1DC JUMPI PUSH0 PUSH0 REVERT JUMPDEST DUP1 PUSH4 0x22F85EAA EQ PUSH2 0x89 JUMPI DUP1 PUSH4 0x2453FFA8 EQ PUSH2 0x9E JUMPI DUP1 PUSH4 0x46904840 EQ PUSH2 0xB3 JUMPI DUP1 PUSH4 0x5001F3B5 EQ PUSH2 0xFF JUMPI JUMPDEST PUSH0 PUSH0 REVERT JUMPDEST PUSH2 0x9C PUSH2 0x97 CALLDATASIZE PUSH1 0x4 PUSH2 0xAE8 JUMP JUMPDEST PUSH2 0x1EF JUMP JUMPDEST STOP JUMPDEST PUSH0 SLOAD PUSH1 0x40 MLOAD SWAP1 DUP2 MSTORE PUSH1 0x20 ADD JUMPDEST PUSH1 0x40 MLOAD DUP1 SWAP2 SUB SWAP1 RETURN JUMPDEST PUSH2 0xDA PUSH32 0x0 DUP2 JUMP JUMPDEST PUSH1 0x40 MLOAD PUSH20 0xFFFFFFFFFFFFFFFFFFFFFFFFFFFFFFFFFFFFFFFF SWAP1 SWAP2 AND DUP2 MSTORE PUSH1 0x20 ADD PUSH2 0xAA JUMP JUMPDEST PUSH2 0xDA PUSH32 0x0 DUP2 JUMP JUMPDEST PUSH2 0xDA PUSH32 0x0 DUP2 JUMP JUMPDEST PUSH2 0x160 PUSH2 0x15B CALLDATASIZE PUSH1 0x4 PUSH2 0xAE8 JUMP JUMPDEST PUSH2 0x645 JUMP JUMPDEST PUSH1 0x40 DUP1 MLOAD SWAP4 DUP5 MSTORE PUSH1 0x20 DUP5 ADD SWAP3 SWAP1 SWAP3 MSTORE PUSH20 0xFFFFFFFFFFFFFFFFFFFFFFFFFFFFFFFFFFFFFFFF AND SWAP1 DUP3 ADD MSTORE PUSH1 0x60 ADD PUSH2 0xAA JUMP JUMPDEST PUSH2 0x1A4 PUSH2 0x19F CALLDATASIZE PUSH1 0x4 PUSH2 0xAE8 JUMP JUMPDEST PUSH2 0x68B JUMP JUMPDEST PUSH1 0x40 DUP1 MLOAD DUP3 MLOAD DUP2 MSTORE PUSH1 0x20 DUP1 DUP5 ADD MLOAD SWAP1 DUP3 ADD MSTORE SWAP2 DUP2 ADD MLOAD PUSH20 0xFFFFFFFFFFFFFFFFFFFFFFFFFFFFFFFFFFFFFFFF AND SWAP1 DUP3 ADD MSTORE PUSH1 0x60 ADD PUSH2 0xAA JUMP JUMPDEST PUSH2 0x9C PUSH2 0x1EA CALLDATASIZE PUSH1 0x4 PUSH2 0xAFF JUMP JUMPDEST PUSH2 0x729 JUMP JUMPDEST PUSH2 0x231 PUSH20 0xFFFFFFFFFFFFFFFFFFFFFFFFFFFFFFFFFFFFFFFF PUSH32 0x0 AND CALLER ADDRESS DUP5 PUSH2 0x8CA JUMP JUMPDEST PUSH0 PUSH2 0x245 PUSH9 0x3635C9ADC5DEA00000 DUP4 PUSH2 0xB4C JUMP JUMPDEST SWAP1 POP PUSH0 PUSH3 0xF4240 PUSH2 0x258 PUSH2 0x12C DUP5 PUSH2 0xB4C JUMP JUMPDEST PUSH2 0x262 SWAP2 SWAP1 PUSH2 0xB69 JUMP JUMPDEST SWAP1 POP PUSH0 PUSH2 0x26F DUP3 DUP5 PUSH2 0xBA1 JUMP JUMPDEST SWAP1 POP PUSH0 DUP1 JUMPDEST PUSH0 SLOAD DUP2 LT DUP1 ISZERO PUSH2 0x283 JUMPI POP PUSH0 DUP4 GT JUMPDEST ISZERO PUSH2 0x548 JUMPI PUSH0 PUSH0 DUP3 DUP2 SLOAD DUP2 LT PUSH2 0x29B JUMPI PUSH2 0x29B PUSH2 0xBB4 JUMP JUMPDEST PUSH0 SWAP2 DUP3 MSTORE PUSH1 0x20 DUP3 KECCAK256 PUSH1 0x3 SWAP1 SWAP2 MUL ADD SWAP2 POP PUSH2 0x2B9 PUSH1 0x32 PUSH3 0xF4240 PUSH2 0xBA1 JUMP JUMPDEST PUSH2 0x2C8 PUSH2 0x12C PUSH3 0xF4240 PUSH2 0xBA1 JUMP JUMPDEST PUSH2 0x2D2 SWAP2 SWAP1 PUSH2 0xB4C JUMP JUMPDEST PUSH2 0x2DF PUSH3 0xF4240 DUP1 PUSH2 0xB4C JUMP JUMPDEST DUP4 SLOAD PUSH2 0x2EB SWAP2 SWAP1 PUSH2 0xB4C JUMP JUMPDEST PUSH2 0x2F5 SWAP2 SWAP1 PUSH2 0xB69 JUMP JUMPDEST SWAP1 POP DUP5 DUP2 GT ISZERO PUSH2 0x3A6 JUMPI DUP5 PUSH0 PUSH3 0xF4240 PUSH2 0x310 PUSH1 0x32 DUP5 PUSH2 0xB4C JUMP JUMPDEST PUSH2 0x31A SWAP2 SWAP1 PUSH2 0xB69 JUMP JUMPDEST SWAP1 POP PUSH0 PUSH3 0xF4240 PUSH2 0x32C PUSH1 0x32 DUP3 PUSH2 0xBA1 JUMP JUMPDEST PUSH2 0x336 SWAP1 DUP6 PUSH2 0xB4C JUMP JUMPDEST PUSH2 0x340 SWAP2 SWAP1 PUSH2 0xB69 JUMP JUMPDEST SWAP1 POP DUP1 DUP6 PUSH0 ADD PUSH0 DUP3 DUP3 SLOAD PUSH2 0x354 SWAP2 SWAP1 PUSH2 0xBA1 JUMP JUMPDEST SWAP1 SWAP2 SSTORE POP PUSH0 SWAP9 POP PUSH2 0x367 SWAP1 POP DUP4 DUP9 PUSH2 0xBE1 JUMP JUMPDEST SWAP7 POP PUSH2 0x39C DUP6 PUSH1 0x2 ADD PUSH0 SWAP1 SLOAD SWAP1 PUSH2 0x100 EXP SWAP1 DIV PUSH20 0xFFFFFFFFFFFFFFFFFFFFFFFFFFFFFFFFFFFFFFFF AND DUP5 DUP4 DUP9 PUSH1 0x1 ADD SLOAD PUSH2 0x959 JUMP JUMPDEST POP POP POP POP POP PUSH2 0x548 JUMP JUMPDEST DUP2 SLOAD DUP2 SWAP1 PUSH0 SWAP1 PUSH3 0xF4240 SWAP1 PUSH2 0x3BD SWAP1 PUSH1 0x32 SWAP1 PUSH2 0xB4C JUMP JUMPDEST PUSH2 0x3C7 SWAP2 SWAP1 PUSH2 0xB69 JUMP JUMPDEST PUSH0 DUP1 SLOAD SWAP2 SWAP3 POP SWAP1 PUSH2 0x3DA SWAP1 PUSH1 0x1 SWAP1 PUSH2 0xBA1 JUMP JUMPDEST SWAP1 POP DUP1 DUP7 EQ PUSH2 0x47C JUMPI PUSH0 DUP2 DUP2 SLOAD DUP2 LT PUSH2 0x3F5 JUMPI PUSH2 0x3F5 PUSH2 0xBB4 JUMP JUMPDEST SWAP1 PUSH0 MSTORE PUSH1 0x20 PUSH0 KECCAK256 SWAP1 PUSH1 0x3 MUL ADD PUSH0 DUP8 DUP2 SLOAD DUP2 LT PUSH2 0x413 JUMPI PUSH2 0x413 PUSH2 0xBB4 JUMP JUMPDEST PUSH0 SWAP2 DUP3 MSTORE PUSH1 0x20 SWAP1 SWAP2 KECCAK256 DUP3 SLOAD PUSH1 0x3 SWAP1 SWAP3 MUL ADD SWAP1 DUP2 SSTORE PUSH1 0x1 DUP1 DUP4 ADD SLOAD SWAP1 DUP3 ADD SSTORE PUSH1 0x2 SWAP2 DUP3 ADD SLOAD SWAP2 ADD DUP1 SLOAD PUSH32 0xFFFFFFFFFFFFFFFFFFFFFFFF0000000000000000000000000000000000000000 AND PUSH20 0xFFFFFFFFFFFFFFFFFFFFFFFFFFFFFFFFFFFFFFFF SWAP1 SWAP3 AND SWAP2 SWAP1 SWAP2 OR SWAP1 SSTORE JUMPDEST PUSH0 DUP1 SLOAD DUP1 PUSH2 0x48C JUMPI PUSH2 0x48C PUSH2 0xBF4 JUMP JUMPDEST PUSH0 DUP3 DUP2 MSTORE PUSH1 0x20 DUP2 KECCAK256 PUSH1 0x3 PUSH32 0xFFFFFFFFFFFFFFFFFFFFFFFFFFFFFFFFFFFFFFFFFFFFFFFFFFFFFFFFFFFFFFFF SWAP1 SWAP4 ADD SWAP3 DUP4 MUL ADD DUP2 DUP2 SSTORE PUSH1 0x1 DUP2 ADD SWAP2 SWAP1 SWAP2 SSTORE PUSH1 0x2 ADD DUP1 SLOAD PUSH32 0xFFFFFFFFFFFFFFFFFFFFFFFF0000000000000000000000000000000000000000 AND SWAP1 SSTORE SWAP1 SSTORE PUSH2 0x4FE DUP4 DUP10 PUSH2 0xBA1 JUMP JUMPDEST SWAP8 POP PUSH2 0x50A DUP4 DUP9 PUSH2 0xBE1 JUMP JUMPDEST PUSH1 0x2 DUP7 ADD SLOAD DUP7 SLOAD PUSH1 0x1 DUP9 ADD SLOAD SWAP3 SWAP10 POP PUSH2 0x53E SWAP3 PUSH20 0xFFFFFFFFFFFFFFFFFFFFFFFFFFFFFFFFFFFFFFFF SWAP1 SWAP3 AND SWAP2 DUP7 SWAP2 SWAP1 PUSH2 0x959 JUMP JUMPDEST POP POP POP POP POP PUSH2 0x274 JUMP JUMPDEST PUSH0 PUSH2 0x55C PUSH9 0x3635C9ADC5DEA00000 DUP7 PUSH2 0xB69 JUMP JUMPDEST SWAP1 POP DUP1 ISZERO PUSH2 0x5C5 JUMPI PUSH2 0x5C5 PUSH20 0xFFFFFFFFFFFFFFFFFFFFFFFFFFFFFFFFFFFFFFFF PUSH32 0x0 AND PUSH32 0x0 DUP4 PUSH2 0xA06 JUMP JUMPDEST PUSH0 PUSH2 0x5D9 PUSH9 0x3635C9ADC5DEA00000 DUP6 PUSH2 0xB69 JUMP JUMPDEST SWAP1 POP PUSH0 DUP2 PUSH2 0x5E7 DUP5 DUP12 PUSH2 0xBA1 JUMP JUMPDEST PUSH2 0x5F1 SWAP2 SWAP1 PUSH2 0xBA1 JUMP JUMPDEST SWAP1 POP DUP1 ISZERO PUSH2 0x63A JUMPI PUSH2 0x63A PUSH20 0xFFFFFFFFFFFFFFFFFFFFFFFFFFFFFFFFFFFFFFFF PUSH32 0x0 AND CALLER DUP4 PUSH2 0xA06 JUMP JUMPDEST POP POP POP POP POP POP POP POP POP JUMP JUMPDEST PUSH0 DUP2 DUP2 SLOAD DUP2 LT PUSH2 0x653 JUMPI PUSH0 DUP1 REVERT JUMPDEST PUSH0 SWAP2 DUP3 MSTORE PUSH1 0x20 SWAP1 SWAP2 KECCAK256 PUSH1 0x3 SWAP1 SWAP2 MUL ADD DUP1 SLOAD PUSH1 0x1 DUP3 ADD SLOAD PUSH1 0x2 SWAP1 SWAP3 ADD SLOAD SWAP1 SWAP3 POP PUSH20 0xFFFFFFFFFFFFFFFFFFFFFFFFFFFFFFFFFFFFFFFF AND DUP4 JUMP JUMPDEST PUSH2 0x6C2 PUSH1 0x40 MLOAD DUP1 PUSH1 0x60 ADD PUSH1 0x40 MSTORE DUP1 PUSH0 DUP2 MSTORE PUSH1 0x20 ADD PUSH0 DUP2 MSTORE PUSH1 0x20 ADD PUSH0 PUSH20 0xFFFFFFFFFFFFFFFFFFFFFFFFFFFFFFFFFFFFFFFF AND DUP2 MSTORE POP SWAP1 JUMP JUMPDEST PUSH0 DUP3 DUP2 SLOAD DUP2 LT PUSH2 0x6D4 JUMPI PUSH2 0x6D4 PUSH2 0xBB4 JUMP JUMPDEST PUSH0 SWAP2 DUP3 MSTORE PUSH1 0x20 SWAP2 DUP3 SWAP1 KECCAK256 PUSH1 0x40 DUP1 MLOAD PUSH1 0x60 DUP2 ADD DUP3 MSTORE PUSH1 0x3 SWAP1 SWAP4 MUL SWAP1 SWAP2 ADD DUP1 SLOAD DUP4 MSTORE PUSH1 0x1 DUP2 ADD SLOAD SWAP4 DUP4 ADD SWAP4 SWAP1 SWAP4 MSTORE PUSH1 0x2 SWAP1 SWAP3 ADD SLOAD PUSH20 0xFFFFFFFFFFFFFFFFFFFFFFFFFFFFFFFFFFFFFFFF AND SWAP2 DUP2 ADD SWAP2 SWAP1 SWAP2 MSTORE SWAP3 SWAP2 POP POP JUMP JUMPDEST PUSH0 DUP2 GT PUSH2 0x797 JUMPI PUSH1 0x40 MLOAD PUSH32 0x8C379A000000000000000000000000000000000000000000000000000000000 DUP2 MSTORE PUSH1 0x20 PUSH1 0x4 DUP3 ADD MSTORE PUSH1 0x7 PUSH1 0x24 DUP3 ADD MSTORE PUSH32 0x7072696365203000000000000000000000000000000000000000000000000000 PUSH1 0x44 DUP3 ADD MSTORE PUSH1 0x64 ADD JUMPDEST PUSH1 0x40 MLOAD DUP1 SWAP2 SUB SWAP1 REVERT JUMPDEST PUSH2 0x7D9 PUSH20 0xFFFFFFFFFFFFFFFFFFFFFFFFFFFFFFFFFFFFFFFF PUSH32 0x0 AND CALLER ADDRESS DUP6 PUSH2 0x8CA JUMP JUMPDEST PUSH0 PUSH2 0x7E4 DUP3 DUP5 PUSH2 0xB4C JUMP JUMPDEST PUSH1 0x40 DUP1 MLOAD PUSH1 0x60 DUP2 ADD DUP3 MSTORE SWAP2 DUP3 MSTORE PUSH1 0x20 DUP3 ADD SWAP4 DUP5 MSTORE CALLER SWAP1 DUP3 ADD SWAP1 DUP2 MSTORE PUSH0 DUP1 SLOAD PUSH1 0x1 DUP2 ADD DUP3 SSTORE SWAP1 DUP1 MSTORE SWAP2 MLOAD PUSH32 0x290DECD9548B62A8D60345A988386FC84BA6BC95484008F6362F93160EF3E563 PUSH1 0x3 SWAP1 SWAP4 MUL SWAP3 DUP4 ADD SSTORE SWAP3 MLOAD PUSH32 0x290DECD9548B62A8D60345A988386FC84BA6BC95484008F6362F93160EF3E564 DUP3 ADD SSTORE SWAP2 MLOAD PUSH32 0x290DECD9548B62A8D60345A988386FC84BA6BC95484008F6362F93160EF3E565 SWAP1 SWAP3 ADD DUP1 SLOAD PUSH32 0xFFFFFFFFFFFFFFFFFFFFFFFF0000000000000000000000000000000000000000 AND PUSH20 0xFFFFFFFFFFFFFFFFFFFFFFFFFFFFFFFFFFFFFFFF SWAP1 SWAP4 AND SWAP3 SWAP1 SWAP3 OR SWAP1 SWAP2 SSTORE POP POP JUMP JUMPDEST PUSH1 0x40 MLOAD PUSH20 0xFFFFFFFFFFFFFFFFFFFFFFFFFFFFFFFFFFFFFFFF DUP5 DUP2 AND PUSH1 0x24 DUP4 ADD MSTORE DUP4 DUP2 AND PUSH1 0x44 DUP4 ADD MSTORE PUSH1 0x64 DUP3 ADD DUP4 SWAP1 MSTORE PUSH2 0x953 SWAP2 DUP7 SWAP2 DUP3 AND SWAP1 PUSH4 0x23B872DD SWAP1 PUSH1 0x84 ADD JUMPDEST PUSH1 0x40 MLOAD PUSH1 0x20 DUP2 DUP4 SUB SUB DUP2 MSTORE SWAP1 PUSH1 0x40 MSTORE SWAP2 POP PUSH1 0xE0 SHL PUSH1 0x20 DUP3 ADD DUP1 MLOAD PUSH28 0xFFFFFFFFFFFFFFFFFFFFFFFFFFFFFFFFFFFFFFFFFFFFFFFFFFFFFFFF DUP4 DUP2 DUP4 AND OR DUP4 MSTORE POP POP POP POP PUSH2 0xA49 JUMP JUMPDEST POP POP POP POP JUMP JUMPDEST PUSH0 PUSH2 0x96D PUSH9 0x3635C9ADC5DEA00000 DUP6 PUSH2 0xB69 JUMP JUMPDEST SWAP1 POP PUSH0 PUSH2 0x97A DUP4 DUP6 PUSH2 0xB69 JUMP JUMPDEST SWAP1 POP PUSH2 0x9BD PUSH20 0xFFFFFFFFFFFFFFFFFFFFFFFFFFFFFFFFFFFFFFFF PUSH32 0x0 AND DUP8 DUP5 PUSH2 0xA06 JUMP JUMPDEST PUSH2 0x9FE PUSH20 0xFFFFFFFFFFFFFFFFFFFFFFFFFFFFFFFFFFFFFFFF PUSH32 0x0 AND CALLER DUP4 PUSH2 0xA06 JUMP JUMPDEST POP POP POP POP POP POP JUMP JUMPDEST PUSH1 0x40 MLOAD PUSH20 0xFFFFFFFFFFFFFFFFFFFFFFFFFFFFFFFFFFFFFFFF DUP4 DUP2 AND PUSH1 0x24 DUP4 ADD MSTORE PUSH1 0x44 DUP3 ADD DUP4 SWAP1 MSTORE PUSH2 0xA44 SWAP2 DUP6 SWAP2 DUP3 AND SWAP1 PUSH4 0xA9059CBB SWAP1 PUSH1 0x64 ADD PUSH2 0x90C JUMP JUMPDEST POP POP POP JUMP JUMPDEST PUSH0 PUSH0 PUSH1 0x20 PUSH0 DUP5 MLOAD PUSH1 0x20 DUP7 ADD PUSH0 DUP9 GAS CALL DUP1 PUSH2 0xA68 JUMPI PUSH1 0x40 MLOAD RETURNDATASIZE PUSH0 DUP3 RETURNDATACOPY RETURNDATASIZE DUP2 REVERT JUMPDEST POP POP PUSH0 MLOAD RETURNDATASIZE SWAP2 POP DUP2 ISZERO PUSH2 0xA7F JUMPI DUP1 PUSH1 0x1 EQ ISZERO PUSH2 0xA99 JUMP JUMPDEST PUSH20 0xFFFFFFFFFFFFFFFFFFFFFFFFFFFFFFFFFFFFFFFF DUP5 AND EXTCODESIZE ISZERO JUMPDEST ISZERO PUSH2 0x953 JUMPI PUSH1 0x40 MLOAD PUSH32 0x5274AFE700000000000000000000000000000000000000000000000000000000 DUP2 MSTORE PUSH20 0xFFFFFFFFFFFFFFFFFFFFFFFFFFFFFFFFFFFFFFFF DUP6 AND PUSH1 0x4 DUP3 ADD MSTORE PUSH1 0x24 ADD PUSH2 0x78E JUMP JUMPDEST PUSH0 PUSH1 0x20 DUP3 DUP5 SUB SLT ISZERO PUSH2 0xAF8 JUMPI PUSH0 PUSH0 REVERT JUMPDEST POP CALLDATALOAD SWAP2 SWAP1 POP JUMP JUMPDEST PUSH0 PUSH0 PUSH1 0x40 DUP4 DUP6 SUB SLT ISZERO PUSH2 0xB10 JUMPI PUSH0 PUSH0 REVERT JUMPDEST POP POP DUP1 CALLDATALOAD SWAP3 PUSH1 0x20 SWAP1 SWAP2 ADD CALLDATALOAD SWAP2 POP JUMP JUMPDEST PUSH32 0x4E487B7100000000000000000000000000000000000000000000000000000000 PUSH0 MSTORE PUSH1 0x11 PUSH1 0x4 MSTORE PUSH1 0x24 PUSH0 REVERT JUMPDEST DUP1 DUP3 MUL DUP2 ISZERO DUP3 DUP3 DIV DUP5 EQ OR PUSH2 0xB63 JUMPI PUSH2 0xB63 PUSH2 0xB1F JUMP JUMPDEST SWAP3 SWAP2 POP POP JUMP JUMPDEST PUSH0 DUP3 PUSH2 0xB9C JUMPI PUSH32 0x4E487B7100000000000000000000000000000000000000000000000000000000 PUSH0 MSTORE PUSH1 0x12 PUSH1 0x4 MSTORE PUSH1 0x24 PUSH0 REVERT JUMPDEST POP DIV SWAP1 JUMP JUMPDEST DUP2 DUP2 SUB DUP2 DUP2 GT ISZERO PUSH2 0xB63 JUMPI PUSH2 0xB63 PUSH2 0xB1F JUMP JUMPDEST PUSH32 0x4E487B7100000000000000000000000000000000000000000000000000000000 PUSH0 MSTORE PUSH1 0x32 PUSH1 0x4 MSTORE PUSH1 0x24 PUSH0 REVERT JUMPDEST DUP1 DUP3 ADD DUP1 DUP3 GT ISZERO PUSH2 0xB63 JUMPI PUSH2 0xB63 PUSH2 0xB1F JUMP JUMPDEST PUSH32 0x4E487B7100000000000000000000000000000000000000000000000000000000 PUSH0 MSTORE PUSH1 0x31 PUSH1 0x4 MSTORE PUSH1 0x24 PUSH0 REVERT INVALID LOG2 PUSH5 0x6970667358 0x22 SLT KECCAK256 SWAP3 0xCD 0xDD PUSH3 0x633530 0xB7 DELEGATECALL 0xE MCOPY 0x22 SWAP5 0xA5 0xE7 CALLER 0xFC 0x22 SDIV PREVRANDAO DUP5 0x25 0xC8 0xAB SLT 0x4C DUP5 SAR SWAP2 0xA5 0xC3 DUP2 PUSH5 0x736F6C6343 STOP ADDMOD SHR STOP CALLER "},"methodIdentifiers":{"base()":"5001f3b5","buyOrder(uint256)":"22f85eaa","feeRecipient()":"46904840","getOrder(uint256)":"d09ef241","limitOrder(uint256,uint256)":"f506492a","orderBook(uint256)":"a20b6e34","orderCount()":"2453ffa8","quote()":"999b93af"}}}}}