{
  "_format": "hh-sol-artifact-1",
  "contractName": "CrystalMarket2",
  "sourceName": "contracts/Crystal.sol",
  "abi": [
    {
      "inputs": [],
      "stateMutability": "nonpayable",
      "type": "constructor"
    },
    {
      "inputs": [],
      "name": "ActionFailed",
      "type": "error"
    },
    {
      "inputs": [],
      "name": "SlippageExceeded",
      "type": "error"
    },
    {
      "anonymous": false,
      "inputs": [
        {
          "indexed": true,
          "internalType": "address",
          "name": "caller",
          "type": "address"
        },
        {
          "indexed": true,
          "internalType": "address",
          "name": "market",
          "type": "address"
        },
        {
          "indexed": false,
          "internalType": "uint256",
          "name": "amounts",
          "type": "uint256"
        },
        {
          "indexed": false,
          "internalType": "uint256",
          "name": "info",
          "type": "uint256"
        },
        {
          "indexed": false,
          "internalType": "bytes",
          "name": "filled",
          "type": "bytes"
        }
      ],
      "name": "OrdersFilled",
      "type": "event"
    },
    {
      "anonymous": false,
      "inputs": [
        {
          "indexed": true,
          "internalType": "address",
          "name": "caller",
          "type": "address"
        },
        {
          "indexed": true,
          "internalType": "address",
          "name": "market",
          "type": "address"
        },
        {
          "indexed": false,
          "internalType": "bytes",
          "name": "orderData",
          "type": "bytes"
        }
      ],
      "name": "OrdersUpdated",
      "type": "event"
    },
    {
      "stateMutability": "nonpayable",
      "type": "fallback"
    },
    {
      "inputs": [
        {
          "internalType": "address",
          "name": "",
          "type": "address"
        }
      ],
      "name": "addressToUserId",
      "outputs": [
        {
          "internalType": "uint256",
          "name": "",
          "type": "uint256"
        }
      ],
      "stateMutability": "view",
      "type": "function"
    },
    {
      "inputs": [],
      "name": "baseAsset",
      "outputs": [
        {
          "internalType": "address",
          "name": "",
          "type": "address"
        }
      ],
      "stateMutability": "view",
      "type": "function"
    },
    {
      "inputs": [
        {
          "internalType": "uint256[]",
          "name": "actions",
          "type": "uint256[]"
        },
        {
          "internalType": "uint256[]",
          "name": "prices",
          "type": "uint256[]"
        },
        {
          "internalType": "uint256[]",
          "name": "param1",
          "type": "uint256[]"
        },
        {
          "internalType": "address",
          "name": "owner",
          "type": "address"
        },
        {
          "internalType": "uint256",
          "name": "referrer",
          "type": "uint256"
        }
      ],
      "name": "batchOrders",
      "outputs": [
        {
          "internalType": "uint256[]",
          "name": "returnData",
          "type": "uint256[]"
        }
      ],
      "stateMutability": "nonpayable",
      "type": "function"
    },
    {
      "inputs": [
        {
          "internalType": "uint256[]",
          "name": "actions",
          "type": "uint256[]"
        },
        {
          "internalType": "uint256[]",
          "name": "prices",
          "type": "uint256[]"
        },
        {
          "internalType": "uint256[]",
          "name": "param1",
          "type": "uint256[]"
        },
        {
          "internalType": "address",
          "name": "owner",
          "type": "address"
        },
        {
          "internalType": "uint256",
          "name": "referrer",
          "type": "uint256"
        }
      ],
      "name": "batchOrdersRequireSuccess",
      "outputs": [
        {
          "internalType": "uint256[]",
          "name": "returnData",
          "type": "uint256[]"
        }
      ],
      "stateMutability": "nonpayable",
      "type": "function"
    },
    {
      "inputs": [
        {
          "internalType": "uint256",
          "name": "price",
          "type": "uint256"
        },
        {
          "internalType": "uint256",
          "name": "id",
          "type": "uint256"
        },
        {
          "internalType": "address",
          "name": "caller",
          "type": "address"
        }
      ],
      "name": "cancelOrder",
      "outputs": [
        {
          "internalType": "uint256",
          "name": "size",
          "type": "uint256"
        }
      ],
      "stateMutability": "nonpayable",
      "type": "function"
    },
    {
      "inputs": [
        {
          "internalType": "address",
          "name": "",
          "type": "address"
        },
        {
          "internalType": "address",
          "name": "",
          "type": "address"
        }
      ],
      "name": "claimableRewards",
      "outputs": [
        {
          "internalType": "uint256",
          "name": "",
          "type": "uint256"
        }
      ],
      "stateMutability": "view",
      "type": "function"
    },
    {
      "inputs": [
        {
          "internalType": "uint256",
          "name": "distance",
          "type": "uint256"
        },
        {
          "internalType": "uint256",
          "name": "numLevels",
          "type": "uint256"
        }
      ],
      "name": "getDisplayPriceLevelsFromMid",
      "outputs": [
        {
          "internalType": "uint256",
          "name": "_highestBid",
          "type": "uint256"
        },
        {
          "internalType": "uint256",
          "name": "_lowestAsk",
          "type": "uint256"
        },
        {
          "internalType": "bytes",
          "name": "",
          "type": "bytes"
        },
        {
          "internalType": "bytes",
          "name": "",
          "type": "bytes"
        }
      ],
      "stateMutability": "view",
      "type": "function"
    },
    {
      "inputs": [],
      "name": "getPrice",
      "outputs": [
        {
          "internalType": "uint256",
          "name": "price",
          "type": "uint256"
        },
        {
          "internalType": "uint256",
          "name": "_highestBid",
          "type": "uint256"
        },
        {
          "internalType": "uint256",
          "name": "_lowestAsk",
          "type": "uint256"
        }
      ],
      "stateMutability": "view",
      "type": "function"
    },
    {
      "inputs": [
        {
          "internalType": "bool",
          "name": "isAscending",
          "type": "bool"
        },
        {
          "internalType": "uint256",
          "name": "startPrice",
          "type": "uint256"
        },
        {
          "internalType": "uint256",
          "name": "distance",
          "type": "uint256"
        },
        {
          "internalType": "uint256",
          "name": "max",
          "type": "uint256"
        }
      ],
      "name": "getPriceLevels",
      "outputs": [
        {
          "internalType": "bytes",
          "name": "",
          "type": "bytes"
        }
      ],
      "stateMutability": "view",
      "type": "function"
    },
    {
      "inputs": [
        {
          "internalType": "uint256",
          "name": "distance",
          "type": "uint256"
        },
        {
          "internalType": "uint256",
          "name": "max",
          "type": "uint256"
        }
      ],
      "name": "getPriceLevelsFromMid",
      "outputs": [
        {
          "internalType": "uint256",
          "name": "_highestBid",
          "type": "uint256"
        },
        {
          "internalType": "uint256",
          "name": "_lowestAsk",
          "type": "uint256"
        },
        {
          "internalType": "bytes",
          "name": "",
          "type": "bytes"
        },
        {
          "internalType": "bytes",
          "name": "",
          "type": "bytes"
        }
      ],
      "stateMutability": "view",
      "type": "function"
    },
    {
      "inputs": [
        {
          "internalType": "bool",
          "name": "isBuy",
          "type": "bool"
        },
        {
          "internalType": "bool",
          "name": "isExactInput",
          "type": "bool"
        },
        {
          "internalType": "bool",
          "name": "requireCompleteFill",
          "type": "bool"
        },
        {
          "internalType": "uint256",
          "name": "size",
          "type": "uint256"
        },
        {
          "internalType": "uint256",
          "name": "worstPrice",
          "type": "uint256"
        }
      ],
      "name": "getQuote",
      "outputs": [
        {
          "internalType": "uint256",
          "name": "amountIn",
          "type": "uint256"
        },
        {
          "internalType": "uint256",
          "name": "amountOut",
          "type": "uint256"
        }
      ],
      "stateMutability": "view",
      "type": "function"
    },
    {
      "inputs": [],
      "name": "gov",
      "outputs": [
        {
          "internalType": "address",
          "name": "",
          "type": "address"
        }
      ],
      "stateMutability": "view",
      "type": "function"
    },
    {
      "inputs": [
        {
          "internalType": "bool",
          "name": "isBuy",
          "type": "bool"
        },
        {
          "internalType": "uint256",
          "name": "price",
          "type": "uint256"
        },
        {
          "internalType": "uint256",
          "name": "size",
          "type": "uint256"
        },
        {
          "internalType": "address",
          "name": "caller",
          "type": "address"
        }
      ],
      "name": "limitOrder",
      "outputs": [
        {
          "internalType": "uint256",
          "name": "id",
          "type": "uint256"
        }
      ],
      "stateMutability": "nonpayable",
      "type": "function"
    },
    {
      "inputs": [],
      "name": "market",
      "outputs": [
        {
          "internalType": "address",
          "name": "",
          "type": "address"
        }
      ],
      "stateMutability": "view",
      "type": "function"
    },
    {
      "inputs": [
        {
          "internalType": "bool",
          "name": "isBuy",
          "type": "bool"
        },
        {
          "internalType": "bool",
          "name": "isExactInput",
          "type": "bool"
        },
        {
          "internalType": "uint256",
          "name": "STP",
          "type": "uint256"
        },
        {
          "internalType": "uint256",
          "name": "orderType",
          "type": "uint256"
        },
        {
          "internalType": "uint256",
          "name": "size",
          "type": "uint256"
        },
        {
          "internalType": "uint256",
          "name": "worstPrice",
          "type": "uint256"
        },
        {
          "internalType": "address",
          "name": "caller",
          "type": "address"
        },
        {
          "internalType": "address",
          "name": "referrer",
          "type": "address"
        }
      ],
      "name": "marketOrder",
      "outputs": [
        {
          "internalType": "uint256",
          "name": "amountIn",
          "type": "uint256"
        },
        {
          "internalType": "uint256",
          "name": "amountOut",
          "type": "uint256"
        },
        {
          "internalType": "uint256",
          "name": "id",
          "type": "uint256"
        }
      ],
      "stateMutability": "nonpayable",
      "type": "function"
    },
    {
      "inputs": [
        {
          "internalType": "address",
          "name": "",
          "type": "address"
        }
      ],
      "name": "markets",
      "outputs": [
        {
          "internalType": "uint80",
          "name": "highestBid",
          "type": "uint80"
        },
        {
          "internalType": "uint80",
          "name": "lowestAsk",
          "type": "uint80"
        },
        {
          "internalType": "uint32",
          "name": "minSize",
          "type": "uint32"
        },
        {
          "internalType": "uint24",
          "name": "takerFee",
          "type": "uint24"
        },
        {
          "internalType": "uint24",
          "name": "makerRebate",
          "type": "uint24"
        },
        {
          "internalType": "uint8",
          "name": "feeCommission",
          "type": "uint8"
        },
        {
          "internalType": "uint8",
          "name": "feeRebate",
          "type": "uint8"
        }
      ],
      "stateMutability": "view",
      "type": "function"
    },
    {
      "inputs": [],
      "name": "maxPrice",
      "outputs": [
        {
          "internalType": "uint256",
          "name": "",
          "type": "uint256"
        }
      ],
      "stateMutability": "view",
      "type": "function"
    },
    {
      "inputs": [],
      "name": "quoteAsset",
      "outputs": [
        {
          "internalType": "address",
          "name": "",
          "type": "address"
        }
      ],
      "stateMutability": "view",
      "type": "function"
    },
    {
      "inputs": [],
      "name": "router",
      "outputs": [
        {
          "internalType": "address",
          "name": "",
          "type": "address"
        }
      ],
      "stateMutability": "view",
      "type": "function"
    },
    {
      "inputs": [],
      "name": "scaleFactor",
      "outputs": [
        {
          "internalType": "uint256",
          "name": "",
          "type": "uint256"
        }
      ],
      "stateMutability": "view",
      "type": "function"
    },
    {
      "inputs": [],
      "name": "tickSize",
      "outputs": [
        {
          "internalType": "uint256",
          "name": "",
          "type": "uint256"
        }
      ],
      "stateMutability": "view",
      "type": "function"
    },
    {
      "inputs": [
        {
          "internalType": "uint256",
          "name": "",
          "type": "uint256"
        }
      ],
      "name": "userIdToAddress",
      "outputs": [
        {
          "internalType": "address",
          "name": "",
          "type": "address"
        }
      ],
      "stateMutability": "view",
      "type": "function"
    }
  ],
  "bytecode": "0x610160604052348015610010575f5ffd5b505f336001600160a01b031663890357306040518163ffffffff1660e01b815260040160a060405180830381865afa15801561004e573d5f5f3e3d5ffd5b505050506040513d601f19601f8201168201806040525081019061007291906100f7565b6001600160501b031661014052610120526001600160a01b0391821660c08190529290911660a0819052909250148015906100b757506001600160501b036101405111155b6100bf575f5ffd5b6100ca81600a610254565b6101005250336080523060e052610266565b80516001600160a01b03811681146100f2575f5ffd5b919050565b5f5f5f5f5f60a0868803121561010b575f5ffd5b610114866100dc565b9450610122602087016100dc565b60408701516060880151608089015192965090945092506001600160501b038116811461014d575f5ffd5b809150509295509295909350565b634e487b7160e01b5f52601160045260245ffd5b6001815b60018411156101aa5780850481111561018e5761018e61015b565b600184161561019c57908102905b60019390931c928002610173565b935093915050565b5f826101c05750600161024e565b816101cc57505f61024e565b81600181146101e257600281146101ec57610208565b600191505061024e565b60ff8411156101fd576101fd61015b565b50506001821b61024e565b5060208310610133831016604e8410600b841016171561022b575081810a61024e565b6102375f19848461016f565b805f190482111561024a5761024a61015b565b0290505b92915050565b5f61025f83836101b2565b9392505050565b60805160a05160c05160e05161010051610120516101405161817f6105b95f395f818161100c015281816117d001528181611af70152818161435301528181614af0015261784501525f818161104601528181611922015281816175bc015281816177b301526177fb01525f81816101f0015281816102ce01528181610576015281816107c801528181610d42015281816117980152818161181e01528181611d5c01528181611d9401528181611fd0015281816121c301528181612355015281816123b2015281816123ea0152818161243e0152818161247601528181612499015281816124eb015281816126cc01528181612720015281816127790152818161279a015281816128210152818161287a0152818161289b0152818161290a015281816129650152818161379d015281816137f301528181613e47015281816144ce015281816145090152818161454101528181614585015281816145bd015281816145e00152818161463c01528181614676015281816146bd015281816146de0152818161472c0152818161477301528181614794015281816147d701528181614cb801528181614e71015281816153ad0152818161586001528181615fb90152818161612f015281816165e0015281816168f201528181616bdf015261722701525f8181610c3001528181610dae015281816110e0015281816116ae01528181611a48015281816120170152818161220a015281816131d00152818161365a015281816136f501528181613f09015281816140ef015281816141fd015281816142b801528181614a9a01528181615e1601528181616caf01528181616eb2015281816172f3015281816174e4015261787301525f8181610ae601528181610baa01528181610fb201528181612545015281816129b701528181612ee401528181612f6201528181613034015281816130dd01528181613ffe01528181615c3001528181615d2a01528181616db201528181616faa01526173e801525f818161095e01528181610a22015281816110a70152818161256b015281816129dd015281816132be0152818161333c0152818161340e015281816134b701528181613df801528181615a4401528181615b3e01528181616b8f0152818161709b01526171d701525f611080015261817f5ff3fe608060405234801561000f575f5ffd5b5060043610610180575f3560e01c8063b1695201116100d6578063e38d6b5c1161008a578063f2a8ed3011610064578063f2a8ed3014611068578063f887ea401461107b578063fdf262b7146110a257610180565b8063e38d6b5c14611007578063e690552b1461102e578063f210d0871461104157610180565b8063cdf456e1116100bb578063cdf456e114610fad578063d2f2f2e814610fd4578063da893f2414610ff457610180565b8063b169520114610f59578063b5ffbbcc14610f8e57610180565b80636be9dcce116101385780638e8f294b116101125780638e8f294b14610dd057806398d5fdca14610f165780639964668314610f3957610180565b80636be9dcce14610d64578063776d945414610d8e57806380f5560514610da957610180565b8063598d85f211610169578063598d85f214610cf2578063638571e314610d15578063683dd19114610d3d57610180565b806312d43a5114610c88578063258dbc4c14610cd1575b60c06040525f8035906020908080808080805b3688101561091b57873596508660801c69ffffffffffffffffffff169550866fffffffffffffffffffffffffffffffff16945060fc87901c6001036102a8576101dd86868b6110c9565b909750925086156102a3578215610227577f0000000000000000000000000000000000000000000000000000000000000000878161021d5761021d617c0d565b048203915061023a565b85878161023657610236617c0d565b0490035b60a051878660801b178760a81b17847f1000000000000000000000000000000000000000000000000000000000000000027f2000000000000000000000000000000000000000000000000000000000000000011760c08201526020810160a05260e08101604052505b610910565b60fc87901c60020361034f576102c1600187878c611697565b909750945086156102a3577f000000000000000000000000000000000000000000000000000000000000000087816102fb576102fb617c0d565b048201915060018417935060a051878660801b178760a81b177f10000000000000000000000000000000000000000000000000000000000000001760c08201526020810160a05260e0810160405250610910565b60fc87901c6003036103b3576103675f87878c611697565b909750945086156102a35785878161038157610381617c0d565b048101905060028417935060a051878660801b178760a81b1760c08201526020810160a05260e0810160405250610910565b60fc87901c60041480156103c8575060028416155b1561044c575f61043a8633605081901b73ffffffffffffffffffffffffffffffffffffffff168a17907effffffffffffffffffffffffffffffffffffffffffffffffffffffffffffff7e0100000000000000000000000000000000000000000000000000000000000090911716611a31565b919a5050890190920391506109109050565b60fc87901c6005148015610461575060018416155b156104e5575f6104d38633605081901b73ffffffffffffffffffffffffffffffffffffffff168a17907effffffffffffffffffffffffffffffffffffffffffffffffffffffffffffff7e1100000000000000000000000000000000000000000000000000000000000090911716611a31565b919a5050890190930392506109109050565b60fc87901c60061480156104fa575060028416155b156105f9575f61054a8633605081901b73ffffffffffffffffffffffffffffffffffffffff168a17907f200100000000000000000000000000000000000000000000000000000000000017611a31565b919a5097506fffffffffffffffffffffffffffffffff81168a019093039291505085156105f35760801c7f000000000000000000000000000000000000000000000000000000000000000081816105a3576105a3617c0d565b048301925060018517945060a051818760801b178860a81b177f10000000000000000000000000000000000000000000000000000000000000001760c08201526020810160a05260e08101604052505b50610910565b60fc87901c600714801561060e575060018416155b156106ca575f61065e8633605081901b73ffffffffffffffffffffffffffffffffffffffff168a17907f201100000000000000000000000000000000000000000000000000000000000017611a31565b919a5097506fffffffffffffffffffffffffffffffff81168a019094039391505085156105f35760801c86818161069757610697617c0d565b048201915060028517945060a051818760801b178860a81b1760c08201526020810160a05260e081016040525050610910565b60fc87901c60081480156106df575060028416155b1561072f575f61043a8633605081901b73ffffffffffffffffffffffffffffffffffffffff168a17907f300100000000000000000000000000000000000000000000000000000000000017611a31565b600960fc88901c148015610744575060018416155b15610794575f6104d38633605081901b73ffffffffffffffffffffffffffffffffffffffff168a17907f301100000000000000000000000000000000000000000000000000000000000017611a31565b60fc87901c600a03610910575f6107b88760d08a901c64ffffffffff16888d6136de565b919750909450905083156107ff577f000000000000000000000000000000000000000000000000000000000000000081816107f5576107f5617c0d565b0483039250610814565b86818161080e5761080e617c0d565b04820391505b855f036108925760a0518664ffffffffff8a60d01c1660801b178860a81b17857f1000000000000000000000000000000000000000000000000000000000000000027f2000000000000000000000000000000000000000000000000000000000000000011760c08201526020810160a05260e081016040525061090e565b83156001018517945060a0518664ffffffffff8a60d01c1660801b178860a81b17857f1000000000000000000000000000000000000000000000000000000000000000027f4000000000000000000000000000000000000000000000000000000000000000011760c08201526020810160a05260e08101604052505b505b602088019750610193565b5f8213156109e3576040517f23b872dd000000000000000000000000000000000000000000000000000000008152336004820152306024820152604481018390527f000000000000000000000000000000000000000000000000000000000000000073ffffffffffffffffffffffffffffffffffffffff16906323b872dd906064016020604051808303815f875af11580156109b9573d5f5f3e3d5ffd5b505050506040513d601f19601f820116820180604052508101906109dd9190617c4a565b50610aa3565b5f821215610aa3576040517fa9059cbb0000000000000000000000000000000000000000000000000000000081523360048201525f83900360248201527f000000000000000000000000000000000000000000000000000000000000000073ffffffffffffffffffffffffffffffffffffffff169063a9059cbb906044016020604051808303815f875af1158015610a7d573d5f5f3e3d5ffd5b505050506040513d601f19601f82011682018060405250810190610aa19190617c4a565b505b5f811315610b6b576040517f23b872dd000000000000000000000000000000000000000000000000000000008152336004820152306024820152604481018290527f000000000000000000000000000000000000000000000000000000000000000073ffffffffffffffffffffffffffffffffffffffff16906323b872dd906064016020604051808303815f875af1158015610b41573d5f5f3e3d5ffd5b505050506040513d601f19601f82011682018060405250810190610b659190617c4a565b50610c2b565b5f811215610c2b576040517fa9059cbb0000000000000000000000000000000000000000000000000000000081523360048201525f82900360248201527f000000000000000000000000000000000000000000000000000000000000000073ffffffffffffffffffffffffffffffffffffffff169063a9059cbb906044016020604051808303815f875af1158015610c05573d5f5f3e3d5ffd5b505050506040513d601f19601f82011682018060405250810190610c299190617c4a565b505b60a0517f0000000000000000000000000000000000000000000000000000000000000000908015610c8657602060805233827f7ebb55d14fb18179d0ee498ab0f21c070fad7368e44487d51cdac53d6f74812c604084016080a35b005b5f54610ca79073ffffffffffffffffffffffffffffffffffffffff1681565b60405173ffffffffffffffffffffffffffffffffffffffff90911681526020015b60405180910390f35b610ce4610cdf366004617c94565b613db1565b604051908152602001610cc8565b610d05610d00366004617cc6565b6141e6565b604051610cc89493929190617d32565b610d28610d23366004617d6d565b6142a1565b60408051928352602083019190915201610cc8565b610ce47f000000000000000000000000000000000000000000000000000000000000000081565b610ce4610d72366004617dc4565b600460209081525f928352604080842090915290825290205481565b610d05610d9c366004617cc6565b505f918291506060908190565b610ca77f000000000000000000000000000000000000000000000000000000000000000081565b610ec0610dde366004617df5565b60036020525f908152604090205469ffffffffffffffffffff808216916a010000000000000000000081049091169063ffffffff740100000000000000000000000000000000000000008204169062ffffff780100000000000000000000000000000000000000000000000082048116917b0100000000000000000000000000000000000000000000000000000081049091169060ff7e0100000000000000000000000000000000000000000000000000000000000082048116917f010000000000000000000000000000000000000000000000000000000000000090041687565b6040805169ffffffffffffffffffff988916815297909616602088015263ffffffff9094169486019490945262ffffff918216606086015216608084015260ff91821660a08401521660c082015260e001610cc8565b610f1e614a83565b60408051938452602084019290925290820152606001610cc8565b610f4c610f47366004617e0e565b614b5f565b604051610cc89190617e46565b610ca7610f67366004617e58565b60016020525f908152604090205473ffffffffffffffffffffffffffffffffffffffff1681565b610ce4610f9c366004617df5565b60026020525f908152604090205481565b610ca77f000000000000000000000000000000000000000000000000000000000000000081565b610fe7610fe2366004617eb7565b614b81565b604051610cc89190617f71565b610fe7611002366004617eb7565b615e82565b610ce47f000000000000000000000000000000000000000000000000000000000000000081565b610f1e61103c366004617fb3565b616a79565b610ce47f000000000000000000000000000000000000000000000000000000000000000081565b610ce461107636600461802d565b617190565b610ca77f000000000000000000000000000000000000000000000000000000000000000081565b610ca77f000000000000000000000000000000000000000000000000000000000000000081565b73ffffffffffffffffffffffffffffffffffffffff7f0000000000000000000000000000000000000000000000000000000000000000165f90815260036020818152604080842087855292830182528084208685529091528220546fffffffffffffffffffffffffffffffff81169291908315806111525750608081901c64ffffffffff168514155b1561115e57505061168f565b5f8781526003830160209081526040808320898452909152812055815469ffffffffffffffffffff808216916a01000000000000000000009004168189116111a957600194506111ad565b5f94505b5f89815260028501602052604090205486900364ffffffffff608082901c168903611216577fffffffffffffffffffffff0000000000ffffffffffffffffffffffffffffffff1674ffffffffff00000000000000000000000000000000605085901c161761139b565b60a881901c64ffffffffff1689036112db575f8a8152600386016020908152604080832064ffffffffff60a889901c168452909152902080547fff0000000000ffffffffffffffffffffffffffffffffffffffffffffffffffff167effffffffff000000000000000000000000000000000000000000000000000086161790557fffffffffffff0000000000ffffffffffffffffffffffffffffffffffffffffff1679ffffffffff00000000000000000000000000000000000000000084161761139b565b5f8a8152600386016020908152604080832064ffffffffff60a889901c81168552925280832080547fff0000000000ffffffffffffffffffffffffffffffffffffffffffffffffffff167effffffffff0000000000000000000000000000000000000000000000000000891617905560d087901c9091168252902080547fffffffffffff0000000000ffffffffffffffffffffffffffffffffffffffffff1679ffffffffff00000000000000000000000000000000000000000086161790555b5f8a815260028601602052604081208290556fffffffffffffffffffffffffffffffff82169003611689575f6113d08b6175b9565b600881901c5f81815260018981016020526040909120805460ff85169290921b199091169081905591925090848d0361152f5761010083061c5b805f03611433575060019081015f818152918801602052604090912054600882901b925061140a565b806fffffffffffffffffffffffffffffffff165f03611454576080928301921c5b8067ffffffffffffffff165f0361146d576040928301921c5b8063ffffffff165f03611482576020928301921c5b8061ffff165f03611495576010928301921c5b8060ff165f036114a7576008928301921c5b80600f165f036114b9576004928301921c5b806003165f036114cb576002928301921c5b806001165f036114dc578260010192505b6114e5836177a5565b885469ffffffffffffffffffff919091166a0100000000000000000000027fffffffffffffffffffffffff00000000000000000000ffffffffffffffffffff909116178855611685565b858d03611685577fffffffffffffffffffffffffffffffffffffffffffffffffffffffffffffffff600160ff85161b01165b805f036115a057507fffffffffffffffffffffffffffffffffffffffffffffffffffffffffffffffff015f818152600188016020526040902054611561565b600882901b925070010000000000000000000000000000000081106115c7576080928301921c5b6801000000000000000081106115df576040928301921c5b64010000000081106115f3576020928301921c5b620100008110611605576010928301921c5b6101008110611616576008928301921c5b60108110611626576004928301921c5b60048110611636576002928301921c5b60028110611645578260010192505b61164e836177a5565b88547fffffffffffffffffffffffffffffffffffffffffffff000000000000000000001669ffffffffffffffffffff919091161788555b5050505b50505050505b935093915050565b73ffffffffffffffffffffffffffffffffffffffff7f0000000000000000000000000000000000000000000000000000000000000000165f908152600360205260408120805482919069ffffffffffffffffffff808216916a010000000000000000000090041688156117c0578088101580611711575087155b8061173d5750825474010000000000000000000000000000000000000000900463ffffffff16600a0a87105b80611746575085155b15611759575f5f94509450505050611a28565b818811156117965782547fffffffffffffffffffffffffffffffffffffffffffff000000000000000000001669ffffffffffffffffffff89161783555b7f0000000000000000000000000000000000000000000000000000000000000000870296506118b4565b9587029581881115806117f357507f00000000000000000000000000000000000000000000000000000000000000008810155b8061184e5750825474010000000000000000000000000000000000000000900463ffffffff16600a0a7f0000000000000000000000000000000000000000000000000000000000000000888161184b5761184b617c0d565b04105b80611857575085155b1561186a575f5f94509450505050611a28565b808810156118b45782547fffffffffffffffffffffffff00000000000000000000ffffffffffffffffffff166a010000000000000000000069ffffffffffffffffffff8a16021783555b6fffffffffffffffffffffffffffffffff8711156118d0575f5ffd5b5f8881526002840160205260408120549064ffffffffff608083901c16900361190757700100000000000000000000000000000000175b806fffffffffffffffffffffffffffffffff165f0361198b577f0000000000000000000000000000000000000000000000000000000000000000898161194f5761194f617c0d565b0615611959575f5ffd5b5f6119638a6175b9565b90506101008160089290921c5f908152600187810160205260409091208054929093061b1790555b5f898152600385016020908152604080832060d085811c64ffffffffff166001810180875292855283862060808e901b79ffffffffff00000000000000000000000000000000000000000089166002938401851b17178f1790558e865290980190925290912074ffffffffffffffffffffffffffffffffffffffffff909216890160a882901b9582901b9590951794909417905550859350909150505b94509492505050565b73ffffffffffffffffffffffffffffffffffffffff7f0000000000000000000000000000000000000000000000000000000000000000165f90815260036020526040812081908190819081600f60f888901c1615611ae75781547801000000000000000000000000000000000000000000000000900462ffffff16620186a08a0281017fffffffffffffffffffffffffffffffffffffffffffffffffffffffffffffffff0181611ae357611ae3617c0d565b0498505b60f487901c600f165f03611b77577f000000000000000000000000000000000000000000000000000000000000000069ffffffffffffffffffff89168111611b545760018103897fffffffffffffffffffffffffffffffffffffffffffff00000000000000000000161798505b505080546a0100000000000000000000900469ffffffffffffffffffff16611ba1565b8769ffffffffffffffffffff165f03611b91576001880197505b50805469ffffffffffffffffffff165b5f60606040510190505f8152602081016040525f611bbe836175b9565b600881901c5f9081526001860160205260409020549091505b600f60f88b901c1615611bec57878c11611bf0565b888c115b15612e6a57600f60f48b901c1615611c16578a69ffffffffffffffffffff168410611c26565b8a69ffffffffffffffffffff1684115b15611e375760fc8a901c600103611c69576040517f8199f5f300000000000000000000000000000000000000000000000000000000815260040160405180910390fd5b600882901c5f9081526001860160205260409020548114611c9c57600882901c5f90815260018601602052604090208190555b60fc8a901c600203611e3257600f60f48b901c1615611cef5784547fffffffffffffffffffffffffffffffffffffffffffff000000000000000000001669ffffffffffffffffffff851617855583611d32565b84547fffffffffffffffffffffffff00000000000000000000ffffffffffffffffffff166a010000000000000000000069ffffffffffffffffffff861602178555835b50600f60f88b901c1615611dd157600f60f48b901c1615611d92578a69ffffffffffffffffffff167f0000000000000000000000000000000000000000000000000000000000000000898e030281611d8c57611d8c617c0d565b04611dd5565b7f00000000000000000000000000000000000000000000000000000000000000008b69ffffffffffffffffffff16898e030281611d8c57611d8c617c0d565b888c035b73ffffffffffffffffffffffffffffffffffffffff8b165f908152600260205260409020548b9350909150611e2390600f60f485901c16159069ffffffffffffffffffff8e16908490611697565b9750608081901b969096179590505b612e6a565b5f84815260028601602052604081205490600f60f88d901c1615611e5d57898e03611e61565b8a8e035b5f87815260028901602052604090205490915060801c64ffffffffff168c5b6fffffffffffffffffffffffffffffffff841615801590611ea057508215155b8015611ebf575060fc81901c6003148015611ebd5750620186a05a105b155b15612b1d575f88815260038a016020908152604080832085845282528083205464ffffffffff608082901c16845260019092529091205473ffffffffffffffffffffffffffffffffffffffff16600f60f084901c1615801590611f4d57508273ffffffffffffffffffffffffffffffffffffffff168173ffffffffffffffffffffffffffffffffffffffff16145b156123225760f083901c600f1660010361212c575f8a815260038c016020908152604080832087845290915281208190556fffffffffffffffffffffffffffffffff831690960395600f60f485901c169003611fce5789826fffffffffffffffffffffffffffffffff1681611fc457611fc4617c0d565b048c019b50612015565b7f0000000000000000000000000000000000000000000000000000000000000000826fffffffffffffffffffffffffffffffff168161200f5761200f617c0d565b048c019b505b7f000000000000000000000000000000000000000000000000000000000000000073ffffffffffffffffffffffffffffffffffffffff168173ffffffffffffffffffffffffffffffffffffffff167f7ebb55d14fb18179d0ee498ab0f21c070fad7368e44487d51cdac53d6f74812c846fffffffffffffffffffffffffffffffff16608088901b60a88f901b7f30000000000000000000000000000000000000000000000000000000000000001717176040516020016120d791815260200190565b604080517fffffffffffffffffffffffffffffffffffffffffffffffffffffffffffffffe08184030181529082905261210f91617e46565b60405180910390a360d082901c64ffffffffff1693505050611e80565b60f083901c600f16600203612145575f94505050612b1d565b60f083901c600f16600303612322575f8a815260038c016020908152604080832087845290915281208190556fffffffffffffffffffffffffffffffff831690960395600f60f485901c1690036121c15789826fffffffffffffffffffffffffffffffff16816121b7576121b7617c0d565b048c019b50612208565b7f0000000000000000000000000000000000000000000000000000000000000000826fffffffffffffffffffffffffffffffff168161220257612202617c0d565b048c019b505b7f000000000000000000000000000000000000000000000000000000000000000073ffffffffffffffffffffffffffffffffffffffff168173ffffffffffffffffffffffffffffffffffffffff167f7ebb55d14fb18179d0ee498ab0f21c070fad7368e44487d51cdac53d6f74812c846fffffffffffffffffffffffffffffffff16608088901b60a88f901b7f30000000000000000000000000000000000000000000000000000000000000001717176040516020016122ca91815260200190565b604080517fffffffffffffffffffffffffffffffffffffffffffffffffffffffffffffffe08184030181529082905261230291617e46565b60405180910390a360d082901c64ffffffffff1693505f94505050612b1d565b60f483901c600f1660f884901c600f161461235357898502826fffffffffffffffffffffffffffffffff161161238b565b7f00000000000000000000000000000000000000000000000000000000000000008502826fffffffffffffffffffffffffffffffff16115b1561269657600f60f884901c16156123a3578461241a565b600f60f484901c16156123e7577f00000000000000000000000000000000000000000000000000000000000000008a8602816123e1576123e1617c0d565b0461241a565b897f000000000000000000000000000000000000000000000000000000000000000086028161241857612418617c0d565b045b909d019c600f60f884901c16156124cf57600f60f484901c1615612474578960018b7f0000000000000000000000000000000000000000000000000000000000000000880201038161246e5761246e617c0d565b046124cc565b7f000000000000000000000000000000000000000000000000000000000000000060017f00000000000000000000000000000000000000000000000000000000000000008c88020103816124ca576124ca617c0d565b045b94505b9d84019d5f600f60f485901c16156124e9578a860261250d565b7f000000000000000000000000000000000000000000000000000000000000000086025b5f8c815260038e01602090815260408083208984529091529020938190039384905596879003969050600f60f485901c1615612569577f000000000000000000000000000000000000000000000000000000000000000061258b565b7f00000000000000000000000000000000000000000000000000000000000000005b73ffffffffffffffffffffffffffffffffffffffff166323b872dd600160ec87901c16156125b957336125bb565b855b6040517fffffffff0000000000000000000000000000000000000000000000000000000060e084901b16815273ffffffffffffffffffffffffffffffffffffffff91821660048201529085166024820152604481018990526064016020604051808303815f875af1158015612632573d5f5f3e3d5ffd5b505050506040513d601f19601f820116820180604052508101906126569190617c4a565b505f95508951836fffffffffffffffffffffffffffffffff168660801b178c60a81b1760208c01820152602081018b5260408b0181016040525050612b16565b600f60f484901c16156126ca5789826fffffffffffffffffffffffffffffffff16816126c4576126c4617c0d565b0461270d565b7f0000000000000000000000000000000000000000000000000000000000000000826fffffffffffffffffffffffffffffffff168161270b5761270b617c0d565b045b909e019d600f60f484901c1615612776577f00000000000000000000000000000000000000000000000000000000000000008a8b846fffffffffffffffffffffffffffffffff168161276157612761617c0d565b04028161277057612770617c0d565b046127ea565b897f00000000000000000000000000000000000000000000000000000000000000007f0000000000000000000000000000000000000000000000000000000000000000846fffffffffffffffffffffffffffffffff16816127d9576127d9617c0d565b0402816127e8576127e8617c0d565b045b909d019c6fffffffffffffffffffffffffffffffff821690950394600f60f884901c16156128da57600f60f484901c1615612877577f00000000000000000000000000000000000000000000000000000000000000008a8b846fffffffffffffffffffffffffffffffff168161286257612862617c0d565b04028161287157612871617c0d565b0461294b565b897f00000000000000000000000000000000000000000000000000000000000000007f0000000000000000000000000000000000000000000000000000000000000000846fffffffffffffffffffffffffffffffff168161286257612862617c0d565b600f60f484901c16156129085789826fffffffffffffffffffffffffffffffff168161287157612871617c0d565b7f0000000000000000000000000000000000000000000000000000000000000000826fffffffffffffffffffffffffffffffff168161294957612949617c0d565b045b909403935f600f60f485901c1615612963578a612985565b7f00000000000000000000000000000000000000000000000000000000000000005b836fffffffffffffffffffffffffffffffff16816129a5576129a5617c0d565b049050600f60f485901c16156129db577f00000000000000000000000000000000000000000000000000000000000000006129fd565b7f00000000000000000000000000000000000000000000000000000000000000005b73ffffffffffffffffffffffffffffffffffffffff166323b872dd600160ec87901c1615612a2b5733612a2d565b855b6040517fffffffff0000000000000000000000000000000000000000000000000000000060e084901b16815273ffffffffffffffffffffffffffffffffffffffff91821660048201529085166024820152604481018490526064016020604051808303815f875af1158015612aa4573d5f5f3e3d5ffd5b505050506040513d601f19601f82011682018060405250810190612ac89190617c4a565b5050885160a88b901b608086901b17818b016020818101929092529181018b52604091820182525f8c815260038e01825282812096815295905284209390935564ffffffffff60d082901c16925b5050611e80565b505f878152600289016020526040812060809290921b7fffffffffffffffffffffff0000000000ffffffffffffffffffffffffffffffff8516179091556fffffffffffffffffffffffffffffffff83169003612e0657600160ff85161b199290921691600884901c60f48d901c600f165f03612cab5760ff851684901c80158015612bb757505f82815260018a0160205260409020548514155b15612bcf575f82815260018a01602052604090208590555b5b805f03612bfc575060019081015f818152918901602052604090912054600882901b9550935083612bd0565b806fffffffffffffffffffffffffffffffff165f03612c1d576080958601951c5b8067ffffffffffffffff165f03612c36576040958601951c5b8063ffffffff165f03612c4b576020958601951c5b8061ffff165f03612c5e576010958601951c5b8060ff165f03612c70576008958601951c5b80600f165f03612c82576004958601951c5b806003165f03612c94576002958601951c5b806001165f03612ca5578560010195505b50612df5565b7fffffffffffffffffffffffffffffffffffffffffffffffffffffffffffffffff600160ff87161b01841680158015612cf357505f82815260018a0160205260409020548514155b15612d0b575f82815260018a01602052604090208590555b5b805f03612d4e57507fffffffffffffffffffffffffffffffffffffffffffffffffffffffffffffffff015f818152600189016020526040902054935083612d0c565b600882901b95507001000000000000000000000000000000008110612d75576080958601951c5b680100000000000000008110612d8d576040958601951c5b6401000000008110612da1576020958601951c5b620100008110612db3576010958601951c5b6101008110612dc4576008958601951c5b60108110612dd4576004958601951c5b60048110612de4576002958601951c5b60028110612df3578560010195505b505b612dfe856177a5565b965050612e39565b600884901c5f9081526001880160205260409020548314612e3957600884901c5f90815260018801602052604090208390555b801580612e57575060fc8c901c6003148015612e575750620186a05a105b15612e63575050612e6a565b5050611bd7565b505085156136cb578254620186a0780100000000000000000000000000000000000000000000000090910462ffffff16870204808703600f60f48b901c165f036132885760508b901c73ffffffffffffffffffffffffffffffffffffffff16612f2b5773ffffffffffffffffffffffffffffffffffffffff7f000000000000000000000000000000000000000000000000000000000000000081165f908152600460209081526040808320835490941683529290522080548201905561319f565b84545f906064907e01000000000000000000000000000000000000000000000000000000000000900460ff1683020490508060045f7f000000000000000000000000000000000000000000000000000000000000000073ffffffffffffffffffffffffffffffffffffffff1673ffffffffffffffffffffffffffffffffffffffff1681526020019081526020015f205f60508f901c73ffffffffffffffffffffffffffffffffffffffff1673ffffffffffffffffffffffffffffffffffffffff1681526020019081526020015f205f82825401925050819055505f6064875f01601f9054906101000a900460ff1660ff1684028161302b5761302b617c0d565b0490508060045f7f000000000000000000000000000000000000000000000000000000000000000073ffffffffffffffffffffffffffffffffffffffff1673ffffffffffffffffffffffffffffffffffffffff1681526020019081526020015f205f8e73ffffffffffffffffffffffffffffffffffffffff1673ffffffffffffffffffffffffffffffffffffffff1681526020019081526020015f205f8282540192505081905550808284030360045f7f000000000000000000000000000000000000000000000000000000000000000073ffffffffffffffffffffffffffffffffffffffff1673ffffffffffffffffffffffffffffffffffffffff1681526020019081526020015f205f5f5f9054906101000a900473ffffffffffffffffffffffffffffffffffffffff1673ffffffffffffffffffffffffffffffffffffffff1673ffffffffffffffffffffffffffffffffffffffff1681526020019081526020015f205f828254019250508190555050505b83855f01600a6101000a81548169ffffffffffffffffffff021916908369ffffffffffffffffffff1602179055505f7f000000000000000000000000000000000000000000000000000000000000000090508351838b60801b1760608603528085015160b01c602086015160b01c60801b177f1000000000000000000000000000000000000000000000000000000000000000176040860352606060208603528b73ffffffffffffffffffffffffffffffffffffffff16827f148472d48b5f9f0984f0caca96309b4b66b6e42ab16d2a632c84730c5a38b5686080840160608903a350506136bf565b60508b901c73ffffffffffffffffffffffffffffffffffffffff166133055773ffffffffffffffffffffffffffffffffffffffff7f000000000000000000000000000000000000000000000000000000000000000081165f9081526004602090815260408083208354909416835292905220805482019055613579565b84545f906064907e01000000000000000000000000000000000000000000000000000000000000900460ff1683020490508060045f7f000000000000000000000000000000000000000000000000000000000000000073ffffffffffffffffffffffffffffffffffffffff1673ffffffffffffffffffffffffffffffffffffffff1681526020019081526020015f205f60508f901c73ffffffffffffffffffffffffffffffffffffffff1673ffffffffffffffffffffffffffffffffffffffff1681526020019081526020015f205f82825401925050819055505f6064875f01601f9054906101000a900460ff1660ff1684028161340557613405617c0d565b0490508060045f7f000000000000000000000000000000000000000000000000000000000000000073ffffffffffffffffffffffffffffffffffffffff1673ffffffffffffffffffffffffffffffffffffffff1681526020019081526020015f205f8e73ffffffffffffffffffffffffffffffffffffffff1673ffffffffffffffffffffffffffffffffffffffff1681526020019081526020015f205f8282540192505081905550808284030360045f7f000000000000000000000000000000000000000000000000000000000000000073ffffffffffffffffffffffffffffffffffffffff1673ffffffffffffffffffffffffffffffffffffffff1681526020019081526020015f205f5f5f9054906101000a900473ffffffffffffffffffffffffffffffffffffffff1673ffffffffffffffffffffffffffffffffffffffff1673ffffffffffffffffffffffffffffffffffffffff1681526020019081526020015f205f828254019250508190555050505b84547fffffffffffffffffffffffffffffffffffffffffffff000000000000000000001669ffffffffffffffffffff8516178555825160808a811b84177fffffffffffffffffffffffffffffffffffffffffffffffffffffffffffffffa0860190815282860151602087015160b09190911c60309190911c79ffffffffffffffffffff0000000000000000000000000000000016177fffffffffffffffffffffffffffffffffffffffffffffffffffffffffffffffc087015260607fffffffffffffffffffffffffffffffffffffffffffffffffffffffffffffffe08701527f0000000000000000000000000000000000000000000000000000000000000000929173ffffffffffffffffffffffffffffffffffffffff8e169184917f148472d48b5f9f0984f0caca96309b4b66b6e42ab16d2a632c84730c5a38b5689190850190a350505b5095506136d592505050565b5f5f965096505050505b93509350935093565b73ffffffffffffffffffffffffffffffffffffffff7f0000000000000000000000000000000000000000000000000000000000000000165f90815260036020818152604080842088855292830182528084208785529091528220548291829164ffffffffff608082901c16861461375c575f5f945094505050613da7565b81546fffffffffffffffffffffffffffffffff82169069ffffffffffffffffffff808216916a0100000000000000000000900416818c116137c557600195507f00000000000000000000000000000000000000000000000000000000000000008a0299506137cd565b988b02985f95505b845463ffffffff7401000000000000000000000000000000000000000090910416600a0a7f0000000000000000000000000000000000000000000000000000000000000000028a018311613d65575f8c815260038601602090815260408083208e845282528083208390558e83526002880190915290205483900364ffffffffff608082901c168c0361389e577fffffffffffffffffffffff0000000000ffffffffffffffffffffffffffffffff1674ffffffffff00000000000000000000000000000000605086901c1617613a23565b60a881901c64ffffffffff168c03613963575f8d8152600387016020908152604080832064ffffffffff60a88a901c168452909152902080547fff0000000000ffffffffffffffffffffffffffffffffffffffffffffffffffff167effffffffff000000000000000000000000000000000000000000000000000087161790557fffffffffffff0000000000ffffffffffffffffffffffffffffffffffffffffff1679ffffffffff000000000000000000000000000000000000000000851617613a23565b5f8d8152600387016020908152604080832064ffffffffff60a88a901c81168552925280832080547fff0000000000ffffffffffffffffffffffffffffffffffffffffffffffffffff167effffffffff00000000000000000000000000000000000000000000000000008a1617905560d088901c9091168252902080547fffffffffffff0000000000ffffffffffffffffffffffffffffffffffffffffff1679ffffffffff00000000000000000000000000000000000000000087161790555b5f8d815260028701602052604081208290556fffffffffffffffffffffffffffffffff82169003613d54575f613a588e6175b9565b600881901c5f90815260018981016020526040909120805460ff84169290921b1990911690819055909150838f03613bd85760ff82161c600882901c5b815f03613abf5760019081015f818152918a01602052604090912054600882901b93509150613a95565b816fffffffffffffffffffffffffffffffff165f03613ae4576080928301929190911c905b8167ffffffffffffffff165f03613b01576040928301929190911c905b8163ffffffff165f03613b1a576020928301929190911c905b8161ffff165f03613b31576010928301929190911c905b8160ff165f03613b47576008928301929190911c905b81600f165f03613b5d576004928301929190911c905b816003165f03613b73576002928301929190911c905b816001165f03613b84578260010192505b613b8d836177a5565b895469ffffffffffffffffffff919091166a0100000000000000000000027fffffffffffffffffffffffff00000000000000000000ffffffffffffffffffff90911617895550613d51565b848f03613d51577fffffffffffffffffffffffffffffffffffffffffffffffffffffffffffffffff600160ff84161b0116600882901c5b815f03613c4f577fffffffffffffffffffffffffffffffffffffffffffffffffffffffffffffffff015f81815260018a0160205260409020549150613c0f565b600881901b92507001000000000000000000000000000000008210613c7a576080928301929190911c905b680100000000000000008210613c96576040928301929190911c905b6401000000008210613cae576020928301929190911c905b620100008210613cc4576010928301929190911c905b6101008210613cd9576008928301929190911c905b60108210613ced576004928301929190911c905b60048210613d01576002928301929190911c905b60028210613d10578260010192505b613d19836177a5565b89547fffffffffffffffffffffffffffffffffffffffffffff000000000000000000001669ffffffffffffffffffff91909116178955505b50505b5f8498509850505050505050613da7565b50505f8a815260038401602090815260408083208c8452825280832080548c900390558c83526002909501905292909220805488900390555085900392508491505b9450945094915050565b73ffffffffffffffffffffffffffffffffffffffff81165f908152600260205260408120548190613de590869086906110c9565b909250905081156141de578015613ffc577f000000000000000000000000000000000000000000000000000000000000000073ffffffffffffffffffffffffffffffffffffffff1663a9059cbb605087901c5f03613e435784613e45565b335b7f00000000000000000000000000000000000000000000000000000000000000008581613e7457613e74617c0d565b6040517fffffffff0000000000000000000000000000000000000000000000000000000060e086901b16815273ffffffffffffffffffffffffffffffffffffffff90931660048401520460248201526044016020604051808303815f875af1158015613ee2573d5f5f3e3d5ffd5b505050506040513d601f19601f82011682018060405250810190613f069190617c4a565b507f000000000000000000000000000000000000000000000000000000000000000073ffffffffffffffffffffffffffffffffffffffff168373ffffffffffffffffffffffffffffffffffffffff167f7ebb55d14fb18179d0ee498ab0f21c070fad7368e44487d51cdac53d6f74812c84608088901b60a88a901b7f3000000000000000000000000000000000000000000000000000000000000000171717604051602001613fb791815260200190565b604080517fffffffffffffffffffffffffffffffffffffffffffffffffffffffffffffffe081840301815290829052613fef91617e46565b60405180910390a36141de565b7f000000000000000000000000000000000000000000000000000000000000000073ffffffffffffffffffffffffffffffffffffffff1663a9059cbb605087901c5f03614049578461404b565b335b87858161405a5761405a617c0d565b6040517fffffffff0000000000000000000000000000000000000000000000000000000060e086901b16815273ffffffffffffffffffffffffffffffffffffffff90931660048401520460248201526044016020604051808303815f875af11580156140c8573d5f5f3e3d5ffd5b505050506040513d601f19601f820116820180604052508101906140ec9190617c4a565b507f000000000000000000000000000000000000000000000000000000000000000073ffffffffffffffffffffffffffffffffffffffff168373ffffffffffffffffffffffffffffffffffffffff167f7ebb55d14fb18179d0ee498ab0f21c070fad7368e44487d51cdac53d6f74812c84608088901b60a88a901b7f200000000000000000000000000000000000000000000000000000000000000017171760405160200161419d91815260200190565b604080517fffffffffffffffffffffffffffffffffffffffffffffffffffffffffffffffe0818403018152908290526141d591617e46565b60405180910390a35b509392505050565b73ffffffffffffffffffffffffffffffffffffffff7f0000000000000000000000000000000000000000000000000000000000000000165f90815260036020526040808220805461010090925269ffffffffffffffffffff808316936a01000000000000000000009093041691606091829161426481878a8a617843565b5061010051610120810160405261427e6001868a8a617843565b856080528460a052608060c0528060a00160e052610120810151810160c0016080f35b73ffffffffffffffffffffffffffffffffffffffff7f0000000000000000000000000000000000000000000000000000000000000000165f9081526003602052604081208190818761434b5781547801000000000000000000000000000000000000000000000000900462ffffff16620186a0870281017fffffffffffffffffffffffffffffffffffffffffffffffffffffffffffffffff018161434757614347617c0d565b0495505b88156143a3577f0000000000000000000000000000000000000000000000000000000000000000808610614380576001810395505b505080546a0100000000000000000000900469ffffffffffffffffffff166143bf565b845f036143af57600194505b50805469ffffffffffffffffffff165b5f6143c9826175b9565b600881901c5f9081526001850160205260409020549091505b896143ef578488116143f3565b8588115b15614a43578a61440557868310614409565b8683115b15614480578815614446576040517f8199f5f300000000000000000000000000000000000000000000000000000000815260040160405180910390fd5b83548690620186a0907801000000000000000000000000000000000000000000000000900462ffffff168702049550955050505050614a79565b5f8a61448e57858903614492565b8689035b5f8581526002870160205260409020549091506fffffffffffffffffffffffffffffffff168b15158d1515146144cc5784820281116144f2565b7f0000000000000000000000000000000000000000000000000000000000000000820281115b15614620578b6145025781614571565b8c61453e577f00000000000000000000000000000000000000000000000000000000000000008583028161453857614538617c0d565b04614571565b847f000000000000000000000000000000000000000000000000000000000000000083028161456f5761456f617c0d565b045b870196508b614616578c6145bb57846001867f000000000000000000000000000000000000000000000000000000000000000085020103816145b5576145b5617c0d565b04614613565b7f000000000000000000000000000000000000000000000000000000000000000060017f000000000000000000000000000000000000000000000000000000000000000087850201038161461157614611617c0d565b045b91505b9601955f9061480d565b8c61463a5784818161463457614634617c0d565b0461466b565b7f0000000000000000000000000000000000000000000000000000000000000000818161466957614669617c0d565b045b880197508c6146ba577f0000000000000000000000000000000000000000000000000000000000000000858683816146a5576146a5617c0d565b0402816146b4576146b4617c0d565b0461471c565b847f00000000000000000000000000000000000000000000000000000000000000007f0000000000000000000000000000000000000000000000000000000000000000838161470b5761470b617c0d565b04028161471a5761471a617c0d565b045b870196508b6147c1578c614770577f00000000000000000000000000000000000000000000000000000000000000008586838161475b5761475b617c0d565b04028161476a5761476a617c0d565b04614806565b847f00000000000000000000000000000000000000000000000000000000000000007f0000000000000000000000000000000000000000000000000000000000000000838161475b5761475b617c0d565b8c6147d55784818161476a5761476a617c0d565b7f0000000000000000000000000000000000000000000000000000000000000000818161480457614804617c0d565b045b90910390505f5b805f03614a3557600160ff85161b199290921691600884901c8d1561490f5760ff851684901c5b805f03614860575060019081015f818152918801602052604090912054600882901b9550935083614834565b806fffffffffffffffffffffffffffffffff165f03614881576080958601951c5b8067ffffffffffffffff165f0361489a576040958601951c5b8063ffffffff165f036148af576020958601951c5b8061ffff165f036148c2576010958601951c5b8060ff165f036148d4576008958601951c5b80600f165f036148e6576004958601951c5b806003165f036148f8576002958601951c5b806001165f03614909578560010195505b50614a24565b7fffffffffffffffffffffffffffffffffffffffffffffffffffffffffffffffff600160ff87161b0184165b805f0361497d57507fffffffffffffffffffffffffffffffffffffffffffffffffffffffffffffffff015f81815260018801602052604090205493508361493b565b600882901b955070010000000000000000000000000000000081106149a4576080958601951c5b6801000000000000000081106149bc576040958601951c5b64010000000081106149d0576020958601951c5b6201000081106149e2576010958601951c5b61010081106149f3576008958601951c5b60108110614a03576004958601951c5b60048110614a13576002958601951c5b60028110614a22578560010195505b505b614a2d856177a5565b955050614a3c565b5050614a43565b50506143e2565b83548690620186a0907801000000000000000000000000000000000000000000000000900462ffffff1687020495509550505050505b9550959350505050565b73ffffffffffffffffffffffffffffffffffffffff7f0000000000000000000000000000000000000000000000000000000000000000165f908152600360205260408120805469ffffffffffffffffffff8082169384936a010000000000000000000090930490911691907f00000000000000000000000000000000000000000000000000000000000000008314614b2d57614b1f838661809f565b9450614b2a816180b8565b90505b8315614b3f57614b3c816180b8565b90505b80600203614b58576001614b53868261809f565b901c94505b5050909192565b606060a0604052614b7285858585617843565b6020608052604060a051016080f35b60608767ffffffffffffffff811115614b9c57614b9c6180ef565b604051908082528060200260200182016040528015614bc5578160200160208202803683370190505b50604080515f6020828101828152928401845273ffffffffffffffffffffffffffffffffffffffff88168252600290529182205492935091908080805b8d811015615a39578e8e82818110614c1c57614c1c61811c565b905060200201355f03614de8575f5f8e8e84818110614c3d57614c3d61811c565b9050602002013590505f8d8d85818110614c5957614c5961811c565b905060200201359050614c6d82828a6110c9565b8b8681518110614c7f57614c7f61811c565b602002602001018195508281525050505f8a8581518110614ca257614ca261811c565b60200260200101511115614dae578215614d08577f00000000000000000000000000000000000000000000000000000000000000008a8581518110614ce957614ce961811c565b602002602001015181614cfe57614cfe617c0d565b0487039650614d36565b818a8581518110614d1b57614d1b61811c565b602002602001015181614d3057614d30617c0d565b04860395505b88516020850260208c0101518260801b178360a81b17847f1000000000000000000000000000000000000000000000000000000000000000027f2000000000000000000000000000000000000000000000000000000000000000011760208b01820152602081018a5260408a01810160405250614de0565b6040517f080a1c2700000000000000000000000000000000000000000000000000000000815260040160405180910390fd5b505050615a31565b8e8e82818110614dfa57614dfa61811c565b90506020020135600103614f00575f5f8e8e84818110614e1c57614e1c61811c565b905060200201359050614e4a6001828f8f87818110614e3d57614e3d61811c565b905060200201358a611697565b8a8581518110614e5c57614e5c61811c565b602090810291909101015291508115614dae577f00000000000000000000000000000000000000000000000000000000000000008281614e9e57614e9e617c0d565b04860195506001841793508751826020850260208c01015160801b8360a81b7f100000000000000000000000000000000000000000000000000000000000000017171760208a01820152602081018952604089018101604052505b5050615a31565b8e8e82818110614f1257614f1261811c565b90506020020135600203614fc5575f5f8e8e84818110614f3457614f3461811c565b905060200201359050614f545f828f8f87818110614e3d57614e3d61811c565b8a8581518110614f6657614f6661811c565b602090810291909101015291508115614dae57808281614f8857614f88617c0d565b04850194506002841793508751826020850260208c01015160801b8360a81b171760208a0182015260208101895260408901810160405250614ef9565b8e8e82818110614fd757614fd761811c565b905060200201356003148015614fee575060028216155b156150ff575f5f8e8e848181106150075761500761811c565b9050602002013590506150b08d8d858181106150255761502561811c565b6020029190910135905073ffffffffffffffffffff0000000000000000000060508d901b1683177df00000000000000000000000000000000000000000000000000000000000604c8e901b1673ffffffffffffffffffffffffffffffffffffffff8f16177f100100000000000000000000000000000000000000000000000000000000000017611a31565b9091925090508a85815181106150c8576150c861811c565b60200260200101819450828152505050818984815181106150eb576150eb61811c565b602002602001015101850394505050615a31565b8e8e828181106151115761511161811c565b905060200201356004148015615128575060018216155b15615239575f5f8e8e848181106151415761514161811c565b9050602002013590506151ea8d8d8581811061515f5761515f61811c565b6020029190910135905073ffffffffffffffffffff0000000000000000000060508d901b1683177df0000000000000000000000000000000000000000000000000000000000060488e901b1673ffffffffffffffffffffffffffffffffffffffff8f16177f101100000000000000000000000000000000000000000000000000000000000017611a31565b9091925090508a85815181106152025761520261811c565b60200260200101819450828152505050818984815181106152255761522561811c565b602002602001015101860395505050615a31565b8e8e8281811061524b5761524b61811c565b905060200201356005148015615262575060028216155b15615433575f5f8e8e8481811061527b5761527b61811c565b9050602002013590506153248d8d858181106152995761529961811c565b6020029190910135905073ffffffffffffffffffff0000000000000000000060508d901b1683177df00000000000000000000000000000000000000000000000000000000000604c8e901b1673ffffffffffffffffffffffffffffffffffffffff8f16177f200100000000000000000000000000000000000000000000000000000000000017611a31565b909192508b868151811061533a5761533a61811c565b6020026020010181955082945083815250505050816fffffffffffffffffffffffffffffffff168984815181106153735761537361811c565b602002602001015101850394505f811115614ef9575f8f8f8581811061539b5761539b61811c565b905060200201359050608083901c92507f000000000000000000000000000000000000000000000000000000000000000083816153da576153da617c0d565b04870196506001851794508851838360801b8360a81b7f100000000000000000000000000000000000000000000000000000000000000017171760208b01820152602081018a5260408a01810160405250505050615a31565b8e8e828181106154455761544561811c565b90506020020135600614801561545c575060018216155b156155eb575f5f8e8e848181106154755761547561811c565b90506020020135905061551e8d8d858181106154935761549361811c565b6020029190910135905073ffffffffffffffffffff0000000000000000000060508d901b1683177df0000000000000000000000000000000000000000000000000000000000060488e901b1673ffffffffffffffffffffffffffffffffffffffff8f16177f201100000000000000000000000000000000000000000000000000000000000017611a31565b909192508b86815181106155345761553461811c565b6020026020010181955082945083815250505050816fffffffffffffffffffffffffffffffff1689848151811061556d5761556d61811c565b602002602001015101860395505f811115614ef9575f8f8f858181106155955761559561811c565b905060200201359050608083901c92508083816155b4576155b4617c0d565b04860195506002851794508851838360801b8360a81b171760208b01820152602081018a5260408a01810160405250505050615a31565b8e8e828181106155fd576155fd61811c565b905060200201356007148015615614575060028216155b156156d6575f5f8e8e8481811061562d5761562d61811c565b9050602002013590506150b08d8d8581811061564b5761564b61811c565b6020029190910135905073ffffffffffffffffffff0000000000000000000060508d901b1683177df00000000000000000000000000000000000000000000000000000000000604c8e901b1673ffffffffffffffffffffffffffffffffffffffff8f16177f300100000000000000000000000000000000000000000000000000000000000017611a31565b8e8e828181106156e8576156e861811c565b9050602002013560081480156156ff575060018216155b156157c1575f5f8e8e848181106157185761571861811c565b9050602002013590506151ea8d8d858181106157365761573661811c565b6020029190910135905073ffffffffffffffffffff0000000000000000000060508d901b1683177df0000000000000000000000000000000000000000000000000000000000060488e901b1673ffffffffffffffffffffffffffffffffffffffff8f16177f301100000000000000000000000000000000000000000000000000000000000017611a31565b8e8e828181106157d3576157d361811c565b90506020020135600903615a31575f5f8c8c848181106157f5576157f561811c565b9050602002013590505f8f8f858181106158115761581161811c565b602002919091013591505064ffffffffff608082901c166158348282858c6136de565b8d88815181106158465761584661811c565b60209081029190910101919091529450925083156158b0577f00000000000000000000000000000000000000000000000000000000000000008b86815181106158915761589161811c565b6020026020010151816158a6576158a6617c0d565b04880397506158de565b818b86815181106158c3576158c361811c565b6020026020010151816158d8576158d8617c0d565b04870396505b825f0361595d5789516020860260208d0101518260801b178360a81b17857f1000000000000000000000000000000000000000000000000000000000000000027f2000000000000000000000000000000000000000000000000000000000000000011760208c01820152602081018b5260408b01810160405250615a2c565b8a858151811061596f5761596f61811c565b60200260200101515f036159af576040517f080a1c2700000000000000000000000000000000000000000000000000000000815260040160405180910390fd5b83156001018617955089516020860260208d0101518260801b178360a81b17857f1000000000000000000000000000000000000000000000000000000000000000027f4000000000000000000000000000000000000000000000000000000000000000011760208c01820152602081018b5260408b018101604052505b505050505b600101614c02565b505f831315615b34577f000000000000000000000000000000000000000000000000000000000000000073ffffffffffffffffffffffffffffffffffffffff166323b872dd60a089901c600f16600114615a935733615a95565b895b6040517fffffffff0000000000000000000000000000000000000000000000000000000060e084901b16815273ffffffffffffffffffffffffffffffffffffffff9091166004820152306024820152604481018690526064016020604051808303815f875af1158015615b0a573d5f5f3e3d5ffd5b505050506040513d601f19601f82011682018060405250810190615b2e9190617c4a565b50615c26565b5f831215615c26577f000000000000000000000000000000000000000000000000000000000000000073ffffffffffffffffffffffffffffffffffffffff1663a9059cbb60a889901c600f16600114615b8d5733615b8f565b895b6040517fffffffff0000000000000000000000000000000000000000000000000000000060e084901b16815273ffffffffffffffffffffffffffffffffffffffff90911660048201525f86900360248201526044016020604051808303815f875af1158015615c00573d5f5f3e3d5ffd5b505050506040513d601f19601f82011682018060405250810190615c249190617c4a565b505b5f821315615d20577f000000000000000000000000000000000000000000000000000000000000000073ffffffffffffffffffffffffffffffffffffffff166323b872dd60a489901c600f16600114615c7f5733615c81565b895b6040517fffffffff0000000000000000000000000000000000000000000000000000000060e084901b16815273ffffffffffffffffffffffffffffffffffffffff9091166004820152306024820152604481018590526064016020604051808303815f875af1158015615cf6573d5f5f3e3d5ffd5b505050506040513d601f19601f82011682018060405250810190615d1a9190617c4a565b50615e12565b5f821215615e12577f000000000000000000000000000000000000000000000000000000000000000073ffffffffffffffffffffffffffffffffffffffff1663a9059cbb60ac89901c600f16600114615d795733615d7b565b895b6040517fffffffff0000000000000000000000000000000000000000000000000000000060e084901b16815273ffffffffffffffffffffffffffffffffffffffff90911660048201525f85900360248201526044016020604051808303815f875af1158015615dec573d5f5f3e3d5ffd5b505050506040513d601f19601f82011682018060405250810190615e109190617c4a565b505b84517f0000000000000000000000000000000000000000000000000000000000000000908015615e6f5760208088035289827f7ebb55d14fb18179d0ee498ab0f21c070fad7368e44487d51cdac53d6f74812c6040840160208b03a35b5050505050505098975050505050505050565b60608767ffffffffffffffff811115615e9d57615e9d6180ef565b604051908082528060200260200182016040528015615ec6578160200160208202803683370190505b50604080515f6020828101828152928401845273ffffffffffffffffffffffffffffffffffffffff88168252600290529182205492935091908080805b8d811015615a39578e8e82818110615f1d57615f1d61811c565b905060200201355f036160b3575f5f8e8e84818110615f3e57615f3e61811c565b9050602002013590505f8d8d85818110615f5a57615f5a61811c565b905060200201359050615f6e82828a6110c9565b8b8681518110615f8057615f8061811c565b602002602001018195508281525050505f8a8581518110615fa357615fa361811c565b602002602001015111156160ab578215616009577f00000000000000000000000000000000000000000000000000000000000000008a8581518110615fea57615fea61811c565b602002602001015181615fff57615fff617c0d565b0487039650616037565b818a858151811061601c5761601c61811c565b60200260200101518161603157616031617c0d565b04860395505b88516020850260208c0101518260801b178360a81b17847f1000000000000000000000000000000000000000000000000000000000000000027f2000000000000000000000000000000000000000000000000000000000000000011760208b01820152602081018a5260408a018101604052505b505050616a71565b8e8e828181106160c5576160c561811c565b905060200201356001036161be575f5f8e8e848181106160e7576160e761811c565b9050602002013590506161086001828f8f87818110614e3d57614e3d61811c565b8a858151811061611a5761611a61811c565b6020908102919091010152915081156161b7577f0000000000000000000000000000000000000000000000000000000000000000828161615c5761615c617c0d565b04860195506001841793508751826020850260208c01015160801b8360a81b7f100000000000000000000000000000000000000000000000000000000000000017171760208a01820152602081018952604089018101604052505b5050616a71565b8e8e828181106161d0576161d061811c565b90506020020135600203616285575f5f8e8e848181106161f2576161f261811c565b9050602002013590506162125f828f8f87818110614e3d57614e3d61811c565b8a85815181106162245761622461811c565b6020908102919091010152915081156161b75780828161624657616246617c0d565b04850194506002841793508751826020850260208c01015160801b8360a81b171760208a01820152602081018952604089018101604052505050616a71565b8e8e828181106162975761629761811c565b9050602002013560031480156162ae575060028216155b156163be575f5f8e8e848181106162c7576162c761811c565b90506020020135905061636f8d8d858181106162e5576162e561811c565b6020029190910135905073ffffffffffffffffffff0000000000000000000060508d901b1683177df00000000000000000000000000000000000000000000000000000000000604c8e901b1673ffffffffffffffffffffffffffffffffffffffff8f16177e0100000000000000000000000000000000000000000000000000000000000017611a31565b9091925090508a85815181106163875761638761811c565b60200260200101819450828152505050818984815181106163aa576163aa61811c565b602002602001015101850394505050616a71565b8e8e828181106163d0576163d061811c565b9050602002013560041480156163e7575060018216155b156164f7575f5f8e8e848181106164005761640061811c565b9050602002013590506164a88d8d8581811061641e5761641e61811c565b6020029190910135905073ffffffffffffffffffff0000000000000000000060508d901b1683177df0000000000000000000000000000000000000000000000000000000000060488e901b1673ffffffffffffffffffffffffffffffffffffffff8f16177e1100000000000000000000000000000000000000000000000000000000000017611a31565b9091925090508a85815181106164c0576164c061811c565b60200260200101819450828152505050818984815181106164e3576164e361811c565b602002602001015101860395505050616a71565b8e8e828181106165095761650961811c565b905060200201356005148015616520575060028216155b15616666575f5f8e8e848181106165395761653961811c565b9050602002013590506165578d8d858181106152995761529961811c565b909192508b868151811061656d5761656d61811c565b6020026020010181955082945083815250505050816fffffffffffffffffffffffffffffffff168984815181106165a6576165a661811c565b602002602001015101850394505f8111156161b7575f8f8f858181106165ce576165ce61811c565b905060200201359050608083901c92507f0000000000000000000000000000000000000000000000000000000000000000838161660d5761660d617c0d565b04870196506001851794508851838360801b8360a81b7f100000000000000000000000000000000000000000000000000000000000000017171760208b01820152602081018a5260408a01810160405250505050616a71565b8e8e828181106166785761667861811c565b90506020020135600614801561668f575060018216155b15616793575f5f8e8e848181106166a8576166a861811c565b9050602002013590506166c68d8d858181106154935761549361811c565b909192508b86815181106166dc576166dc61811c565b6020026020010181955082945083815250505050816fffffffffffffffffffffffffffffffff168984815181106167155761671561811c565b602002602001015101860395505f8111156161b7575f8f8f8581811061673d5761673d61811c565b905060200201359050608083901c925080838161675c5761675c617c0d565b04860195506002851794508851838360801b8360a81b171760208b01820152602081018a5260408a01810160405250505050616a71565b8e8e828181106167a5576167a561811c565b9050602002013560071480156167bc575060028216155b156167f3575f5f8e8e848181106167d5576167d561811c565b90506020020135905061636f8d8d8581811061564b5761564b61811c565b8e8e828181106168055761680561811c565b90506020020135600814801561681c575060018216155b15616853575f5f8e8e848181106168355761683561811c565b9050602002013590506164a88d8d858181106157365761573661811c565b8e8e828181106168655761686561811c565b90506020020135600903616a71575f5f8c8c848181106168875761688761811c565b9050602002013590505f8f8f858181106168a3576168a361811c565b602002919091013591505064ffffffffff608082901c166168c68282858c6136de565b8d88815181106168d8576168d861811c565b6020908102919091010191909152945092508315616942577f00000000000000000000000000000000000000000000000000000000000000008b86815181106169235761692361811c565b60200260200101518161693857616938617c0d565b0488039750616970565b818b86815181106169555761695561811c565b60200260200101518161696a5761696a617c0d565b04870396505b825f036169ef5789516020860260208d0101518260801b178360a81b17857f1000000000000000000000000000000000000000000000000000000000000000027f2000000000000000000000000000000000000000000000000000000000000000011760208c01820152602081018b5260408b01810160405250616a6c565b83156001018617955089516020860260208d0101518260801b178360a81b17857f1000000000000000000000000000000000000000000000000000000000000000027f4000000000000000000000000000000000000000000000000000000000000000011760208c01820152602081018b5260408b018101604052505b505050505b600101615f03565b5f5f5f5f5f60f08b600f16901b8d616ab0577e10000000000000000000000000000000000000000000000000000000000000616ab2565b5f5b7effffffffffffffffffffffffffffffffffffffffffffffffffffffffffffff168d616afe577f0100000000000000000000000000000000000000000000000000000000000000616b00565b5f5b60fc8d901b17171790508673ffffffffffffffffffffffffffffffffffffffff1660e48c610f0016901b8217179150505f616b6e898960508973ffffffffffffffffffffffffffffffffffffffff16901b73ffffffffffffffffffffffffffffffffffffffff161784611a31565b929750909550935090508c8015616b8857505f608082901c115b15616da6577f000000000000000000000000000000000000000000000000000000000000000073ffffffffffffffffffffffffffffffffffffffff166323b872dd60088d901c5f03616bda5788616bdc565b335b307f0000000000000000000000000000000000000000000000000000000000000000608086901c81616c1057616c10617c0d565b6040517fffffffff0000000000000000000000000000000000000000000000000000000060e087901b16815273ffffffffffffffffffffffffffffffffffffffff9485166004820152939092166024840152900460448201526064016020604051808303815f875af1158015616c88573d5f5f3e3d5ffd5b505050506040513d601f19601f82011682018060405250810190616cac9190617c4a565b507f000000000000000000000000000000000000000000000000000000000000000073ffffffffffffffffffffffffffffffffffffffff168773ffffffffffffffffffffffffffffffffffffffff167f7ebb55d14fb18179d0ee498ab0f21c070fad7368e44487d51cdac53d6f74812c608084901c608087901b60a88d901b7f1000000000000000000000000000000000000000000000000000000000000000171717604051602001616d6191815260200190565b604080517fffffffffffffffffffffffffffffffffffffffffffffffffffffffffffffffe081840301815290829052616d9991617e46565b60405180910390a3616f83565b608081901c15616f83577f000000000000000000000000000000000000000000000000000000000000000073ffffffffffffffffffffffffffffffffffffffff166323b872dd60088d901c5f03616dfd5788616dff565b335b308b608086901c81616e1357616e13617c0d565b6040517fffffffff0000000000000000000000000000000000000000000000000000000060e087901b16815273ffffffffffffffffffffffffffffffffffffffff9485166004820152939092166024840152900460448201526064016020604051808303815f875af1158015616e8b573d5f5f3e3d5ffd5b505050506040513d601f19601f82011682018060405250810190616eaf9190617c4a565b507f000000000000000000000000000000000000000000000000000000000000000073ffffffffffffffffffffffffffffffffffffffff168773ffffffffffffffffffffffffffffffffffffffff167f7ebb55d14fb18179d0ee498ab0f21c070fad7368e44487d51cdac53d6f74812c608084901c608087901b60a88d901b1717604051602001616f4291815260200190565b604080517fffffffffffffffffffffffffffffffffffffffffffffffffffffffffffffffe081840301815290829052616f7a91617e46565b60405180910390a35b6fffffffffffffffffffffffffffffffff1683018c8015616fa357505f81115b15617093577f000000000000000000000000000000000000000000000000000000000000000073ffffffffffffffffffffffffffffffffffffffff1663a9059cbb60048d901c600f165f03616ff85788616ffa565b335b6040517fffffffff0000000000000000000000000000000000000000000000000000000060e084901b16815273ffffffffffffffffffffffffffffffffffffffff9091166004820152602481018490526044016020604051808303815f875af1158015617069573d5f5f3e3d5ffd5b505050506040513d601f19601f8201168201806040525081019061708d9190617c4a565b50617180565b8015617180577f000000000000000000000000000000000000000000000000000000000000000073ffffffffffffffffffffffffffffffffffffffff1663a9059cbb60048d901c600f165f036170e957886170eb565b335b6040517fffffffff0000000000000000000000000000000000000000000000000000000060e084901b16815273ffffffffffffffffffffffffffffffffffffffff9091166004820152602481018490526044016020604051808303815f875af115801561715a573d5f5f3e3d5ffd5b505050506040513d601f19601f8201168201806040525081019061717e9190617c4a565b505b5050985098509895505050505050565b73ffffffffffffffffffffffffffffffffffffffff81165f908152600260205260408120546171c490869086908690611697565b909350905082156175b15784156173e6577f000000000000000000000000000000000000000000000000000000000000000073ffffffffffffffffffffffffffffffffffffffff166323b872dd605086901c5f036172225783617224565b335b307f0000000000000000000000000000000000000000000000000000000000000000878161725457617254617c0d565b6040517fffffffff0000000000000000000000000000000000000000000000000000000060e087901b16815273ffffffffffffffffffffffffffffffffffffffff9485166004820152939092166024840152900460448201526064016020604051808303815f875af11580156172cc573d5f5f3e3d5ffd5b505050506040513d601f19601f820116820180604052508101906172f09190617c4a565b507f000000000000000000000000000000000000000000000000000000000000000073ffffffffffffffffffffffffffffffffffffffff168273ffffffffffffffffffffffffffffffffffffffff167f7ebb55d14fb18179d0ee498ab0f21c070fad7368e44487d51cdac53d6f74812c85608085901b60a889901b7f10000000000000000000000000000000000000000000000000000000000000001717176040516020016173a191815260200190565b604080517fffffffffffffffffffffffffffffffffffffffffffffffffffffffffffffffe0818403018152908290526173d991617e46565b60405180910390a36175b1565b7f000000000000000000000000000000000000000000000000000000000000000073ffffffffffffffffffffffffffffffffffffffff166323b872dd605086901c5f036174335783617435565b335b3087878161744557617445617c0d565b6040517fffffffff0000000000000000000000000000000000000000000000000000000060e087901b16815273ffffffffffffffffffffffffffffffffffffffff9485166004820152939092166024840152900460448201526064016020604051808303815f875af11580156174bd573d5f5f3e3d5ffd5b505050506040513d601f19601f820116820180604052508101906174e19190617c4a565b507f000000000000000000000000000000000000000000000000000000000000000073ffffffffffffffffffffffffffffffffffffffff168273ffffffffffffffffffffffffffffffffffffffff167f7ebb55d14fb18179d0ee498ab0f21c070fad7368e44487d51cdac53d6f74812c85608085901b60a889901b171760405160200161757091815260200190565b604080517fffffffffffffffffffffffffffffffffffffffffffffffffffffffffffffffe0818403018152908290526175a891617e46565b60405180910390a35b949350505050565b5f7f000000000000000000000000000000000000000000000000000000000000000082816175e9576175e9617c0d565b049150620186a082116175fa575090565b620f424082101561761f57600a820615617612575f5ffd5b50600a900462015f900190565b62989680821015617644576064820615617637575f5ffd5b50606490046202bf200190565b6305f5e10082101561766c576103e882061561765e575f5ffd5b506103e8900462041eb00190565b633b9aca0082101561769457612710820615617686575f5ffd5b50612710900462057e400190565b6402540be4008210156176bf57620186a08206156176b0575f5ffd5b50620186a090046206ddd00190565b64174876e8008210156176ea57620f42408206156176db575f5ffd5b50620f4240900462083d600190565b64e8d4a510008210156177155762989680820615617706575f5ffd5b5062989680900462099cf00190565b6509184e72a000821015617743576305f5e100820615617733575f5ffd5b506305f5e1009004620afc800190565b655af3107a400082101561777157633b9aca00820615617761575f5ffd5b50633b9aca009004620c5c100190565b66038d7ea4c6800082116177a1576402540be400820615617790575f5ffd5b506402540be4009004620dbba00190565b5f5ffd5b5f620186a082116177d657507f00000000000000000000000000000000000000000000000000000000000000000290565b7fffffffffffffffffffffffffffffffffffffffffffffffffffffffffffffd8f082017f000000000000000000000000000000000000000000000000000000000000000062015f9082066127100162015f90838161783657617836617c0d565b04600a0a02029392505050565b7f00000000000000000000000000000000000000000000000000000000000000008084106178715750617c07565b7f000000000000000000000000000000000000000000000000000000000000000073ffffffffffffffffffffffffffffffffffffffff81165f908152600360205260408120906178c0876175b9565b9050876178cb576001015b600881901c5f818152600184016020526040808220549051828152919291838c15617a6757888b8d011115617900578b89039a505b89811015617a625760ff861683901c5b805f0361793c575060019384015f818152948801602052604090942054600885901b9650925082617910565b806fffffffffffffffffffffffffffffffff165f0361795d576080968701961c5b8067ffffffffffffffff165f03617976576040968701961c5b8063ffffffff165f0361798b576020968701961c5b8061ffff165f0361799e576010968701961c5b8060ff165f036179b0576008968701961c5b80600f165f036179c2576004968701961c5b806003165f036179d4576002968701961c5b806001165f036179e5578660010196505b61010087066001901b19841693506179fc876177a5565b95508b8d01861015617a5657885f526003602052600260405f2001865f52806020525082516fffffffffffffffffffffffffffffffff60405f2054168760801b176020850182015260208101845250816001019150617a5c565b50617bfd565b50617900565b617bfd565b8b8b1115617a73578b9a505b89811015617bfd577fffffffffffffffffffffffffffffffffffffffffffffffffffffffffffffffff600160ff88161b0183165b805f03617aee57507fffffffffffffffffffffffffffffffffffffffffffffffffffffffffffffffff9093015f818152600188016020526040902054909390925082617aa7565b600885901b96507001000000000000000000000000000000008110617b15576080968701961c5b680100000000000000008110617b2d576040968701961c5b6401000000008110617b41576020968701961c5b620100008110617b53576010968701961c5b6101008110617b64576008968701961c5b60108110617b74576004968701961c5b60048110617b84576002968701961c5b60028110617b93578660010196505b61010087066001901b1984169350617baa876177a5565b95508b8d03861115617a5657505f888152600360209081526040808320888452600201825284519220546fffffffffffffffffffffffffffffffff16608088901b17828501820152018252600101617a73565b5050505050505050505b50505050565b7f4e487b71000000000000000000000000000000000000000000000000000000005f52601260045260245ffd5b8015158114617c47575f5ffd5b50565b5f60208284031215617c5a575f5ffd5b8151617c6581617c3a565b9392505050565b803573ffffffffffffffffffffffffffffffffffffffff81168114617c8f575f5ffd5b919050565b5f5f5f60608486031215617ca6575f5ffd5b8335925060208401359150617cbd60408501617c6c565b90509250925092565b5f5f60408385031215617cd7575f5ffd5b50508035926020909101359150565b5f81518084528060208401602086015e5f6020828601015260207fffffffffffffffffffffffffffffffffffffffffffffffffffffffffffffffe0601f83011685010191505092915050565b848152836020820152608060408201525f617d506080830185617ce6565b8281036060840152617d628185617ce6565b979650505050505050565b5f5f5f5f5f60a08688031215617d81575f5ffd5b8535617d8c81617c3a565b94506020860135617d9c81617c3a565b93506040860135617dac81617c3a565b94979396509394606081013594506080013592915050565b5f5f60408385031215617dd5575f5ffd5b617dde83617c6c565b9150617dec60208401617c6c565b90509250929050565b5f60208284031215617e05575f5ffd5b617c6582617c6c565b5f5f5f5f60808587031215617e21575f5ffd5b8435617e2c81617c3a565b966020860135965060408601359560600135945092505050565b602081525f617c656020830184617ce6565b5f60208284031215617e68575f5ffd5b5035919050565b5f5f83601f840112617e7f575f5ffd5b50813567ffffffffffffffff811115617e96575f5ffd5b6020830191508360208260051b8501011115617eb0575f5ffd5b9250929050565b5f5f5f5f5f5f5f5f60a0898b031215617ece575f5ffd5b883567ffffffffffffffff811115617ee4575f5ffd5b617ef08b828c01617e6f565b909950975050602089013567ffffffffffffffff811115617f0f575f5ffd5b617f1b8b828c01617e6f565b909750955050604089013567ffffffffffffffff811115617f3a575f5ffd5b617f468b828c01617e6f565b9095509350617f59905060608a01617c6c565b979a9699509497939692959194509192608001359150565b602080825282518282018190525f918401906040840190835b81811015617fa8578351835260209384019390920191600101617f8a565b509095945050505050565b5f5f5f5f5f5f5f5f610100898b031215617fcb575f5ffd5b8835617fd681617c3a565b97506020890135617fe681617c3a565b965060408901359550606089013594506080890135935060a0890135925061801060c08a01617c6c565b915061801e60e08a01617c6c565b90509295985092959890939650565b5f5f5f5f60808587031215618040575f5ffd5b843561804b81617c3a565b9350602085013592506040850135915061806760608601617c6c565b905092959194509250565b7f4e487b71000000000000000000000000000000000000000000000000000000005f52601160045260245ffd5b808201808211156180b2576180b2618072565b92915050565b5f7fffffffffffffffffffffffffffffffffffffffffffffffffffffffffffffffff82036180e8576180e8618072565b5060010190565b7f4e487b71000000000000000000000000000000000000000000000000000000005f52604160045260245ffd5b7f4e487b71000000000000000000000000000000000000000000000000000000005f52603260045260245ffdfea26469706673582212200778d918de445917247036b7ce92c856b200bda1eb16c4f71c3f9c3a0a5fb72064736f6c634300081c0033",
  "linkReferences": {},
  "deployedLinkReferences": {}
}