{
  "_format": "hh-sol-artifact-1",
  "contractName": "CrystalMarket1",
  "sourceName": "contracts/Crystal.sol",
  "abi": [
    {
      "inputs": [],
      "stateMutability": "nonpayable",
      "type": "constructor"
    },
    {
      "inputs": [],
      "name": "ActionFailed",
      "type": "error"
    },
    {
      "inputs": [],
      "name": "SlippageExceeded",
      "type": "error"
    },
    {
      "anonymous": false,
      "inputs": [
        {
          "indexed": true,
          "internalType": "address",
          "name": "caller",
          "type": "address"
        },
        {
          "indexed": true,
          "internalType": "address",
          "name": "market",
          "type": "address"
        },
        {
          "indexed": false,
          "internalType": "uint256",
          "name": "amounts",
          "type": "uint256"
        },
        {
          "indexed": false,
          "internalType": "uint256",
          "name": "info",
          "type": "uint256"
        },
        {
          "indexed": false,
          "internalType": "bytes",
          "name": "filled",
          "type": "bytes"
        }
      ],
      "name": "OrdersFilled",
      "type": "event"
    },
    {
      "anonymous": false,
      "inputs": [
        {
          "indexed": true,
          "internalType": "address",
          "name": "caller",
          "type": "address"
        },
        {
          "indexed": true,
          "internalType": "address",
          "name": "market",
          "type": "address"
        },
        {
          "indexed": false,
          "internalType": "bytes",
          "name": "orderData",
          "type": "bytes"
        }
      ],
      "name": "OrdersUpdated",
      "type": "event"
    },
    {
      "stateMutability": "nonpayable",
      "type": "fallback"
    },
    {
      "inputs": [
        {
          "internalType": "address",
          "name": "",
          "type": "address"
        }
      ],
      "name": "addressToUserId",
      "outputs": [
        {
          "internalType": "uint256",
          "name": "",
          "type": "uint256"
        }
      ],
      "stateMutability": "view",
      "type": "function"
    },
    {
      "inputs": [],
      "name": "baseAsset",
      "outputs": [
        {
          "internalType": "address",
          "name": "",
          "type": "address"
        }
      ],
      "stateMutability": "view",
      "type": "function"
    },
    {
      "inputs": [
        {
          "internalType": "uint256[]",
          "name": "actions",
          "type": "uint256[]"
        },
        {
          "internalType": "uint256[]",
          "name": "prices",
          "type": "uint256[]"
        },
        {
          "internalType": "uint256[]",
          "name": "param1",
          "type": "uint256[]"
        },
        {
          "internalType": "address",
          "name": "owner",
          "type": "address"
        },
        {
          "internalType": "uint256",
          "name": "referrer",
          "type": "uint256"
        }
      ],
      "name": "batchOrders",
      "outputs": [
        {
          "internalType": "uint256[]",
          "name": "returnData",
          "type": "uint256[]"
        }
      ],
      "stateMutability": "nonpayable",
      "type": "function"
    },
    {
      "inputs": [
        {
          "internalType": "uint256[]",
          "name": "actions",
          "type": "uint256[]"
        },
        {
          "internalType": "uint256[]",
          "name": "prices",
          "type": "uint256[]"
        },
        {
          "internalType": "uint256[]",
          "name": "param1",
          "type": "uint256[]"
        },
        {
          "internalType": "address",
          "name": "owner",
          "type": "address"
        },
        {
          "internalType": "uint256",
          "name": "referrer",
          "type": "uint256"
        }
      ],
      "name": "batchOrdersRequireSuccess",
      "outputs": [
        {
          "internalType": "uint256[]",
          "name": "returnData",
          "type": "uint256[]"
        }
      ],
      "stateMutability": "nonpayable",
      "type": "function"
    },
    {
      "inputs": [
        {
          "internalType": "uint256",
          "name": "price",
          "type": "uint256"
        },
        {
          "internalType": "uint256",
          "name": "id",
          "type": "uint256"
        },
        {
          "internalType": "address",
          "name": "caller",
          "type": "address"
        }
      ],
      "name": "cancelOrder",
      "outputs": [
        {
          "internalType": "uint256",
          "name": "size",
          "type": "uint256"
        }
      ],
      "stateMutability": "nonpayable",
      "type": "function"
    },
    {
      "inputs": [
        {
          "internalType": "address",
          "name": "",
          "type": "address"
        },
        {
          "internalType": "address",
          "name": "",
          "type": "address"
        }
      ],
      "name": "claimableRewards",
      "outputs": [
        {
          "internalType": "uint256",
          "name": "",
          "type": "uint256"
        }
      ],
      "stateMutability": "view",
      "type": "function"
    },
    {
      "inputs": [
        {
          "internalType": "uint256",
          "name": "distance",
          "type": "uint256"
        },
        {
          "internalType": "uint256",
          "name": "numLevels",
          "type": "uint256"
        }
      ],
      "name": "getDisplayPriceLevelsFromMid",
      "outputs": [
        {
          "internalType": "uint256",
          "name": "_highestBid",
          "type": "uint256"
        },
        {
          "internalType": "uint256",
          "name": "_lowestAsk",
          "type": "uint256"
        },
        {
          "internalType": "bytes",
          "name": "",
          "type": "bytes"
        },
        {
          "internalType": "bytes",
          "name": "",
          "type": "bytes"
        }
      ],
      "stateMutability": "view",
      "type": "function"
    },
    {
      "inputs": [],
      "name": "getPrice",
      "outputs": [
        {
          "internalType": "uint256",
          "name": "price",
          "type": "uint256"
        },
        {
          "internalType": "uint256",
          "name": "_highestBid",
          "type": "uint256"
        },
        {
          "internalType": "uint256",
          "name": "_lowestAsk",
          "type": "uint256"
        }
      ],
      "stateMutability": "view",
      "type": "function"
    },
    {
      "inputs": [
        {
          "internalType": "bool",
          "name": "isAscending",
          "type": "bool"
        },
        {
          "internalType": "uint256",
          "name": "startPrice",
          "type": "uint256"
        },
        {
          "internalType": "uint256",
          "name": "distance",
          "type": "uint256"
        },
        {
          "internalType": "uint256",
          "name": "max",
          "type": "uint256"
        }
      ],
      "name": "getPriceLevels",
      "outputs": [
        {
          "internalType": "bytes",
          "name": "",
          "type": "bytes"
        }
      ],
      "stateMutability": "view",
      "type": "function"
    },
    {
      "inputs": [
        {
          "internalType": "uint256",
          "name": "distance",
          "type": "uint256"
        },
        {
          "internalType": "uint256",
          "name": "max",
          "type": "uint256"
        }
      ],
      "name": "getPriceLevelsFromMid",
      "outputs": [
        {
          "internalType": "uint256",
          "name": "_highestBid",
          "type": "uint256"
        },
        {
          "internalType": "uint256",
          "name": "_lowestAsk",
          "type": "uint256"
        },
        {
          "internalType": "bytes",
          "name": "",
          "type": "bytes"
        },
        {
          "internalType": "bytes",
          "name": "",
          "type": "bytes"
        }
      ],
      "stateMutability": "view",
      "type": "function"
    },
    {
      "inputs": [
        {
          "internalType": "bool",
          "name": "isBuy",
          "type": "bool"
        },
        {
          "internalType": "bool",
          "name": "isExactInput",
          "type": "bool"
        },
        {
          "internalType": "bool",
          "name": "requireCompleteFill",
          "type": "bool"
        },
        {
          "internalType": "uint256",
          "name": "size",
          "type": "uint256"
        },
        {
          "internalType": "uint256",
          "name": "worstPrice",
          "type": "uint256"
        }
      ],
      "name": "getQuote",
      "outputs": [
        {
          "internalType": "uint256",
          "name": "amountIn",
          "type": "uint256"
        },
        {
          "internalType": "uint256",
          "name": "amountOut",
          "type": "uint256"
        }
      ],
      "stateMutability": "view",
      "type": "function"
    },
    {
      "inputs": [],
      "name": "gov",
      "outputs": [
        {
          "internalType": "address",
          "name": "",
          "type": "address"
        }
      ],
      "stateMutability": "view",
      "type": "function"
    },
    {
      "inputs": [],
      "name": "latestUserId",
      "outputs": [
        {
          "internalType": "uint256",
          "name": "",
          "type": "uint256"
        }
      ],
      "stateMutability": "view",
      "type": "function"
    },
    {
      "inputs": [
        {
          "internalType": "bool",
          "name": "isBuy",
          "type": "bool"
        },
        {
          "internalType": "uint256",
          "name": "price",
          "type": "uint256"
        },
        {
          "internalType": "uint256",
          "name": "size",
          "type": "uint256"
        },
        {
          "internalType": "address",
          "name": "caller",
          "type": "address"
        }
      ],
      "name": "limitOrder",
      "outputs": [
        {
          "internalType": "uint256",
          "name": "id",
          "type": "uint256"
        }
      ],
      "stateMutability": "nonpayable",
      "type": "function"
    },
    {
      "inputs": [],
      "name": "market",
      "outputs": [
        {
          "internalType": "address",
          "name": "",
          "type": "address"
        }
      ],
      "stateMutability": "view",
      "type": "function"
    },
    {
      "inputs": [
        {
          "internalType": "bool",
          "name": "isBuy",
          "type": "bool"
        },
        {
          "internalType": "bool",
          "name": "isExactInput",
          "type": "bool"
        },
        {
          "internalType": "uint256",
          "name": "STP",
          "type": "uint256"
        },
        {
          "internalType": "uint256",
          "name": "orderType",
          "type": "uint256"
        },
        {
          "internalType": "uint256",
          "name": "size",
          "type": "uint256"
        },
        {
          "internalType": "uint256",
          "name": "worstPrice",
          "type": "uint256"
        },
        {
          "internalType": "address",
          "name": "caller",
          "type": "address"
        },
        {
          "internalType": "address",
          "name": "referrer",
          "type": "address"
        }
      ],
      "name": "marketOrder",
      "outputs": [
        {
          "internalType": "uint256",
          "name": "amountIn",
          "type": "uint256"
        },
        {
          "internalType": "uint256",
          "name": "amountOut",
          "type": "uint256"
        },
        {
          "internalType": "uint256",
          "name": "id",
          "type": "uint256"
        }
      ],
      "stateMutability": "nonpayable",
      "type": "function"
    },
    {
      "inputs": [
        {
          "internalType": "address",
          "name": "",
          "type": "address"
        }
      ],
      "name": "markets",
      "outputs": [
        {
          "internalType": "uint80",
          "name": "highestBid",
          "type": "uint80"
        },
        {
          "internalType": "uint80",
          "name": "lowestAsk",
          "type": "uint80"
        },
        {
          "internalType": "uint32",
          "name": "minSize",
          "type": "uint32"
        },
        {
          "internalType": "uint24",
          "name": "takerFee",
          "type": "uint24"
        },
        {
          "internalType": "uint24",
          "name": "makerRebate",
          "type": "uint24"
        },
        {
          "internalType": "uint8",
          "name": "feeCommission",
          "type": "uint8"
        },
        {
          "internalType": "uint8",
          "name": "feeRebate",
          "type": "uint8"
        }
      ],
      "stateMutability": "view",
      "type": "function"
    },
    {
      "inputs": [],
      "name": "maxPrice",
      "outputs": [
        {
          "internalType": "uint256",
          "name": "",
          "type": "uint256"
        }
      ],
      "stateMutability": "view",
      "type": "function"
    },
    {
      "inputs": [],
      "name": "quoteAsset",
      "outputs": [
        {
          "internalType": "address",
          "name": "",
          "type": "address"
        }
      ],
      "stateMutability": "view",
      "type": "function"
    },
    {
      "inputs": [],
      "name": "router",
      "outputs": [
        {
          "internalType": "address",
          "name": "",
          "type": "address"
        }
      ],
      "stateMutability": "view",
      "type": "function"
    },
    {
      "inputs": [],
      "name": "scaleFactor",
      "outputs": [
        {
          "internalType": "uint256",
          "name": "",
          "type": "uint256"
        }
      ],
      "stateMutability": "view",
      "type": "function"
    },
    {
      "inputs": [],
      "name": "tickSize",
      "outputs": [
        {
          "internalType": "uint256",
          "name": "",
          "type": "uint256"
        }
      ],
      "stateMutability": "view",
      "type": "function"
    },
    {
      "inputs": [
        {
          "internalType": "uint256",
          "name": "",
          "type": "uint256"
        }
      ],
      "name": "userIdToAddress",
      "outputs": [
        {
          "internalType": "address",
          "name": "",
          "type": "address"
        }
      ],
      "stateMutability": "view",
      "type": "function"
    }
  ],
  "bytecode": "0x610160604052348015610010575f5ffd5b505f336001600160a01b031663890357306040518163ffffffff1660e01b815260040160a060405180830381865afa15801561004e573d5f5f3e3d5ffd5b505050506040513d601f19601f8201168201806040525081019061007291906100f7565b6001600160501b031661014052610120526001600160a01b0391821660c08190529290911660a0819052909250148015906100b757506001600160501b036101405111155b6100bf575f5ffd5b6100ca81600a610254565b6101005250336080523060e052610266565b80516001600160a01b03811681146100f2575f5ffd5b919050565b5f5f5f5f5f60a0868803121561010b575f5ffd5b610114866100dc565b9450610122602087016100dc565b60408701516060880151608089015192965090945092506001600160501b038116811461014d575f5ffd5b809150509295509295909350565b634e487b7160e01b5f52601160045260245ffd5b6001815b60018411156101aa5780850481111561018e5761018e61015b565b600184161561019c57908102905b60019390931c928002610173565b935093915050565b5f826101c05750600161024e565b816101cc57505f61024e565b81600181146101e257600281146101ec57610208565b600191505061024e565b60ff8411156101fd576101fd61015b565b50506001821b61024e565b5060208310610133831016604e8410600b841016171561022b575081810a61024e565b6102375f19848461016f565b805f190482111561024a5761024a61015b565b0290505b92915050565b5f61025f83836101b2565b9392505050565b60805160a05160c05160e0516101005161012051610140516182546105b95f395f8181611020015281816117e401528181611bcc0152818161442801528181614bc5015261791a01525f818161105a01528181611999015281816176910152818161788801526178d001525f81816101fb015281816102d901528181610581015281816107d301528181610d56015281816117ac0152818161183201528181611e3101528181611e69015281816120a5015281816122980152818161242a01528181612487015281816124bf015281816125130152818161254b0152818161256e015281816125c0015281816127a1015281816127f50152818161284e0152818161286f015281816128f60152818161294f01528181612970015281816129df01528181612a3a01528181613872015281816138c801528181613f1c015281816145a3015281816145de015281816146160152818161465a01528181614692015281816146b5015281816147110152818161474b01528181614792015281816147b3015281816148010152818161484801528181614869015281816148ac01528181614d8d01528181614f4601528181615482015281816159350152818161608e01528181616204015281816166b5015281816169c701528181616cb401526172fc01525f8181610c3b01528181610dc2015281816110f4015281816116c201528181611b1d015281816120ec015281816122df015281816132a50152818161372f015281816137ca01528181613fde015281816141c4015281816142d20152818161438d01528181614b6f01528181615eeb01528181616d8401528181616f87015281816173c8015281816175b9015261794801525f8181610af101528181610bb501528181610fc60152818161261a01528181612a8c01528181612fb90152818161303701528181613109015281816131b2015281816140d301528181615d0501528181615dff01528181616e870152818161707f01526174bd01525f818161096901528181610a2d015281816110bb0152818161264001528181612ab20152818161339301528181613411015281816134e30152818161358c01528181613ecd01528181615b1901528181615c1301528181616c640152818161717001526172ac01525f61109401526182545ff3fe608060405234801561000f575f5ffd5b506004361061018b575f3560e01c806399646683116100e1578063e38d6b5c1161008a578063f2a8ed3011610064578063f2a8ed301461107c578063f887ea401461108f578063fdf262b7146110b65761018b565b8063e38d6b5c1461101b578063e690552b14611042578063f210d087146110555761018b565b8063cdf456e1116100bb578063cdf456e114610fc1578063d2f2f2e814610fe8578063da893f24146110085761018b565b80639964668314610f4d578063b169520114610f6d578063b5ffbbcc14610fa25761018b565b8063683dd1911161014357806380f556051161011d57806380f5560514610dbd5780638e8f294b14610de457806398d5fdca14610f2a5761018b565b8063683dd19114610d515780636be9dcce14610d78578063776d945414610da25761018b565b8063258dbc4c11610174578063258dbc4c14610cf3578063598d85f214610d06578063638571e314610d295761018b565b80630facece514610c9357806312d43a5114610caf575b60c06040525f8035906020908080808080805b3688101561092657873596508660801c69ffffffffffffffffffff169550866fffffffffffffffffffffffffffffffff16945060fc87901c6001036102b3576101e886868b6110dd565b909750925086156102ae578215610232577f0000000000000000000000000000000000000000000000000000000000000000878161022857610228617ce2565b0482039150610245565b85878161024157610241617ce2565b0490035b60a051878660801b178760a81b17847f1000000000000000000000000000000000000000000000000000000000000000027f2000000000000000000000000000000000000000000000000000000000000000011760c08201526020810160a05260e08101604052505b61091b565b60fc87901c60020361035a576102cc600187878c6116ab565b909750945086156102ae577f0000000000000000000000000000000000000000000000000000000000000000878161030657610306617ce2565b048201915060018417935060a051878660801b178760a81b177f10000000000000000000000000000000000000000000000000000000000000001760c08201526020810160a05260e081016040525061091b565b60fc87901c6003036103be576103725f87878c6116ab565b909750945086156102ae5785878161038c5761038c617ce2565b048101905060028417935060a051878660801b178760a81b1760c08201526020810160a05260e081016040525061091b565b60fc87901c60041480156103d3575060028416155b15610457575f6104458633605081901b73ffffffffffffffffffffffffffffffffffffffff168a17907effffffffffffffffffffffffffffffffffffffffffffffffffffffffffffff7e0100000000000000000000000000000000000000000000000000000000000090911716611b06565b919a50508901909203915061091b9050565b60fc87901c600514801561046c575060018416155b156104f0575f6104de8633605081901b73ffffffffffffffffffffffffffffffffffffffff168a17907effffffffffffffffffffffffffffffffffffffffffffffffffffffffffffff7e1100000000000000000000000000000000000000000000000000000000000090911716611b06565b919a50508901909303925061091b9050565b60fc87901c6006148015610505575060028416155b15610604575f6105558633605081901b73ffffffffffffffffffffffffffffffffffffffff168a17907f200100000000000000000000000000000000000000000000000000000000000017611b06565b919a5097506fffffffffffffffffffffffffffffffff81168a019093039291505085156105fe5760801c7f000000000000000000000000000000000000000000000000000000000000000081816105ae576105ae617ce2565b048301925060018517945060a051818760801b178860a81b177f10000000000000000000000000000000000000000000000000000000000000001760c08201526020810160a05260e08101604052505b5061091b565b60fc87901c6007148015610619575060018416155b156106d5575f6106698633605081901b73ffffffffffffffffffffffffffffffffffffffff168a17907f201100000000000000000000000000000000000000000000000000000000000017611b06565b919a5097506fffffffffffffffffffffffffffffffff81168a019094039391505085156105fe5760801c8681816106a2576106a2617ce2565b048201915060028517945060a051818760801b178860a81b1760c08201526020810160a05260e08101604052505061091b565b60fc87901c60081480156106ea575060028416155b1561073a575f6104458633605081901b73ffffffffffffffffffffffffffffffffffffffff168a17907f300100000000000000000000000000000000000000000000000000000000000017611b06565b600960fc88901c14801561074f575060018416155b1561079f575f6104de8633605081901b73ffffffffffffffffffffffffffffffffffffffff168a17907f301100000000000000000000000000000000000000000000000000000000000017611b06565b60fc87901c600a0361091b575f6107c38760d08a901c64ffffffffff16888d6137b3565b9197509094509050831561080a577f0000000000000000000000000000000000000000000000000000000000000000818161080057610800617ce2565b048303925061081f565b86818161081957610819617ce2565b04820391505b855f0361089d5760a0518664ffffffffff8a60d01c1660801b178860a81b17857f1000000000000000000000000000000000000000000000000000000000000000027f2000000000000000000000000000000000000000000000000000000000000000011760c08201526020810160a05260e0810160405250610919565b83156001018517945060a0518664ffffffffff8a60d01c1660801b178860a81b17857f1000000000000000000000000000000000000000000000000000000000000000027f4000000000000000000000000000000000000000000000000000000000000000011760c08201526020810160a05260e08101604052505b505b60208801975061019e565b5f8213156109ee576040517f23b872dd000000000000000000000000000000000000000000000000000000008152336004820152306024820152604481018390527f000000000000000000000000000000000000000000000000000000000000000073ffffffffffffffffffffffffffffffffffffffff16906323b872dd906064016020604051808303815f875af11580156109c4573d5f5f3e3d5ffd5b505050506040513d601f19601f820116820180604052508101906109e89190617d1f565b50610aae565b5f821215610aae576040517fa9059cbb0000000000000000000000000000000000000000000000000000000081523360048201525f83900360248201527f000000000000000000000000000000000000000000000000000000000000000073ffffffffffffffffffffffffffffffffffffffff169063a9059cbb906044016020604051808303815f875af1158015610a88573d5f5f3e3d5ffd5b505050506040513d601f19601f82011682018060405250810190610aac9190617d1f565b505b5f811315610b76576040517f23b872dd000000000000000000000000000000000000000000000000000000008152336004820152306024820152604481018290527f000000000000000000000000000000000000000000000000000000000000000073ffffffffffffffffffffffffffffffffffffffff16906323b872dd906064016020604051808303815f875af1158015610b4c573d5f5f3e3d5ffd5b505050506040513d601f19601f82011682018060405250810190610b709190617d1f565b50610c36565b5f811215610c36576040517fa9059cbb0000000000000000000000000000000000000000000000000000000081523360048201525f82900360248201527f000000000000000000000000000000000000000000000000000000000000000073ffffffffffffffffffffffffffffffffffffffff169063a9059cbb906044016020604051808303815f875af1158015610c10573d5f5f3e3d5ffd5b505050506040513d601f19601f82011682018060405250810190610c349190617d1f565b505b60a0517f0000000000000000000000000000000000000000000000000000000000000000908015610c9157602060805233827f7ebb55d14fb18179d0ee498ab0f21c070fad7368e44487d51cdac53d6f74812c604084016080a35b005b610c9c60055481565b6040519081526020015b60405180910390f35b5f54610cce9073ffffffffffffffffffffffffffffffffffffffff1681565b60405173ffffffffffffffffffffffffffffffffffffffff9091168152602001610ca6565b610c9c610d01366004617d69565b613e86565b610d19610d14366004617d9b565b6142bb565b604051610ca69493929190617e07565b610d3c610d37366004617e42565b614376565b60408051928352602083019190915201610ca6565b610c9c7f000000000000000000000000000000000000000000000000000000000000000081565b610c9c610d86366004617e99565b600460209081525f928352604080842090915290825290205481565b610d19610db0366004617d9b565b505f918291506060908190565b610cce7f000000000000000000000000000000000000000000000000000000000000000081565b610ed4610df2366004617eca565b60036020525f908152604090205469ffffffffffffffffffff808216916a010000000000000000000081049091169063ffffffff740100000000000000000000000000000000000000008204169062ffffff780100000000000000000000000000000000000000000000000082048116917b0100000000000000000000000000000000000000000000000000000081049091169060ff7e0100000000000000000000000000000000000000000000000000000000000082048116917f010000000000000000000000000000000000000000000000000000000000000090041687565b6040805169ffffffffffffffffffff988916815297909616602088015263ffffffff9094169486019490945262ffffff918216606086015216608084015260ff91821660a08401521660c082015260e001610ca6565b610f32614b58565b60408051938452602084019290925290820152606001610ca6565b610f60610f5b366004617ee3565b614c34565b604051610ca69190617f1b565b610cce610f7b366004617f2d565b60016020525f908152604090205473ffffffffffffffffffffffffffffffffffffffff1681565b610c9c610fb0366004617eca565b60026020525f908152604090205481565b610cce7f000000000000000000000000000000000000000000000000000000000000000081565b610ffb610ff6366004617f8c565b614c56565b604051610ca69190618046565b610ffb611016366004617f8c565b615f57565b610c9c7f000000000000000000000000000000000000000000000000000000000000000081565b610f32611050366004618088565b616b4e565b610c9c7f000000000000000000000000000000000000000000000000000000000000000081565b610c9c61108a366004618102565b617265565b610cce7f000000000000000000000000000000000000000000000000000000000000000081565b610cce7f000000000000000000000000000000000000000000000000000000000000000081565b73ffffffffffffffffffffffffffffffffffffffff7f0000000000000000000000000000000000000000000000000000000000000000165f90815260036020818152604080842087855292830182528084208685529091528220546fffffffffffffffffffffffffffffffff81169291908315806111665750608081901c64ffffffffff168514155b156111725750506116a3565b5f8781526003830160209081526040808320898452909152812055815469ffffffffffffffffffff808216916a01000000000000000000009004168189116111bd57600194506111c1565b5f94505b5f89815260028501602052604090205486900364ffffffffff608082901c16890361122a577fffffffffffffffffffffff0000000000ffffffffffffffffffffffffffffffff1674ffffffffff00000000000000000000000000000000605085901c16176113af565b60a881901c64ffffffffff1689036112ef575f8a8152600386016020908152604080832064ffffffffff60a889901c168452909152902080547fff0000000000ffffffffffffffffffffffffffffffffffffffffffffffffffff167effffffffff000000000000000000000000000000000000000000000000000086161790557fffffffffffff0000000000ffffffffffffffffffffffffffffffffffffffffff1679ffffffffff0000000000000000000000000000000000000000008416176113af565b5f8a8152600386016020908152604080832064ffffffffff60a889901c81168552925280832080547fff0000000000ffffffffffffffffffffffffffffffffffffffffffffffffffff167effffffffff0000000000000000000000000000000000000000000000000000891617905560d087901c9091168252902080547fffffffffffff0000000000ffffffffffffffffffffffffffffffffffffffffff1679ffffffffff00000000000000000000000000000000000000000086161790555b5f8a815260028601602052604081208290556fffffffffffffffffffffffffffffffff8216900361169d575f6113e48b61768e565b600881901c5f81815260018981016020526040909120805460ff85169290921b199091169081905591925090848d036115435761010083061c5b805f03611447575060019081015f818152918801602052604090912054600882901b925061141e565b806fffffffffffffffffffffffffffffffff165f03611468576080928301921c5b8067ffffffffffffffff165f03611481576040928301921c5b8063ffffffff165f03611496576020928301921c5b8061ffff165f036114a9576010928301921c5b8060ff165f036114bb576008928301921c5b80600f165f036114cd576004928301921c5b806003165f036114df576002928301921c5b806001165f036114f0578260010192505b6114f98361787a565b885469ffffffffffffffffffff919091166a0100000000000000000000027fffffffffffffffffffffffff00000000000000000000ffffffffffffffffffff909116178855611699565b858d03611699577fffffffffffffffffffffffffffffffffffffffffffffffffffffffffffffffff600160ff85161b01165b805f036115b457507fffffffffffffffffffffffffffffffffffffffffffffffffffffffffffffffff015f818152600188016020526040902054611575565b600882901b925070010000000000000000000000000000000081106115db576080928301921c5b6801000000000000000081106115f3576040928301921c5b6401000000008110611607576020928301921c5b620100008110611619576010928301921c5b610100811061162a576008928301921c5b6010811061163a576004928301921c5b6004811061164a576002928301921c5b60028110611659578260010192505b6116628361787a565b88547fffffffffffffffffffffffffffffffffffffffffffff000000000000000000001669ffffffffffffffffffff919091161788555b5050505b50505050505b935093915050565b73ffffffffffffffffffffffffffffffffffffffff7f0000000000000000000000000000000000000000000000000000000000000000165f908152600360205260408120805482919069ffffffffffffffffffff808216916a010000000000000000000090041688156117d4578088101580611725575087155b806117515750825474010000000000000000000000000000000000000000900463ffffffff16600a0a87105b8061175a575085155b1561176d575f5f94509450505050611afd565b818811156117aa5782547fffffffffffffffffffffffffffffffffffffffffffff000000000000000000001669ffffffffffffffffffff89161783555b7f0000000000000000000000000000000000000000000000000000000000000000870296506118c8565b95870295818811158061180757507f00000000000000000000000000000000000000000000000000000000000000008810155b806118625750825474010000000000000000000000000000000000000000900463ffffffff16600a0a7f0000000000000000000000000000000000000000000000000000000000000000888161185f5761185f617ce2565b04105b8061186b575085155b1561187e575f5f94509450505050611afd565b808810156118c85782547fffffffffffffffffffffffff00000000000000000000ffffffffffffffffffff166a010000000000000000000069ffffffffffffffffffff8a16021783555b6fffffffffffffffffffffffffffffffff871115611947576040517f08c379a000000000000000000000000000000000000000000000000000000000815260206004820152600e60248201527f73697a6520746f6f206c6172676500000000000000000000000000000000000060448201526064015b60405180910390fd5b5f8881526002840160205260408120549064ffffffffff608083901c16900361197e57700100000000000000000000000000000000175b806fffffffffffffffffffffffffffffffff165f03611a60577f000000000000000000000000000000000000000000000000000000000000000089816119c6576119c6617ce2565b0615611a2e576040517f08c379a000000000000000000000000000000000000000000000000000000000815260206004820181905260248201527f7072696365206e6f7420646976697369626c65206279207469636b2073697a65604482015260640161193e565b5f611a388a61768e565b90506101008160089290921c5f908152600187810160205260409091208054929093061b1790555b5f898152600385016020908152604080832060d085811c64ffffffffff166001810180875292855283862060808e901b79ffffffffff00000000000000000000000000000000000000000089166002938401851b17178f1790558e865290980190925290912074ffffffffffffffffffffffffffffffffffffffffff909216890160a882901b9582901b9590951794909417905550859350909150505b94509492505050565b73ffffffffffffffffffffffffffffffffffffffff7f0000000000000000000000000000000000000000000000000000000000000000165f90815260036020526040812081908190819081600f60f888901c1615611bbc5781547801000000000000000000000000000000000000000000000000900462ffffff16620186a08a0281017fffffffffffffffffffffffffffffffffffffffffffffffffffffffffffffffff0181611bb857611bb8617ce2565b0498505b60f487901c600f165f03611c4c577f000000000000000000000000000000000000000000000000000000000000000069ffffffffffffffffffff89168111611c295760018103897fffffffffffffffffffffffffffffffffffffffffffff00000000000000000000161798505b505080546a0100000000000000000000900469ffffffffffffffffffff16611c76565b8769ffffffffffffffffffff165f03611c66576001880197505b50805469ffffffffffffffffffff165b5f60606040510190505f8152602081016040525f611c938361768e565b600881901c5f9081526001860160205260409020549091505b600f60f88b901c1615611cc157878c11611cc5565b888c115b15612f3f57600f60f48b901c1615611ceb578a69ffffffffffffffffffff168410611cfb565b8a69ffffffffffffffffffff1684115b15611f0c5760fc8a901c600103611d3e576040517f8199f5f300000000000000000000000000000000000000000000000000000000815260040160405180910390fd5b600882901c5f9081526001860160205260409020548114611d7157600882901c5f90815260018601602052604090208190555b60fc8a901c600203611f0757600f60f48b901c1615611dc45784547fffffffffffffffffffffffffffffffffffffffffffff000000000000000000001669ffffffffffffffffffff851617855583611e07565b84547fffffffffffffffffffffffff00000000000000000000ffffffffffffffffffff166a010000000000000000000069ffffffffffffffffffff861602178555835b50600f60f88b901c1615611ea657600f60f48b901c1615611e67578a69ffffffffffffffffffff167f0000000000000000000000000000000000000000000000000000000000000000898e030281611e6157611e61617ce2565b04611eaa565b7f00000000000000000000000000000000000000000000000000000000000000008b69ffffffffffffffffffff16898e030281611e6157611e61617ce2565b888c035b73ffffffffffffffffffffffffffffffffffffffff8b165f908152600260205260409020548b9350909150611ef890600f60f485901c16159069ffffffffffffffffffff8e169084906116ab565b9750608081901b969096179590505b612f3f565b5f84815260028601602052604081205490600f60f88d901c1615611f3257898e03611f36565b8a8e035b5f87815260028901602052604090205490915060801c64ffffffffff168c5b6fffffffffffffffffffffffffffffffff841615801590611f7557508215155b8015611f94575060fc81901c6003148015611f925750620186a05a105b155b15612bf2575f88815260038a016020908152604080832085845282528083205464ffffffffff608082901c16845260019092529091205473ffffffffffffffffffffffffffffffffffffffff16600f60f084901c161580159061202257508273ffffffffffffffffffffffffffffffffffffffff168173ffffffffffffffffffffffffffffffffffffffff16145b156123f75760f083901c600f16600103612201575f8a815260038c016020908152604080832087845290915281208190556fffffffffffffffffffffffffffffffff831690960395600f60f485901c1690036120a35789826fffffffffffffffffffffffffffffffff168161209957612099617ce2565b048c019b506120ea565b7f0000000000000000000000000000000000000000000000000000000000000000826fffffffffffffffffffffffffffffffff16816120e4576120e4617ce2565b048c019b505b7f000000000000000000000000000000000000000000000000000000000000000073ffffffffffffffffffffffffffffffffffffffff168173ffffffffffffffffffffffffffffffffffffffff167f7ebb55d14fb18179d0ee498ab0f21c070fad7368e44487d51cdac53d6f74812c846fffffffffffffffffffffffffffffffff16608088901b60a88f901b7f30000000000000000000000000000000000000000000000000000000000000001717176040516020016121ac91815260200190565b604080517fffffffffffffffffffffffffffffffffffffffffffffffffffffffffffffffe0818403018152908290526121e491617f1b565b60405180910390a360d082901c64ffffffffff1693505050611f55565b60f083901c600f1660020361221a575f94505050612bf2565b60f083901c600f166003036123f7575f8a815260038c016020908152604080832087845290915281208190556fffffffffffffffffffffffffffffffff831690960395600f60f485901c1690036122965789826fffffffffffffffffffffffffffffffff168161228c5761228c617ce2565b048c019b506122dd565b7f0000000000000000000000000000000000000000000000000000000000000000826fffffffffffffffffffffffffffffffff16816122d7576122d7617ce2565b048c019b505b7f000000000000000000000000000000000000000000000000000000000000000073ffffffffffffffffffffffffffffffffffffffff168173ffffffffffffffffffffffffffffffffffffffff167f7ebb55d14fb18179d0ee498ab0f21c070fad7368e44487d51cdac53d6f74812c846fffffffffffffffffffffffffffffffff16608088901b60a88f901b7f300000000000000000000000000000000000000000000000000000000000000017171760405160200161239f91815260200190565b604080517fffffffffffffffffffffffffffffffffffffffffffffffffffffffffffffffe0818403018152908290526123d791617f1b565b60405180910390a360d082901c64ffffffffff1693505f94505050612bf2565b60f483901c600f1660f884901c600f161461242857898502826fffffffffffffffffffffffffffffffff1611612460565b7f00000000000000000000000000000000000000000000000000000000000000008502826fffffffffffffffffffffffffffffffff16115b1561276b57600f60f884901c161561247857846124ef565b600f60f484901c16156124bc577f00000000000000000000000000000000000000000000000000000000000000008a8602816124b6576124b6617ce2565b046124ef565b897f00000000000000000000000000000000000000000000000000000000000000008602816124ed576124ed617ce2565b045b909d019c600f60f884901c16156125a457600f60f484901c1615612549578960018b7f0000000000000000000000000000000000000000000000000000000000000000880201038161254357612543617ce2565b046125a1565b7f000000000000000000000000000000000000000000000000000000000000000060017f00000000000000000000000000000000000000000000000000000000000000008c880201038161259f5761259f617ce2565b045b94505b9d84019d5f600f60f485901c16156125be578a86026125e2565b7f000000000000000000000000000000000000000000000000000000000000000086025b5f8c815260038e01602090815260408083208984529091529020938190039384905596879003969050600f60f485901c161561263e577f0000000000000000000000000000000000000000000000000000000000000000612660565b7f00000000000000000000000000000000000000000000000000000000000000005b73ffffffffffffffffffffffffffffffffffffffff166323b872dd600160ec87901c161561268e5733612690565b855b6040517fffffffff0000000000000000000000000000000000000000000000000000000060e084901b16815273ffffffffffffffffffffffffffffffffffffffff91821660048201529085166024820152604481018990526064016020604051808303815f875af1158015612707573d5f5f3e3d5ffd5b505050506040513d601f19601f8201168201806040525081019061272b9190617d1f565b505f95508951836fffffffffffffffffffffffffffffffff168660801b178c60a81b1760208c01820152602081018b5260408b0181016040525050612beb565b600f60f484901c161561279f5789826fffffffffffffffffffffffffffffffff168161279957612799617ce2565b046127e2565b7f0000000000000000000000000000000000000000000000000000000000000000826fffffffffffffffffffffffffffffffff16816127e0576127e0617ce2565b045b909e019d600f60f484901c161561284b577f00000000000000000000000000000000000000000000000000000000000000008a8b846fffffffffffffffffffffffffffffffff168161283657612836617ce2565b04028161284557612845617ce2565b046128bf565b897f00000000000000000000000000000000000000000000000000000000000000007f0000000000000000000000000000000000000000000000000000000000000000846fffffffffffffffffffffffffffffffff16816128ae576128ae617ce2565b0402816128bd576128bd617ce2565b045b909d019c6fffffffffffffffffffffffffffffffff821690950394600f60f884901c16156129af57600f60f484901c161561294c577f00000000000000000000000000000000000000000000000000000000000000008a8b846fffffffffffffffffffffffffffffffff168161293757612937617ce2565b04028161294657612946617ce2565b04612a20565b897f00000000000000000000000000000000000000000000000000000000000000007f0000000000000000000000000000000000000000000000000000000000000000846fffffffffffffffffffffffffffffffff168161293757612937617ce2565b600f60f484901c16156129dd5789826fffffffffffffffffffffffffffffffff168161294657612946617ce2565b7f0000000000000000000000000000000000000000000000000000000000000000826fffffffffffffffffffffffffffffffff1681612a1e57612a1e617ce2565b045b909403935f600f60f485901c1615612a38578a612a5a565b7f00000000000000000000000000000000000000000000000000000000000000005b836fffffffffffffffffffffffffffffffff1681612a7a57612a7a617ce2565b049050600f60f485901c1615612ab0577f0000000000000000000000000000000000000000000000000000000000000000612ad2565b7f00000000000000000000000000000000000000000000000000000000000000005b73ffffffffffffffffffffffffffffffffffffffff166323b872dd600160ec87901c1615612b005733612b02565b855b6040517fffffffff0000000000000000000000000000000000000000000000000000000060e084901b16815273ffffffffffffffffffffffffffffffffffffffff91821660048201529085166024820152604481018490526064016020604051808303815f875af1158015612b79573d5f5f3e3d5ffd5b505050506040513d601f19601f82011682018060405250810190612b9d9190617d1f565b5050885160a88b901b608086901b17818b016020818101929092529181018b52604091820182525f8c815260038e01825282812096815295905284209390935564ffffffffff60d082901c16925b5050611f55565b505f878152600289016020526040812060809290921b7fffffffffffffffffffffff0000000000ffffffffffffffffffffffffffffffff8516179091556fffffffffffffffffffffffffffffffff83169003612edb57600160ff85161b199290921691600884901c60f48d901c600f165f03612d805760ff851684901c80158015612c8c57505f82815260018a0160205260409020548514155b15612ca4575f82815260018a01602052604090208590555b5b805f03612cd1575060019081015f818152918901602052604090912054600882901b9550935083612ca5565b806fffffffffffffffffffffffffffffffff165f03612cf2576080958601951c5b8067ffffffffffffffff165f03612d0b576040958601951c5b8063ffffffff165f03612d20576020958601951c5b8061ffff165f03612d33576010958601951c5b8060ff165f03612d45576008958601951c5b80600f165f03612d57576004958601951c5b806003165f03612d69576002958601951c5b806001165f03612d7a578560010195505b50612eca565b7fffffffffffffffffffffffffffffffffffffffffffffffffffffffffffffffff600160ff87161b01841680158015612dc857505f82815260018a0160205260409020548514155b15612de0575f82815260018a01602052604090208590555b5b805f03612e2357507fffffffffffffffffffffffffffffffffffffffffffffffffffffffffffffffff015f818152600189016020526040902054935083612de1565b600882901b95507001000000000000000000000000000000008110612e4a576080958601951c5b680100000000000000008110612e62576040958601951c5b6401000000008110612e76576020958601951c5b620100008110612e88576010958601951c5b6101008110612e99576008958601951c5b60108110612ea9576004958601951c5b60048110612eb9576002958601951c5b60028110612ec8578560010195505b505b612ed38561787a565b965050612f0e565b600884901c5f9081526001880160205260409020548314612f0e57600884901c5f90815260018801602052604090208390555b801580612f2c575060fc8c901c6003148015612f2c5750620186a05a105b15612f38575050612f3f565b5050611cac565b505085156137a0578254620186a0780100000000000000000000000000000000000000000000000090910462ffffff16870204808703600f60f48b901c165f0361335d5760508b901c73ffffffffffffffffffffffffffffffffffffffff166130005773ffffffffffffffffffffffffffffffffffffffff7f000000000000000000000000000000000000000000000000000000000000000081165f9081526004602090815260408083208354909416835292905220805482019055613274565b84545f906064907e01000000000000000000000000000000000000000000000000000000000000900460ff1683020490508060045f7f000000000000000000000000000000000000000000000000000000000000000073ffffffffffffffffffffffffffffffffffffffff1673ffffffffffffffffffffffffffffffffffffffff1681526020019081526020015f205f60508f901c73ffffffffffffffffffffffffffffffffffffffff1673ffffffffffffffffffffffffffffffffffffffff1681526020019081526020015f205f82825401925050819055505f6064875f01601f9054906101000a900460ff1660ff1684028161310057613100617ce2565b0490508060045f7f000000000000000000000000000000000000000000000000000000000000000073ffffffffffffffffffffffffffffffffffffffff1673ffffffffffffffffffffffffffffffffffffffff1681526020019081526020015f205f8e73ffffffffffffffffffffffffffffffffffffffff1673ffffffffffffffffffffffffffffffffffffffff1681526020019081526020015f205f8282540192505081905550808284030360045f7f000000000000000000000000000000000000000000000000000000000000000073ffffffffffffffffffffffffffffffffffffffff1673ffffffffffffffffffffffffffffffffffffffff1681526020019081526020015f205f5f5f9054906101000a900473ffffffffffffffffffffffffffffffffffffffff1673ffffffffffffffffffffffffffffffffffffffff1673ffffffffffffffffffffffffffffffffffffffff1681526020019081526020015f205f828254019250508190555050505b83855f01600a6101000a81548169ffffffffffffffffffff021916908369ffffffffffffffffffff1602179055505f7f000000000000000000000000000000000000000000000000000000000000000090508351838b60801b1760608603528085015160b01c602086015160b01c60801b177f1000000000000000000000000000000000000000000000000000000000000000176040860352606060208603528b73ffffffffffffffffffffffffffffffffffffffff16827f148472d48b5f9f0984f0caca96309b4b66b6e42ab16d2a632c84730c5a38b5686080840160608903a35050613794565b60508b901c73ffffffffffffffffffffffffffffffffffffffff166133da5773ffffffffffffffffffffffffffffffffffffffff7f000000000000000000000000000000000000000000000000000000000000000081165f908152600460209081526040808320835490941683529290522080548201905561364e565b84545f906064907e01000000000000000000000000000000000000000000000000000000000000900460ff1683020490508060045f7f000000000000000000000000000000000000000000000000000000000000000073ffffffffffffffffffffffffffffffffffffffff1673ffffffffffffffffffffffffffffffffffffffff1681526020019081526020015f205f60508f901c73ffffffffffffffffffffffffffffffffffffffff1673ffffffffffffffffffffffffffffffffffffffff1681526020019081526020015f205f82825401925050819055505f6064875f01601f9054906101000a900460ff1660ff168402816134da576134da617ce2565b0490508060045f7f000000000000000000000000000000000000000000000000000000000000000073ffffffffffffffffffffffffffffffffffffffff1673ffffffffffffffffffffffffffffffffffffffff1681526020019081526020015f205f8e73ffffffffffffffffffffffffffffffffffffffff1673ffffffffffffffffffffffffffffffffffffffff1681526020019081526020015f205f8282540192505081905550808284030360045f7f000000000000000000000000000000000000000000000000000000000000000073ffffffffffffffffffffffffffffffffffffffff1673ffffffffffffffffffffffffffffffffffffffff1681526020019081526020015f205f5f5f9054906101000a900473ffffffffffffffffffffffffffffffffffffffff1673ffffffffffffffffffffffffffffffffffffffff1673ffffffffffffffffffffffffffffffffffffffff1681526020019081526020015f205f828254019250508190555050505b84547fffffffffffffffffffffffffffffffffffffffffffff000000000000000000001669ffffffffffffffffffff8516178555825160808a811b84177fffffffffffffffffffffffffffffffffffffffffffffffffffffffffffffffa0860190815282860151602087015160b09190911c60309190911c79ffffffffffffffffffff0000000000000000000000000000000016177fffffffffffffffffffffffffffffffffffffffffffffffffffffffffffffffc087015260607fffffffffffffffffffffffffffffffffffffffffffffffffffffffffffffffe08701527f0000000000000000000000000000000000000000000000000000000000000000929173ffffffffffffffffffffffffffffffffffffffff8e169184917f148472d48b5f9f0984f0caca96309b4b66b6e42ab16d2a632c84730c5a38b5689190850190a350505b5095506137aa92505050565b5f5f965096505050505b93509350935093565b73ffffffffffffffffffffffffffffffffffffffff7f0000000000000000000000000000000000000000000000000000000000000000165f90815260036020818152604080842088855292830182528084208785529091528220548291829164ffffffffff608082901c168614613831575f5f945094505050613e7c565b81546fffffffffffffffffffffffffffffffff82169069ffffffffffffffffffff808216916a0100000000000000000000900416818c1161389a57600195507f00000000000000000000000000000000000000000000000000000000000000008a0299506138a2565b988b02985f95505b845463ffffffff7401000000000000000000000000000000000000000090910416600a0a7f0000000000000000000000000000000000000000000000000000000000000000028a018311613e3a575f8c815260038601602090815260408083208e845282528083208390558e83526002880190915290205483900364ffffffffff608082901c168c03613973577fffffffffffffffffffffff0000000000ffffffffffffffffffffffffffffffff1674ffffffffff00000000000000000000000000000000605086901c1617613af8565b60a881901c64ffffffffff168c03613a38575f8d8152600387016020908152604080832064ffffffffff60a88a901c168452909152902080547fff0000000000ffffffffffffffffffffffffffffffffffffffffffffffffffff167effffffffff000000000000000000000000000000000000000000000000000087161790557fffffffffffff0000000000ffffffffffffffffffffffffffffffffffffffffff1679ffffffffff000000000000000000000000000000000000000000851617613af8565b5f8d8152600387016020908152604080832064ffffffffff60a88a901c81168552925280832080547fff0000000000ffffffffffffffffffffffffffffffffffffffffffffffffffff167effffffffff00000000000000000000000000000000000000000000000000008a1617905560d088901c9091168252902080547fffffffffffff0000000000ffffffffffffffffffffffffffffffffffffffffff1679ffffffffff00000000000000000000000000000000000000000087161790555b5f8d815260028701602052604081208290556fffffffffffffffffffffffffffffffff82169003613e29575f613b2d8e61768e565b600881901c5f90815260018981016020526040909120805460ff84169290921b1990911690819055909150838f03613cad5760ff82161c600882901c5b815f03613b945760019081015f818152918a01602052604090912054600882901b93509150613b6a565b816fffffffffffffffffffffffffffffffff165f03613bb9576080928301929190911c905b8167ffffffffffffffff165f03613bd6576040928301929190911c905b8163ffffffff165f03613bef576020928301929190911c905b8161ffff165f03613c06576010928301929190911c905b8160ff165f03613c1c576008928301929190911c905b81600f165f03613c32576004928301929190911c905b816003165f03613c48576002928301929190911c905b816001165f03613c59578260010192505b613c628361787a565b895469ffffffffffffffffffff919091166a0100000000000000000000027fffffffffffffffffffffffff00000000000000000000ffffffffffffffffffff90911617895550613e26565b848f03613e26577fffffffffffffffffffffffffffffffffffffffffffffffffffffffffffffffff600160ff84161b0116600882901c5b815f03613d24577fffffffffffffffffffffffffffffffffffffffffffffffffffffffffffffffff015f81815260018a0160205260409020549150613ce4565b600881901b92507001000000000000000000000000000000008210613d4f576080928301929190911c905b680100000000000000008210613d6b576040928301929190911c905b6401000000008210613d83576020928301929190911c905b620100008210613d99576010928301929190911c905b6101008210613dae576008928301929190911c905b60108210613dc2576004928301929190911c905b60048210613dd6576002928301929190911c905b60028210613de5578260010192505b613dee8361787a565b89547fffffffffffffffffffffffffffffffffffffffffffff000000000000000000001669ffffffffffffffffffff91909116178955505b50505b5f8498509850505050505050613e7c565b50505f8a815260038401602090815260408083208c8452825280832080548c900390558c83526002909501905292909220805488900390555085900392508491505b9450945094915050565b73ffffffffffffffffffffffffffffffffffffffff81165f908152600260205260408120548190613eba90869086906110dd565b909250905081156142b35780156140d1577f000000000000000000000000000000000000000000000000000000000000000073ffffffffffffffffffffffffffffffffffffffff1663a9059cbb605087901c5f03613f185784613f1a565b335b7f00000000000000000000000000000000000000000000000000000000000000008581613f4957613f49617ce2565b6040517fffffffff0000000000000000000000000000000000000000000000000000000060e086901b16815273ffffffffffffffffffffffffffffffffffffffff90931660048401520460248201526044016020604051808303815f875af1158015613fb7573d5f5f3e3d5ffd5b505050506040513d601f19601f82011682018060405250810190613fdb9190617d1f565b507f000000000000000000000000000000000000000000000000000000000000000073ffffffffffffffffffffffffffffffffffffffff168373ffffffffffffffffffffffffffffffffffffffff167f7ebb55d14fb18179d0ee498ab0f21c070fad7368e44487d51cdac53d6f74812c84608088901b60a88a901b7f300000000000000000000000000000000000000000000000000000000000000017171760405160200161408c91815260200190565b604080517fffffffffffffffffffffffffffffffffffffffffffffffffffffffffffffffe0818403018152908290526140c491617f1b565b60405180910390a36142b3565b7f000000000000000000000000000000000000000000000000000000000000000073ffffffffffffffffffffffffffffffffffffffff1663a9059cbb605087901c5f0361411e5784614120565b335b87858161412f5761412f617ce2565b6040517fffffffff0000000000000000000000000000000000000000000000000000000060e086901b16815273ffffffffffffffffffffffffffffffffffffffff90931660048401520460248201526044016020604051808303815f875af115801561419d573d5f5f3e3d5ffd5b505050506040513d601f19601f820116820180604052508101906141c19190617d1f565b507f000000000000000000000000000000000000000000000000000000000000000073ffffffffffffffffffffffffffffffffffffffff168373ffffffffffffffffffffffffffffffffffffffff167f7ebb55d14fb18179d0ee498ab0f21c070fad7368e44487d51cdac53d6f74812c84608088901b60a88a901b7f200000000000000000000000000000000000000000000000000000000000000017171760405160200161427291815260200190565b604080517fffffffffffffffffffffffffffffffffffffffffffffffffffffffffffffffe0818403018152908290526142aa91617f1b565b60405180910390a35b509392505050565b73ffffffffffffffffffffffffffffffffffffffff7f0000000000000000000000000000000000000000000000000000000000000000165f90815260036020526040808220805461010090925269ffffffffffffffffffff808316936a01000000000000000000009093041691606091829161433981878a8a617918565b506101005161012081016040526143536001868a8a617918565b856080528460a052608060c0528060a00160e052610120810151810160c0016080f35b73ffffffffffffffffffffffffffffffffffffffff7f0000000000000000000000000000000000000000000000000000000000000000165f908152600360205260408120819081876144205781547801000000000000000000000000000000000000000000000000900462ffffff16620186a0870281017fffffffffffffffffffffffffffffffffffffffffffffffffffffffffffffffff018161441c5761441c617ce2565b0495505b8815614478577f0000000000000000000000000000000000000000000000000000000000000000808610614455576001810395505b505080546a0100000000000000000000900469ffffffffffffffffffff16614494565b845f0361448457600194505b50805469ffffffffffffffffffff165b5f61449e8261768e565b600881901c5f9081526001850160205260409020549091505b896144c4578488116144c8565b8588115b15614b18578a6144da578683106144de565b8683115b1561455557881561451b576040517f8199f5f300000000000000000000000000000000000000000000000000000000815260040160405180910390fd5b83548690620186a0907801000000000000000000000000000000000000000000000000900462ffffff168702049550955050505050614b4e565b5f8a61456357858903614567565b8689035b5f8581526002870160205260409020549091506fffffffffffffffffffffffffffffffff168b15158d1515146145a15784820281116145c7565b7f0000000000000000000000000000000000000000000000000000000000000000820281115b156146f5578b6145d75781614646565b8c614613577f00000000000000000000000000000000000000000000000000000000000000008583028161460d5761460d617ce2565b04614646565b847f000000000000000000000000000000000000000000000000000000000000000083028161464457614644617ce2565b045b870196508b6146eb578c61469057846001867f0000000000000000000000000000000000000000000000000000000000000000850201038161468a5761468a617ce2565b046146e8565b7f000000000000000000000000000000000000000000000000000000000000000060017f00000000000000000000000000000000000000000000000000000000000000008785020103816146e6576146e6617ce2565b045b91505b9601955f906148e2565b8c61470f5784818161470957614709617ce2565b04614740565b7f0000000000000000000000000000000000000000000000000000000000000000818161473e5761473e617ce2565b045b880197508c61478f577f00000000000000000000000000000000000000000000000000000000000000008586838161477a5761477a617ce2565b04028161478957614789617ce2565b046147f1565b847f00000000000000000000000000000000000000000000000000000000000000007f000000000000000000000000000000000000000000000000000000000000000083816147e0576147e0617ce2565b0402816147ef576147ef617ce2565b045b870196508b614896578c614845577f00000000000000000000000000000000000000000000000000000000000000008586838161483057614830617ce2565b04028161483f5761483f617ce2565b046148db565b847f00000000000000000000000000000000000000000000000000000000000000007f0000000000000000000000000000000000000000000000000000000000000000838161483057614830617ce2565b8c6148aa5784818161483f5761483f617ce2565b7f000000000000000000000000000000000000000000000000000000000000000081816148d9576148d9617ce2565b045b90910390505f5b805f03614b0a57600160ff85161b199290921691600884901c8d156149e45760ff851684901c5b805f03614935575060019081015f818152918801602052604090912054600882901b9550935083614909565b806fffffffffffffffffffffffffffffffff165f03614956576080958601951c5b8067ffffffffffffffff165f0361496f576040958601951c5b8063ffffffff165f03614984576020958601951c5b8061ffff165f03614997576010958601951c5b8060ff165f036149a9576008958601951c5b80600f165f036149bb576004958601951c5b806003165f036149cd576002958601951c5b806001165f036149de578560010195505b50614af9565b7fffffffffffffffffffffffffffffffffffffffffffffffffffffffffffffffff600160ff87161b0184165b805f03614a5257507fffffffffffffffffffffffffffffffffffffffffffffffffffffffffffffffff015f818152600188016020526040902054935083614a10565b600882901b95507001000000000000000000000000000000008110614a79576080958601951c5b680100000000000000008110614a91576040958601951c5b6401000000008110614aa5576020958601951c5b620100008110614ab7576010958601951c5b6101008110614ac8576008958601951c5b60108110614ad8576004958601951c5b60048110614ae8576002958601951c5b60028110614af7578560010195505b505b614b028561787a565b955050614b11565b5050614b18565b50506144b7565b83548690620186a0907801000000000000000000000000000000000000000000000000900462ffffff1687020495509550505050505b9550959350505050565b73ffffffffffffffffffffffffffffffffffffffff7f0000000000000000000000000000000000000000000000000000000000000000165f908152600360205260408120805469ffffffffffffffffffff8082169384936a010000000000000000000090930490911691907f00000000000000000000000000000000000000000000000000000000000000008314614c0257614bf48386618174565b9450614bff8161818d565b90505b8315614c1457614c118161818d565b90505b80600203614c2d576001614c288682618174565b901c94505b5050909192565b606060a0604052614c4785858585617918565b6020608052604060a051016080f35b60608767ffffffffffffffff811115614c7157614c716181c4565b604051908082528060200260200182016040528015614c9a578160200160208202803683370190505b50604080515f6020828101828152928401845273ffffffffffffffffffffffffffffffffffffffff88168252600290529182205492935091908080805b8d811015615b0e578e8e82818110614cf157614cf16181f1565b905060200201355f03614ebd575f5f8e8e84818110614d1257614d126181f1565b9050602002013590505f8d8d85818110614d2e57614d2e6181f1565b905060200201359050614d4282828a6110dd565b8b8681518110614d5457614d546181f1565b602002602001018195508281525050505f8a8581518110614d7757614d776181f1565b60200260200101511115614e83578215614ddd577f00000000000000000000000000000000000000000000000000000000000000008a8581518110614dbe57614dbe6181f1565b602002602001015181614dd357614dd3617ce2565b0487039650614e0b565b818a8581518110614df057614df06181f1565b602002602001015181614e0557614e05617ce2565b04860395505b88516020850260208c0101518260801b178360a81b17847f1000000000000000000000000000000000000000000000000000000000000000027f2000000000000000000000000000000000000000000000000000000000000000011760208b01820152602081018a5260408a01810160405250614eb5565b6040517f080a1c2700000000000000000000000000000000000000000000000000000000815260040160405180910390fd5b505050615b06565b8e8e82818110614ecf57614ecf6181f1565b90506020020135600103614fd5575f5f8e8e84818110614ef157614ef16181f1565b905060200201359050614f1f6001828f8f87818110614f1257614f126181f1565b905060200201358a6116ab565b8a8581518110614f3157614f316181f1565b602090810291909101015291508115614e83577f00000000000000000000000000000000000000000000000000000000000000008281614f7357614f73617ce2565b04860195506001841793508751826020850260208c01015160801b8360a81b7f100000000000000000000000000000000000000000000000000000000000000017171760208a01820152602081018952604089018101604052505b5050615b06565b8e8e82818110614fe757614fe76181f1565b9050602002013560020361509a575f5f8e8e84818110615009576150096181f1565b9050602002013590506150295f828f8f87818110614f1257614f126181f1565b8a858151811061503b5761503b6181f1565b602090810291909101015291508115614e835780828161505d5761505d617ce2565b04850194506002841793508751826020850260208c01015160801b8360a81b171760208a0182015260208101895260408901810160405250614fce565b8e8e828181106150ac576150ac6181f1565b9050602002013560031480156150c3575060028216155b156151d4575f5f8e8e848181106150dc576150dc6181f1565b9050602002013590506151858d8d858181106150fa576150fa6181f1565b6020029190910135905073ffffffffffffffffffff0000000000000000000060508d901b1683177df00000000000000000000000000000000000000000000000000000000000604c8e901b1673ffffffffffffffffffffffffffffffffffffffff8f16177f100100000000000000000000000000000000000000000000000000000000000017611b06565b9091925090508a858151811061519d5761519d6181f1565b60200260200101819450828152505050818984815181106151c0576151c06181f1565b602002602001015101850394505050615b06565b8e8e828181106151e6576151e66181f1565b9050602002013560041480156151fd575060018216155b1561530e575f5f8e8e84818110615216576152166181f1565b9050602002013590506152bf8d8d85818110615234576152346181f1565b6020029190910135905073ffffffffffffffffffff0000000000000000000060508d901b1683177df0000000000000000000000000000000000000000000000000000000000060488e901b1673ffffffffffffffffffffffffffffffffffffffff8f16177f101100000000000000000000000000000000000000000000000000000000000017611b06565b9091925090508a85815181106152d7576152d76181f1565b60200260200101819450828152505050818984815181106152fa576152fa6181f1565b602002602001015101860395505050615b06565b8e8e82818110615320576153206181f1565b905060200201356005148015615337575060028216155b15615508575f5f8e8e84818110615350576153506181f1565b9050602002013590506153f98d8d8581811061536e5761536e6181f1565b6020029190910135905073ffffffffffffffffffff0000000000000000000060508d901b1683177df00000000000000000000000000000000000000000000000000000000000604c8e901b1673ffffffffffffffffffffffffffffffffffffffff8f16177f200100000000000000000000000000000000000000000000000000000000000017611b06565b909192508b868151811061540f5761540f6181f1565b6020026020010181955082945083815250505050816fffffffffffffffffffffffffffffffff16898481518110615448576154486181f1565b602002602001015101850394505f811115614fce575f8f8f85818110615470576154706181f1565b905060200201359050608083901c92507f000000000000000000000000000000000000000000000000000000000000000083816154af576154af617ce2565b04870196506001851794508851838360801b8360a81b7f100000000000000000000000000000000000000000000000000000000000000017171760208b01820152602081018a5260408a01810160405250505050615b06565b8e8e8281811061551a5761551a6181f1565b905060200201356006148015615531575060018216155b156156c0575f5f8e8e8481811061554a5761554a6181f1565b9050602002013590506155f38d8d85818110615568576155686181f1565b6020029190910135905073ffffffffffffffffffff0000000000000000000060508d901b1683177df0000000000000000000000000000000000000000000000000000000000060488e901b1673ffffffffffffffffffffffffffffffffffffffff8f16177f201100000000000000000000000000000000000000000000000000000000000017611b06565b909192508b8681518110615609576156096181f1565b6020026020010181955082945083815250505050816fffffffffffffffffffffffffffffffff16898481518110615642576156426181f1565b602002602001015101860395505f811115614fce575f8f8f8581811061566a5761566a6181f1565b905060200201359050608083901c925080838161568957615689617ce2565b04860195506002851794508851838360801b8360a81b171760208b01820152602081018a5260408a01810160405250505050615b06565b8e8e828181106156d2576156d26181f1565b9050602002013560071480156156e9575060028216155b156157ab575f5f8e8e84818110615702576157026181f1565b9050602002013590506151858d8d85818110615720576157206181f1565b6020029190910135905073ffffffffffffffffffff0000000000000000000060508d901b1683177df00000000000000000000000000000000000000000000000000000000000604c8e901b1673ffffffffffffffffffffffffffffffffffffffff8f16177f300100000000000000000000000000000000000000000000000000000000000017611b06565b8e8e828181106157bd576157bd6181f1565b9050602002013560081480156157d4575060018216155b15615896575f5f8e8e848181106157ed576157ed6181f1565b9050602002013590506152bf8d8d8581811061580b5761580b6181f1565b6020029190910135905073ffffffffffffffffffff0000000000000000000060508d901b1683177df0000000000000000000000000000000000000000000000000000000000060488e901b1673ffffffffffffffffffffffffffffffffffffffff8f16177f301100000000000000000000000000000000000000000000000000000000000017611b06565b8e8e828181106158a8576158a86181f1565b90506020020135600903615b06575f5f8c8c848181106158ca576158ca6181f1565b9050602002013590505f8f8f858181106158e6576158e66181f1565b602002919091013591505064ffffffffff608082901c166159098282858c6137b3565b8d888151811061591b5761591b6181f1565b6020908102919091010191909152945092508315615985577f00000000000000000000000000000000000000000000000000000000000000008b8681518110615966576159666181f1565b60200260200101518161597b5761597b617ce2565b04880397506159b3565b818b8681518110615998576159986181f1565b6020026020010151816159ad576159ad617ce2565b04870396505b825f03615a325789516020860260208d0101518260801b178360a81b17857f1000000000000000000000000000000000000000000000000000000000000000027f2000000000000000000000000000000000000000000000000000000000000000011760208c01820152602081018b5260408b01810160405250615b01565b8a8581518110615a4457615a446181f1565b60200260200101515f03615a84576040517f080a1c2700000000000000000000000000000000000000000000000000000000815260040160405180910390fd5b83156001018617955089516020860260208d0101518260801b178360a81b17857f1000000000000000000000000000000000000000000000000000000000000000027f4000000000000000000000000000000000000000000000000000000000000000011760208c01820152602081018b5260408b018101604052505b505050505b600101614cd7565b505f831315615c09577f000000000000000000000000000000000000000000000000000000000000000073ffffffffffffffffffffffffffffffffffffffff166323b872dd60a089901c600f16600114615b685733615b6a565b895b6040517fffffffff0000000000000000000000000000000000000000000000000000000060e084901b16815273ffffffffffffffffffffffffffffffffffffffff9091166004820152306024820152604481018690526064016020604051808303815f875af1158015615bdf573d5f5f3e3d5ffd5b505050506040513d601f19601f82011682018060405250810190615c039190617d1f565b50615cfb565b5f831215615cfb577f000000000000000000000000000000000000000000000000000000000000000073ffffffffffffffffffffffffffffffffffffffff1663a9059cbb60a889901c600f16600114615c625733615c64565b895b6040517fffffffff0000000000000000000000000000000000000000000000000000000060e084901b16815273ffffffffffffffffffffffffffffffffffffffff90911660048201525f86900360248201526044016020604051808303815f875af1158015615cd5573d5f5f3e3d5ffd5b505050506040513d601f19601f82011682018060405250810190615cf99190617d1f565b505b5f821315615df5577f000000000000000000000000000000000000000000000000000000000000000073ffffffffffffffffffffffffffffffffffffffff166323b872dd60a489901c600f16600114615d545733615d56565b895b6040517fffffffff0000000000000000000000000000000000000000000000000000000060e084901b16815273ffffffffffffffffffffffffffffffffffffffff9091166004820152306024820152604481018590526064016020604051808303815f875af1158015615dcb573d5f5f3e3d5ffd5b505050506040513d601f19601f82011682018060405250810190615def9190617d1f565b50615ee7565b5f821215615ee7577f000000000000000000000000000000000000000000000000000000000000000073ffffffffffffffffffffffffffffffffffffffff1663a9059cbb60ac89901c600f16600114615e4e5733615e50565b895b6040517fffffffff0000000000000000000000000000000000000000000000000000000060e084901b16815273ffffffffffffffffffffffffffffffffffffffff90911660048201525f85900360248201526044016020604051808303815f875af1158015615ec1573d5f5f3e3d5ffd5b505050506040513d601f19601f82011682018060405250810190615ee59190617d1f565b505b84517f0000000000000000000000000000000000000000000000000000000000000000908015615f445760208088035289827f7ebb55d14fb18179d0ee498ab0f21c070fad7368e44487d51cdac53d6f74812c6040840160208b03a35b5050505050505098975050505050505050565b60608767ffffffffffffffff811115615f7257615f726181c4565b604051908082528060200260200182016040528015615f9b578160200160208202803683370190505b50604080515f6020828101828152928401845273ffffffffffffffffffffffffffffffffffffffff88168252600290529182205492935091908080805b8d811015615b0e578e8e82818110615ff257615ff26181f1565b905060200201355f03616188575f5f8e8e84818110616013576160136181f1565b9050602002013590505f8d8d8581811061602f5761602f6181f1565b90506020020135905061604382828a6110dd565b8b8681518110616055576160556181f1565b602002602001018195508281525050505f8a8581518110616078576160786181f1565b602002602001015111156161805782156160de577f00000000000000000000000000000000000000000000000000000000000000008a85815181106160bf576160bf6181f1565b6020026020010151816160d4576160d4617ce2565b048703965061610c565b818a85815181106160f1576160f16181f1565b60200260200101518161610657616106617ce2565b04860395505b88516020850260208c0101518260801b178360a81b17847f1000000000000000000000000000000000000000000000000000000000000000027f2000000000000000000000000000000000000000000000000000000000000000011760208b01820152602081018a5260408a018101604052505b505050616b46565b8e8e8281811061619a5761619a6181f1565b90506020020135600103616293575f5f8e8e848181106161bc576161bc6181f1565b9050602002013590506161dd6001828f8f87818110614f1257614f126181f1565b8a85815181106161ef576161ef6181f1565b60209081029190910101529150811561628c577f0000000000000000000000000000000000000000000000000000000000000000828161623157616231617ce2565b04860195506001841793508751826020850260208c01015160801b8360a81b7f100000000000000000000000000000000000000000000000000000000000000017171760208a01820152602081018952604089018101604052505b5050616b46565b8e8e828181106162a5576162a56181f1565b9050602002013560020361635a575f5f8e8e848181106162c7576162c76181f1565b9050602002013590506162e75f828f8f87818110614f1257614f126181f1565b8a85815181106162f9576162f96181f1565b60209081029190910101529150811561628c5780828161631b5761631b617ce2565b04850194506002841793508751826020850260208c01015160801b8360a81b171760208a01820152602081018952604089018101604052505050616b46565b8e8e8281811061636c5761636c6181f1565b905060200201356003148015616383575060028216155b15616493575f5f8e8e8481811061639c5761639c6181f1565b9050602002013590506164448d8d858181106163ba576163ba6181f1565b6020029190910135905073ffffffffffffffffffff0000000000000000000060508d901b1683177df00000000000000000000000000000000000000000000000000000000000604c8e901b1673ffffffffffffffffffffffffffffffffffffffff8f16177e0100000000000000000000000000000000000000000000000000000000000017611b06565b9091925090508a858151811061645c5761645c6181f1565b602002602001018194508281525050508189848151811061647f5761647f6181f1565b602002602001015101850394505050616b46565b8e8e828181106164a5576164a56181f1565b9050602002013560041480156164bc575060018216155b156165cc575f5f8e8e848181106164d5576164d56181f1565b90506020020135905061657d8d8d858181106164f3576164f36181f1565b6020029190910135905073ffffffffffffffffffff0000000000000000000060508d901b1683177df0000000000000000000000000000000000000000000000000000000000060488e901b1673ffffffffffffffffffffffffffffffffffffffff8f16177e1100000000000000000000000000000000000000000000000000000000000017611b06565b9091925090508a8581518110616595576165956181f1565b60200260200101819450828152505050818984815181106165b8576165b86181f1565b602002602001015101860395505050616b46565b8e8e828181106165de576165de6181f1565b9050602002013560051480156165f5575060028216155b1561673b575f5f8e8e8481811061660e5761660e6181f1565b90506020020135905061662c8d8d8581811061536e5761536e6181f1565b909192508b8681518110616642576166426181f1565b6020026020010181955082945083815250505050816fffffffffffffffffffffffffffffffff1689848151811061667b5761667b6181f1565b602002602001015101850394505f81111561628c575f8f8f858181106166a3576166a36181f1565b905060200201359050608083901c92507f000000000000000000000000000000000000000000000000000000000000000083816166e2576166e2617ce2565b04870196506001851794508851838360801b8360a81b7f100000000000000000000000000000000000000000000000000000000000000017171760208b01820152602081018a5260408a01810160405250505050616b46565b8e8e8281811061674d5761674d6181f1565b905060200201356006148015616764575060018216155b15616868575f5f8e8e8481811061677d5761677d6181f1565b90506020020135905061679b8d8d85818110615568576155686181f1565b909192508b86815181106167b1576167b16181f1565b6020026020010181955082945083815250505050816fffffffffffffffffffffffffffffffff168984815181106167ea576167ea6181f1565b602002602001015101860395505f81111561628c575f8f8f85818110616812576168126181f1565b905060200201359050608083901c925080838161683157616831617ce2565b04860195506002851794508851838360801b8360a81b171760208b01820152602081018a5260408a01810160405250505050616b46565b8e8e8281811061687a5761687a6181f1565b905060200201356007148015616891575060028216155b156168c8575f5f8e8e848181106168aa576168aa6181f1565b9050602002013590506164448d8d85818110615720576157206181f1565b8e8e828181106168da576168da6181f1565b9050602002013560081480156168f1575060018216155b15616928575f5f8e8e8481811061690a5761690a6181f1565b90506020020135905061657d8d8d8581811061580b5761580b6181f1565b8e8e8281811061693a5761693a6181f1565b90506020020135600903616b46575f5f8c8c8481811061695c5761695c6181f1565b9050602002013590505f8f8f85818110616978576169786181f1565b602002919091013591505064ffffffffff608082901c1661699b8282858c6137b3565b8d88815181106169ad576169ad6181f1565b6020908102919091010191909152945092508315616a17577f00000000000000000000000000000000000000000000000000000000000000008b86815181106169f8576169f86181f1565b602002602001015181616a0d57616a0d617ce2565b0488039750616a45565b818b8681518110616a2a57616a2a6181f1565b602002602001015181616a3f57616a3f617ce2565b04870396505b825f03616ac45789516020860260208d0101518260801b178360a81b17857f1000000000000000000000000000000000000000000000000000000000000000027f2000000000000000000000000000000000000000000000000000000000000000011760208c01820152602081018b5260408b01810160405250616b41565b83156001018617955089516020860260208d0101518260801b178360a81b17857f1000000000000000000000000000000000000000000000000000000000000000027f4000000000000000000000000000000000000000000000000000000000000000011760208c01820152602081018b5260408b018101604052505b505050505b600101615fd8565b5f5f5f5f5f60f08b600f16901b8d616b85577e10000000000000000000000000000000000000000000000000000000000000616b87565b5f5b7effffffffffffffffffffffffffffffffffffffffffffffffffffffffffffff168d616bd3577f0100000000000000000000000000000000000000000000000000000000000000616bd5565b5f5b60fc8d901b17171790508673ffffffffffffffffffffffffffffffffffffffff1660e48c610f0016901b8217179150505f616c43898960508973ffffffffffffffffffffffffffffffffffffffff16901b73ffffffffffffffffffffffffffffffffffffffff161784611b06565b929750909550935090508c8015616c5d57505f608082901c115b15616e7b577f000000000000000000000000000000000000000000000000000000000000000073ffffffffffffffffffffffffffffffffffffffff166323b872dd60088d901c5f03616caf5788616cb1565b335b307f0000000000000000000000000000000000000000000000000000000000000000608086901c81616ce557616ce5617ce2565b6040517fffffffff0000000000000000000000000000000000000000000000000000000060e087901b16815273ffffffffffffffffffffffffffffffffffffffff9485166004820152939092166024840152900460448201526064016020604051808303815f875af1158015616d5d573d5f5f3e3d5ffd5b505050506040513d601f19601f82011682018060405250810190616d819190617d1f565b507f000000000000000000000000000000000000000000000000000000000000000073ffffffffffffffffffffffffffffffffffffffff168773ffffffffffffffffffffffffffffffffffffffff167f7ebb55d14fb18179d0ee498ab0f21c070fad7368e44487d51cdac53d6f74812c608084901c608087901b60a88d901b7f1000000000000000000000000000000000000000000000000000000000000000171717604051602001616e3691815260200190565b604080517fffffffffffffffffffffffffffffffffffffffffffffffffffffffffffffffe081840301815290829052616e6e91617f1b565b60405180910390a3617058565b608081901c15617058577f000000000000000000000000000000000000000000000000000000000000000073ffffffffffffffffffffffffffffffffffffffff166323b872dd60088d901c5f03616ed25788616ed4565b335b308b608086901c81616ee857616ee8617ce2565b6040517fffffffff0000000000000000000000000000000000000000000000000000000060e087901b16815273ffffffffffffffffffffffffffffffffffffffff9485166004820152939092166024840152900460448201526064016020604051808303815f875af1158015616f60573d5f5f3e3d5ffd5b505050506040513d601f19601f82011682018060405250810190616f849190617d1f565b507f000000000000000000000000000000000000000000000000000000000000000073ffffffffffffffffffffffffffffffffffffffff168773ffffffffffffffffffffffffffffffffffffffff167f7ebb55d14fb18179d0ee498ab0f21c070fad7368e44487d51cdac53d6f74812c608084901c608087901b60a88d901b171760405160200161701791815260200190565b604080517fffffffffffffffffffffffffffffffffffffffffffffffffffffffffffffffe08184030181529082905261704f91617f1b565b60405180910390a35b6fffffffffffffffffffffffffffffffff1683018c801561707857505f81115b15617168577f000000000000000000000000000000000000000000000000000000000000000073ffffffffffffffffffffffffffffffffffffffff1663a9059cbb60048d901c600f165f036170cd57886170cf565b335b6040517fffffffff0000000000000000000000000000000000000000000000000000000060e084901b16815273ffffffffffffffffffffffffffffffffffffffff9091166004820152602481018490526044016020604051808303815f875af115801561713e573d5f5f3e3d5ffd5b505050506040513d601f19601f820116820180604052508101906171629190617d1f565b50617255565b8015617255577f000000000000000000000000000000000000000000000000000000000000000073ffffffffffffffffffffffffffffffffffffffff1663a9059cbb60048d901c600f165f036171be57886171c0565b335b6040517fffffffff0000000000000000000000000000000000000000000000000000000060e084901b16815273ffffffffffffffffffffffffffffffffffffffff9091166004820152602481018490526044016020604051808303815f875af115801561722f573d5f5f3e3d5ffd5b505050506040513d601f19601f820116820180604052508101906172539190617d1f565b505b5050985098509895505050505050565b73ffffffffffffffffffffffffffffffffffffffff81165f90815260026020526040812054617299908690869086906116ab565b909350905082156176865784156174bb577f000000000000000000000000000000000000000000000000000000000000000073ffffffffffffffffffffffffffffffffffffffff166323b872dd605086901c5f036172f757836172f9565b335b307f0000000000000000000000000000000000000000000000000000000000000000878161732957617329617ce2565b6040517fffffffff0000000000000000000000000000000000000000000000000000000060e087901b16815273ffffffffffffffffffffffffffffffffffffffff9485166004820152939092166024840152900460448201526064016020604051808303815f875af11580156173a1573d5f5f3e3d5ffd5b505050506040513d601f19601f820116820180604052508101906173c59190617d1f565b507f000000000000000000000000000000000000000000000000000000000000000073ffffffffffffffffffffffffffffffffffffffff168273ffffffffffffffffffffffffffffffffffffffff167f7ebb55d14fb18179d0ee498ab0f21c070fad7368e44487d51cdac53d6f74812c85608085901b60a889901b7f100000000000000000000000000000000000000000000000000000000000000017171760405160200161747691815260200190565b604080517fffffffffffffffffffffffffffffffffffffffffffffffffffffffffffffffe0818403018152908290526174ae91617f1b565b60405180910390a3617686565b7f000000000000000000000000000000000000000000000000000000000000000073ffffffffffffffffffffffffffffffffffffffff166323b872dd605086901c5f03617508578361750a565b335b3087878161751a5761751a617ce2565b6040517fffffffff0000000000000000000000000000000000000000000000000000000060e087901b16815273ffffffffffffffffffffffffffffffffffffffff9485166004820152939092166024840152900460448201526064016020604051808303815f875af1158015617592573d5f5f3e3d5ffd5b505050506040513d601f19601f820116820180604052508101906175b69190617d1f565b507f000000000000000000000000000000000000000000000000000000000000000073ffffffffffffffffffffffffffffffffffffffff168273ffffffffffffffffffffffffffffffffffffffff167f7ebb55d14fb18179d0ee498ab0f21c070fad7368e44487d51cdac53d6f74812c85608085901b60a889901b171760405160200161764591815260200190565b604080517fffffffffffffffffffffffffffffffffffffffffffffffffffffffffffffffe08184030181529082905261767d91617f1b565b60405180910390a35b949350505050565b5f7f000000000000000000000000000000000000000000000000000000000000000082816176be576176be617ce2565b049150620186a082116176cf575090565b620f42408210156176f457600a8206156176e7575f5ffd5b50600a900462015f900190565b6298968082101561771957606482061561770c575f5ffd5b50606490046202bf200190565b6305f5e100821015617741576103e8820615617733575f5ffd5b506103e8900462041eb00190565b633b9aca008210156177695761271082061561775b575f5ffd5b50612710900462057e400190565b6402540be40082101561779457620186a0820615617785575f5ffd5b50620186a090046206ddd00190565b64174876e8008210156177bf57620f42408206156177b0575f5ffd5b50620f4240900462083d600190565b64e8d4a510008210156177ea57629896808206156177db575f5ffd5b5062989680900462099cf00190565b6509184e72a000821015617818576305f5e100820615617808575f5ffd5b506305f5e1009004620afc800190565b655af3107a400082101561784657633b9aca00820615617836575f5ffd5b50633b9aca009004620c5c100190565b66038d7ea4c680008211617876576402540be400820615617865575f5ffd5b506402540be4009004620dbba00190565b5f5ffd5b5f620186a082116178ab57507f00000000000000000000000000000000000000000000000000000000000000000290565b7fffffffffffffffffffffffffffffffffffffffffffffffffffffffffffffd8f082017f000000000000000000000000000000000000000000000000000000000000000062015f9082066127100162015f90838161790b5761790b617ce2565b04600a0a02029392505050565b7f00000000000000000000000000000000000000000000000000000000000000008084106179465750617cdc565b7f000000000000000000000000000000000000000000000000000000000000000073ffffffffffffffffffffffffffffffffffffffff81165f908152600360205260408120906179958761768e565b9050876179a0576001015b600881901c5f818152600184016020526040808220549051828152919291838c15617b3c57888b8d0111156179d5578b89039a505b89811015617b375760ff861683901c5b805f03617a11575060019384015f818152948801602052604090942054600885901b96509250826179e5565b806fffffffffffffffffffffffffffffffff165f03617a32576080968701961c5b8067ffffffffffffffff165f03617a4b576040968701961c5b8063ffffffff165f03617a60576020968701961c5b8061ffff165f03617a73576010968701961c5b8060ff165f03617a85576008968701961c5b80600f165f03617a97576004968701961c5b806003165f03617aa9576002968701961c5b806001165f03617aba578660010196505b61010087066001901b1984169350617ad18761787a565b95508b8d01861015617b2b57885f526003602052600260405f2001865f52806020525082516fffffffffffffffffffffffffffffffff60405f2054168760801b176020850182015260208101845250816001019150617b31565b50617cd2565b506179d5565b617cd2565b8b8b1115617b48578b9a505b89811015617cd2577fffffffffffffffffffffffffffffffffffffffffffffffffffffffffffffffff600160ff88161b0183165b805f03617bc357507fffffffffffffffffffffffffffffffffffffffffffffffffffffffffffffffff9093015f818152600188016020526040902054909390925082617b7c565b600885901b96507001000000000000000000000000000000008110617bea576080968701961c5b680100000000000000008110617c02576040968701961c5b6401000000008110617c16576020968701961c5b620100008110617c28576010968701961c5b6101008110617c39576008968701961c5b60108110617c49576004968701961c5b60048110617c59576002968701961c5b60028110617c68578660010196505b61010087066001901b1984169350617c7f8761787a565b95508b8d03861115617b2b57505f888152600360209081526040808320888452600201825284519220546fffffffffffffffffffffffffffffffff16608088901b17828501820152018252600101617b48565b5050505050505050505b50505050565b7f4e487b71000000000000000000000000000000000000000000000000000000005f52601260045260245ffd5b8015158114617d1c575f5ffd5b50565b5f60208284031215617d2f575f5ffd5b8151617d3a81617d0f565b9392505050565b803573ffffffffffffffffffffffffffffffffffffffff81168114617d64575f5ffd5b919050565b5f5f5f60608486031215617d7b575f5ffd5b8335925060208401359150617d9260408501617d41565b90509250925092565b5f5f60408385031215617dac575f5ffd5b50508035926020909101359150565b5f81518084528060208401602086015e5f6020828601015260207fffffffffffffffffffffffffffffffffffffffffffffffffffffffffffffffe0601f83011685010191505092915050565b848152836020820152608060408201525f617e256080830185617dbb565b8281036060840152617e378185617dbb565b979650505050505050565b5f5f5f5f5f60a08688031215617e56575f5ffd5b8535617e6181617d0f565b94506020860135617e7181617d0f565b93506040860135617e8181617d0f565b94979396509394606081013594506080013592915050565b5f5f60408385031215617eaa575f5ffd5b617eb383617d41565b9150617ec160208401617d41565b90509250929050565b5f60208284031215617eda575f5ffd5b617d3a82617d41565b5f5f5f5f60808587031215617ef6575f5ffd5b8435617f0181617d0f565b966020860135965060408601359560600135945092505050565b602081525f617d3a6020830184617dbb565b5f60208284031215617f3d575f5ffd5b5035919050565b5f5f83601f840112617f54575f5ffd5b50813567ffffffffffffffff811115617f6b575f5ffd5b6020830191508360208260051b8501011115617f85575f5ffd5b9250929050565b5f5f5f5f5f5f5f5f60a0898b031215617fa3575f5ffd5b883567ffffffffffffffff811115617fb9575f5ffd5b617fc58b828c01617f44565b909950975050602089013567ffffffffffffffff811115617fe4575f5ffd5b617ff08b828c01617f44565b909750955050604089013567ffffffffffffffff81111561800f575f5ffd5b61801b8b828c01617f44565b909550935061802e905060608a01617d41565b979a9699509497939692959194509192608001359150565b602080825282518282018190525f918401906040840190835b8181101561807d57835183526020938401939092019160010161805f565b509095945050505050565b5f5f5f5f5f5f5f5f610100898b0312156180a0575f5ffd5b88356180ab81617d0f565b975060208901356180bb81617d0f565b965060408901359550606089013594506080890135935060a089013592506180e560c08a01617d41565b91506180f360e08a01617d41565b90509295985092959890939650565b5f5f5f5f60808587031215618115575f5ffd5b843561812081617d0f565b9350602085013592506040850135915061813c60608601617d41565b905092959194509250565b7f4e487b71000000000000000000000000000000000000000000000000000000005f52601160045260245ffd5b8082018082111561818757618187618147565b92915050565b5f7fffffffffffffffffffffffffffffffffffffffffffffffffffffffffffffffff82036181bd576181bd618147565b5060010190565b7f4e487b71000000000000000000000000000000000000000000000000000000005f52604160045260245ffd5b7f4e487b71000000000000000000000000000000000000000000000000000000005f52603260045260245ffdfea2646970667358221220fdde0079c3d8c3b791212ce993e0acac9ff75d4e99321cef7075084a2c20663664736f6c634300081c0033",
  "linkReferences": {},
  "deployedLinkReferences": {}
}