{
  "_format": "hh-sol-artifact-1",
  "contractName": "CrystalMarket",
  "sourceName": "contracts/Crystal.sol",
  "abi": [
    {
      "inputs": [],
      "stateMutability": "nonpayable",
      "type": "constructor"
    },
    {
      "inputs": [],
      "name": "ActionFailed",
      "type": "error"
    },
    {
      "inputs": [],
      "name": "SlippageExceeded",
      "type": "error"
    },
    {
      "anonymous": false,
      "inputs": [
        {
          "indexed": true,
          "internalType": "address",
          "name": "caller",
          "type": "address"
        },
        {
          "indexed": false,
          "internalType": "uint256",
          "name": "amounts",
          "type": "uint256"
        },
        {
          "indexed": false,
          "internalType": "uint256",
          "name": "info",
          "type": "uint256"
        },
        {
          "indexed": false,
          "internalType": "bytes",
          "name": "filled",
          "type": "bytes"
        }
      ],
      "name": "OrdersFilled",
      "type": "event"
    },
    {
      "anonymous": false,
      "inputs": [
        {
          "indexed": true,
          "internalType": "address",
          "name": "caller",
          "type": "address"
        },
        {
          "indexed": false,
          "internalType": "bytes",
          "name": "orderData",
          "type": "bytes"
        }
      ],
      "name": "OrdersUpdated",
      "type": "event"
    },
    {
      "anonymous": false,
      "inputs": [
        {
          "indexed": true,
          "internalType": "address",
          "name": "market",
          "type": "address"
        },
        {
          "indexed": false,
          "internalType": "address",
          "name": "gov",
          "type": "address"
        },
        {
          "indexed": false,
          "internalType": "uint80",
          "name": "maxPrice",
          "type": "uint80"
        },
        {
          "indexed": false,
          "internalType": "uint256",
          "name": "minSize",
          "type": "uint256"
        },
        {
          "indexed": false,
          "internalType": "uint24",
          "name": "takerFee",
          "type": "uint24"
        },
        {
          "indexed": false,
          "internalType": "uint24",
          "name": "makerRebate",
          "type": "uint24"
        },
        {
          "indexed": false,
          "internalType": "uint8",
          "name": "feeCommission",
          "type": "uint8"
        },
        {
          "indexed": false,
          "internalType": "uint8",
          "name": "feeRebate",
          "type": "uint8"
        }
      ],
      "name": "ParamsChanged",
      "type": "event"
    },
    {
      "anonymous": false,
      "inputs": [
        {
          "indexed": true,
          "internalType": "address",
          "name": "caller",
          "type": "address"
        },
        {
          "indexed": false,
          "internalType": "uint256",
          "name": "quoteAmount",
          "type": "uint256"
        },
        {
          "indexed": false,
          "internalType": "uint256",
          "name": "baseAmount",
          "type": "uint256"
        }
      ],
      "name": "RewardsClaimed",
      "type": "event"
    },
    {
      "stateMutability": "nonpayable",
      "type": "fallback"
    },
    {
      "inputs": [
        {
          "internalType": "address",
          "name": "",
          "type": "address"
        }
      ],
      "name": "accumulatedFeeBase",
      "outputs": [
        {
          "internalType": "uint256",
          "name": "",
          "type": "uint256"
        }
      ],
      "stateMutability": "view",
      "type": "function"
    },
    {
      "inputs": [
        {
          "internalType": "address",
          "name": "",
          "type": "address"
        }
      ],
      "name": "accumulatedFeeQuote",
      "outputs": [
        {
          "internalType": "uint256",
          "name": "",
          "type": "uint256"
        }
      ],
      "stateMutability": "view",
      "type": "function"
    },
    {
      "inputs": [
        {
          "internalType": "uint256",
          "name": "",
          "type": "uint256"
        }
      ],
      "name": "activated",
      "outputs": [
        {
          "internalType": "uint256",
          "name": "",
          "type": "uint256"
        }
      ],
      "stateMutability": "view",
      "type": "function"
    },
    {
      "inputs": [
        {
          "internalType": "address",
          "name": "",
          "type": "address"
        }
      ],
      "name": "addressToUserId",
      "outputs": [
        {
          "internalType": "uint256",
          "name": "",
          "type": "uint256"
        }
      ],
      "stateMutability": "view",
      "type": "function"
    },
    {
      "inputs": [],
      "name": "baseAsset",
      "outputs": [
        {
          "internalType": "address",
          "name": "",
          "type": "address"
        }
      ],
      "stateMutability": "view",
      "type": "function"
    },
    {
      "inputs": [
        {
          "internalType": "uint256[]",
          "name": "actions",
          "type": "uint256[]"
        },
        {
          "internalType": "uint256[]",
          "name": "prices",
          "type": "uint256[]"
        },
        {
          "internalType": "uint256[]",
          "name": "param1",
          "type": "uint256[]"
        },
        {
          "internalType": "address",
          "name": "owner",
          "type": "address"
        },
        {
          "internalType": "uint256",
          "name": "referrer",
          "type": "uint256"
        }
      ],
      "name": "batchOrders",
      "outputs": [
        {
          "internalType": "uint256[]",
          "name": "returnData",
          "type": "uint256[]"
        }
      ],
      "stateMutability": "nonpayable",
      "type": "function"
    },
    {
      "inputs": [
        {
          "internalType": "uint256[]",
          "name": "actions",
          "type": "uint256[]"
        },
        {
          "internalType": "uint256[]",
          "name": "prices",
          "type": "uint256[]"
        },
        {
          "internalType": "uint256[]",
          "name": "param1",
          "type": "uint256[]"
        },
        {
          "internalType": "address",
          "name": "owner",
          "type": "address"
        },
        {
          "internalType": "uint256",
          "name": "referrer",
          "type": "uint256"
        }
      ],
      "name": "batchOrdersRequireSuccess",
      "outputs": [
        {
          "internalType": "uint256[]",
          "name": "returnData",
          "type": "uint256[]"
        }
      ],
      "stateMutability": "nonpayable",
      "type": "function"
    },
    {
      "inputs": [
        {
          "internalType": "uint256",
          "name": "price",
          "type": "uint256"
        },
        {
          "internalType": "uint256",
          "name": "id",
          "type": "uint256"
        },
        {
          "internalType": "address",
          "name": "caller",
          "type": "address"
        }
      ],
      "name": "cancelOrder",
      "outputs": [
        {
          "internalType": "uint256",
          "name": "size",
          "type": "uint256"
        }
      ],
      "stateMutability": "nonpayable",
      "type": "function"
    },
    {
      "inputs": [
        {
          "internalType": "address",
          "name": "newGov",
          "type": "address"
        },
        {
          "internalType": "uint80",
          "name": "newMaxPrice",
          "type": "uint80"
        },
        {
          "internalType": "uint256",
          "name": "newMinSize",
          "type": "uint256"
        },
        {
          "internalType": "uint24",
          "name": "newTakerFee",
          "type": "uint24"
        },
        {
          "internalType": "uint24",
          "name": "newMakerRebate",
          "type": "uint24"
        },
        {
          "internalType": "uint8",
          "name": "newFeeCommission",
          "type": "uint8"
        },
        {
          "internalType": "uint8",
          "name": "newFeeRebate",
          "type": "uint8"
        }
      ],
      "name": "changeParams",
      "outputs": [],
      "stateMutability": "nonpayable",
      "type": "function"
    },
    {
      "inputs": [
        {
          "internalType": "address",
          "name": "caller",
          "type": "address"
        }
      ],
      "name": "claimFees",
      "outputs": [
        {
          "internalType": "uint256",
          "name": "quoteAmount",
          "type": "uint256"
        },
        {
          "internalType": "uint256",
          "name": "baseAmount",
          "type": "uint256"
        }
      ],
      "stateMutability": "nonpayable",
      "type": "function"
    },
    {
      "inputs": [],
      "name": "feeCommission",
      "outputs": [
        {
          "internalType": "uint8",
          "name": "",
          "type": "uint8"
        }
      ],
      "stateMutability": "view",
      "type": "function"
    },
    {
      "inputs": [],
      "name": "feeRebate",
      "outputs": [
        {
          "internalType": "uint8",
          "name": "",
          "type": "uint8"
        }
      ],
      "stateMutability": "view",
      "type": "function"
    },
    {
      "inputs": [
        {
          "internalType": "uint256",
          "name": "distance",
          "type": "uint256"
        },
        {
          "internalType": "uint256",
          "name": "numLevels",
          "type": "uint256"
        }
      ],
      "name": "getDisplayPriceLevelsFromMid",
      "outputs": [
        {
          "internalType": "uint256",
          "name": "_highestBid",
          "type": "uint256"
        },
        {
          "internalType": "uint256",
          "name": "_lowestAsk",
          "type": "uint256"
        },
        {
          "internalType": "bytes",
          "name": "",
          "type": "bytes"
        },
        {
          "internalType": "bytes",
          "name": "",
          "type": "bytes"
        }
      ],
      "stateMutability": "view",
      "type": "function"
    },
    {
      "inputs": [
        {
          "internalType": "uint256",
          "name": "price",
          "type": "uint256"
        },
        {
          "internalType": "uint256",
          "name": "id",
          "type": "uint256"
        }
      ],
      "name": "getOrder",
      "outputs": [
        {
          "components": [
            {
              "internalType": "uint128",
              "name": "size",
              "type": "uint128"
            },
            {
              "internalType": "uint40",
              "name": "owner",
              "type": "uint40"
            },
            {
              "internalType": "uint40",
              "name": "fillBefore",
              "type": "uint40"
            },
            {
              "internalType": "uint40",
              "name": "fillAfter",
              "type": "uint40"
            }
          ],
          "internalType": "struct CrystalMarket.Order",
          "name": "",
          "type": "tuple"
        }
      ],
      "stateMutability": "view",
      "type": "function"
    },
    {
      "inputs": [],
      "name": "getPrice",
      "outputs": [
        {
          "internalType": "uint256",
          "name": "price",
          "type": "uint256"
        },
        {
          "internalType": "uint256",
          "name": "_highestBid",
          "type": "uint256"
        },
        {
          "internalType": "uint256",
          "name": "_lowestAsk",
          "type": "uint256"
        }
      ],
      "stateMutability": "view",
      "type": "function"
    },
    {
      "inputs": [
        {
          "internalType": "uint256",
          "name": "price",
          "type": "uint256"
        }
      ],
      "name": "getPriceLevel",
      "outputs": [
        {
          "components": [
            {
              "internalType": "uint128",
              "name": "size",
              "type": "uint128"
            },
            {
              "internalType": "uint40",
              "name": "fillNext",
              "type": "uint40"
            },
            {
              "internalType": "uint40",
              "name": "latestActive",
              "type": "uint40"
            },
            {
              "internalType": "uint40",
              "name": "latest",
              "type": "uint40"
            }
          ],
          "internalType": "struct CrystalMarket.PriceLevel",
          "name": "",
          "type": "tuple"
        }
      ],
      "stateMutability": "view",
      "type": "function"
    },
    {
      "inputs": [
        {
          "internalType": "bool",
          "name": "isAscending",
          "type": "bool"
        },
        {
          "internalType": "uint256",
          "name": "startPrice",
          "type": "uint256"
        },
        {
          "internalType": "uint256",
          "name": "distance",
          "type": "uint256"
        },
        {
          "internalType": "uint256",
          "name": "max",
          "type": "uint256"
        }
      ],
      "name": "getPriceLevels",
      "outputs": [
        {
          "internalType": "bytes",
          "name": "",
          "type": "bytes"
        }
      ],
      "stateMutability": "view",
      "type": "function"
    },
    {
      "inputs": [
        {
          "internalType": "uint256",
          "name": "distance",
          "type": "uint256"
        },
        {
          "internalType": "uint256",
          "name": "max",
          "type": "uint256"
        }
      ],
      "name": "getPriceLevelsFromMid",
      "outputs": [
        {
          "internalType": "uint256",
          "name": "_highestBid",
          "type": "uint256"
        },
        {
          "internalType": "uint256",
          "name": "_lowestAsk",
          "type": "uint256"
        },
        {
          "internalType": "bytes",
          "name": "",
          "type": "bytes"
        },
        {
          "internalType": "bytes",
          "name": "",
          "type": "bytes"
        }
      ],
      "stateMutability": "view",
      "type": "function"
    },
    {
      "inputs": [
        {
          "internalType": "bool",
          "name": "isBuy",
          "type": "bool"
        },
        {
          "internalType": "bool",
          "name": "isExactInput",
          "type": "bool"
        },
        {
          "internalType": "uint256",
          "name": "size",
          "type": "uint256"
        },
        {
          "internalType": "uint256",
          "name": "worstPrice",
          "type": "uint256"
        }
      ],
      "name": "getQuote",
      "outputs": [
        {
          "internalType": "uint256",
          "name": "amountIn",
          "type": "uint256"
        },
        {
          "internalType": "uint256",
          "name": "amountOut",
          "type": "uint256"
        }
      ],
      "stateMutability": "view",
      "type": "function"
    },
    {
      "inputs": [],
      "name": "gov",
      "outputs": [
        {
          "internalType": "address",
          "name": "",
          "type": "address"
        }
      ],
      "stateMutability": "view",
      "type": "function"
    },
    {
      "inputs": [],
      "name": "highestBid",
      "outputs": [
        {
          "internalType": "uint80",
          "name": "",
          "type": "uint80"
        }
      ],
      "stateMutability": "view",
      "type": "function"
    },
    {
      "inputs": [],
      "name": "latestUserId",
      "outputs": [
        {
          "internalType": "uint256",
          "name": "",
          "type": "uint256"
        }
      ],
      "stateMutability": "view",
      "type": "function"
    },
    {
      "inputs": [
        {
          "internalType": "bool",
          "name": "isBuy",
          "type": "bool"
        },
        {
          "internalType": "uint256",
          "name": "price",
          "type": "uint256"
        },
        {
          "internalType": "uint256",
          "name": "size",
          "type": "uint256"
        },
        {
          "internalType": "address",
          "name": "caller",
          "type": "address"
        }
      ],
      "name": "limitOrder",
      "outputs": [
        {
          "internalType": "uint256",
          "name": "id",
          "type": "uint256"
        }
      ],
      "stateMutability": "nonpayable",
      "type": "function"
    },
    {
      "inputs": [],
      "name": "lowestAsk",
      "outputs": [
        {
          "internalType": "uint80",
          "name": "",
          "type": "uint80"
        }
      ],
      "stateMutability": "view",
      "type": "function"
    },
    {
      "inputs": [],
      "name": "makerRebate",
      "outputs": [
        {
          "internalType": "uint24",
          "name": "",
          "type": "uint24"
        }
      ],
      "stateMutability": "view",
      "type": "function"
    },
    {
      "inputs": [
        {
          "internalType": "bool",
          "name": "isBuy",
          "type": "bool"
        },
        {
          "internalType": "bool",
          "name": "isExactInput",
          "type": "bool"
        },
        {
          "internalType": "uint256",
          "name": "STP",
          "type": "uint256"
        },
        {
          "internalType": "uint256",
          "name": "orderType",
          "type": "uint256"
        },
        {
          "internalType": "uint256",
          "name": "size",
          "type": "uint256"
        },
        {
          "internalType": "uint256",
          "name": "worstPrice",
          "type": "uint256"
        },
        {
          "internalType": "address",
          "name": "caller",
          "type": "address"
        },
        {
          "internalType": "address",
          "name": "referrer",
          "type": "address"
        }
      ],
      "name": "marketOrder",
      "outputs": [
        {
          "internalType": "uint256",
          "name": "amountIn",
          "type": "uint256"
        },
        {
          "internalType": "uint256",
          "name": "amountOut",
          "type": "uint256"
        },
        {
          "internalType": "uint256",
          "name": "id",
          "type": "uint256"
        }
      ],
      "stateMutability": "nonpayable",
      "type": "function"
    },
    {
      "inputs": [],
      "name": "maxPrice",
      "outputs": [
        {
          "internalType": "uint80",
          "name": "",
          "type": "uint80"
        }
      ],
      "stateMutability": "view",
      "type": "function"
    },
    {
      "inputs": [],
      "name": "minSize",
      "outputs": [
        {
          "internalType": "uint256",
          "name": "",
          "type": "uint256"
        }
      ],
      "stateMutability": "view",
      "type": "function"
    },
    {
      "inputs": [
        {
          "internalType": "uint256",
          "name": "",
          "type": "uint256"
        },
        {
          "internalType": "uint256",
          "name": "",
          "type": "uint256"
        }
      ],
      "name": "orders",
      "outputs": [
        {
          "internalType": "uint256",
          "name": "",
          "type": "uint256"
        }
      ],
      "stateMutability": "view",
      "type": "function"
    },
    {
      "inputs": [
        {
          "internalType": "uint256",
          "name": "",
          "type": "uint256"
        }
      ],
      "name": "priceLevels",
      "outputs": [
        {
          "internalType": "uint256",
          "name": "",
          "type": "uint256"
        }
      ],
      "stateMutability": "view",
      "type": "function"
    },
    {
      "inputs": [],
      "name": "quoteAsset",
      "outputs": [
        {
          "internalType": "address",
          "name": "",
          "type": "address"
        }
      ],
      "stateMutability": "view",
      "type": "function"
    },
    {
      "inputs": [
        {
          "internalType": "address",
          "name": "caller",
          "type": "address"
        }
      ],
      "name": "registerUser",
      "outputs": [
        {
          "internalType": "uint256",
          "name": "_latestUserId",
          "type": "uint256"
        }
      ],
      "stateMutability": "nonpayable",
      "type": "function"
    },
    {
      "inputs": [],
      "name": "router",
      "outputs": [
        {
          "internalType": "address",
          "name": "",
          "type": "address"
        }
      ],
      "stateMutability": "view",
      "type": "function"
    },
    {
      "inputs": [],
      "name": "scaleFactor",
      "outputs": [
        {
          "internalType": "uint256",
          "name": "",
          "type": "uint256"
        }
      ],
      "stateMutability": "view",
      "type": "function"
    },
    {
      "inputs": [],
      "name": "takerFee",
      "outputs": [
        {
          "internalType": "uint24",
          "name": "",
          "type": "uint24"
        }
      ],
      "stateMutability": "view",
      "type": "function"
    },
    {
      "inputs": [],
      "name": "tickSize",
      "outputs": [
        {
          "internalType": "uint256",
          "name": "",
          "type": "uint256"
        }
      ],
      "stateMutability": "view",
      "type": "function"
    },
    {
      "inputs": [
        {
          "internalType": "uint256",
          "name": "",
          "type": "uint256"
        }
      ],
      "name": "userIdToAddress",
      "outputs": [
        {
          "internalType": "address",
          "name": "",
          "type": "address"
        }
      ],
      "stateMutability": "view",
      "type": "function"
    }
  ],
  "bytecode": "0x610140604052600180546001600160f01b0316600160f01b179055348015610025575f5ffd5b5060028054620186a060805260018054600160a01b600160f01b03191664071afd498d60af1b178082556001600160e01b03199092167b760afe86e5de5fa0ee542fc7b7b713e1c54257010a0a0000000186821790925560a09190915273760afe86e5de5fa0ee542fc7b7b713e1c54257016101208190526101005273f817257fed379853cde0fa4f97ab987181b1e5ea60e0526015906001600160501b03600160a01b9091048116118015906100e6575060025462ffffff166201731811155b80156100fe5750600254620186a062ffffff90911611155b610106575f5ffd5b61011181600a610470565b60c052600180546001600160a01b031981166001600160501b03600160a01b6001600160501b031990931683900481166a010000000000000000000002919091178084555f80805260036020527f3617319a054d772f909f7c479a2cebe5066e836a939412e32403c99029b92eff9490945561018f929004166101bd565b905061019d61010082610482565b60089190911c5f908152600360205260409020600190911b9055506104a1565b5f620186a082116101cc575090565b620f42408210156101f157600a8206156101e4575f5ffd5b50600a900462015f900190565b62989680821015610216576064820615610209575f5ffd5b50606490046202bf200190565b6305f5e10082101561023e576103e8820615610230575f5ffd5b506103e8900462041eb00190565b633b9aca0082101561026657612710820615610258575f5ffd5b50612710900462057e400190565b6402540be40082101561029157620186a0820615610282575f5ffd5b50620186a090046206ddd00190565b64174876e8008210156102bc57620f42408206156102ad575f5ffd5b50620f4240900462083d600190565b64e8d4a510008210156102e757629896808206156102d8575f5ffd5b5062989680900462099cf00190565b6509184e72a000821015610315576305f5e100820615610305575f5ffd5b506305f5e1009004620afc800190565b655af3107a400082101561034357633b9aca00820615610333575f5ffd5b50633b9aca009004620c5c100190565b66038d7ea4c680008211610373576402540be400820615610362575f5ffd5b506402540be4009004620dbba00190565b5f5ffd5b634e487b7160e01b5f52601160045260245ffd5b6001815b60018411156103c6578085048111156103aa576103aa610377565b60018416156103b857908102905b60019390931c92800261038f565b935093915050565b5f826103dc5750600161046a565b816103e857505f61046a565b81600181146103fe576002811461040857610424565b600191505061046a565b60ff84111561041957610419610377565b50506001821b61046a565b5060208310610133831016604e8410600b8410161715610447575081810a61046a565b6104535f19848461038b565b805f190482111561046657610466610377565b0290505b92915050565b5f61047b83836103ce565b9392505050565b5f8261049c57634e487b7160e01b5f52601260045260245ffd5b500690565b60805160a05160c05160e051610100516101205161887861073b5f395f818161132a01528181613df1015281816140430152818161414901528181614edf015281816162de01528181616fb1015261779e01525f8181610c6001528181610d24015281816112200152818161261d01528181612a8f01528181613f600152818161441701528181616046015281816161400152818161738a0152818161754b0152617a7901525f8181610ad801528181610b9c015281816113510152818161264301528181612ab501528181613ea70152818161424801528181615e5a01528181615f540152818161719e0152818161763c015261789f01525f818161036a01528181610448015281816106f00152818161094201528181610fef0152818161199001528181611a1a01528181611eae01528181611ee60152818161211a015281816122d40152818161242f0152818161248c015281816124c4015281816125180152818161255001528181612573015281816125c5015281816127a4015281816127f80152818161285101528181612872015281816128f90152818161295201528181612973015281816129e201528181612a3d0152818161337c015281816133ae01528181614297015281816149330152818161496e015281816149a6015281816149ea01528181614a2201528181614a4501528181614aa101528181614adb01528181614b2201528181614b4301528181614b9101528181614bd801528181614bf901528181614c3c015281816150ce01528181615287015281816157c301528181615c76015281816164cd0152818161664301528181616af401528181616e06015281816171ee01526178ef01525f6112f001525f8181610e5c01528181611912015281816119f901526133cf01526188785ff3fe608060405234801561000f575f5ffd5b5060043610610275575f3560e01c806390cc74581161015e578063d2f2f2e8116100d6578063ebfb4f4a1161008a578063f2a8ed301161006f578063f2a8ed3014611312578063f887ea4014611325578063fdf262b71461134c57610275565b8063ebfb4f4a146112cc578063f210d087146112eb57610275565b8063da893f24116100bb578063da893f2414611278578063e38d6b5c1461128b578063e690552b146112b957610275565b8063d2f2f2e814611242578063d57bde791461126257610275565b8063b16952011161012d578063b94a000f11610112578063b94a000f146111de578063c49859be14611208578063cdf456e11461121b57610275565b8063b16952011461118a578063b5ffbbcc146111bf57610275565b806390cc7458146110f257806398d5fdca14611108578063996466831461112b578063ae87820a1461114b57610275565b80634ab720e8116101f1578063683dd191116101c0578063776d9454116101a5578063776d945414611029578063800a4bfe146110445780638df91d91146110d357610275565b8063683dd19114610fea578063731c2f811461101157610275565b80634ab720e814610f5f578063598d85f214610f7e5780635a74b56614610fa15780635e1a357314610fca57610275565b806315a0ea6a11610248578063258dbc4c1161022d578063258dbc4c14610f0a57806332fad9d814610f1d57806343f0179b14610f3c57610275565b806315a0ea6a14610ecf5780632199d5cd14610ef757610275565b80630facece514610e27578063107d75a714610e42578063114b0d9514610e5757806312d43a5114610e7e575b600180547e01000000000000000000000000000000000000000000000000000000000000900461ffff16146102a8575f5ffd5b600180547dffffffffffffffffffffffffffffffffffffffffffffffffffffffffffff167e0200000000000000000000000000000000000000000000000000000000000017905560c06040908152335f90815260076020529081205490808080808080805b36881015610a95578735965069ffffffffffffffffffff608088901c1695506fffffffffffffffffffffffffffffffff8716945060fc87901c5f036104225761035786868b611373565b9097509250861561041d5782156103a1577f00000000000000000000000000000000000000000000000000000000000000008781610397576103976181de565b04820391506103b4565b8587816103b0576103b06181de565b0490035b60a051878660801b178760a81b17847f1000000000000000000000000000000000000000000000000000000000000000027f2000000000000000000000000000000000000000000000000000000000000000011760c08201526020810160a05260e08101604052505b610a8a565b60fc87901c6001036104c95761043b600187878c6118d2565b9097509450861561041d577f00000000000000000000000000000000000000000000000000000000000000008781610475576104756181de565b048201915060018417935060a051878660801b178760a81b177f10000000000000000000000000000000000000000000000000000000000000001760c08201526020810160a05260e0810160405250610a8a565b60fc87901c60020361052d576104e15f87878c6118d2565b9097509450861561041d578587816104fb576104fb6181de565b048101905060028417935060a051878660801b178760a81b1760c08201526020810160a05260e0810160405250610a8a565b600360fc88901c148015610542575060028416155b156105c6575f6105b48633605081901b73ffffffffffffffffffffffffffffffffffffffff168a17907effffffffffffffffffffffffffffffffffffffffffffffffffffffffffffff7e0100000000000000000000000000000000000000000000000000000000000090911716611bef565b919a505089019092039150610a8a9050565b600460fc88901c1480156105db575060018416155b1561065f575f61064d8633605081901b73ffffffffffffffffffffffffffffffffffffffff168a17907effffffffffffffffffffffffffffffffffffffffffffffffffffffffffffff7e1100000000000000000000000000000000000000000000000000000000000090911716611bef565b919a505089019093039250610a8a9050565b600560fc88901c148015610674575060028416155b15610773575f6106c48633605081901b73ffffffffffffffffffffffffffffffffffffffff168a17907f200100000000000000000000000000000000000000000000000000000000000017611bef565b919a5097506fffffffffffffffffffffffffffffffff81168a0190930392915050851561076d5760801c7f0000000000000000000000000000000000000000000000000000000000000000818161071d5761071d6181de565b048301925060018517945060a051818760801b178860a81b177f10000000000000000000000000000000000000000000000000000000000000001760c08201526020810160a05260e08101604052505b50610a8a565b600660fc88901c148015610788575060018416155b15610844575f6107d88633605081901b73ffffffffffffffffffffffffffffffffffffffff168a17907f201100000000000000000000000000000000000000000000000000000000000017611bef565b919a5097506fffffffffffffffffffffffffffffffff81168a0190940393915050851561076d5760801c868181610811576108116181de565b048201915060028517945060a051818760801b178860a81b1760c08201526020810160a05260e081016040525050610a8a565b600760fc88901c148015610859575060028416155b156108a9575f6105b48633605081901b73ffffffffffffffffffffffffffffffffffffffff168a17907f300100000000000000000000000000000000000000000000000000000000000017611bef565b600860fc88901c1480156108be575060018416155b1561090e575f61064d8633605081901b73ffffffffffffffffffffffffffffffffffffffff168a17907f301100000000000000000000000000000000000000000000000000000000000017611bef565b60fc87901c600903610a8a575f6109328760d08a901c64ffffffffff16888d6132ff565b91975090945090508315610979577f0000000000000000000000000000000000000000000000000000000000000000818161096f5761096f6181de565b048303925061098e565b868181610988576109886181de565b04820391505b855f03610a0c5760a0518664ffffffffff8a60d01c1660801b178860a81b17857f1000000000000000000000000000000000000000000000000000000000000000027f2000000000000000000000000000000000000000000000000000000000000000011760c08201526020810160a05260e0810160405250610a88565b83156001018517945060a0518664ffffffffff8a60d01c1660801b178860a81b17857f1000000000000000000000000000000000000000000000000000000000000000027f4000000000000000000000000000000000000000000000000000000000000000011760c08201526020810160a05260e08101604052505b505b60208801975061030d565b5f821315610b5d576040517f23b872dd000000000000000000000000000000000000000000000000000000008152336004820152306024820152604481018390527f000000000000000000000000000000000000000000000000000000000000000073ffffffffffffffffffffffffffffffffffffffff16906323b872dd906064016020604051808303815f875af1158015610b33573d5f5f3e3d5ffd5b505050506040513d601f19601f82011682018060405250810190610b57919061821b565b50610c1d565b5f821215610c1d576040517fa9059cbb0000000000000000000000000000000000000000000000000000000081523360048201525f83900360248201527f000000000000000000000000000000000000000000000000000000000000000073ffffffffffffffffffffffffffffffffffffffff169063a9059cbb906044016020604051808303815f875af1158015610bf7573d5f5f3e3d5ffd5b505050506040513d601f19601f82011682018060405250810190610c1b919061821b565b505b5f811315610ce5576040517f23b872dd000000000000000000000000000000000000000000000000000000008152336004820152306024820152604481018290527f000000000000000000000000000000000000000000000000000000000000000073ffffffffffffffffffffffffffffffffffffffff16906323b872dd906064016020604051808303815f875af1158015610cbb573d5f5f3e3d5ffd5b505050506040513d601f19601f82011682018060405250810190610cdf919061821b565b50610da5565b5f811215610da5576040517fa9059cbb0000000000000000000000000000000000000000000000000000000081523360048201525f82900360248201527f000000000000000000000000000000000000000000000000000000000000000073ffffffffffffffffffffffffffffffffffffffff169063a9059cbb906044016020604051808303815f875af1158015610d7f573d5f5f3e3d5ffd5b505050506040513d601f19601f82011682018060405250810190610da3919061821b565b505b60a0518015610ddd576020608052337f1c87843c023cd30242ff04316b77102e873496e3d8924ef015475cf066c1d4f4604083016080a25b50600180547dffffffffffffffffffffffffffffffffffffffffffffffffffffffffffff167e01000000000000000000000000000000000000000000000000000000000000178155005b610e2f5f5481565b6040519081526020015b60405180910390f35b610e55610e50366004618287565b61391d565b005b610e2f7f000000000000000000000000000000000000000000000000000000000000000081565b600254610eaa9068010000000000000000900473ffffffffffffffffffffffffffffffffffffffff1681565b60405173ffffffffffffffffffffffffffffffffffffffff9091168152602001610e39565b610ee2610edd366004618311565b613dce565b60408051928352602083019190915201610e39565b610e2f610f05366004618311565b614021565b610e2f610f1836600461832a565b614127565b610e2f610f2b36600461835c565b60036020525f908152604090205481565b600254610f4b9062ffffff1681565b60405162ffffff9091168152602001610e39565b610e2f610f6d366004618311565b60096020525f908152604090205481565b610f91610f8c366004618373565b61460f565b604051610e3994939291906183df565b600254610fb8906601000000000000900460ff1681565b60405160ff9091168152602001610e39565b610fdd610fd8366004618373565b614683565b604051610e39919061841a565b610e2f7f000000000000000000000000000000000000000000000000000000000000000081565b600254610fb890670100000000000000900460ff1681565b610f91611037366004618373565b505f918291506060908190565b610fdd61105236600461835c565b604080516080810182525f808252602082018190529181018290526060810191909152505f90815260056020908152604091829020548251608080820185526fffffffffffffffffffffffffffffffff8316825264ffffffffff9083901c81169382019390935260a882901c83169381019390935260d01c16606082015290565b610e2f6110e1366004618311565b60086020525f908152604090205481565b600254610f4b906301000000900462ffffff1681565b611110614710565b60408051938452602084019290925290820152606001610e39565b61113e611139366004618470565b6147a0565b604051610e3991906184a8565b60015461116f906a0100000000000000000000900469ffffffffffffffffffff1681565b60405169ffffffffffffffffffff9091168152602001610e39565b610eaa61119836600461835c565b60066020525f908152604090205473ffffffffffffffffffffffffffffffffffffffff1681565b610e2f6111cd366004618311565b60076020525f908152604090205481565b610e2f6111ec366004618373565b600460209081525f928352604080842090915290825290205481565b610ee26112163660046184ba565b6147c2565b610eaa7f000000000000000000000000000000000000000000000000000000000000000081565b611255611250366004618545565b614ebc565b604051610e3991906185ff565b60015461116f9069ffffffffffffffffffff1681565b611255611286366004618545565b6162bb565b60015461116f9074010000000000000000000000000000000000000000900469ffffffffffffffffffff1681565b6111106112c7366004618641565b616f8d565b610e2f6112da36600461835c565b60056020525f908152604090205481565b610e2f7f000000000000000000000000000000000000000000000000000000000000000081565b610e2f6113203660046186bb565b61777c565b610eaa7f000000000000000000000000000000000000000000000000000000000000000081565b610eaa7f000000000000000000000000000000000000000000000000000000000000000081565b5f8381526004602090815260408083208584529091528120546fffffffffffffffffffffffffffffffff811691908215806113b95750608081901c64ffffffffff168414155b156113c457506118ca565b5f86815260046020908152604080832088845290915281205560015469ffffffffffffffffffff808216916a010000000000000000000090041681881161140e5760019350611412565b5f93505b5f8881526005602052604090205485900364ffffffffff608082901c168803611479577fffffffffffffffffffffff0000000000ffffffffffffffffffffffffffffffff1674ffffffffff00000000000000000000000000000000605085901c16176115fa565b60a881901c64ffffffffff16880361153c575f89815260046020908152604080832064ffffffffff60a889901c168452909152902080547fff0000000000ffffffffffffffffffffffffffffffffffffffffffffffffffff167effffffffff000000000000000000000000000000000000000000000000000086161790557fffffffffffff0000000000ffffffffffffffffffffffffffffffffffffffffff1679ffffffffff0000000000000000000000000000000000000000008416176115fa565b5f89815260046020908152604080832064ffffffffff60a889901c81168552925280832080547fff0000000000ffffffffffffffffffffffffffffffffffffffffffffffffffff167effffffffff0000000000000000000000000000000000000000000000000000891617905560d087901c9091168252902080547fffffffffffff0000000000ffffffffffffffffffffffffffffffffffffffffff1679ffffffffff00000000000000000000000000000000000000000086161790555b5f8981526005602052604081208290556fffffffffffffffffffffffffffffffff821690036118c5575f61162d8a617c5a565b600881901c5f8181526003602052604090208054600160ff85161b19169081905591925090848c036117685761010083061c5b805f0361168557506001015f81815260036020526040902054600882901b9250611660565b806fffffffffffffffffffffffffffffffff165f036116a6576080928301921c5b8067ffffffffffffffff165f036116bf576040928301921c5b8063ffffffff165f036116d4576020928301921c5b8061ffff165f036116e7576010928301921c5b8060ff165f036116f9576008928301921c5b80600f165f0361170b576004928301921c5b806003165f0361171d576002928301921c5b806001165f0361172e578260010192505b61173783617e14565b6001600a6101000a81548169ffffffffffffffffffff021916908369ffffffffffffffffffff1602179055506118c1565b858c036118c1577fffffffffffffffffffffffffffffffffffffffffffffffffffffffffffffffff600160ff85161b01165b805f036117d757507fffffffffffffffffffffffffffffffffffffffffffffffffffffffffffffffff015f8181526003602052604090205461179a565b600882901b925070010000000000000000000000000000000081106117fe576080928301921c5b680100000000000000008110611816576040928301921c5b640100000000811061182a576020928301921c5b62010000811061183c576010928301921c5b610100811061184d576008928301921c5b6010811061185d576004928301921c5b6004811061186d576002928301921c5b6002811061187c578260010192505b61188583617e14565b600180547fffffffffffffffffffffffffffffffffffffffffffff000000000000000000001669ffffffffffffffffffff929092169190911790555b5050505b505050505b935093915050565b6001545f90819069ffffffffffffffffffff808216916a010000000000000000000090041687156119b857808710158061190a575086155b8061193457507f000000000000000000000000000000000000000000000000000000000000000086105b8061193d575084155b1561194f575f5f935093505050611be6565b8187111561198e57600180547fffffffffffffffffffffffffffffffffffffffffffff000000000000000000001669ffffffffffffffffffff89161790555b7f000000000000000000000000000000000000000000000000000000000000000086029550611ab1565b9486029481871115806119f1575060015474010000000000000000000000000000000000000000900469ffffffffffffffffffff168710155b80611a4a57507f00000000000000000000000000000000000000000000000000000000000000007f00000000000000000000000000000000000000000000000000000000000000008781611a4757611a476181de565b04105b80611a53575084155b15611a65575f5f935093505050611be6565b80871015611ab157600180547fffffffffffffffffffffffff00000000000000000000ffffffffffffffffffff166a010000000000000000000069ffffffffffffffffffff8a16021790555b6fffffffffffffffffffffffffffffffff861115611acd575f5ffd5b5f878152600560205260408120549064ffffffffff608083901c169003611b0257700100000000000000000000000000000000175b806fffffffffffffffffffffffffffffffff165f03611b4b575f611b2589617c5a565b600881901c5f9081526003602052604090208054600160ff9093169290921b9091179055505b5f888152600460209081526040808320600164ffffffffff60d087811c919091169182018087529285528386206002909201811b79ffffffffff00000000000000000000000000000000000000000088161760808d901b178d179091558c8552600590935292209082901b60a883901b1774ffffffffffffffffffffffffffffffffffffffffff909316890192909217909155869450925050505b94509492505050565b5f80808080600f60f887901c1615611c445760025462ffffff167fffffffffffffffffffffffffffffffffffffffffffffffffffffffffffffffff620186a08a0282010181611c4057611c406181de565b0497505b60f486901c600f165f03611cd35760015469ffffffffffffffffffff7401000000000000000000000000000000000000000090910481169088168111611caf5760018103887fffffffffffffffffffffffffffffffffffffffffffff00000000000000000000161797505b50506001546a0100000000000000000000900469ffffffffffffffffffff16611cfe565b8669ffffffffffffffffffff165f03611ced576001870196505b5060015469ffffffffffffffffffff165b5f60606040510190505f8152602081016040525f611d1b83617c5a565b600881901c5f81815260036020526040902054919250905b600f60f88b901c1615611d4857878c11611d4c565b888c115b15612f2757600f60f48b901c1615611d72578a69ffffffffffffffffffff168510611d82565b8a69ffffffffffffffffffff1685115b15611f895760fc8a901c600103611dc5576040517f8199f5f300000000000000000000000000000000000000000000000000000000815260040160405180910390fd5b5f828152600360205260409020548114611dea575f8281526003602052604090208190555b60fc8a901c600203611f8457600f60f48b901c1615611e3f57600180547fffffffffffffffffffffffffffffffffffffffffffff000000000000000000001669ffffffffffffffffffff871617905584611e84565b600180547fffffffffffffffffffffffff00000000000000000000ffffffffffffffffffff166a010000000000000000000069ffffffffffffffffffff881602179055845b50600f60f88b901c1615611f2357600f60f48b901c1615611ee4578a69ffffffffffffffffffff167f0000000000000000000000000000000000000000000000000000000000000000898e030281611ede57611ede6181de565b04611f27565b7f00000000000000000000000000000000000000000000000000000000000000008b69ffffffffffffffffffff16898e030281611ede57611ede6181de565b888c035b73ffffffffffffffffffffffffffffffffffffffff8b165f908152600760205260409020548b9350909150611f7590600f60f485901c16159069ffffffffffffffffffff8e169084906118d2565b9750608081901b969096179590505b612f27565b5f8581526005602052604081205490600f60f88d901c1615611fad57898e03611fb1565b8a8e035b5f8881526005602052604090205490915060801c64ffffffffff168c5b6fffffffffffffffffffffffffffffffff841615801590611fee57508215155b801561200d575060fc81901c600314801561200b5750620186a05a105b155b15612bf3575f89815260046020908152604080832085845282528083205464ffffffffff608082901c16845260069092529091205473ffffffffffffffffffffffffffffffffffffffff16600f60f084901c161580159061209957508273ffffffffffffffffffffffffffffffffffffffff168173ffffffffffffffffffffffffffffffffffffffff16145b156123fc5760f083901c600f1660010361223f575f8b815260046020908152604080832087845290915281208190556fffffffffffffffffffffffffffffffff831690960395600f60f485901c169003612118578a826fffffffffffffffffffffffffffffffff168161210e5761210e6181de565b048c019b5061215f565b7f0000000000000000000000000000000000000000000000000000000000000000826fffffffffffffffffffffffffffffffff1681612159576121596181de565b048c019b505b8073ffffffffffffffffffffffffffffffffffffffff167f1c87843c023cd30242ff04316b77102e873496e3d8924ef015475cf066c1d4f4836fffffffffffffffffffffffffffffffff16608087901b60a88f901b7f30000000000000000000000000000000000000000000000000000000000000001717176040516020016121ea91815260200190565b604080517fffffffffffffffffffffffffffffffffffffffffffffffffffffffffffffffe081840301815290829052612222916184a8565b60405180910390a260d082901c64ffffffffff1693505050611fce565b60f083901c600f16600203612258575f94505050612bf3565b60f083901c600f166003036123fc575f8b815260046020908152604080832087845290915281208190556fffffffffffffffffffffffffffffffff831690960395600f60f485901c1690036122d2578a826fffffffffffffffffffffffffffffffff16816122c8576122c86181de565b048c019b50612319565b7f0000000000000000000000000000000000000000000000000000000000000000826fffffffffffffffffffffffffffffffff1681612313576123136181de565b048c019b505b8073ffffffffffffffffffffffffffffffffffffffff167f1c87843c023cd30242ff04316b77102e873496e3d8924ef015475cf066c1d4f4836fffffffffffffffffffffffffffffffff16608087901b60a88f901b7f30000000000000000000000000000000000000000000000000000000000000001717176040516020016123a491815260200190565b604080517fffffffffffffffffffffffffffffffffffffffffffffffffffffffffffffffe0818403018152908290526123dc916184a8565b60405180910390a260d082901c64ffffffffff1693505f94505050612bf3565b60f483901c600f1660f884901c600f161461242d578a8502826fffffffffffffffffffffffffffffffff1611612465565b7f00000000000000000000000000000000000000000000000000000000000000008502826fffffffffffffffffffffffffffffffff16115b1561276e57600f60f884901c161561247d57846124f4565b600f60f484901c16156124c1577f00000000000000000000000000000000000000000000000000000000000000008b8602816124bb576124bb6181de565b046124f4565b8a7f00000000000000000000000000000000000000000000000000000000000000008602816124f2576124f26181de565b045b909d019c600f60f884901c16156125a957600f60f484901c161561254e578a60018c7f00000000000000000000000000000000000000000000000000000000000000008802010381612548576125486181de565b046125a6565b7f000000000000000000000000000000000000000000000000000000000000000060017f00000000000000000000000000000000000000000000000000000000000000008d88020103816125a4576125a46181de565b045b94505b9d84019d5f600f60f485901c16156125c3578b86026125e7565b7f000000000000000000000000000000000000000000000000000000000000000086025b5f8d81526004602090815260408083208984529091529020938190039384905596879003969050600f60f485901c1615612641577f0000000000000000000000000000000000000000000000000000000000000000612663565b7f00000000000000000000000000000000000000000000000000000000000000005b73ffffffffffffffffffffffffffffffffffffffff166323b872dd600160ec87901c16156126915733612693565b855b6040517fffffffff0000000000000000000000000000000000000000000000000000000060e084901b16815273ffffffffffffffffffffffffffffffffffffffff91821660048201529085166024820152604481018990526064016020604051808303815f875af115801561270a573d5f5f3e3d5ffd5b505050506040513d601f19601f8201168201806040525081019061272e919061821b565b505f95508a51836fffffffffffffffffffffffffffffffff168660801b178d60a81b1760208d01820152602081018c5260408c0181016040525050612bec565b600f60f484901c16156127a2578a826fffffffffffffffffffffffffffffffff168161279c5761279c6181de565b046127e5565b7f0000000000000000000000000000000000000000000000000000000000000000826fffffffffffffffffffffffffffffffff16816127e3576127e36181de565b045b909e019d600f60f484901c161561284e577f00000000000000000000000000000000000000000000000000000000000000008b8c846fffffffffffffffffffffffffffffffff1681612839576128396181de565b040281612848576128486181de565b046128c2565b8a7f00000000000000000000000000000000000000000000000000000000000000007f0000000000000000000000000000000000000000000000000000000000000000846fffffffffffffffffffffffffffffffff16816128b1576128b16181de565b0402816128c0576128c06181de565b045b909d019c6fffffffffffffffffffffffffffffffff821690950394600f60f884901c16156129b257600f60f484901c161561294f577f00000000000000000000000000000000000000000000000000000000000000008b8c846fffffffffffffffffffffffffffffffff168161293a5761293a6181de565b040281612949576129496181de565b04612a23565b8a7f00000000000000000000000000000000000000000000000000000000000000007f0000000000000000000000000000000000000000000000000000000000000000846fffffffffffffffffffffffffffffffff168161293a5761293a6181de565b600f60f484901c16156129e0578a826fffffffffffffffffffffffffffffffff1681612949576129496181de565b7f0000000000000000000000000000000000000000000000000000000000000000826fffffffffffffffffffffffffffffffff1681612a2157612a216181de565b045b909403935f600f60f485901c1615612a3b578b612a5d565b7f00000000000000000000000000000000000000000000000000000000000000005b836fffffffffffffffffffffffffffffffff1681612a7d57612a7d6181de565b049050600f60f485901c1615612ab3577f0000000000000000000000000000000000000000000000000000000000000000612ad5565b7f00000000000000000000000000000000000000000000000000000000000000005b73ffffffffffffffffffffffffffffffffffffffff166323b872dd600160ec87901c1615612b035733612b05565b855b6040517fffffffff0000000000000000000000000000000000000000000000000000000060e084901b16815273ffffffffffffffffffffffffffffffffffffffff91821660048201529085166024820152604481018490526064016020604051808303815f875af1158015612b7c573d5f5f3e3d5ffd5b505050506040513d601f19601f82011682018060405250810190612ba0919061821b565b5050895160a88c901b608086901b17818c016020818101929092529181018c52604091820182525f8d81526004825282812096815295905284209390935564ffffffffff60d082901c16925b5050611fce565b505f88815260056020526040812060809290921b7fffffffffffffffffffffff0000000000ffffffffffffffffffffffffffffffff8516179091556fffffffffffffffffffffffffffffffff83169003612ed15761010085066001901b198316925060f48c901c600f165f03612d785760ff851683901c80158015612c8557505f858152600360205260409020548414155b15612c9b575f8581526003602052604090208490555b5b805f03612cc9575060019093015f81815260036020526040902054600882901b9550909390925082612c9c565b806fffffffffffffffffffffffffffffffff165f03612cea576080958601951c5b8067ffffffffffffffff165f03612d03576040958601951c5b8063ffffffff165f03612d18576020958601951c5b8061ffff165f03612d2b576010958601951c5b8060ff165f03612d3d576008958601951c5b80600f165f03612d4f576004958601951c5b806003165f03612d61576002958601951c5b806001165f03612d72578560010195505b50612ec1565b7fffffffffffffffffffffffffffffffffffffffffffffffffffffffffffffffff600160ff87161b01831680158015612dbe57505f858152600360205260409020548414155b15612dd4575f8581526003602052604090208490555b5b805f03612e1a57507fffffffffffffffffffffffffffffffffffffffffffffffffffffffffffffffff9093015f81815260036020526040902054909390925082612dd5565b600885901b95507001000000000000000000000000000000008110612e41576080958601951c5b680100000000000000008110612e59576040958601951c5b6401000000008110612e6d576020958601951c5b620100008110612e7f576010958601951c5b6101008110612e90576008958601951c5b60108110612ea0576004958601951c5b60048110612eb0576002958601951c5b60028110612ebf578560010195505b505b612eca85617e14565b9650612ef6565b5f848152600360205260409020548314612ef6575f8481526003602052604090208390555b801580612f14575060fc8c901c6003148015612f145750620186a05a105b15612f20575050612f27565b5050611d33565b505050845f146132ed57600254620186a062ffffff90911686020480860360f489901c600f165f0361312e5760508a901c73ffffffffffffffffffffffffffffffffffffffff16612faf5760025468010000000000000000900473ffffffffffffffffffffffffffffffffffffffff165f90815260096020526040902080548201905561306c565b6002545f906064906601000000000000900460ff16830260508d901c73ffffffffffffffffffffffffffffffffffffffff165f90815260096020526040812080549390920492830190915560025491925090606490670100000000000000900460ff16840273ffffffffffffffffffffffffffffffffffffffff8d81165f90815260096020526040808220805495909404948501909355600254680100000000000000009004909116815220805493850391909103909201909155505b836001600a6101000a81548169ffffffffffffffffffff021916908369ffffffffffffffffffff1602179055508251828960801b1760608503528084015160b01c602085015160b01c60801b177f1000000000000000000000000000000000000000000000000000000000000000176040850352606060208503528973ffffffffffffffffffffffffffffffffffffffff167fc3bcf95b5242764f3f2dc3e504ce05823a3b50c4ccef5e660d13beab2f51f2ca6080830160608703a2506132e2565b60508a901c73ffffffffffffffffffffffffffffffffffffffff1661318a5760025468010000000000000000900473ffffffffffffffffffffffffffffffffffffffff165f908152600860205260409020805482019055613247565b6002545f906064906601000000000000900460ff16830260508d901c73ffffffffffffffffffffffffffffffffffffffff165f90815260086020526040812080549390920492830190915560025491925090606490670100000000000000900460ff16840273ffffffffffffffffffffffffffffffffffffffff8d81165f90815260086020526040808220805495909404948501909355600254680100000000000000009004909116815220805493850391909103909201909155505b8360015f6101000a81548169ffffffffffffffffffff021916908369ffffffffffffffffffff1602179055508251828960801b1760608503528084015160b01c602085015160b01c60801b176040850352606060208503528973ffffffffffffffffffffffffffffffffffffffff167fc3bcf95b5242764f3f2dc3e504ce05823a3b50c4ccef5e660d13beab2f51f2ca6080830160608703a2505b5094506132f6915050565b5f5f9550955050505b93509350935093565b5f8481526004602090815260408083208684529091528120548190819064ffffffffff608082901c16851461333a575f5f9350935050613913565b6001546fffffffffffffffffffffffffffffffff82169069ffffffffffffffffffff808216916a0100000000000000000000900416818b116133a457600194507f0000000000000000000000000000000000000000000000000000000000000000890298506133ac565b978a02975f94505b7f00000000000000000000000000000000000000000000000000000000000000007f000000000000000000000000000000000000000000000000000000000000000002890183116138d2575f8b81526004602090815260408083208d845282528083208390558d8352600590915290205483900364ffffffffff608082901c168b03613476577fffffffffffffffffffffff0000000000ffffffffffffffffffffffffffffffff1674ffffffffff00000000000000000000000000000000605086901c16176135f7565b60a881901c64ffffffffff168b03613539575f8c815260046020908152604080832064ffffffffff60a88a901c168452909152902080547fff0000000000ffffffffffffffffffffffffffffffffffffffffffffffffffff167effffffffff000000000000000000000000000000000000000000000000000087161790557fffffffffffff0000000000ffffffffffffffffffffffffffffffffffffffffff1679ffffffffff0000000000000000000000000000000000000000008516176135f7565b5f8c815260046020908152604080832064ffffffffff60a88a901c81168552925280832080547fff0000000000ffffffffffffffffffffffffffffffffffffffffffffffffffff167effffffffff00000000000000000000000000000000000000000000000000008a1617905560d088901c9091168252902080547fffffffffffff0000000000ffffffffffffffffffffffffffffffffffffffffff1679ffffffffff00000000000000000000000000000000000000000087161790555b5f8c81526005602052604081208290556fffffffffffffffffffffffffffffffff821690036138c2575f61362a8d617c5a565b600881901c5f8181526003602052604090208054600160ff85161b19169081905591925090848f036137655761010083061c5b805f0361368257506001015f81815260036020526040902054600882901b925061365d565b806fffffffffffffffffffffffffffffffff165f036136a3576080928301921c5b8067ffffffffffffffff165f036136bc576040928301921c5b8063ffffffff165f036136d1576020928301921c5b8061ffff165f036136e4576010928301921c5b8060ff165f036136f6576008928301921c5b80600f165f03613708576004928301921c5b806003165f0361371a576002928301921c5b806001165f0361372b578260010192505b61373483617e14565b6001600a6101000a81548169ffffffffffffffffffff021916908369ffffffffffffffffffff1602179055506138be565b858f036138be577fffffffffffffffffffffffffffffffffffffffffffffffffffffffffffffffff600160ff85161b01165b805f036137d457507fffffffffffffffffffffffffffffffffffffffffffffffffffffffffffffffff015f81815260036020526040902054613797565b600882901b925070010000000000000000000000000000000081106137fb576080928301921c5b680100000000000000008110613813576040928301921c5b6401000000008110613827576020928301921c5b620100008110613839576010928301921c5b610100811061384a576008928301921c5b6010811061385a576004928301921c5b6004811061386a576002928301921c5b60028110613879578260010192505b61388283617e14565b600180547fffffffffffffffffffffffffffffffffffffffffffff000000000000000000001669ffffffffffffffffffff929092169190911790555b5050505b5f84975097505050505050613913565b50505f8981526004602090815260408083208b8452825280832080548b900390558b8352600590915290208054889003905586900393508592506139139050565b9450945094915050565b60025468010000000000000000900473ffffffffffffffffffffffffffffffffffffffff163314801561395857508362ffffff1662015f9011155b801561396c5750620186a08462ffffff1611155b80156139805750620186a08362ffffff1611155b801561399557508362ffffff168362ffffff16115b80156139ad575060646139a8828461872d565b60ff16105b80156139cf575069ffffffffffffffffffff8669ffffffffffffffffffff1611155b6139d7575f5ffd5b60025473ffffffffffffffffffffffffffffffffffffffff888116680100000000000000009092041614613a5157600280547fffffffff0000000000000000000000000000000000000000ffffffffffffffff166801000000000000000073ffffffffffffffffffffffffffffffffffffffff8a16021790555b60015469ffffffffffffffffffff878116740100000000000000000000000000000000000000009092041614613c0c5760015469ffffffffffffffffffff74010000000000000000000000000000000000000000820481166a01000000000000000000009092041603613b0257600180547fffffffffffffffffffffffff00000000000000000000ffffffffffffffffffff166a010000000000000000000069ffffffffffffffffffff8916021790555b600154613b36906101009074010000000000000000000000000000000000000000900469ffffffffffffffffffff16618746565b6001805474010000000000000000000000000000000000000000900460081c68ffffffffffffffffff165f908152600360205260409020805469ffffffffffffffffffff939093169190911b199091169055613b9461010087618746565b600887901c68ffffffffffffffffff165f908152600360205260409020600169ffffffffffffffffffff92831681901b90915580547fffff00000000000000000000ffffffffffffffffffffffffffffffffffffffff1691881674010000000000000000000000000000000000000000029190911790555b60025462ffffff858116911614613c4d57600280547fffffffffffffffffffffffffffffffffffffffffffffffffffffffffff0000001662ffffff86161790555b60025462ffffff84811663010000009092041614613c9b57600280547fffffffffffffffffffffffffffffffffffffffffffffffffffff000000ffffff16630100000062ffffff8616021790555b60025460ff83811666010000000000009092041614613ceb57600280547fffffffffffffffffffffffffffffffffffffffffffffffffff00ffffffffffff16660100000000000060ff8516021790555b60025460ff8281166701000000000000009092041614613d3d57600280547fffffffffffffffffffffffffffffffffffffffffffffffff00ffffffffffffff1667010000000000000060ff8416021790555b6040805173ffffffffffffffffffffffffffffffffffffffff8916815269ffffffffffffffffffff8816602082015290810186905262ffffff80861660608301528416608082015260ff80841660a0830152821660c082015230907f814522dc40854057a31318978e2d7927546ed2856257904f1c1ef7b8a97a884d9060e00160405180910390a250505050505050565b5f8073ffffffffffffffffffffffffffffffffffffffff8316331480613e2957507f000000000000000000000000000000000000000000000000000000000000000073ffffffffffffffffffffffffffffffffffffffff1633145b613e31575f5ffd5b505073ffffffffffffffffffffffffffffffffffffffff8181165f8181526008602090815260408083208054600990935281842080549185905593909355517fa9059cbb0000000000000000000000000000000000000000000000000000000081526004810193909352602483018190529290917f00000000000000000000000000000000000000000000000000000000000000009091169063a9059cbb906044016020604051808303815f875af1158015613eef573d5f5f3e3d5ffd5b505050506040513d601f19601f82011682018060405250810190613f13919061821b565b506040517fa9059cbb00000000000000000000000000000000000000000000000000000000815273ffffffffffffffffffffffffffffffffffffffff8481166004830152602482018390527f0000000000000000000000000000000000000000000000000000000000000000169063a9059cbb906044016020604051808303815f875af1158015613fa6573d5f5f3e3d5ffd5b505050506040513d601f19601f82011682018060405250810190613fca919061821b565b50604080518381526020810183905273ffffffffffffffffffffffffffffffffffffffff8516917fdacbdde355ba930696a362ea6738feb9f8bd52dfb3d81947558fd3217e23e325910160405180910390a2915091565b5f73ffffffffffffffffffffffffffffffffffffffff821633148061407b57507f000000000000000000000000000000000000000000000000000000000000000073ffffffffffffffffffffffffffffffffffffffff1633145b80156140a9575073ffffffffffffffffffffffffffffffffffffffff82165f90815260076020526040902054155b6140b1575f5ffd5b505f54806140be8161879e565b73ffffffffffffffffffffffffffffffffffffffff9093165f8181526007602090815260408083208790558683526006909152812080547fffffffffffffffffffffffff0000000000000000000000000000000000000000169092179091558390555090919050565b5f73ffffffffffffffffffffffffffffffffffffffff821633148061418157507f000000000000000000000000000000000000000000000000000000000000000073ffffffffffffffffffffffffffffffffffffffff1633145b80156141b45750600180547e01000000000000000000000000000000000000000000000000000000000000900461ffff16145b6141bc575f5ffd5b600180547dffffffffffffffffffffffffffffffffffffffffffffffffffffffffffff167e0200000000000000000000000000000000000000000000000000000000000017905573ffffffffffffffffffffffffffffffffffffffff82165f908152600760205260408120546142359086908690611373565b909250905081156145c0578015614415577f000000000000000000000000000000000000000000000000000000000000000073ffffffffffffffffffffffffffffffffffffffff1663a9059cbb605087901c5f036142935784614295565b335b7f000000000000000000000000000000000000000000000000000000000000000085816142c4576142c46181de565b6040517fffffffff0000000000000000000000000000000000000000000000000000000060e086901b16815273ffffffffffffffffffffffffffffffffffffffff90931660048401520460248201526044016020604051808303815f875af1158015614332573d5f5f3e3d5ffd5b505050506040513d601f19601f82011682018060405250810190614356919061821b565b508273ffffffffffffffffffffffffffffffffffffffff167f1c87843c023cd30242ff04316b77102e873496e3d8924ef015475cf066c1d4f483608087901b60a889901b7f30000000000000000000000000000000000000000000000000000000000000001717176040516020016143d091815260200190565b604080517fffffffffffffffffffffffffffffffffffffffffffffffffffffffffffffffe081840301815290829052614408916184a8565b60405180910390a26145c0565b7f000000000000000000000000000000000000000000000000000000000000000073ffffffffffffffffffffffffffffffffffffffff1663a9059cbb605087901c5f036144625784614464565b335b878581614473576144736181de565b6040517fffffffff0000000000000000000000000000000000000000000000000000000060e086901b16815273ffffffffffffffffffffffffffffffffffffffff90931660048401520460248201526044016020604051808303815f875af11580156144e1573d5f5f3e3d5ffd5b505050506040513d601f19601f82011682018060405250810190614505919061821b565b508273ffffffffffffffffffffffffffffffffffffffff167f1c87843c023cd30242ff04316b77102e873496e3d8924ef015475cf066c1d4f483608087901b60a889901b7f200000000000000000000000000000000000000000000000000000000000000017171760405160200161457f91815260200190565b604080517fffffffffffffffffffffffffffffffffffffffffffffffffffffffffffffffe0818403018152908290526145b7916184a8565b60405180910390a25b50600180547dffffffffffffffffffffffffffffffffffffffffffffffffffffffffffff167e010000000000000000000000000000000000000000000000000000000000001790559392505050565b60015461010060405269ffffffffffffffffffff808216916a01000000000000000000009004166060805f61464681868989617e6e565b506101005161012081016040526146606001858989617e6e565b846080528360a052608060c0528060a00160e052610120810151810160c0016080f35b604080516080810182525f808252602082018190529181018290526060810191909152505f828152600460209081526040808320848452825291829020548251608080820185526fffffffffffffffffffffffffffffffff8316825264ffffffffff9083901c81169382019390935260a882901c83169381019390935260d01c1660608201525b92915050565b60015469ffffffffffffffffffff8082169182916a010000000000000000000082048116915f917401000000000000000000000000000000000000000090910416821461476f5761476182856187d5565b935061476c8161879e565b90505b82156147815761477e8161879e565b90505b8060020361479a57600161479585826187d5565b901c93505b50909192565b606060a06040526147b385858585617e6e565b6020608052604060a051016080f35b5f5f5f8561480d5760025462ffffff167fffffffffffffffffffffffffffffffffffffffffffffffffffffffffffffffff620186a0870282010181614809576148096181de565b0494505b861561486c5760015474010000000000000000000000000000000000000000900469ffffffffffffffffffff16808510614848576001810394505b50506001546a0100000000000000000000900469ffffffffffffffffffff16614889565b835f0361487857600193505b5060015469ffffffffffffffffffff165b600881901c5f818152600360205260409020545b876148aa578387116148ae565b8487115b15614e9a57886148c0578583106148c4565b8583115b156148e7576002548590620186a09062ffffff1686020494509450505050611be6565b5f886148f5578488036148f9565b8588035b5f858152600560205260409020549091506fffffffffffffffffffffffffffffffff168915158b151514614931578482028111614957565b7f0000000000000000000000000000000000000000000000000000000000000000820281115b15614a85578961496757816149d6565b8a6149a3577f00000000000000000000000000000000000000000000000000000000000000008583028161499d5761499d6181de565b046149d6565b847f00000000000000000000000000000000000000000000000000000000000000008302816149d4576149d46181de565b045b8601955089614a7b578a614a2057846001867f00000000000000000000000000000000000000000000000000000000000000008502010381614a1a57614a1a6181de565b04614a78565b7f000000000000000000000000000000000000000000000000000000000000000060017f0000000000000000000000000000000000000000000000000000000000000000878502010381614a7657614a766181de565b045b91505b9501945f90614c72565b8a614a9f57848181614a9957614a996181de565b04614ad0565b7f00000000000000000000000000000000000000000000000000000000000000008181614ace57614ace6181de565b045b870196508a614b1f577f000000000000000000000000000000000000000000000000000000000000000085868381614b0a57614b0a6181de565b040281614b1957614b196181de565b04614b81565b847f00000000000000000000000000000000000000000000000000000000000000007f00000000000000000000000000000000000000000000000000000000000000008381614b7057614b706181de565b040281614b7f57614b7f6181de565b045b8601955089614c26578a614bd5577f000000000000000000000000000000000000000000000000000000000000000085868381614bc057614bc06181de565b040281614bcf57614bcf6181de565b04614c6b565b847f00000000000000000000000000000000000000000000000000000000000000007f00000000000000000000000000000000000000000000000000000000000000008381614bc057614bc06181de565b8a614c3a57848181614bcf57614bcf6181de565b7f00000000000000000000000000000000000000000000000000000000000000008181614c6957614c696181de565b045b90910390505f5b805f03614e8c5761010085066001901b19831692508a15614d715760ff851683901c5b805f03614cc2575060019093015f81815260036020526040902054600882901b9550909390925082614c95565b806fffffffffffffffffffffffffffffffff165f03614ce3576080958601951c5b8067ffffffffffffffff165f03614cfc576040958601951c5b8063ffffffff165f03614d11576020958601951c5b8061ffff165f03614d24576010958601951c5b8060ff165f03614d36576008958601951c5b80600f165f03614d48576004958601951c5b806003165f03614d5a576002958601951c5b806001165f03614d6b578560010195505b50614e93565b7fffffffffffffffffffffffffffffffffffffffffffffffffffffffffffffffff600160ff87161b0183165b805f03614de257507fffffffffffffffffffffffffffffffffffffffffffffffffffffffffffffffff9093015f81815260036020526040902054909390925082614d9d565b600885901b95507001000000000000000000000000000000008110614e09576080958601951c5b680100000000000000008110614e21576040958601951c5b6401000000008110614e35576020958601951c5b620100008110614e47576010958601951c5b6101008110614e58576008958601951c5b60108110614e68576004958601951c5b60048110614e78576002958601951c5b60028110614d6b5785600101955050614e93565b5050614e9a565b505061489d565b6002548590620186a09062ffffff168602049450945050505094509492505050565b606073ffffffffffffffffffffffffffffffffffffffff8316331480614f1757507f000000000000000000000000000000000000000000000000000000000000000073ffffffffffffffffffffffffffffffffffffffff1633145b8015614f4a5750600180547e01000000000000000000000000000000000000000000000000000000000000900461ffff16145b614f52575f5ffd5b600180547dffffffffffffffffffffffffffffffffffffffffffffffffffffffffffff167e020000000000000000000000000000000000000000000000000000000000001790558767ffffffffffffffff811115614fb257614fb26187e8565b604051908082528060200260200182016040528015614fdb578160200160208202803683370190505b50604080515f6020828101828152928401845273ffffffffffffffffffffffffffffffffffffffff88168252600790529182205492935091908080805b8d811015615e4f578e8e8281811061503257615032618815565b905060200201355f036151fe575f5f8e8e8481811061505357615053618815565b9050602002013590505f8d8d8581811061506f5761506f618815565b90506020020135905061508382828a611373565b8b868151811061509557615095618815565b602002602001018195508281525050505f8a85815181106150b8576150b8618815565b602002602001015111156151c457821561511e577f00000000000000000000000000000000000000000000000000000000000000008a85815181106150ff576150ff618815565b602002602001015181615114576151146181de565b048703965061514c565b818a858151811061513157615131618815565b602002602001015181615146576151466181de565b04860395505b88516020850260208c0101518260801b178360a81b17847f1000000000000000000000000000000000000000000000000000000000000000027f2000000000000000000000000000000000000000000000000000000000000000011760208b01820152602081018a5260408a018101604052506151f6565b6040517f080a1c2700000000000000000000000000000000000000000000000000000000815260040160405180910390fd5b505050615e47565b8e8e8281811061521057615210618815565b90506020020135600103615316575f5f8e8e8481811061523257615232618815565b9050602002013590506152606001828f8f8781811061525357615253618815565b905060200201358a6118d2565b8a858151811061527257615272618815565b6020908102919091010152915081156151c4577f000000000000000000000000000000000000000000000000000000000000000082816152b4576152b46181de565b04860195506001841793508751826020850260208c01015160801b8360a81b7f100000000000000000000000000000000000000000000000000000000000000017171760208a01820152602081018952604089018101604052505b5050615e47565b8e8e8281811061532857615328618815565b905060200201356002036153db575f5f8e8e8481811061534a5761534a618815565b90506020020135905061536a5f828f8f8781811061525357615253618815565b8a858151811061537c5761537c618815565b6020908102919091010152915081156151c45780828161539e5761539e6181de565b04850194506002841793508751826020850260208c01015160801b8360a81b171760208a018201526020810189526040890181016040525061530f565b8e8e828181106153ed576153ed618815565b905060200201356003148015615404575060028216155b15615515575f5f8e8e8481811061541d5761541d618815565b9050602002013590506154c68d8d8581811061543b5761543b618815565b6020029190910135905073ffffffffffffffffffff0000000000000000000060508d901b1683177df00000000000000000000000000000000000000000000000000000000000604c8e901b1673ffffffffffffffffffffffffffffffffffffffff8f16177f100100000000000000000000000000000000000000000000000000000000000017611bef565b9091925090508a85815181106154de576154de618815565b602002602001018194508281525050508189848151811061550157615501618815565b602002602001015101850394505050615e47565b8e8e8281811061552757615527618815565b90506020020135600414801561553e575060018216155b1561564f575f5f8e8e8481811061555757615557618815565b9050602002013590506156008d8d8581811061557557615575618815565b6020029190910135905073ffffffffffffffffffff0000000000000000000060508d901b1683177df0000000000000000000000000000000000000000000000000000000000060488e901b1673ffffffffffffffffffffffffffffffffffffffff8f16177f101100000000000000000000000000000000000000000000000000000000000017611bef565b9091925090508a858151811061561857615618618815565b602002602001018194508281525050508189848151811061563b5761563b618815565b602002602001015101860395505050615e47565b8e8e8281811061566157615661618815565b905060200201356005148015615678575060028216155b15615849575f5f8e8e8481811061569157615691618815565b90506020020135905061573a8d8d858181106156af576156af618815565b6020029190910135905073ffffffffffffffffffff0000000000000000000060508d901b1683177df00000000000000000000000000000000000000000000000000000000000604c8e901b1673ffffffffffffffffffffffffffffffffffffffff8f16177f200100000000000000000000000000000000000000000000000000000000000017611bef565b909192508b868151811061575057615750618815565b6020026020010181955082945083815250505050816fffffffffffffffffffffffffffffffff1689848151811061578957615789618815565b602002602001015101850394505f81111561530f575f8f8f858181106157b1576157b1618815565b905060200201359050608083901c92507f000000000000000000000000000000000000000000000000000000000000000083816157f0576157f06181de565b04870196506001851794508851838360801b8360a81b7f100000000000000000000000000000000000000000000000000000000000000017171760208b01820152602081018a5260408a01810160405250505050615e47565b8e8e8281811061585b5761585b618815565b905060200201356006148015615872575060018216155b15615a01575f5f8e8e8481811061588b5761588b618815565b9050602002013590506159348d8d858181106158a9576158a9618815565b6020029190910135905073ffffffffffffffffffff0000000000000000000060508d901b1683177df0000000000000000000000000000000000000000000000000000000000060488e901b1673ffffffffffffffffffffffffffffffffffffffff8f16177f201100000000000000000000000000000000000000000000000000000000000017611bef565b909192508b868151811061594a5761594a618815565b6020026020010181955082945083815250505050816fffffffffffffffffffffffffffffffff1689848151811061598357615983618815565b602002602001015101860395505f81111561530f575f8f8f858181106159ab576159ab618815565b905060200201359050608083901c92508083816159ca576159ca6181de565b04860195506002851794508851838360801b8360a81b171760208b01820152602081018a5260408a01810160405250505050615e47565b8e8e82818110615a1357615a13618815565b905060200201356007148015615a2a575060028216155b15615aec575f5f8e8e84818110615a4357615a43618815565b9050602002013590506154c68d8d85818110615a6157615a61618815565b6020029190910135905073ffffffffffffffffffff0000000000000000000060508d901b1683177df00000000000000000000000000000000000000000000000000000000000604c8e901b1673ffffffffffffffffffffffffffffffffffffffff8f16177f300100000000000000000000000000000000000000000000000000000000000017611bef565b8e8e82818110615afe57615afe618815565b905060200201356008148015615b15575060018216155b15615bd7575f5f8e8e84818110615b2e57615b2e618815565b9050602002013590506156008d8d85818110615b4c57615b4c618815565b6020029190910135905073ffffffffffffffffffff0000000000000000000060508d901b1683177df0000000000000000000000000000000000000000000000000000000000060488e901b1673ffffffffffffffffffffffffffffffffffffffff8f16177f301100000000000000000000000000000000000000000000000000000000000017611bef565b8e8e82818110615be957615be9618815565b90506020020135600903615e47575f5f8c8c84818110615c0b57615c0b618815565b9050602002013590505f8f8f85818110615c2757615c27618815565b602002919091013591505064ffffffffff608082901c16615c4a8282858c6132ff565b8d8881518110615c5c57615c5c618815565b6020908102919091010191909152945092508315615cc6577f00000000000000000000000000000000000000000000000000000000000000008b8681518110615ca757615ca7618815565b602002602001015181615cbc57615cbc6181de565b0488039750615cf4565b818b8681518110615cd957615cd9618815565b602002602001015181615cee57615cee6181de565b04870396505b825f03615d735789516020860260208d0101518260801b178360a81b17857f1000000000000000000000000000000000000000000000000000000000000000027f2000000000000000000000000000000000000000000000000000000000000000011760208c01820152602081018b5260408b01810160405250615e42565b8a8581518110615d8557615d85618815565b60200260200101515f03615dc5576040517f080a1c2700000000000000000000000000000000000000000000000000000000815260040160405180910390fd5b83156001018617955089516020860260208d0101518260801b178360a81b17857f1000000000000000000000000000000000000000000000000000000000000000027f4000000000000000000000000000000000000000000000000000000000000000011760208c01820152602081018b5260408b018101604052505b505050505b600101615018565b505f831315615f4a577f000000000000000000000000000000000000000000000000000000000000000073ffffffffffffffffffffffffffffffffffffffff166323b872dd60a089901c600f16600114615ea95733615eab565b895b6040517fffffffff0000000000000000000000000000000000000000000000000000000060e084901b16815273ffffffffffffffffffffffffffffffffffffffff9091166004820152306024820152604481018690526064016020604051808303815f875af1158015615f20573d5f5f3e3d5ffd5b505050506040513d601f19601f82011682018060405250810190615f44919061821b565b5061603c565b5f83121561603c577f000000000000000000000000000000000000000000000000000000000000000073ffffffffffffffffffffffffffffffffffffffff1663a9059cbb60a889901c600f16600114615fa35733615fa5565b895b6040517fffffffff0000000000000000000000000000000000000000000000000000000060e084901b16815273ffffffffffffffffffffffffffffffffffffffff90911660048201525f86900360248201526044016020604051808303815f875af1158015616016573d5f5f3e3d5ffd5b505050506040513d601f19601f8201168201806040525081019061603a919061821b565b505b5f821315616136577f000000000000000000000000000000000000000000000000000000000000000073ffffffffffffffffffffffffffffffffffffffff166323b872dd60a489901c600f166001146160955733616097565b895b6040517fffffffff0000000000000000000000000000000000000000000000000000000060e084901b16815273ffffffffffffffffffffffffffffffffffffffff9091166004820152306024820152604481018590526064016020604051808303815f875af115801561610c573d5f5f3e3d5ffd5b505050506040513d601f19601f82011682018060405250810190616130919061821b565b50616228565b5f821215616228577f000000000000000000000000000000000000000000000000000000000000000073ffffffffffffffffffffffffffffffffffffffff1663a9059cbb60ac89901c600f1660011461618f5733616191565b895b6040517fffffffff0000000000000000000000000000000000000000000000000000000060e084901b16815273ffffffffffffffffffffffffffffffffffffffff90911660048201525f85900360248201526044016020604051808303815f875af1158015616202573d5f5f3e3d5ffd5b505050506040513d601f19601f82011682018060405250810190616226919061821b565b505b8451801561626257602080870352887f1c87843c023cd30242ff04316b77102e873496e3d8924ef015475cf066c1d4f46040830160208903a25b5050600180547dffffffffffffffffffffffffffffffffffffffffffffffffffffffffffff167e010000000000000000000000000000000000000000000000000000000000001790555050505098975050505050505050565b606073ffffffffffffffffffffffffffffffffffffffff831633148061631657507f000000000000000000000000000000000000000000000000000000000000000073ffffffffffffffffffffffffffffffffffffffff1633145b80156163495750600180547e01000000000000000000000000000000000000000000000000000000000000900461ffff16145b616351575f5ffd5b600180547dffffffffffffffffffffffffffffffffffffffffffffffffffffffffffff167e020000000000000000000000000000000000000000000000000000000000001790558767ffffffffffffffff8111156163b1576163b16187e8565b6040519080825280602002602001820160405280156163da578160200160208202803683370190505b50604080515f6020828101828152928401845273ffffffffffffffffffffffffffffffffffffffff88168252600790529182205492935091908080805b8d811015615e4f578e8e8281811061643157616431618815565b905060200201355f036165c7575f5f8e8e8481811061645257616452618815565b9050602002013590505f8d8d8581811061646e5761646e618815565b90506020020135905061648282828a611373565b8b868151811061649457616494618815565b602002602001018195508281525050505f8a85815181106164b7576164b7618815565b602002602001015111156165bf57821561651d577f00000000000000000000000000000000000000000000000000000000000000008a85815181106164fe576164fe618815565b602002602001015181616513576165136181de565b048703965061654b565b818a858151811061653057616530618815565b602002602001015181616545576165456181de565b04860395505b88516020850260208c0101518260801b178360a81b17847f1000000000000000000000000000000000000000000000000000000000000000027f2000000000000000000000000000000000000000000000000000000000000000011760208b01820152602081018a5260408a018101604052505b505050616f85565b8e8e828181106165d9576165d9618815565b905060200201356001036166d2575f5f8e8e848181106165fb576165fb618815565b90506020020135905061661c6001828f8f8781811061525357615253618815565b8a858151811061662e5761662e618815565b6020908102919091010152915081156166cb577f00000000000000000000000000000000000000000000000000000000000000008281616670576166706181de565b04860195506001841793508751826020850260208c01015160801b8360a81b7f100000000000000000000000000000000000000000000000000000000000000017171760208a01820152602081018952604089018101604052505b5050616f85565b8e8e828181106166e4576166e4618815565b90506020020135600203616799575f5f8e8e8481811061670657616706618815565b9050602002013590506167265f828f8f8781811061525357615253618815565b8a858151811061673857616738618815565b6020908102919091010152915081156166cb5780828161675a5761675a6181de565b04850194506002841793508751826020850260208c01015160801b8360a81b171760208a01820152602081018952604089018101604052505050616f85565b8e8e828181106167ab576167ab618815565b9050602002013560031480156167c2575060028216155b156168d2575f5f8e8e848181106167db576167db618815565b9050602002013590506168838d8d858181106167f9576167f9618815565b6020029190910135905073ffffffffffffffffffff0000000000000000000060508d901b1683177df00000000000000000000000000000000000000000000000000000000000604c8e901b1673ffffffffffffffffffffffffffffffffffffffff8f16177e0100000000000000000000000000000000000000000000000000000000000017611bef565b9091925090508a858151811061689b5761689b618815565b60200260200101819450828152505050818984815181106168be576168be618815565b602002602001015101850394505050616f85565b8e8e828181106168e4576168e4618815565b9050602002013560041480156168fb575060018216155b15616a0b575f5f8e8e8481811061691457616914618815565b9050602002013590506169bc8d8d8581811061693257616932618815565b6020029190910135905073ffffffffffffffffffff0000000000000000000060508d901b1683177df0000000000000000000000000000000000000000000000000000000000060488e901b1673ffffffffffffffffffffffffffffffffffffffff8f16177e1100000000000000000000000000000000000000000000000000000000000017611bef565b9091925090508a85815181106169d4576169d4618815565b60200260200101819450828152505050818984815181106169f7576169f7618815565b602002602001015101860395505050616f85565b8e8e82818110616a1d57616a1d618815565b905060200201356005148015616a34575060028216155b15616b7a575f5f8e8e84818110616a4d57616a4d618815565b905060200201359050616a6b8d8d858181106156af576156af618815565b909192508b8681518110616a8157616a81618815565b6020026020010181955082945083815250505050816fffffffffffffffffffffffffffffffff16898481518110616aba57616aba618815565b602002602001015101850394505f8111156166cb575f8f8f85818110616ae257616ae2618815565b905060200201359050608083901c92507f00000000000000000000000000000000000000000000000000000000000000008381616b2157616b216181de565b04870196506001851794508851838360801b8360a81b7f100000000000000000000000000000000000000000000000000000000000000017171760208b01820152602081018a5260408a01810160405250505050616f85565b8e8e82818110616b8c57616b8c618815565b905060200201356006148015616ba3575060018216155b15616ca7575f5f8e8e84818110616bbc57616bbc618815565b905060200201359050616bda8d8d858181106158a9576158a9618815565b909192508b8681518110616bf057616bf0618815565b6020026020010181955082945083815250505050816fffffffffffffffffffffffffffffffff16898481518110616c2957616c29618815565b602002602001015101860395505f8111156166cb575f8f8f85818110616c5157616c51618815565b905060200201359050608083901c9250808381616c7057616c706181de565b04860195506002851794508851838360801b8360a81b171760208b01820152602081018a5260408a01810160405250505050616f85565b8e8e82818110616cb957616cb9618815565b905060200201356007148015616cd0575060028216155b15616d07575f5f8e8e84818110616ce957616ce9618815565b9050602002013590506168838d8d85818110615a6157615a61618815565b8e8e82818110616d1957616d19618815565b905060200201356008148015616d30575060018216155b15616d67575f5f8e8e84818110616d4957616d49618815565b9050602002013590506169bc8d8d85818110615b4c57615b4c618815565b8e8e82818110616d7957616d79618815565b90506020020135600903616f85575f5f8c8c84818110616d9b57616d9b618815565b9050602002013590505f8f8f85818110616db757616db7618815565b602002919091013591505064ffffffffff608082901c16616dda8282858c6132ff565b8d8881518110616dec57616dec618815565b6020908102919091010191909152945092508315616e56577f00000000000000000000000000000000000000000000000000000000000000008b8681518110616e3757616e37618815565b602002602001015181616e4c57616e4c6181de565b0488039750616e84565b818b8681518110616e6957616e69618815565b602002602001015181616e7e57616e7e6181de565b04870396505b825f03616f035789516020860260208d0101518260801b178360a81b17857f1000000000000000000000000000000000000000000000000000000000000000027f2000000000000000000000000000000000000000000000000000000000000000011760208c01820152602081018b5260408b01810160405250616f80565b83156001018617955089516020860260208d0101518260801b178360a81b17857f1000000000000000000000000000000000000000000000000000000000000000027f4000000000000000000000000000000000000000000000000000000000000000011760208c01820152602081018b5260408b018101604052505b505050505b600101616417565b5f808073ffffffffffffffffffffffffffffffffffffffff8516331480616fe957507f000000000000000000000000000000000000000000000000000000000000000073ffffffffffffffffffffffffffffffffffffffff1633145b801561701c5750600180547e01000000000000000000000000000000000000000000000000000000000000900461ffff16145b617024575f5ffd5b600180547dffffffffffffffffffffffffffffffffffffffffffffffffffffffffffff167e020000000000000000000000000000000000000000000000000000000000001790555f60f08a901b7e0f000000000000000000000000000000000000000000000000000000000000168c6170bc577e100000000000000000000000000000000000000000000000000000000000006170be565b5f5b7effffffffffffffffffffffffffffffffffffffffffffffffffffffffffffff168c61710a577f010000000000000000000000000000000000000000000000000000000000000061710c565b5f5b60fc8c901b17171790507df0000000000000000000000000000000000000000000000000000000000060e48b901b16811773ffffffffffffffffffffffffffffffffffffffff8716175f61717d8a73ffffffffffffffffffff0000000000000000000060508a901b168b1784611bef565b929850909650945090508d801561719757505f608082901c115b1561737e577f000000000000000000000000000000000000000000000000000000000000000073ffffffffffffffffffffffffffffffffffffffff166323b872dd60088e901c5f036171e957896171eb565b335b307f0000000000000000000000000000000000000000000000000000000000000000608086901c8161721f5761721f6181de565b6040517fffffffff0000000000000000000000000000000000000000000000000000000060e087901b16815273ffffffffffffffffffffffffffffffffffffffff9485166004820152939092166024840152900460448201526064016020604051808303815f875af1158015617297573d5f5f3e3d5ffd5b505050506040513d601f19601f820116820180604052508101906172bb919061821b565b508773ffffffffffffffffffffffffffffffffffffffff167f1c87843c023cd30242ff04316b77102e873496e3d8924ef015475cf066c1d4f4608083901c608087901b60a88d901b7f100000000000000000000000000000000000000000000000000000000000000017171760405160200161733991815260200190565b604080517fffffffffffffffffffffffffffffffffffffffffffffffffffffffffffffffe081840301815290829052617371916184a8565b60405180910390a2617524565b608081901c15617524577f000000000000000000000000000000000000000000000000000000000000000073ffffffffffffffffffffffffffffffffffffffff166323b872dd60088e901c5f036173d557896173d7565b335b308c608086901c816173eb576173eb6181de565b6040517fffffffff0000000000000000000000000000000000000000000000000000000060e087901b16815273ffffffffffffffffffffffffffffffffffffffff9485166004820152939092166024840152900460448201526064016020604051808303815f875af1158015617463573d5f5f3e3d5ffd5b505050506040513d601f19601f82011682018060405250810190617487919061821b565b508773ffffffffffffffffffffffffffffffffffffffff167f1c87843c023cd30242ff04316b77102e873496e3d8924ef015475cf066c1d4f4608083901c608087901b60a88d901b17176040516020016174e391815260200190565b604080517fffffffffffffffffffffffffffffffffffffffffffffffffffffffffffffffe08184030181529082905261751b916184a8565b60405180910390a25b6fffffffffffffffffffffffffffffffff1684018d801561754457505f81115b15617634577f000000000000000000000000000000000000000000000000000000000000000073ffffffffffffffffffffffffffffffffffffffff1663a9059cbb60048e901c600f165f03617599578961759b565b335b6040517fffffffff0000000000000000000000000000000000000000000000000000000060e084901b16815273ffffffffffffffffffffffffffffffffffffffff9091166004820152602481018490526044016020604051808303815f875af115801561760a573d5f5f3e3d5ffd5b505050506040513d601f19601f8201168201806040525081019061762e919061821b565b50617721565b8015617721577f000000000000000000000000000000000000000000000000000000000000000073ffffffffffffffffffffffffffffffffffffffff1663a9059cbb60048e901c600f165f0361768a578961768c565b335b6040517fffffffff0000000000000000000000000000000000000000000000000000000060e084901b16815273ffffffffffffffffffffffffffffffffffffffff9091166004820152602481018490526044016020604051808303815f875af11580156176fb573d5f5f3e3d5ffd5b505050506040513d601f19601f8201168201806040525081019061771f919061821b565b505b5050600180547dffffffffffffffffffffffffffffffffffffffffffffffffffffffffffff167e0100000000000000000000000000000000000000000000000000000000000017905550919a90995090975095505050505050565b5f73ffffffffffffffffffffffffffffffffffffffff82163314806177d657507f000000000000000000000000000000000000000000000000000000000000000073ffffffffffffffffffffffffffffffffffffffff1633145b80156178095750600180547e01000000000000000000000000000000000000000000000000000000000000900461ffff16145b617811575f5ffd5b600180547dffffffffffffffffffffffffffffffffffffffffffffffffffffffffffff167e0200000000000000000000000000000000000000000000000000000000000017905573ffffffffffffffffffffffffffffffffffffffff82165f9081526007602052604090205461788c908690869086906118d2565b90935090508215617c0b578415617a77577f000000000000000000000000000000000000000000000000000000000000000073ffffffffffffffffffffffffffffffffffffffff166323b872dd605086901c5f036178ea57836178ec565b335b307f0000000000000000000000000000000000000000000000000000000000000000878161791c5761791c6181de565b6040517fffffffff0000000000000000000000000000000000000000000000000000000060e087901b16815273ffffffffffffffffffffffffffffffffffffffff9485166004820152939092166024840152900460448201526064016020604051808303815f875af1158015617994573d5f5f3e3d5ffd5b505050506040513d601f19601f820116820180604052508101906179b8919061821b565b508173ffffffffffffffffffffffffffffffffffffffff167f1c87843c023cd30242ff04316b77102e873496e3d8924ef015475cf066c1d4f484608084901b60a888901b7f1000000000000000000000000000000000000000000000000000000000000000171717604051602001617a3291815260200190565b604080517fffffffffffffffffffffffffffffffffffffffffffffffffffffffffffffffe081840301815290829052617a6a916184a8565b60405180910390a2617c0b565b7f000000000000000000000000000000000000000000000000000000000000000073ffffffffffffffffffffffffffffffffffffffff166323b872dd605086901c5f03617ac45783617ac6565b335b30878781617ad657617ad66181de565b6040517fffffffff0000000000000000000000000000000000000000000000000000000060e087901b16815273ffffffffffffffffffffffffffffffffffffffff9485166004820152939092166024840152900460448201526064016020604051808303815f875af1158015617b4e573d5f5f3e3d5ffd5b505050506040513d601f19601f82011682018060405250810190617b72919061821b565b508173ffffffffffffffffffffffffffffffffffffffff167f1c87843c023cd30242ff04316b77102e873496e3d8924ef015475cf066c1d4f484608084901b60a888901b1717604051602001617bca91815260200190565b604080517fffffffffffffffffffffffffffffffffffffffffffffffffffffffffffffffe081840301815290829052617c02916184a8565b60405180910390a25b600180547dffffffffffffffffffffffffffffffffffffffffffffffffffffffffffff167e01000000000000000000000000000000000000000000000000000000000000179055949350505050565b5f620186a08211617c69575090565b620f4240821015617c8e57600a820615617c81575f5ffd5b50600a900462015f900190565b62989680821015617cb3576064820615617ca6575f5ffd5b50606490046202bf200190565b6305f5e100821015617cdb576103e8820615617ccd575f5ffd5b506103e8900462041eb00190565b633b9aca00821015617d0357612710820615617cf5575f5ffd5b50612710900462057e400190565b6402540be400821015617d2e57620186a0820615617d1f575f5ffd5b50620186a090046206ddd00190565b64174876e800821015617d5957620f4240820615617d4a575f5ffd5b50620f4240900462083d600190565b64e8d4a51000821015617d845762989680820615617d75575f5ffd5b5062989680900462099cf00190565b6509184e72a000821015617db2576305f5e100820615617da2575f5ffd5b506305f5e1009004620afc800190565b655af3107a4000821015617de057633b9aca00820615617dd0575f5ffd5b50633b9aca009004620c5c100190565b66038d7ea4c680008211617e10576402540be400820615617dff575f5ffd5b506402540be4009004620dbba00190565b5f5ffd5b5f620186a08211617e23575090565b7fffffffffffffffffffffffffffffffffffffffffffffffffffffffffffffd8f0820162015f9081066127100162015f908281617e6257617e626181de565b04600a0a029392505050565b60015474010000000000000000000000000000000000000000900469ffffffffffffffffffff16808410617ea257506181d8565b5f617eac85617c5a565b905085617eb7576001015b600881901c5f81815260036020526040808220549051828152919291838a156180435786898b011115617eea5789870398505b8781101561803e5760ff861683901c5b805f03617f27575060019093015f81815260036020526040902054600882901b9650909390925082617efa565b806fffffffffffffffffffffffffffffffff165f03617f48576080968701961c5b8067ffffffffffffffff165f03617f61576040968701961c5b8063ffffffff165f03617f76576020968701961c5b8061ffff165f03617f89576010968701961c5b8060ff165f03617f9b576008968701961c5b80600f165f03617fad576004968701961c5b806003165f03617fbf576002968701961c5b806001165f03617fd0578660010196505b61010087066001901b1984169350617fe787617e14565b9550898b0186101561803257855f52600560205282516fffffffffffffffffffffffffffffffff60405f2054168760801b176020850182015260208101845250816001019150618038565b506181d0565b50617eea565b6181d0565b8989111561804f578998505b878110156181d0577fffffffffffffffffffffffffffffffffffffffffffffffffffffffffffffffff600160ff88161b0183165b805f036180c857507fffffffffffffffffffffffffffffffffffffffffffffffffffffffffffffffff9093015f81815260036020526040902054909390925082618083565b600885901b965070010000000000000000000000000000000081106180ef576080968701961c5b680100000000000000008110618107576040968701961c5b640100000000811061811b576020968701961c5b62010000811061812d576010968701961c5b610100811061813e576008968701961c5b6010811061814e576004968701961c5b6004811061815e576002968701961c5b6002811061816d578660010196505b61010087066001901b198416935061818487617e14565b9550898b0386111561803257855f52600560205282516fffffffffffffffffffffffffffffffff60405f2054168760801b1760208501820152602081018452508160010191505061804f565b505050505050505b50505050565b7f4e487b71000000000000000000000000000000000000000000000000000000005f52601260045260245ffd5b8015158114618218575f5ffd5b50565b5f6020828403121561822b575f5ffd5b81516182368161820b565b9392505050565b803573ffffffffffffffffffffffffffffffffffffffff81168114618260575f5ffd5b919050565b803562ffffff81168114618260575f5ffd5b803560ff81168114618260575f5ffd5b5f5f5f5f5f5f5f60e0888a03121561829d575f5ffd5b6182a68861823d565b9650602088013569ffffffffffffffffffff811681146182c4575f5ffd5b9550604088013594506182d960608901618265565b93506182e760808901618265565b92506182f560a08901618277565b915061830360c08901618277565b905092959891949750929550565b5f60208284031215618321575f5ffd5b6182368261823d565b5f5f5f6060848603121561833c575f5ffd5b83359250602084013591506183536040850161823d565b90509250925092565b5f6020828403121561836c575f5ffd5b5035919050565b5f5f60408385031215618384575f5ffd5b50508035926020909101359150565b5f81518084528060208401602086015e5f6020828601015260207fffffffffffffffffffffffffffffffffffffffffffffffffffffffffffffffe0601f83011685010191505092915050565b848152836020820152608060408201525f6183fd6080830185618393565b828103606084015261840f8185618393565b979650505050505050565b6080810161470a82846fffffffffffffffffffffffffffffffff815116825264ffffffffff602082015116602083015264ffffffffff604082015116604083015264ffffffffff60608201511660608301525050565b5f5f5f5f60808587031215618483575f5ffd5b843561848e8161820b565b966020860135965060408601359560600135945092505050565b602081525f6182366020830184618393565b5f5f5f5f608085870312156184cd575f5ffd5b84356184d88161820b565b935060208501356184e88161820b565b93969395505050506040820135916060013590565b5f5f83601f84011261850d575f5ffd5b50813567ffffffffffffffff811115618524575f5ffd5b6020830191508360208260051b850101111561853e575f5ffd5b9250929050565b5f5f5f5f5f5f5f5f60a0898b03121561855c575f5ffd5b883567ffffffffffffffff811115618572575f5ffd5b61857e8b828c016184fd565b909950975050602089013567ffffffffffffffff81111561859d575f5ffd5b6185a98b828c016184fd565b909750955050604089013567ffffffffffffffff8111156185c8575f5ffd5b6185d48b828c016184fd565b90955093506185e7905060608a0161823d565b979a9699509497939692959194509192608001359150565b602080825282518282018190525f918401906040840190835b81811015618636578351835260209384019390920191600101618618565b509095945050505050565b5f5f5f5f5f5f5f5f610100898b031215618659575f5ffd5b88356186648161820b565b975060208901356186748161820b565b965060408901359550606089013594506080890135935060a0890135925061869e60c08a0161823d565b91506186ac60e08a0161823d565b90509295985092959890939650565b5f5f5f5f608085870312156186ce575f5ffd5b84356186d98161820b565b935060208501359250604085013591506186f56060860161823d565b905092959194509250565b7f4e487b71000000000000000000000000000000000000000000000000000000005f52601160045260245ffd5b60ff818116838216019081111561470a5761470a618700565b5f69ffffffffffffffffffff831680618786577f4e487b71000000000000000000000000000000000000000000000000000000005f52601260045260245ffd5b8069ffffffffffffffffffff84160691505092915050565b5f7fffffffffffffffffffffffffffffffffffffffffffffffffffffffffffffffff82036187ce576187ce618700565b5060010190565b8082018082111561470a5761470a618700565b7f4e487b71000000000000000000000000000000000000000000000000000000005f52604160045260245ffd5b7f4e487b71000000000000000000000000000000000000000000000000000000005f52603260045260245ffdfea2646970667358221220a3e1ab1e430338b6081b526665c303b31bf6df8ffde2389c93e459609e9cc27064736f6c634300081c0033",
  "linkReferences": {},
  "deployedLinkReferences": {}
}