{
  "_format": "hh-sol-artifact-1",
  "contractName": "TestMarket",
  "sourceName": "contracts/Fees.sol",
  "abi": [
    {
      "inputs": [
        {
          "internalType": "address",
          "name": "_quoteAsset",
          "type": "address"
        },
        {
          "internalType": "address",
          "name": "_baseAsset",
          "type": "address"
        }
      ],
      "stateMutability": "nonpayable",
      "type": "constructor"
    },
    {
      "inputs": [
        {
          "internalType": "address",
          "name": "",
          "type": "address"
        }
      ],
      "name": "addressToUserId",
      "outputs": [
        {
          "internalType": "uint256",
          "name": "",
          "type": "uint256"
        }
      ],
      "stateMutability": "view",
      "type": "function"
    },
    {
      "inputs": [],
      "name": "baseAsset",
      "outputs": [
        {
          "internalType": "contract TestToken",
          "name": "",
          "type": "address"
        }
      ],
      "stateMutability": "view",
      "type": "function"
    },
    {
      "inputs": [],
      "name": "highestBid",
      "outputs": [
        {
          "internalType": "uint80",
          "name": "",
          "type": "uint80"
        }
      ],
      "stateMutability": "view",
      "type": "function"
    },
    {
      "inputs": [],
      "name": "latestUserId",
      "outputs": [
        {
          "internalType": "uint40",
          "name": "",
          "type": "uint40"
        }
      ],
      "stateMutability": "view",
      "type": "function"
    },
    {
      "inputs": [
        {
          "internalType": "bool",
          "name": "isBuy",
          "type": "bool"
        },
        {
          "internalType": "uint80",
          "name": "price",
          "type": "uint80"
        },
        {
          "internalType": "uint256",
          "name": "size",
          "type": "uint256"
        },
        {
          "internalType": "uint40",
          "name": "userId",
          "type": "uint40"
        }
      ],
      "name": "limitOrder",
      "outputs": [
        {
          "internalType": "uint40",
          "name": "id",
          "type": "uint40"
        }
      ],
      "stateMutability": "nonpayable",
      "type": "function"
    },
    {
      "inputs": [],
      "name": "lowestAsk",
      "outputs": [
        {
          "internalType": "uint80",
          "name": "",
          "type": "uint80"
        }
      ],
      "stateMutability": "view",
      "type": "function"
    },
    {
      "inputs": [
        {
          "internalType": "uint8",
          "name": "orderType",
          "type": "uint8"
        },
        {
          "internalType": "uint128",
          "name": "size",
          "type": "uint128"
        }
      ],
      "name": "marketOrder",
      "outputs": [
        {
          "internalType": "uint256",
          "name": "amountIn",
          "type": "uint256"
        },
        {
          "internalType": "uint256",
          "name": "amountOut",
          "type": "uint256"
        },
        {
          "internalType": "uint256",
          "name": "rebate",
          "type": "uint256"
        },
        {
          "internalType": "uint256",
          "name": "feeTaken",
          "type": "uint256"
        }
      ],
      "stateMutability": "nonpayable",
      "type": "function"
    },
    {
      "inputs": [],
      "name": "maxPrice",
      "outputs": [
        {
          "internalType": "uint80",
          "name": "",
          "type": "uint80"
        }
      ],
      "stateMutability": "view",
      "type": "function"
    },
    {
      "inputs": [],
      "name": "minSize",
      "outputs": [
        {
          "internalType": "uint128",
          "name": "",
          "type": "uint128"
        }
      ],
      "stateMutability": "view",
      "type": "function"
    },
    {
      "inputs": [
        {
          "internalType": "uint256",
          "name": "",
          "type": "uint256"
        },
        {
          "internalType": "uint256",
          "name": "",
          "type": "uint256"
        }
      ],
      "name": "orders",
      "outputs": [
        {
          "internalType": "uint128",
          "name": "size",
          "type": "uint128"
        },
        {
          "internalType": "uint40",
          "name": "owner",
          "type": "uint40"
        },
        {
          "internalType": "uint40",
          "name": "fillBefore",
          "type": "uint40"
        },
        {
          "internalType": "uint40",
          "name": "fillAfter",
          "type": "uint40"
        }
      ],
      "stateMutability": "view",
      "type": "function"
    },
    {
      "inputs": [
        {
          "internalType": "uint256",
          "name": "",
          "type": "uint256"
        }
      ],
      "name": "priceLevels",
      "outputs": [
        {
          "internalType": "uint128",
          "name": "size",
          "type": "uint128"
        },
        {
          "internalType": "uint40",
          "name": "fillNext",
          "type": "uint40"
        },
        {
          "internalType": "uint40",
          "name": "latest",
          "type": "uint40"
        }
      ],
      "stateMutability": "view",
      "type": "function"
    },
    {
      "inputs": [],
      "name": "quoteAsset",
      "outputs": [
        {
          "internalType": "contract TestToken",
          "name": "",
          "type": "address"
        }
      ],
      "stateMutability": "view",
      "type": "function"
    },
    {
      "inputs": [
        {
          "internalType": "address",
          "name": "caller",
          "type": "address"
        }
      ],
      "name": "registerUser",
      "outputs": [
        {
          "internalType": "uint256",
          "name": "id",
          "type": "uint256"
        }
      ],
      "stateMutability": "nonpayable",
      "type": "function"
    },
    {
      "inputs": [
        {
          "internalType": "uint256",
          "name": "",
          "type": "uint256"
        }
      ],
      "name": "userIdToAddress",
      "outputs": [
        {
          "internalType": "address",
          "name": "",
          "type": "address"
        }
      ],
      "stateMutability": "view",
      "type": "function"
    }
  ],
  "bytecode": "0x6101006040526298968060c052662386f26fc1000060e0525f80546001600160a01b0319166001600160501b0317905534801561003a575f5ffd5b50604051611cba380380611cba8339810160408190526100599161008b565b6001600160a01b039182166080521660a0526100bc565b80516001600160a01b0381168114610086575f5ffd5b919050565b5f5f6040838503121561009c575f5ffd5b6100a583610070565b91506100b360208401610070565b90509250929050565b60805160a05160c05160e051611b7061014a5f395f81816103930152818161053f01528181610e25015281816116d6015261175c01525f818161011a015281816105ca015261078c01525f818161034901528181610837015281816111c1015261155701525f818161045a015281816106a501528181610ce6015281816110df01526114730152611b705ff3fe608060405234801561000f575f5ffd5b50600436106100e5575f3560e01c8063b94a000f11610088578063d57bde7911610063578063d57bde791461036b578063e38d6b5c1461038e578063ebfb4f4a146103b5578063fdf262b714610455575f5ffd5b8063b94a000f1461023a578063bb85600f14610311578063cdf456e114610344575f5ffd5b8063ae87820a116100c3578063ae87820a1461017e578063b1695201146101ae578063b5ffbbcc14610208578063b8fb2d3f14610227575f5ffd5b80630facece5146100e9578063114b0d95146101155780632199d5cd1461015d575b5f5ffd5b6003546100fa9064ffffffffff1681565b60405164ffffffffff90911681526020015b60405180910390f35b61013c7f000000000000000000000000000000000000000000000000000000000000000081565b6040516fffffffffffffffffffffffffffffffff909116815260200161010c565b61017061016b3660046117ff565b61047c565b60405190815260200161010c565b5f546101939069ffffffffffffffffffff1681565b60405169ffffffffffffffffffff909116815260200161010c565b6101e36101bc366004611839565b60056020525f908152604090205473ffffffffffffffffffffffffffffffffffffffff1681565b60405173ffffffffffffffffffffffffffffffffffffffff909116815260200161010c565b6101706102163660046117ff565b60046020525f908152604090205481565b6100fa610235366004611860565b610514565b6102d16102483660046118c7565b600260209081525f92835260408084209091529082529020546fffffffffffffffffffffffffffffffff81169064ffffffffff7001000000000000000000000000000000008204811691750100000000000000000000000000000000000000000081048216917a0100000000000000000000000000000000000000000000000000009091041684565b604080516fffffffffffffffffffffffffffffffff909516855264ffffffffff93841660208601529183169184019190915216606082015260800161010c565b61032461031f3660046118e7565b610c67565b60408051948552602085019390935291830152606082015260800161010c565b6101e37f000000000000000000000000000000000000000000000000000000000000000081565b5f54610193906a0100000000000000000000900469ffffffffffffffffffff1681565b6101937f000000000000000000000000000000000000000000000000000000000000000081565b61041f6103c3366004611839565b60016020525f90815260409020546fffffffffffffffffffffffffffffffff81169064ffffffffff7001000000000000000000000000000000008204811691750100000000000000000000000000000000000000000090041683565b604080516fffffffffffffffffffffffffffffffff909416845264ffffffffff928316602085015291169082015260600161010c565b6101e37f000000000000000000000000000000000000000000000000000000000000000081565b600380545f919082906104959064ffffffffff16611964565b825464ffffffffff9182166101009390930a838102920219161790915573ffffffffffffffffffffffffffffffffffffffff9092165f8181526004602090815260408083208690558583526005909152902080547fffffffffffffffffffffffff00000000000000000000000000000000000000001690911790555090565b5f64ffffffffff82161580159061053657505f8469ffffffffffffffffffff16115b801561057957507f000000000000000000000000000000000000000000000000000000000000000069ffffffffffffffffffff168469ffffffffffffffffffff16105b610581575f5ffd5b5f5469ffffffffffffffffffff6a0100000000000000000000820481169116861561073f578069ffffffffffffffffffff168669ffffffffffffffffffff161080156105ff57507f00000000000000000000000000000000000000000000000000000000000000006fffffffffffffffffffffffffffffffff168510155b610607575f5ffd5b8169ffffffffffffffffffff168669ffffffffffffffffffff16111561066a575f80547fffffffffffffffffffffffff00000000000000000000ffffffffffffffffffff166a010000000000000000000069ffffffffffffffffffff8916021790555b6040517f23b872dd000000000000000000000000000000000000000000000000000000008152336004820152306024820152604481018690527f000000000000000000000000000000000000000000000000000000000000000073ffffffffffffffffffffffffffffffffffffffff16906323b872dd906064016020604051808303815f875af1158015610700573d5f5f3e3d5ffd5b505050506040513d601f19601f82011682018060405250810190610724919061198a565b50610738683635c9adc5dea00000866119a5565b9450610910565b61075569ffffffffffffffffffff8716866119a5565b94508169ffffffffffffffffffff168669ffffffffffffffffffff161180156107c257506fffffffffffffffffffffffffffffffff7f0000000000000000000000000000000000000000000000000000000000000000166107bf683635c9adc5dea00000876119ef565b10155b6107ca575f5ffd5b8069ffffffffffffffffffff168669ffffffffffffffffffff161015610820575f80547fffffffffffffffffffffffffffffffffffffffffffff000000000000000000001669ffffffffffffffffffff88161790555b73ffffffffffffffffffffffffffffffffffffffff7f0000000000000000000000000000000000000000000000000000000000000000166323b872dd333061087469ffffffffffffffffffff8b168a6119ef565b6040517fffffffff0000000000000000000000000000000000000000000000000000000060e086901b16815273ffffffffffffffffffffffffffffffffffffffff938416600482015292909116602483015260448201526064016020604051808303815f875af11580156108ea573d5f5f3e3d5ffd5b505050506040513d601f19601f8201168201806040525081019061090e919061198a565b505b69ffffffffffffffffffff86165f908152600160209081526040808320815160608101835290546fffffffffffffffffffffffffffffffff8116825264ffffffffff7001000000000000000000000000000000008204811694830185905275010000000000000000000000000000000000000000009091041691810191909152910361099e57600160208201525b6fffffffffffffffffffffffffffffffff8611156109ba575f5ffd5b80516109c7908790611a02565b6fffffffffffffffffffffffffffffffff1681526040810180516109ea90611964565b64ffffffffff90811690915269ffffffffffffffffffff88165f9081526001602090815260408083208551815487850151888501516fffffffffffffffffffffffffffffffff9093167fffffffffffffffffffffff0000000000000000000000000000000000000000009092169190911770010000000000000000000000000000000091881691909102177fffffffffffff0000000000ffffffffffffffffffffffffffffffffffffffffff167501000000000000000000000000000000000000000000828816818102929092179093556002855283862090865290935292205490965004168015610adc5780610ae7565b610ae7600186611a2a565b90506040518060800160405280886fffffffffffffffffffffffffffffffff1681526020018764ffffffffff1681526020018264ffffffffff168152602001866001610b339190611a47565b64ffffffffff90811690915269ffffffffffffffffffff8a165f9081526002602090815260408083208a8516845282529182902084518154928601519386015160609096015185167a010000000000000000000000000000000000000000000000000000027fff0000000000ffffffffffffffffffffffffffffffffffffffffffffffffffff968616750100000000000000000000000000000000000000000002969096167fff00000000000000000000ffffffffffffffffffffffffffffffffffffffffff94909516700100000000000000000000000000000000027fffffffffffffffffffffff0000000000000000000000000000000000000000009093166fffffffffffffffffffffffffffffffff9091161791909117919091169190911791909117905550505050949350505050565b5f808080600f8087161590600488901c1615818015610c835750805b610c9a575f5f5f5f955095509550955050506117f6565b6040517f23b872dd0000000000000000000000000000000000000000000000000000000081523360048201523060248201526fffffffffffffffffffffffffffffffff881660448201527f000000000000000000000000000000000000000000000000000000000000000073ffffffffffffffffffffffffffffffffffffffff16906323b872dd906064016020604051808303815f875af1158015610d41573d5f5f3e3d5ffd5b505050506040513d601f19601f82011682018060405250810190610d65919061198a565b506fffffffffffffffffffffffffffffffff871695505f610d8f683635c9adc5dea00000886119a5565b9050683635c9adc5dea00000620f4240610dab61012c846119a5565b610db591906119ef565b610dbf91906119ef565b9350620f4240610dd161012c82611a64565b610ddb90836119a5565b610de591906119ef565b5f5490915069ffffffffffffffffffff168015801590610e11575069ffffffffffffffffffff81811614155b610e19575f5ffd5b5f82118015610e5f57507f000000000000000000000000000000000000000000000000000000000000000069ffffffffffffffffffff168169ffffffffffffffffffff16105b156116845769ffffffffffffffffffff81165f908152600160205260408120805490916fffffffffffffffffffffffffffffffff9091169003610ead57610ea582611a77565b915050610e19565b8054700100000000000000000000000000000000900464ffffffffff165b64ffffffffff811615801590610ee057505f84115b156116575769ffffffffffffffffffff83165f90815260026020908152604080832064ffffffffff85168452909152812090610f206032620f4240611a64565b8254610f4290620f4240906fffffffffffffffffffffffffffffffff166119a5565b610f4c91906119ef565b905085811115611299575f620f4240610f66603282611a64565b610f7090896119a5565b610f7a91906119ef565b8354909150819084905f90610fa29084906fffffffffffffffffffffffffffffffff16611a9e565b92506101000a8154816fffffffffffffffffffffffffffffffff02191690836fffffffffffffffffffffffffffffffff16021790555080855f015f8282829054906101000a90046fffffffffffffffffffffffffffffffff166110059190611a9e565b92506101000a8154816fffffffffffffffffffffffffffffffff02191690836fffffffffffffffffffffffffffffffff160217905550683635c9adc5dea00000620f424060328961105691906119a5565b61106091906119ef565b61106a91906119ef565b611074908c611ac6565b9a5061108c69ffffffffffffffffffff8716826119ef565b611096908d611ac6565b8354700100000000000000000000000000000000900464ffffffffff165f90815260056020526040902054909c5073ffffffffffffffffffffffffffffffffffffffff908116907f00000000000000000000000000000000000000000000000000000000000000001663a9059cbb82611118683635c9adc5dea000008c6119ef565b6040517fffffffff0000000000000000000000000000000000000000000000000000000060e085901b16815273ffffffffffffffffffffffffffffffffffffffff909216600483015260248201526044016020604051808303815f875af1158015611185573d5f5f3e3d5ffd5b505050506040513d601f19601f820116820180604052508101906111a9919061198a565b5073ffffffffffffffffffffffffffffffffffffffff7f00000000000000000000000000000000000000000000000000000000000000001663a9059cbb336111fd69ffffffffffffffffffff8b16866119ef565b6040517fffffffff0000000000000000000000000000000000000000000000000000000060e085901b16815273ffffffffffffffffffffffffffffffffffffffff909216600483015260248201526044016020604051808303815f875af115801561126a573d5f5f3e3d5ffd5b505050506040513d601f19601f8201168201806040525081019061128e919061198a565b505f97505050611650565b6112a38187611a64565b825485549197506fffffffffffffffffffffffffffffffff9081169186915f916112cf91859116611a9e565b92506101000a8154816fffffffffffffffffffffffffffffffff02191690836fffffffffffffffffffffffffffffffff160217905550683635c9adc5dea00000620f424060328361132091906119a5565b61132a91906119ef565b61133491906119ef565b61133e908b611ac6565b8254909a5061136c9069ffffffffffffffffffff8716906fffffffffffffffffffffffffffffffff16611ad9565b611388906fffffffffffffffffffffffffffffffff168c611ac6565b8254855470010000000000000000000000000000000064ffffffffff7a01000000000000000000000000000000000000000000000000000090930483168181027fffffffffffffffffffffff0000000000ffffffffffffffffffffffffffffffff90931692909217885569ffffffffffffffffffff89165f908152600260209081526040808320998616835298815288822080547fff0000000000000000000000000000000000000000000000000000000000000016905587549290920490931683526005905294902054909b50839073ffffffffffffffffffffffffffffffffffffffff908116907f00000000000000000000000000000000000000000000000000000000000000001663a9059cbb826114ac683635c9adc5dea00000876119ef565b6040517fffffffff0000000000000000000000000000000000000000000000000000000060e085901b16815273ffffffffffffffffffffffffffffffffffffffff909216600483015260248201526044016020604051808303815f875af1158015611519573d5f5f3e3d5ffd5b505050506040513d601f19601f8201168201806040525081019061153d919061198a565b50835473ffffffffffffffffffffffffffffffffffffffff7f0000000000000000000000000000000000000000000000000000000000000000169063a9059cbb9033906115a99069ffffffffffffffffffff8c16906fffffffffffffffffffffffffffffffff16611ad9565b6040517fffffffff0000000000000000000000000000000000000000000000000000000060e085901b16815273ffffffffffffffffffffffffffffffffffffffff90921660048301526fffffffffffffffffffffffffffffffff1660248201526044016020604051808303815f875af1158015611628573d5f5f3e3d5ffd5b505050506040513d601f19601f8201168201806040525081019061164c919061198a565b5050505b5050610ecb565b81546fffffffffffffffffffffffffffffffff165f0361167d5761167a83611a77565b92505b5050610e19565b5f805469ffffffffffffffffffff168152600160205260408120546fffffffffffffffffffffffffffffffff1690036117e7575f80546116d19069ffffffffffffffffffff166001611b18565b90505b7f000000000000000000000000000000000000000000000000000000000000000069ffffffffffffffffffff168169ffffffffffffffffffff16108015611745575069ffffffffffffffffffff81165f908152600160205260409020546fffffffffffffffffffffffffffffffff16155b1561175a5761175381611a77565b90506116d4565b7f000000000000000000000000000000000000000000000000000000000000000069ffffffffffffffffffff168169ffffffffffffffffffff16106117a95769ffffffffffffffffffff6117ab565b805b5f80547fffffffffffffffffffffffffffffffffffffffffffff000000000000000000001669ffffffffffffffffffff92909216919091179055505b81156117f1575f5ffd5b505050505b92959194509250565b5f6020828403121561180f575f5ffd5b813573ffffffffffffffffffffffffffffffffffffffff81168114611832575f5ffd5b9392505050565b5f60208284031215611849575f5ffd5b5035919050565b801515811461185d575f5ffd5b50565b5f5f5f5f60808587031215611873575f5ffd5b843561187e81611850565b9350602085013569ffffffffffffffffffff8116811461189c575f5ffd5b925060408501359150606085013564ffffffffff811681146118bc575f5ffd5b939692955090935050565b5f5f604083850312156118d8575f5ffd5b50508035926020909101359150565b5f5f604083850312156118f8575f5ffd5b823560ff81168114611908575f5ffd5b915060208301356fffffffffffffffffffffffffffffffff8116811461192c575f5ffd5b809150509250929050565b7f4e487b71000000000000000000000000000000000000000000000000000000005f52601160045260245ffd5b5f64ffffffffff821664ffffffffff810361198157611981611937565b60010192915050565b5f6020828403121561199a575f5ffd5b815161183281611850565b80820281158282048414176119bc576119bc611937565b92915050565b7f4e487b71000000000000000000000000000000000000000000000000000000005f52601260045260245ffd5b5f826119fd576119fd6119c2565b500490565b6fffffffffffffffffffffffffffffffff81811683821601908111156119bc576119bc611937565b64ffffffffff82811682821603908111156119bc576119bc611937565b64ffffffffff81811683821601908111156119bc576119bc611937565b818103818111156119bc576119bc611937565b5f69ffffffffffffffffffff821669ffffffffffffffffffff810361198157611981611937565b6fffffffffffffffffffffffffffffffff82811682821603908111156119bc576119bc611937565b808201808211156119bc576119bc611937565b5f6fffffffffffffffffffffffffffffffff831680611afa57611afa6119c2565b806fffffffffffffffffffffffffffffffff84160491505092915050565b69ffffffffffffffffffff81811683821601908111156119bc576119bc61193756fea264697066735822122067a9b17a54bc4ca86e2f74898b89abeae4cbd38b141dc8096d621ef9a4483e9a64736f6c634300081c0033",
  "linkReferences": {},
  "deployedLinkReferences": {}
}